:020000040800F2
:10000000005000203D420008E1080008E308000815
:10001000E5080008E7080008E908000800000000FB
:10002000000000000000000000000000013B00088C
:10003000EB08000800000000A13B0008E53B0008B9
:100040008542000885420008854200088542000874
:100050008542000885420008854200088542000864
:100060008542000885420008854200088542000854
:10007000ED080008FD0800088542000885420008D8
:100080008542000885420008854200088542000834
:100090008542000885420008854200088542000824
:1000A000854200080D0900088542000885420008C5
:1000B0008542000885420008854200088542000804
:1000C00085420008854200088542000885420008F4
:1000D0008542000885420008854200081D09000885
:1000E00085420008854200088542000800000000A3
:1000F0000000000000000000000000000000000000
:0C01000000000000000000005FF808F1A3
:100110000348044B834202D0034B03B11847704796
:10012000D0000020D0000020000000000548064B51
:100130001B1AD90F01EBA301491002D0034B03B1E5
:1001400018477047D0000020D000002000000000B9
:1001500010B5064C237843B9FFF7DAFF044B13B10F
:100160000448AFF300800123237010BDD0000020AD
:100170000000000050E3000808B5044B1BB104491F
:100180000448AFF30080BDE80840CFE7000000005E
:10019000D400002050E300087BB972B90029BEBF2B
:1001A00000204FF0004106E008BF00281CBF6FF0A0
:1001B00000414FF0FF3000F0A7B9ADF1080C6DE938
:1001C00004CE002909DB002B1ADB00F035F8DDF83E
:1001D00004E0DDE9022304B07047404261EB4101D5
:1001E000002B1BDB00F028F8DDF804E0DDE902233A
:1001F00004B0404261EB4101524263EB430370475C
:10020000524263EB430300F017F8DDF804E0DDE948
:10021000022304B0404261EB41017047524263EB5C
:10022000430300F009F8DDF804E0DDE9022304B03F
:10023000524263EB430370472DE9F047089D0E4699
:1002400004468E46002B4CD18A42944667D9B2FAB6
:1002500082F353B102FA03FCC3F1200201FA03FE58
:1002600020FA02F242EA0E0E9C404FEA1C47BEFB07
:10027000F7F11FFA8CF607FB11EE01FB06F0220CDA
:1002800042EA0E4290420AD91CEB020201F1FF3E03
:1002900080F01981904240F2168102396244121AAC
:1002A000B2FBF7F007FB102200FB06F6A4B244EA0B
:1002B0000244A6420AD91CEB040400F1FF3280F08C
:1002C0000481A64240F201816444023840EA0140C0
:1002D0000021A41B1DB1DC400023C5E90043BDE89B
:1002E000F0878B4208D9002D00F0EA800021C5E993
:1002F00000060846BDE8F087B3FA83F1002946D12D
:10030000B34202D3824200F2FA80841A66EB0302FF
:1003100001209646002DE2D0C5E9004EDFE702B984
:10032000FFDEB2FA82F3002B40F08D80881A0121A3
:10033000170C96B2B0FBF7FE07FB1E00220C42EA38
:10034000004206FB0EF0904208D91CEB02020EF1AF
:10035000FF3802D2904200F2CE80C646121AB2FB9B
:10036000F7F007FB102200FB06F6A4B244EA0244B1
:10037000A64208D91CEB040400F1FF3202D2A642C7
:1003800000F2B6801046A41B40EA0E40A2E7C1F17D
:1003900020078B4022FA07FC4CEA030C26FA07FAE6
:1003A0004FEA1C48BAFBF8FE06FA01F308FB1EAA46
:1003B0001FFA8CF620FA07F400FA01F90EFB06F09A
:1003C00023431C0C44EA0A44A04202FA01F20BD96E
:1003D0001CEB04040EF1FF3A80F08880A04240F24A
:1003E0008580AEF1020E6444241A98B2B4FBF8F38F
:1003F00008FB134403FB06F640EA0444A64208D96E
:100400001CEB040403F1FF306CD2A6426AD9023B14
:10041000644443EA0E40A41BA0FB02E6B4427346C8
:10042000B04656D353D0002D6BD0B9EB030264EB2A
:10043000080422FA01F304FA07F71F43CC40C5E988
:10044000007400214BE702FA03FCC3F12000C14015
:100450004FEA1C47B1FBF7FE07FB1E1124FA00F020
:100460009E403043020C1FFA8CF642EA01420EFB1A
:1004700006F1914204FA03F409D91CEB02020EF1D1
:10048000FF3831D291422FD9AEF1020E6244521A96
:10049000B2FBF7F107FB112280B240EA024001FBF8
:1004A00006F2824208D91CEB000001F1FF3817D296
:1004B000824215D902396044801A41EA0E4139E777
:1004C000294628460BE77146E9E61046FEE6F14567
:1004D000A9D2BEEB020366EB0C060138B046A2E7D8
:1004E0004146E9E7034694E7C646D0E7D6467BE7B0
:1004F0006444023847E7AEF1020E62442EE7084634
:1005000008E72946EBE600BF704700BF10F8012B53
:1005100011F8013B012A28BF9A42F7D0D01A704740
:10052000034613F8012B002AFBD1181A0138704733
:1005300008B50268034B9A4200D008BD00F072FA79
:10054000FBE700BF002C014072B6FEE700B591B09A
:100550002822002106A803F0CFFE00230193029376
:10056000039304930593012206924FF4803307937B
:100570000A9202220D920E934FF4E0130F9306A8F5
:1005800000F078FA80B90F23019302210291002331
:1005900003934FF480620492059301A800F0AAFC33
:1005A00020B911B05DF804FBFFF7CEFFFFF7CCFFD9
:1005B00008B500F025FAFFF7C9FF00F00BF800F0CE
:1005C0009DF800F0BDF803F04DF800F087F803F057
:1005D0006BF8FEE782B00A4B9A6942F020029A61FA
:1005E0009A6902F020020092009A9A6942F0080289
:1005F0009A619B6903F008030193019B02B0704765
:100600000010024000B5A5B0274B0193274B009383
:10061000274B284A2849012005F0F8F91FA804F0C3
:10062000CFFF264B1F93264B2093264B2193264B1F
:1006300022931FA804F0D2FF80B302A804F0EEFFBB
:100640000DF1280E0DF1080CBCE80F00AEE80F000C
:10065000DCF80030CEF800300AAB002211460FA8BB
:1006600004F0E8FE0FAB194A194908A804F030FF5E
:1006700005F002FE0246174B08A91EA804F064FF0D
:1006800000231D9300221DA91EA804F0AFFE1D9B90
:1006900001331D930A2003F0A3F8F3E79E210E48CF
:1006A00003F032FEC9E700BFC541000887410008DA
:1006B0007941000861410008240C0020F93F00083E
:1006C000194000083940000879400008FCE30008A0
:1006D0009CE30008A8E3000874E3000808B5044A96
:1006E0000021044803F006F8034B186008BD00BF62
:1006F000C8E3000805060008980B002000B583B089
:100700000E4B5A6942F001025A615B6903F0010322
:100710000193019B002205210C2000F09FFF0C207B
:1007200000F0D4FF002205210D2000F097FF0D20DE
:1007300000F0CCFF03B05DF804FB00BF00100240E6
:1007400008B50A480A4B03604FF4E13343600023C5
:100750008360C36003610C2242618361C36101F065
:10076000BFF900B908BDFFF7EFFEFBE7240C00203E
:100770000048004070B586B00023029303930493B1
:1007800005930268334B9A4201D006B070BD04460F
:1007900003F5E433DA6942F48022DA61DA6902F4BB
:1007A00080220092009A9A6942F008029A619B693D
:1007B00003F008030193019B4FF48063029302232B
:1007C000039303230593244E02A9304600F08CFCCA
:1007D0004FF40063029300250395049502A9304667
:1007E00000F082FC1D481E4B03604560856080233D
:1007F000C36005614561202383614FF44053C361A9
:1008000000F09AFD00BB154BA3635C621548164BC4
:10081000036010234360002383608022C260036171
:10082000436183614FF44053C36100F085FD70B9AB
:100830000C4B63635C6200220521272000F00EFF51
:10084000272000F043FFA0E7FFF77EFEDBE7FFF77E
:100850007BFEEDE700480040000C01409C0B0020AF
:1008600030000240E00B00201C00024001207047D5
:1008700008B503F009FD162303604FF0FF3008BDF3
:1008800008B54FF0FF31FFF7F3FFFEE770B50C46F8
:100890001646002506E0AFF30080214601F8010B63
:1008A00001350C46B542F6DB304670BD70B50C46DE
:1008B0001646002504E014F8010BAFF30080013563
:1008C000B542F8DB304670BD4FF0FF3070474FF453
:1008D00000534B6000207047012070470020704794
:1008E000FEE7FEE7FEE7FEE7FEE7704708B50248D1
:1008F00000F000FE08BD00BFE00B002008B5024874
:1009000000F0F8FD08BD00BF9C0B002008B50248B0
:1009100000F024FF08BD00BF6C0C002008B50248A1
:1009200001F054FA08BD00BF240C002000B583B0CC
:100930000D4B9A6942F001029A619A6902F0010234
:100940000092009ADA6942F08052DA61DB6903F0C2
:1009500080530193019B00220F216FF0010000F0F2
:100960007DFE03B05DF804FB0010024030B589B095
:1009700004461E4B9A6942F400629A619B6903F433
:1009800000630193019B02A903A800F08FFB00F014
:100990007DFB174AA2FB00239B0C013B1548164A1E
:1009A000026040F2E732C26043600023036183606B
:1009B000836100F0CBFF054610B1284609B030BD79
:1009C0000C4800F093FE05460028F6D1192000F0EF
:1009D0007DFE0F2C01D90125EFE7002221461920C9
:1009E00000F03CFE054B1C60E7E700BF0010024032
:1009F00083DE1B436C0C0020002C0140080000200B
:100A000008B5074A136843F010031360032000F091
:100A100013FE0F20FFF7AAFFFFF788FF002008BD95
:100A200000200240034A1168034B1B780B441360FB
:100A3000704700BFB40C002004000020014B186870
:100A4000704700BFB40C002082B0084B1B68084AF6
:100A5000A2FB03235B0A00FB03F3019300BF019B8E
:100A60005A1E0192002BF9D102B070470C000020F1
:100A7000D34D6210002800F0F18170B582B00446B9
:100A8000036813F0010F2CD0994B5B6803F00C0343
:100A9000042B1DD0964B5B6803F00C03082B12D07F
:100AA0006368B3F5803F41D0002B55D103F18043FB
:100AB00003F504331A6822F480321A601A6822F4AB
:100AC00080221A6037E08A4B5B6813F4803FE7D0DE
:100AD000874B1B6813F4003F03D06368002B00F0C2
:100AE000BF81236813F0020F75D0814B5B6813F050
:100AF0000C0F5FD07E4B5B6803F00C03082B54D0C7
:100B00002369002B00F08A807A4B01221A60FFF7DC
:100B100095FF0546764B1B6813F0020F75D1FFF762
:100B20008DFF401B0228F5D903209EE1704A13680F
:100B300043F480331360636843B3FFF77FFF0546D8
:100B40006B4B1B6813F4003FCBD1FFF777FF401BC3
:100B50006428F5D9032088E1B3F5A02F09D0644BB0
:100B60001A6822F480321A601A6822F480221A600D
:100B7000E1E703F18043A3F53C331A6842F4802295
:100B80001A601A6842F480321A60D4E7FFF756FF01
:100B90000546574B1B6813F4003FA2D0FFF74EFFEA
:100BA000401B6428F5D903205FE1514B5B6813F4C7
:100BB000803FA5D14E4B1B6813F0020F03D0236971
:100BC000012B40F04F814A4A136823F0F803616912
:100BD00043EAC1031360236813F0080F33D0A369FD
:100BE000002B5CD0434B0122C3F88024FFF726FF83
:100BF00005463F4B5B6A13F0020F21D1FFF71EFF42
:100C0000401B0228F5D903202FE1394A136823F04D
:100C1000F803616943EAC1031360DCE7354B002246
:100C20001A60FFF70BFF0546314B1B6813F0020FEC
:100C3000D1D0FFF703FF401B0228F5D9032014E1B0
:100C40000120FFF701FF236813F0040F00F09680E6
:100C5000274BDB6913F0805F34D1254BDA6942F012
:100C60008052DA61DB6903F080530193019B012517
:100C7000214B1B6813F4807F26D0E368012B3DD005
:100C8000002B53D103F1804303F504331A6A22F099
:100C900001021A621A6A22F004021A6233E0154B4A
:100CA0000022C3F88024FFF7C9FE0546104B5B6A9B
:100CB00013F0020FC7D0FFF7C1FE401B0228F5D981
:100CC0000320D2E00025D3E70B4A136843F4807376
:100CD0001360FFF7B3FE0646074B1B6813F4807FD3
:100CE000CBD1FFF7ABFE801B6428F5D90320BCE015
:100CF0000010024000004242007000405F4A136A48
:100D000043F001031362E36833B3FFF797FE06462F
:100D10005A4B1B6A13F0020F2FD1FFF78FFE801B77
:100D200041F288339842F3D903209EE0052B09D085
:100D3000524B1A6A22F001021A621A6A22F0040265
:100D40001A62E0E74D4B1A6A42F004021A621A6A0C
:100D500042F001021A62D6E7FFF770FE0646474BE3
:100D60001B6A13F0020F08D0FFF768FE801B41F2E8
:100D700088339842F3D9032077E0E5B9E369002B83
:100D800072D03E4A526802F00C02082A56D0022B5A
:100D900017D03B4B00221A66FFF750FE0446374B34
:100DA0001B6813F0007F47D0FFF748FE001B0228A6
:100DB000F5D9032059E0314AD36923F08053D36138
:100DC000DCE72F4B00221A66FFF738FE05462B4B57
:100DD0001B6813F0007F06D0FFF730FE401B02288F
:100DE000F5D9032041E0236AB3F5803F1AD02349A7
:100DF0004B6823F47413226A606A024313434B6006
:100E00001F4B01221A66FFF719FE04461B4B1B6895
:100E100013F0007F0ED1FFF711FE001B0228F5D959
:100E2000032022E0154A536823F40033A1680B43E2
:100E30005360DCE7002018E0002016E0012B16D0FC
:100E40000E4B5B6803F48031226A914211D103F4A6
:100E50007013626A93420ED1002006E001207047B1
:100E6000012002E0012000E0002002B070BD01205E
:100E7000FBE70120F9E70120F7E700BF001002407F
:100E80000000424286B0174B0FCB0DF1180C0CE955
:100E90000F0040F20123ADF80430134B5B6803F000
:100EA0000C02082A02D0114806B07047C3F38342EF
:100EB00018326A4412F8100C13F4803F0DD00A4B1C
:100EC0005B68C3F3404318336B4413F8143C074A80
:100ED00002FB00F0B0FBF3F0E6E7054B03FB00F08C
:100EE000E2E700BFECE300080010024000127A00C5
:100EF00000093D00002800F0A08070B50D460446B2
:100F0000524B1B6803F007038B420BD24F4A136806
:100F100023F007030B431360136803F007038B42AE
:100F200040F08D80236813F0020F17D013F0040FE8
:100F300004D0474A536843F4E0635360236813F0D6
:100F4000080F04D0424A536843F460535360404A48
:100F5000536823F0F003A1680B435360236813F038
:100F6000010F31D06368012B20D0022B25D0384AE5
:100F7000126812F0020F64D035494A6822F0030269
:100F800013434B60FFF75AFD0646314B5B6803F095
:100F90000C036268B3EB820F16D0FFF74FFD801B86
:100FA00041F288339842F0D9032045E0284A12687C
:100FB00012F4003FE0D101203EE0254A126812F011
:100FC000007FD9D1012037E0204B1B6803F00703D5
:100FD000AB420AD91D4A136823F007032B43136061
:100FE000136803F00703AB422DD1236813F0040FFD
:100FF00006D0174A536823F4E063E1680B4353605B
:10100000236813F0080F07D0114A536823F4605384
:10101000216943EAC1035360FFF734FF0C4B5B685F
:10102000C3F303130B4AD35CD8400B4B18600B4B34
:101030001868FFF79BFC002070BD0120704701205D
:10104000FAE70120F8E70120F6E700BF00200240A0
:101050000010024000E400080C00002008000020FE
:10106000014B1868704700BF0C00002008B5FFF75F
:10107000F7FF044B5B68C3F30223034AD35CD840F9
:1010800008BD00BF0010024010E4000808B5FFF7DB
:10109000E7FF044B5B68C3F3C223034AD35CD84029
:1010A00008BD00BF0010024010E400080F230360D9
:1010B0000B4B5A6802F0030242605A6802F0F002D9
:1010C00082605A6802F4E062C2605B68DB0803F485
:1010D000E0630361034B1B6803F007030B60704779
:1010E000001002400020024070B582B00024A446E7
:1010F000A6E0804DAB4210D007D97F4DAB420CD05B
:1011000005F58035AB4208D013E0A5F58015AB425C
:1011100003D005F57025AB4207D18B68002B58D062
:10112000012B51D04261082403E0A5F58015AB42A4
:10113000F3D0BEF1FF0F4ED80646BEF1FF0F4CD8DC
:101140004FEA8C0233680F25954023EA050304FA21
:1011500002F2134333604B6813F0805F6ED0674B2D
:101160009A6942F001029A619B6903F001030193BD
:10117000019B4FEA9C02951C614B53F825600CF0D3
:101180000305AD000F23AB4026EA03065D4B9842F2
:1011900029D003F58063984200F08E8003F58063C8
:1011A000984200F08B8003F58063984219D00423A5
:1011B0001AE0CC68BDE7CC680434BAE7CC680834E0
:1011C000B7E7CC680C34B4E702610824B1E7002427
:1011D000AFE70424ADE7061DAFE7ACF108029200CB
:1011E000B0E7032300E00023AB4033430232444D19
:1011F00045F822304B6813F4803F61D0424A1368AF
:1012000043EA0E0313604B6813F4003F5ED03E4A7E
:10121000536843EA0E0353604B6813F4801F5BD09E
:10122000394A936843EA0E0393604B6813F4001F36
:1012300058D0354AD36843EA0E03D3600CF1010C51
:101240000B6833FA0CF253D0012202FA0CF203EAD3
:10125000020E32EA0303F1D14B68122B3FF649AF7D
:10126000122B3FF666AF01A555F823F01B110008BD
:10127000B3110008BD110008CF1100083311000898
:10128000331100083311000833110008331100082E
:10129000331100083311000833110008331100081E
:1012A000331100083311000833110008331100080E
:1012B000B7110008C3110008012395E7022393E743
:1012C000114A136823EA0E0313609CE70E4A536821
:1012D00023EA0E0353609FE70B4A936823EA0E0349
:1012E0009360A2E7084AD36823EA0E03D360A5E718
:1012F00002B070BD0000221000003110001002404A
:1013000000000140000801400004014030B4012405
:10131000056CAC40C56B6C60046863604368102B5F
:1013200005D0036899600368DA6030BC70470368D1
:101330009A600368D960F8E760B310B402460168A8
:10134000154B0B441548A0FB03031B099B001364BA
:10135000134BD363022382F82130086820F47F50B6
:1013600020F03000536894682343D4682343146901
:1013700023435469234394692343D4692343034398
:101380000B6000209063012382F8213082F8200056
:1013900010BC704701207047F8FFFDBFCDCCCCCC0E
:1013A0000000024038B5044690F82000012831D0F2
:1013B000012084F8200094F82100012804D00023A3
:1013C00084F82030022038BD022084F8210000205B
:1013D000A0632568286820F0010028602046FFF7F8
:1013E00095FFE36A5BB12268136843F00E03136054
:1013F0002268136843F0010313600020E3E72268CA
:10140000136823F0040313602268136843F00A038F
:101410001360EDE70220D6E7034690F82120022A68
:1014200006D004228263002280F820200120704729
:1014300001680A6822F00E020A6001680A6822F058
:1014400001020A60026CC06B012101FA02F24260E3
:1014500083F82110002083F82000704708B590F829
:101460002130022B03D004238363012008BD0268CE
:10147000136823F00E0313600268136823F001035E
:1014800013600368194A934214D0143293421FD058
:10149000143293421ED0143293421ED0143293421F
:1014A0001ED01432934202D04FF0807203E04FF40A
:1014B000801200E001220E4B5A60012380F8213097
:1014C000002380F82030436B6BB198470020CDE7B4
:1014D0001022F0E74FF48072EDE74FF48052EAE714
:1014E0004FF48032E7E70020C0E700BF0800024069
:1014F0000000024038B5C36B1A6804682568016CA7
:1015000004238B40134235D015F0040F32D02368EA
:1015100013F0200F03D1236823F004032360036832
:10152000434A934214D01432934218D01432934257
:1015300017D01432934217D01432934217D014327A
:10154000934202D04FF0806203E04FF4800200E04B
:101550000422384B5A60C36A03B1984738BD402211
:10156000F7E74FF48062F4E74FF48042F1E74FF47D
:101570008022EEE702238B4013423CD015F0020F8D
:1015800039D0236813F0200F06D1236823F00A0313
:101590002360012380F821300368254A934214D048
:1015A000143293421CD0143293421BD01432934213
:1015B0001BD0143293421BD01432934202D04FF00E
:1015C000007203E04FF4001200E00222194B5A604F
:1015D000002380F82030836A002BBFD09847BDE7F6
:1015E0002022F3E74FF40072F0E74FF40052EDE7EA
:1015F0004FF40032EAE708238B401342AED015F0D7
:10160000080FABD0236823F00E032360026CC16B7C
:10161000012303FA02F24A60836380F82130002339
:1016200080F82030036B002B98D0984796E700BFD6
:101630000800024000000240074AD36823F4E06338
:101640001B041B0C000200F4E060034343F0BF6383
:1016500043F40033D360704700ED00E000B5194B50
:10166000DB68C3F30223C3F1070CBCF1040F28BFEE
:101670004FF0040C03F1040EBEF1060F18D9033B22
:101680004FF0FF3E0EFA0CFC21EA0C0199400EFAD5
:1016900003FE22EA0E020A4300280BDB1201D2B23B
:1016A00000F1604000F5614080F800235DF804FB24
:1016B0000023E5E700F00F001201D2B2024B1A54EA
:1016C000F4E700BF00ED00E014ED00E0002807DBC8
:1016D00000F01F02400901239340024A42F82030E3
:1016E000704700BF00E100E07047000090F83D3017
:1016F000DBB2012B27D1022380F83D300268D3688A
:1017000043F00103D3600368114A934210D0B3F150
:10171000804F0DD0A2F59432934209D002F5806239
:10172000934205D01A6842F001021A600020704707
:101730009A6802F00702062A07D01A6842F00102EE
:101740001A6000207047012070470020704700BFDA
:10175000002C0140704770477047704710B5044631
:1017600003681A6912F0020F11D0DA6812F0020F42
:101770000DD06FF002021A610123037703689B69A1
:1017800013F0030F70D0FFF7E6FF002323772368E1
:101790001A6912F0040F12D0DA6812F0040F0ED09A
:1017A0006FF004021A610223237723689B6913F404
:1017B000407F5FD02046FFF7CEFF002323772368CA
:1017C0001A6912F0080F12D0DA6812F0080F0ED062
:1017D0006FF008021A61042323772368DB6913F092
:1017E000030F4ED02046FFF7B6FF00232377236870
:1017F0001A6912F0100F12D0DA6812F0100F0ED022
:101800006FF010021A61082323772368DB6913F451
:10181000407F3DD02046FFF79EFF002323772368BB
:101820001A6912F0010F03D0DA6812F0010F36D1F5
:1018300023681A6912F0800F03D0DA6812F0800F63
:1018400034D123681A6912F0400F03D0DA6812F01D
:10185000400F32D123681A6912F0200F03D0DA68E2
:1018600012F0200F30D110BDFFF774FF2046FFF7B4
:1018700073FF8AE72046FFF76DFF2046FFF76CFFF6
:101880009BE72046FFF766FF2046FFF765FFACE7C2
:101890002046FFF75FFF2046FFF75EFFBDE76FF0D2
:1018A00001021A612046FEF743FEC1E76FF0800295
:1018B0001A61204600F077F8C3E76FF040021A6122
:1018C0002046FFF74AFFC5E76FF020021A61204665
:1018D00000F068F8C7E7000003681B4A90420AD08E
:1018E000B0F1804F07D0A2F59432904203D002F5B8
:1018F0008062904203D123F070034A681343124A76
:1019000090420AD0B0F1804F07D0A2F594329042B5
:1019100003D002F58062904203D123F44073CA6879
:10192000134323F080034A69134303608B68C36247
:101930000B688362044B984202D0012343617047D5
:101940000B690363F9E700BF002C014040B310B5F9
:10195000044690F83D30F3B1022384F83D3021462F
:1019600051F8040BFFF7B8FF012384F8463084F8E0
:101970003E3084F83F3084F8403084F8413084F8B9
:10198000423084F8433084F8443084F8453084F899
:101990003D30002010BD80F83C30FFF7A5FEDBE7AE
:1019A00001207047704770470268D36823F0C00376
:1019B000D360202380F83D3070470268D36823F459
:1019C0009073D3600268536923F001035361036B82
:1019D000012B05D0202380F83E300023036370479D
:1019E0000268D36823F01003D360F3E790F83D302A
:1019F000DBB2212B01D0022070478368B3F5805FF2
:101A000017D0036A5A1C02621A7803685A60C38CA2
:101A10009BB2013B9BB2C3844BB90268D36823F0ED
:101A20008003D3600268D36843F04003D360002092
:101A300070470369002BE4D1036A1B880268C3F373
:101A400008035360036A02330362E0E710B50446FB
:101A50000268136923F44053C1680B431361836820
:101A60000269134342691A430168CB6823F4B053F7
:101A700023F00C031343CB600268536923F44073D3
:101A800081690B4353610268134B9A4220D0FFF7E0
:101A9000EDFA024602EB820202EB820263689B00CF
:101AA000B2FBF3F20D48A0FB02314909642303FBAA
:101AB00011231B013233A0FB03035B0903F0F00287
:101AC00002EB011203F00F03216813448B6010BD79
:101AD000FFF7DCFA0246DDE7003801401F85EB51D5
:101AE00058B310B5044690F83D300BB3242384F866
:101AF0003D302268D36823F40053D3602046FFF7BB
:101B0000A5FF2268136923F4904313612268536987
:101B100023F02A0353612268D36843F40053D3604F
:101B200000202064202384F83D3084F83E3010BD2E
:101B300080F83C30FEF71EFED8E701207047000019
:101B400038B5134690F83D20D2B2202A30D1044651
:101B500000292FD0002B2FD090F83C20012A2DD027
:101B6000012280F83C2001628384C384002505643F
:101B7000212280F83D20426B11489062626B11482F
:101B8000D062626B10481063626B55632268043246
:101B9000606BFFF707FC23686FF040021A6084F85F
:101BA0003C502268536943F080035361284600E0AB
:101BB000022038BD0120FCE70120FAE70220F8E707
:101BC000331C00087F1C00088F1C000810B5044659
:101BD00001684A6990F83D30DBB2212B0AD02168B8
:101BE0004A6902F0400294F83E30DBB2222B11D059
:101BF000002010BD02F08002002AF0D04B6923F0D3
:101C000080034B61406B08B1FFF706FC2046FFF7ED
:101C1000CBFEE4E7002AEBD04B6923F040034B6195
:101C2000A06B08B1FFF7F8FB2046FFF7C6FEDFE721
:101C3000704708B50346406A1B681B6813F0200F05
:101C40000CD10023C3840268536923F080035361DD
:101C50000268D36843F04003D36008BDFFF7E8FF94
:101C6000FBE708B50168CA6822F04002CA6020227A
:101C700080F83D20FFF7DCFF002008BD704708B565
:101C8000406AFFF7FBFF08BD70477047704710B50B
:101C9000446A23685A6994F83D30DBB2212B10D096
:101CA00023685A6902F0400294F83E30DBB2222BDE
:101CB00011D0236C43F0100323642046FFF7E6FFA6
:101CC00010BD02F08002002AEAD00023E3842046FF
:101CD000FFF76AFEE4E7002AEBD00023E385204605
:101CE000FFF76BFEE5E708B5406A0023C385C384B0
:101CF000FFF7CCFF08BD704790F83E30DBB2222BD7
:101D000060D18368B3F5805F46D0826AB3F5805FA7
:101D100004D0002B4DD10369002B4AD103685B68C6
:101D20001370836A01338362C38D9BB2013B9BB204
:101D3000C385002B48D100B583B00268D36823F077
:101D40002003D3600268D36823F48073D3600268F1
:101D5000536923F001035361202380F83E30036B65
:101D6000012B2CD1002303630268D36823F01003F6
:101D7000D36003681A6812F0100F06D00022019297
:101D80001A6801925B680193019B818DFFF7B3FF95
:101D9000002003B05DF804FB0269002AB5D1826A15
:101DA00003685B68C3F308031380836A02338362AA
:101DB000BAE703685B6803F07F031370B1E7FFF7CE
:101DC00063FFE5E7022070470020704730B583B01D
:101DD000044602681368D068516913F00F0505D1F5
:101DE00013F0200F02D010F0200F19D12DB111F0F7
:101DF000010119D110F4907F16D1216B012975D002
:101E000013F0800F03D010F0800F40F0D78013F054
:101E1000400F03D010F0400F40F0D48003B030BD2D
:101E20002046FFF769FFF9E713F0010F06D010F421
:101E3000807F03D0226C42F00102226413F0040F71
:101E400004D019B1226C42F00202226413F0020F96
:101E500004D019B1226C42F00402226413F0080F7E
:101E600007D010F0200F00D119B1226C42F0080207
:101E70002264226C002AD1D013F0200F02D010F07F
:101E8000200F21D123685B6903F04003226C12F01C
:101E9000080F00D123B32046FFF78FFD23685A694E
:101EA00012F0400F18D05A6922F040025A61A36B19
:101EB00073B1464A5A63A06BFFF7D0FA0028ADD041
:101EC000A06B436B9847A9E72046FFF715FFD9E7BA
:101ED0002046FFF7DBFEA1E72046FFF7D7FE9DE790
:101EE0002046FFF7D3FE0023236497E713F0100F7B
:101EF00086D010F0100F83D0002301931368019354
:101F000053680193019B536913F0400F32D0A16BCA
:101F10000B685B689BB2002B80D0A08D98427FF647
:101F20007DAFE3858B69202B08D1A18DE38D9BB21A
:101F3000C91A89B22046FFF7DEFE6FE7D36823F4A3
:101F40008073D3602268536923F0010353612268D0
:101F5000536923F040035361202384F83E3000236B
:101F600023632268D36823F01003D360A06BFFF7CC
:101F700053FADAE7A38DE18D89B25B1A99B2E38D4A
:101F80009BB2002B3FF44AAF00293FF447AFD36820
:101F900023F49073D3602268536923F001035361E3
:101FA000202384F83E30002323632268D36823F083
:101FB0001003D3602046FFF79EFE2FE72046FFF771
:101FC00015FD2BE72046FFF74CFE27E7E71C00082E
:101FD00008B5406A036B012B02D0FFF756FE08BD1F
:101FE000818D4908FFF787FEF9E708B50346406A87
:101FF0001B681B6813F0200F16D10023C3850268ED
:10200000D36823F48073D3600268536923F001031B
:1020100053610268536923F040035361202380F821
:102020003E30036B012B05D0036B012B08D0FFF76B
:102030002BFE08BD0268D36823F01003D360F3E7DA
:10204000818DFFF758FEF4E730B583B004461346A0
:102050008162828500250564222280F83E20826B01
:1020600014489062A26B1448D062A26B13481063AC
:10207000A26B556320680A46011DA06BFFF792F919
:10208000019523681A6801925A680192019A84F8AE
:102090003C50DA6842F48072DA602268536943F097
:1020A000010353612268536943F04003536128469A
:1020B00003B030BDEB1F0008D11F00088F1C0008C3
:1020C00008B590F83E30DBB2202B0DD171B17AB15A
:1020D00090F83C30012B0DD0012380F83C300023D8
:1020E0000363FFF7B1FF00E0022008BD0120FCE719
:1020F0000120FAE70220F8E7704700F10803436087
:102100004FF0FF328260C3600361002303607047B9
:1021100000230361704743684B609A688A6051608E
:1021200099600861036801330360704730B40D683B
:10213000B5F1FF3F11D000F108031C465B681A6837
:10214000AA42FAD963684B6099608C60616008614B
:1021500003680133036030BC70470469F2E7036928
:10216000416882688A60416851605A68824206D03C
:10217000002202611A68013A1A6018687047826882
:102180005A60F5E710B5044601F0CCFCA26BE36B96
:102190009A4204D0002401F0E7FC204610BD01243F
:1021A000F9E710B5044601F0BDFCA36B23B9012487
:1021B00001F0DAFC204610BD0024F9E770B50446B2
:1021C0001546866B026C5AB903681BB100200136B4
:1021D000A66370BD406800F0E5FF00236360F6E78A
:1021E0006DB9806802F07AF8226CA3681344A3608A
:1021F0006268934219D32368A3602846E7E7C06862
:1022000002F06CF8226C5142E3689B1AE36022688A
:10221000934202D263680B44E360022D01D0002098
:10222000D5E726B1013E0020D1E72846CFE70020C0
:10223000CDE708B50346026C62B10846D96811447F
:10224000D960D3F804C0614501D31968D960D96851
:1022500002F044F808BD38B5054601F063FC95F876
:10226000454064B201E0013C64B2002C0ADD6B6AB7
:1022700043B105F1240000F0CFFE0028F3D000F0B8
:102280007BFFF0E7FF2385F8453001F06DFC01F09E
:1022900049FC95F8444064B201E0013C64B2002C72
:1022A0000ADD2B6943B105F1100000F0B5FE0028EE
:1022B000F3D000F061FFF0E7FF2385F8443001F030
:1022C00053FC38BD38B5E0B10D46044601F02AFC98
:1022D0002368E26B216C01FB023060600020A06388
:1022E000A360013A02FB0133E360FF2384F844302A
:1022F00084F84530FDB9236963B901F035FC01204C
:1023000038BD4FF0500383F31188BFF36F8FBFF3D5
:102310004F8FFEE704F1100000F07EFE0028ECD0A5
:102320004FF0E0234FF08052C3F8042DBFF34F8FDE
:10233000BFF36F8FE1E704F11000FFF7DEFE04F159
:102340002400FFF7DAFED8E738B51D46049C0B469B
:1023500049B92460E063236401212046FFF7B2FFFE
:1023600084F84C5038BD2260F4E740B94FF0500378
:1023700083F31188BFF36F8FBFF34F8FFEE710B564
:1023800084B01C46844653B192B189B94FF05003D2
:1023900083F31188BFF36F8FBFF34F8FFEE74FF0CA
:1023A000500383F31188BFF36F8FBFF34F8FFEE7A6
:1023B0006AB150230393039B502B13D04FF050036B
:1023C00083F31188BFF36F8FBFF34F8FFEE70029B0
:1023D000EFD04FF0500383F31188BFF36F8FBFF33B
:1023E0004F8FFEE7012384F8463000949DF81830A3
:1023F0006046FFF7A9FF204604B010BDF0B585B0D8
:10240000019288B10F461D460446B1B1022D20D17C
:10241000E36B012B1DD04FF0500383F31188BFF302
:102420006F8FBFF34F8FFEE74FF0500383F3118898
:10243000BFF36F8FBFF34F8FFEE7036C002BE5D028
:102440004FF0500383F31188BFF36F8FBFF34F8FAB
:10245000FEE700F097FE064658B9019B002B48D0D6
:102460004FF0500383F31188BFF36F8FBFF34F8F8B
:10247000FEE700263DE02A4639462046FFF79EFE4D
:10248000636A7BB948B14FF0E0234FF08052C3F844
:10249000042DBFF34F8FBFF36F8F01F065FB012059
:1024A00005B0F0BD04F1240000F0B6FD0028F4D022
:1024B0004FF0E0234FF08052C3F8042DBFF34F8F4D
:1024C000BFF36F8FE9E701F04FFB0020E8E702A8B8
:1024D00000F004FE012619E0002384F8443021E0D6
:1024E000002384F8453023E02046FFF7B4FE00F0D7
:1024F00073FC01F017FBA26BE36B9A42BBD3022D76
:10250000B9D0019B002BDED0002EE0D001F02CFBD7
:1025100000F0C8FB01F006FB94F8442052B2B2F17F
:10252000FF3FD9D094F8452052B2B2F1FF3FD7D047
:1025300001F01AFB01A902A800F0DCFDD8B9204681
:10254000FFF720FE0028CFD0019904F1100000F021
:102550002FFD2046FFF77FFE00F03EFC0028C8D18B
:102560004FF0E0234FF08052C3F8042DBFF34F8F9C
:10257000BFF36F8FBDE72046FFF76DFE00F02CFC28
:1025800000208DE72DE9F84390B10F4616461C4612
:102590000546B1B1022C20D1EB6B012B1DD04FF0C1
:1025A000500383F31188BFF36F8FBFF34F8FFEE7A4
:1025B0004FF0500383F31188BFF36F8FBFF34F8F3A
:1025C000FEE7036C002BE5D04FF0500383F3118836
:1025D000BFF36F8FBFF34F8FFEE701F08DFBEFF37B
:1025E00011884FF0500383F31188BFF36F8FBFF34F
:1025F0004F8FAA6BEB6B9A4206D3022C04D00020BB
:1026000088F31188BDE8F88395F845904FFA89F969
:10261000224639462846FFF7D1FDB9F1FF3F06D0E3
:1026200009F101035BB285F845300120E8E76B6AE8
:102630000BB90120E4E705F1240000F0EDFC18B12E
:1026400026B101203060DBE70120D9E70120D7E780
:10265000F0B585B0019290B10F460446C1B100F0CB
:1026600091FD064600BB019B002B5ED04FF050034E
:1026700083F31188BFF36F8FBFF34F8FFEE74FF0E7
:10268000500383F31188BFF36F8FBFF34F8FFEE7C3
:10269000036C002BE3D04FF0500383F31188BFF39A
:1026A0006F8FBFF34F8FFEE700263EE0394620468E
:1026B000FFF7BFFD013DA563236923B901F054FA7B
:1026C000012005B0F0BD04F1100000F0A5FC0028C9
:1026D000F4D04FF0E0234FF08052C3F8042DBFF345
:1026E0004F8FBFF36F8FE9E701F03EFA0020E8E774
:1026F00002A800F0F3FC012621E0002384F8443016
:1027000029E0002384F845302BE02046FFF7A3FDA5
:1027100000F062FB09E02046FFF79DFD00F05CFB46
:102720002046FFF73EFD00283FD101F0FBF9A56BE5
:10273000002DBBD1019B002BD6D0002ED8D001F0AC
:1027400013FA00F0AFFA01F0EDF994F844305BB2FF
:10275000B3F1FF3FD1D094F845305BB2B3F1FF3F06
:10276000CFD001F001FA01A902A800F0C3FC0028B3
:10277000D1D12046FFF715FD0028C6D0019904F1FC
:10278000240000F015FC2046FFF765FD00F024FB57
:102790000028CAD14FF0E0234FF08052C3F8042D37
:1027A000BFF34F8FBFF36F8FBFE7002089E70000B3
:1027B0000023072B0CD8074A52F833200AB1013303
:1027C000F7E7044A42F8331002EBC3025060704747
:1027D000704700BFB80C002070B504460D46164681
:1027E00001F0A0F994F844305BB2B3F1FF3F0DD093
:1027F00094F845305BB2B3F1FF3F0BD001F0B4F970
:10280000A36B5BB12046FFF726FD70BD002384F863
:102810004430EDE7002384F84530EFE7324629469F
:1028200004F1240000F0DCFBECE70000084B1B681F
:102830001B6823B9074B4FF0FF321A607047044BF7
:102840001B68DB68DB685A68024B1A60704700BF80
:10285000FC0C0020A81100202DE9F04780460D4611
:1028600017469946089EDDF824A00A9C9200A521EF
:10287000206B01F041FD236B07F18042013A03EB2D
:10288000820727F007074FF0000CBCF10F0F09D8A3
:1028900015F80C3004EB0C0282F8343013B10CF153
:1028A000010CF2E7002384F84330372E00D9372695
:1028B000E662E66400252565201DFFF729FC04F18A
:1028C0001800FFF725FC2461C6F13806A661646292
:1028D000656584F858504A464146384601F0FCF890
:1028E0002060BAF1000F01D0CAF80040BDE8F087BF
:1028F00038B5002407E004EB840293000E48184426
:10290000FFF7FBFB0134372CF5D90C4D2846FFF7B8
:10291000F4FB0B4C2046FFF7F0FB0A48FFF7EDFBFA
:102920000948FFF7EAFB0948FFF7E7FB084B1D6082
:10293000084B1C6038BD00BF040D00207C11002036
:1029400090110020B0110020DC110020C8110020DF
:10295000FC0C0020000D002010B5044601F0E2F848
:10296000224A136801331360214B1B685BB1214B72
:102970001B686BB91E4B1B68DA6AE36A9A4207D878
:102980001B4B1C6004E01A4B1C601368012B29D000
:10299000194A1368013313606364E06A174B1B68BC
:1029A000984201D9154B186000EB8000211D144B93
:1029B00003EB8000FFF7AFFB01F0D6F80D4B1B686F
:1029C0007BB10B4B1B68DA6AE36A9A4209D24FF07B
:1029D000E0234FF08052C3F8042DBFF34F8FBFF3B5
:1029E0006F8F10BDFFF784FFD2E700BF6411002096
:1029F000F80C0020C4110020741100207811002070
:102A0000040D002010B5044690F8593063B1012B35
:102A100011D0022B0ED04FF0500383F31188BFF377
:102A20006F8FBFF34F8FFEE7006B00F0EDFF204686
:102A300000F0EAFF10BD00F0E7FFFBE70F4B1B685B
:102A4000D3B110B501F06EF80D4BDB68DC68201DCA
:102A5000FFF785FB0B4A1368013B1360074A1368B5
:102A6000013B136001F080F82046FFF7CBFF034BDA
:102A70001B68002BE6D110BD704700BF6811002015
:102A8000DC1100206411002008B5FFF7D7FF074BC9
:102A90001B68012BF9D94FF0E0234FF08052C3F8A7
:102AA000042DBFF34F8FBFF36F8FEEE7040D0020AF
:102AB00070B504460D46174B1E68174B1868043056
:102AC000FFF74DFBB4F1FF3F0DD03444124B1B68B0
:102AD0005C60A64210D9114B18680F4B196804317D
:102AE000FFF724FB70BD002DEFD00B4B19680431AC
:102AF0000B48FFF710FBF5E70A4B1868064B1968FF
:102B00000431FFF713FB084B1B68A342EAD9064BBD
:102B10001C60E7E7F0110020F80C0020000D0020F9
:102B2000C8110020FC0C0020A811002030B587B08F
:102B30000B9C7CB10C9DB5B15C250495049D5C2D6E
:102B40001AD04FF0500383F31188BFF36F8FBFF398
:102B50004F8FFEE74FF0500383F31188BFF36F8F61
:102B6000BFF34F8FFEE74FF0500383F31188BFF39D
:102B70006F8FBFF34F8FFEE70C9D2C63022485F807
:102B8000594000240394029505AC01940A9C0094DA
:102B9000FFF762FE0C98FFF7DFFE059807B030BD27
:102BA0002DE9F04385B00746884614461E4690003E
:102BB00000F0B2FE00B381465C2000F0ADFE054699
:102BC000B0B1C0F83090E5B1002385F859300393D7
:102BD00002950D9B01930C9B009333462246414680
:102BE0003846FFF739FE2846FFF7B6FE012005E01C
:102BF000484600F009FFE6E74FF0FF3005B0BDE8BA
:102C0000F0834FF0FF30F9E710B588B00024059449
:102C1000069407AA06A905A800F004FE059B0293E6
:102C2000069B019300942346079A18491848FFF71A
:102C30007DFF184B186040B100F068FB012806D0FA
:102C4000B0F1FF3F18D008B010BD0020F6E74FF0FC
:102C5000500383F31188BFF36F8FBFF34F8F0E4B79
:102C60004FF0FF321A600D4B01221A600C4B00220C
:102C70001A6000F0E1FFE6E74FF0500383F311889C
:102C8000BFF36F8FBFF34F8FFEE700BF18E400085C
:102C9000892A0008A4110020A8110020C4110020D6
:102CA000F0110020024A136801331360704700BF1F
:102CB00070110020014B1868704700BFF011002010
:102CC000F8B53A4B1B68002B64D1394B1D680135B0
:102CD0001D60C5B9374B1B681B6843B14FF05003EB
:102CE00083F31188BFF36F8FBFF34F8FFEE7314A35
:102CF0001168314B186810601960304A136801334D
:102D00001360FFF793FD2E4B1B68AB4238D90027A9
:102D10002C4B1B68DB6A03EB83039A002A4B9B58FE
:102D2000012B3CD901273AE00127224B1B681B6885
:102D300043B3204B1B68DB68DC6863689D4226D385
:102D4000261D3046FFF70BFAA36A1BB104F11800E9
:102D5000FFF705FAE36A1D4A1268934201D91B4A3C
:102D6000136003EB83039A00314617481044FFF7C2
:102D7000D2F9E26A134B1B68DB6A9A42D4D2D4E7D9
:102D80000027D2E70E4B4FF0FF321A60C0E70C4A23
:102D90001360BDE70E4A13680133136000270D4B23
:102DA0001B6803B101273846F8BD00BF7011002031
:102DB000F0110020FC0C0020000D0020AC110020C0
:102DC000A8110020F80C0020040D0020781100202C
:102DD0006C110020F411002038B5354B1B6843B945
:102DE0004FF0500383F31188BFF36F8FBFF34F8F02
:102DF000FEE700F097FE2E4B1A68013A1A601B6836
:102E0000002B4FD12B4B1B680BB900244BE0002447
:102E1000294B1B681BB3284BDB68DC6804F11800E6
:102E2000FFF79DF9251D2846FFF799F9E06A234B26
:102E30001B68984201D9214B186000EB800029469D
:102E40001F4B03EB8000FFF766F9E26A1D4B1B681E
:102E5000DB6A9A42DCD31C4B01221A60D8E70CB122
:102E6000FFF7E4FC194B1C6884B9174B1C68D4B1FC
:102E70004FF0E0234FF08052C3F8042DBFF34F8F83
:102E8000BFF36F8F01240EE0013C07D0FFF718FF5E
:102E90000028F9D00C4B01221A60F5E70B4B0022F9
:102EA0001A60E2E7002400F05FFE204638BD00BF54
:102EB0007011002064110020B01100207811002052
:102EC000040D0020F80C0020F41100206C110020EB
:102ED00010B5A8B10446104B1B6843B14FF0500326
:102EE00083F31188BFF36F8FBFF34F8FFEE7FFF7B8
:102EF000D9FE00212046FFF7DBFDFFF76DFF48B943
:102F00004FF0E0234FF08052C3F8042DBFF34F8FF2
:102F1000BFF36F8F10BD00BF701100201F4B1B68E7
:102F20001BB11F4B01221A6070471D4B00221A6013
:102F30001C4B1B6803EB83018A001B498A585AB952
:102F40000BB1013BF6E74FF0500383F31188BFF359
:102F50006F8FBFF34F8FFEE703EB830082000A44BD
:102F600050684068506003EB830C4FEA8C020832D3
:102F7000114488420BD003EB830291000A4A0A44B1
:102F80005268D168094A1160064A13607047406868
:102F900062469100044A0A445060ECE77011002038
:102FA000F411002078110020040D0020F80C0020FE
:102FB00058B110B50C46094A11681831FFF7B6F838
:102FC00001212046FFF774FD10BD4FF0500383F33D
:102FD0001188BFF36F8FBFF34F8FFEE7F80C00200F
:102FE00038B570B10D4614460A4A11681831FFF71A
:102FF00092F80CB14FF0FF3521462846FFF758FDF7
:1030000038BD4FF0500383F31188BFF36F8FBFF3C8
:103010004F8FFEE7F80C002038B5C368DC6824B396
:1030200004F118052846FFF79AF8184B1B682BBBCC
:10303000251D2846FFF793F8E06A154B1B68984258
:1030400001D9134B186000EB80002946114B03EBAC
:103050008000FFF760F8E26A0F4B1B68DB6A9A4258
:1030600011D901200D4B186038BD4FF0500383F388
:103070001188BFF36F8FBFF34F8FFEE729460848D3
:10308000FFF749F8E7E70020EEE700BF70110020E6
:1030900078110020040D0020F80C0020F41100200D
:1030A000B011002060B110B5044600F03BFD094BA3
:1030B0001B682360084B1B68636000F055FD10BD62
:1030C0004FF0500383F31188BFF36F8FBFF34F8F1F
:1030D000FEE700BFAC110020F0110020034B1B687D
:1030E0000360034B1B684360704700BFAC110020B6
:1030F000F0110020D8B170B50C46054601B300F0C0
:1031000011FD1B4B19686B68C81A2268B2F1FF3FAA
:1031100027D0184E3668D5F800C0B44501D08B4290
:1031200024D9824215D80023236001241AE04FF0ED
:10313000500383F31188BFF36F8FBFF34F8FFEE708
:103140004FF0500383F31188BFF36F8FBFF34F8F9E
:10315000FEE75B1A134423602846FFF7BFFF0024F5
:1031600000E0002400F000FD204670BD0124F9E7D6
:10317000F0110020AC110020014B01221A607047B1
:10318000F4110020054B1B6833B1054B1B680BB1D4
:10319000002070470220704701207047C4110020B2
:1031A0007011002000283BD038B504461E4B1B6828
:1031B000834208D04FF0500383F31188BFF36F8F21
:1031C000BFF34F8FFEE7036D43B94FF0500383F316
:1031D0001188BFF36F8FBFF34F8FFEE7013B03658D
:1031E000C16AC26C91421DD00BB1002038BD051DD3
:1031F0002846FEF7B4FFE06CE062C0F13803A3613B
:103200000A4B1B68984201D9084B186000EB8000FC
:103210002946074B03EB8000FEF77DFF0120E5E721
:10322000002070470020E1E7F80C00207811002012
:10323000040D0020064B1A681368B3FA83F35B0988
:10324000036013B9D368186870470020704700BF47
:10325000F811002008B54160006191420CD8D21AE3
:1032600083699A4201D3012008BD011D094B1868EA
:10327000FEF75CFF0020F7E79A4201D2994206D29E
:10328000011D054B1868FEF751FF0020ECE70120F7
:10329000EAE700BFFC110020F811002030B583B030
:1032A00000F040FC114B1B681BB100F05DFC03B04B
:1032B00030BD0F4D2846FEF720FF0E4C2046FEF78E
:1032C0001CFF0D4B1D600D4B1C60002300930C4B2D
:1032D0000C4A10210A20FFF748F8044B1860002818
:1032E000E3D00949FFF764FADFE700BF1C130020B1
:1032F000A0120020B4120020F8110020FC110020C0
:10330000CC1200200012002020E4000810B588B084
:10331000FFF7C4FF124B1B68CBB100240594069441
:1033200007AA06A905A800F089FA059B0293069B47
:103330000193022300932346079A0A490A48FFF79C
:10334000F5FB0A4B186010B1012008B010BD4FF01A
:10335000500383F31188BFF36F8FBFF34F8FFEE7E6
:103360001C13002028E400084D360008201300201C
:10337000B8B19C4603461848006858B300B585B0FC
:1033800000910192029305291CDCFFF7FBFE022845
:1033900010D000231A4669460F480068FFF72EF840
:1033A00015E04FF0500383F31188BFF36F8FBFF325
:1033B0004F8FFEE70023069A694607480068FFF72B
:1033C0001DF804E0002362466946FFF7DBF805B00C
:1033D0005DF804FB002070471C13002070B582B01C
:1033E0001A4B1B681A6852B3DB681E68DC68251D1F
:1033F0002846FEF7B4FE636A20469847E369012B2E
:10340000EED1A36933449E4207D26360246129460A
:103410000E4B1868FEF78AFEE2E7002100910B468A
:1034200032462046FFF7A4FF0028D9D14FF05003C1
:1034300083F31188BFF36F8FBFF34F8FFEE7044A0A
:10344000106802490860136002B070BDF8110020D6
:10345000FC11002038B50546FFF72CFC0446074B4D
:103460001B68834205D800232B60044B1C60204658
:1034700038BDFFF7B3FF01232B60F6E7C812002029
:1034800070B582B006460D4614490968C968CC6813
:10349000201DFEF764FEE169012904D0636A20461D
:1034A000984702B070BDA16933462A463144204690
:1034B000FFF7D0FE0028F1D0002100910B463246E4
:1034C0002046FFF755FF0028E8D14FF0500383F363
:1034D0001188BFF36F8FBFF34F8FFEE7F811002005
:1034E00070B582B006460C46FFF7DCFB01A8FFF77B
:1034F000B1FF019B2BBB05460CB9B0421AD22CB1CF
:10350000124B1B681C68B4FA84F464092246711BD0
:103510000F4B1868FFF760F9FFF75EFC98B94FF0A2
:10352000E0234FF08052C3F8042DBFF34F8FBFF359
:103530006F8F08E0FFF750FC29463046FFF7A0FFE9
:1035400001E0FFF749FC02B070BD00BFFC11002094
:103550001C13002010B588B002E0049B002B0FDA8A
:10356000002204A9384B1868FFF772F8002869D0C8
:10357000049B002BF1DA07990698059B9847ECE726
:10358000069C636913B1201DFEF7E9FD03A8FFF750
:1035900061FF049B092BE3D801A252F823F000BF7E
:1035A000C9350008C9350008C9350008613500086B
:1035B0000F36000835360008C9350008C93500083F
:1035C000613500080F360008059BA16902461944C1
:1035D0002046FFF73FFE0028C2D0636A2046984786
:1035E000E369012BBCD1A269002100910B4605982B
:1035F00002442046FFF7BCFE0028B1D14FF0500333
:1036000083F31188BFF36F8FBFF34F8FFEE70599E8
:10361000A16131B10346024601442046FFF71AFE7C
:103620009EE74FF0500383F31188BFF36F8FBFF312
:103630004F8FFEE794F82C30002B91D1204600F0FC
:10364000E3F98DE708B010BD1C13002000B583B06E
:1036500001A8FFF7EFFD0199FFF742FFFFF77AFF9F
:10366000F6E70000EFF3058393B9EFF3108393B906
:103670000C4B1868022804D080B90A4B01221A604A
:103680007047EFF31183002BF6D06FF00500704701
:103690006FF0050070476FF0050070474FF0FF3086
:1036A000704700BF8015002008B5EFF30583B3B95C
:1036B000EFF31083B3B90E4B1B68022B08D0012B1C
:1036C00013D10B4B02221A60FFF79EFA002008BDAF
:1036D000EFF31182002AF2D06FF00500F7E76FF0E8
:1036E0000500F4E76FF00500F1E74FF0FF30EEE77B
:1036F00080150020F0B587B000240494EFF3058412
:10370000002C43D1EFF31083002B3FD1334B1B68C8
:10371000022B16D0002839D000238DF8173062B361
:10372000156895B1936903B918235C1E372C51D8DD
:10373000546814F0010F4FD156694EB14FEA960C00
:1037400008E0EFF311830BBBE4E70DF11705E9E7A0
:103750004FF0800C94682CB1D7685B2F02D91769A1
:1037600007B1B6B914B14FF0FF340CE0D46894B986
:1037700014699CB14FF0FF3405E0002418234FF08A
:10378000800C0DF11705012C0AD0ACB1049807B0DC
:10379000F0BD0124F7E74FF0FF34F4E70024F2E72F
:1037A000146992680292019400930B46624629467E
:1037B000FFF7BCF90490E9E704AA019200930B46D5
:1037C0001FFA8CF22946FFF7EBF90128DED000231F
:1037D0000493DBE70020DAE70020D8E7801500201B
:1037E00008B5EFF30583A3B9EFF31083A3B90C4B2E
:1037F0001B68022B02D040B9002008BDEFF31183F3
:10380000002BF8D06FF00500F7E7FFF761FB002011
:10381000F3E76FF00500F0E76FF00500EDE700BF9C
:1038200080150020034B0360034B0B608023136063
:10383000704700BF2415002024130020034B0360B1
:10384000034B0B604FF480731360704784190020A2
:1038500084150020124A12F0070F1ED0D11D21F04E
:103860000701C1F5406313440A460E480260002177
:1038700041601344083B23F007030B480360596081
:103880001960991A51601360084B1960084B196050
:10389000084B4FF000421A6070474FF44063E4E772
:1038A000E4190020F0250020E0190020EC2500207C
:1038B000E8250020E4250020154B1A461B688342AA
:1038C000FBD3516802EB010C844509D0416800EB41
:1038D000010C634509D00360904218D01060704716
:1038E0004068014451601046F0E710B4094C246868
:1038F000A3420AD05B681944416013681B680360E7
:10390000904200D0106010BC70470460F8E7704728
:10391000F0250020E019002070B50546FFF7C2F938
:10392000344B1B68A3B1344B1B681D424AD135B1DF
:10393000083515F0070F02D025F007050835002DD2
:1039400042D02E4B1B68AB424DD32D4A146804E085
:10395000FFF780FFE7E722461C466368AB4202D2CE
:103960002368002BF7D1234B1B68A3423DD0166878
:1039700008362368136063685B1B102B10D960192D
:1039800010F0070F08D04FF0500383F31188BFF3F6
:103990006F8FBFF34F8FFEE743606560FFF78CFFCB
:1039A000626816490B689B1A0B60164909688B42BE
:1039B00001D214490B60104B1B6813436360002352
:1039C000236002E0002600E00026FFF705FA16F06B
:1039D000070F0CD04FF0500383F31188BFF36F8FA4
:1039E000BFF34F8FFEE70026EFE70026EDE73046F6
:1039F00070BD00BFE0190020E4250020E82500206C
:103A0000F0250020EC25002080B338B50446A0F155
:103A1000080550F8043C164A1268134208D14FF0CA
:103A2000500383F31188BFF36F8FBFF34F8FFEE70F
:103A300050F8081C41B14FF0500383F31188BFF3D5
:103A40006F8FBFF34F8FFEE723EA020340F8043C79
:103A5000FFF728F954F8041C064A13680B44136056
:103A60002846FFF729FFFFF7B7F938BD704700BFB9
:103A7000E4250020E825002082B0002301930D4BAF
:103A80001B68B3F1FF3F08D04FF0500383F3118858
:103A9000BFF36F8FBFF34F8FFEE74FF0500383F3F9
:103AA0001188BFF36F8FBFF34F8F019B002BFCD0AA
:103AB00002B070471000002006480068006880F3DC
:103AC000088862B661B6BFF34F8FBFF36F8F00DF18
:103AD00000BF000008ED00E04FF0807340F8043CA8
:103AE00021F0010140F8081C034B40F80C3C40F861
:103AF000202C4038704700BF793A000800000000D1
:103B0000074B19680868B0E8F00F80F30988BFF325
:103B10006F8F4FF0000080F311884EF00D0E70474C
:103B2000F80C00204FF0500383F31188BFF36F8F20
:103B3000BFF34F8F0B4A136801331360012B00D082
:103B400070474FF0E023D3F8043D13F0FF0FF7D098
:103B50004FF0500383F31188BFF36F8FBFF34F8F84
:103B6000FEE700BF10000020094B1B6843B94FF06F
:103B7000500383F31188BFF36F8FBFF34F8FFEE7BE
:103B8000013B034A13600BB983F31188704700BFF0
:103B900010000020000000000000000000000000F5
:103BA000EFF30980BFF36F8F0D4B1A6820E9F00F18
:103BB00010602DE908404FF0500080F31188FFF7A6
:103BC000ADF94FF0000080F31188BDE80840196896
:103BD0000868B0E8F00F80F30988BFF36F8F704773
:103BE000F80C002008B54FF0500383F31188BFF3A1
:103BF0006F8FBFF34F8FFFF763F828B14FF0E023CB
:103C00004FF08052C3F8042D002383F3118808BDC0
:103C10004FF0E022002313619361054B1B680549B7
:103C2000A1FB03139B09013B5361072313617047F9
:103C30000C000020D34D621010B582B02A4B1A78C8
:103C4000D2B20192FF221A701B78DBB28DF80330DA
:103C50009DF8033003F05003244A1370244B0722CD
:103C60001A6009E0224A1368013B13609DF8033093
:103C70005B00DBB28DF803309DF8033013F0800F4A
:103C8000F0D11B4B1B68032B08D04FF0500383F37C
:103C90001188BFF36F8FBFF34F8FFEE71B02144AEB
:103CA000136003F4E0631360019BDBB20E4A1370F0
:103CB0004FF0E023D3F8202D42F47002C3F8202DFA
:103CC000D3F8202D42F07042C3F8202DFFF7A0FF5B
:103CD0000024084B1C60FFF7EFFEFFF71FF9FFF70A
:103CE000CBFE204602B010BD00E400E0F825002025
:103CF000FC25002010000020EFF305830F2B0FD9C7
:103D0000114A9B5CDBB2114A12789A4208D94FF0F3
:103D1000500383F31188BFF36F8FBFF34F8FFEE71C
:103D20004FF0E023D3F80C3D03F4E063084A126837
:103D3000934208D94FF0500383F31188BFF36F8F7C
:103D4000BFF34F8FFEE77047F0E300E0F825002057
:103D5000FC250020124A12F0070F1ED0D11D21F0C1
:103D60000701C1F5406313440A460E480260002172
:103D700041601344083B23F007030B48036059607C
:103D80001960991A51601360084B1960084B19604B
:103D9000084B4FF000421A6070474FF44063E4E76D
:103DA0000426002010320020002600200C320020C3
:103DB0000832002004320020154B1A461B6883424B
:103DC000FBD3516802EB010C844509D0416800EB3C
:103DD000010C634509D00360904218D01060704711
:103DE0004068014451601046F0E710B4094C246863
:103DF000A3420AD05B681944416013681B680360E2
:103E0000904200D0106010BC70470460F8E7704723
:103E1000103200200026002070B50546FEF742FF54
:103E2000344B1B68A3B1344B1B681D424AD135B1DA
:103E3000083515F0070F02D025F007050835002DCD
:103E400042D02E4B1B68AB424DD32D4A146804E080
:103E5000FFF780FFE7E722461C466368AB4202D2C9
:103E60002368002BF7D1234B1B68A3423DD0166873
:103E700008362368136063685B1B102B10D9601928
:103E800010F0070F08D04FF0500383F31188BFF3F1
:103E90006F8FBFF34F8FFEE743606560FFF78CFFC6
:103EA000626816490B689B1A0B60164909688B42B9
:103EB00001D214490B60104B1B681343636000234D
:103EC000236002E0002600E00026FEF785FF16F0E2
:103ED000070F0CD04FF0500383F31188BFF36F8F9F
:103EE000BFF34F8FFEE70026EFE70026EDE73046F1
:103EF00070BD00BF002600200432002008320020E0
:103F0000103200200C32002080B338B50446A0F1F6
:103F1000080550F8043C164A1268134208D14FF0C5
:103F2000500383F31188BFF36F8FBFF34F8FFEE70A
:103F300050F8081C41B14FF0500383F31188BFF3D0
:103F40006F8FBFF34F8FFEE723EA020340F8043C74
:103F5000FEF7A8FE54F8041C064A13680B441360CD
:103F60002846FFF729FFFEF737FF38BD704700BF2F
:103F7000043200200832002050F8043C024A106845
:103F800023EA0000704700BF0432002070B50546E8
:103F90000C46FEF787FE2046FFF73EFF064678B147
:103FA00075B12846FFF7E8FF0838844200D304467D
:103FB00022462946304600F091F92846FFF7A4FF33
:103FC000FEF70AFF304670BD38B505460C46FEF7D1
:103FD00069FE05FB04F42046FFF71EFF0546034675
:103FE00003E0002103F8011B1446621E002CF8D1E7
:103FF000FEF7F2FE284638BD08B505490A680244B6
:104000000A6004490A6802440A60FFF705FF08BD18
:10401000183200201C32002058B110B50446FFF7BA
:10402000ABFF044A13681B1A13602046FFF76CFFAE
:1040300010BD70471C32002038B50C460C4A13687E
:104040000B4413600B4A13680B44136058B10546C8
:10405000FFF792FF074A13681B1A13602146284690
:10406000FFF794FF38BD0846FFF7D6FEFAE700BF1A
:10407000183200201C32002010B501FB00F3054C63
:1040800022681A442260044C22681A442260FFF716
:104090009BFF10BD183200201C32002000000000E1
:1040A0002DE9F04107460E46144615A3D3E9002337
:1040B000FCF772F80D4680462060616010A3D3E9DA
:1040C000002338463146FCF767F8A260002A01DB7E
:1040D000BDE8F081084981FB0231D317C3EB21739E
:1040E0000133B8EB030165EBE375216065600349BB
:1040F00001FB0322A260EBE7A12FB84400CA9A3B60
:1041000000CA9A3B0000000070B582B00D46002442
:10411000009401946846FEF7C5FF009E019A4FEA9D
:10412000461C4CEAD26C53019B1A6CEB060C4FEA0E
:104130004C2C4CEAD35C5B029B1846EB0C0C4FEA10
:104140008C1141EA93619801C01A61EB0C0180184F
:104150002A4646EB0101FFF7A3FF204602B070BDDF
:1041600008B54FF400620349D0F80C01FDF7A8FF31
:10417000012008BD2032002008B5D0F80C01FDF761
:1041800025FD012008BD70B5D0F80C5195F83D30E3
:10419000DBB2202B01D0002070BD144692B228461D
:1041A000FDF7CEFC064646B995F83D30DBB2202B34
:1041B00003D00120FFF714FBF5E70EB92046EBE72B
:1041C0000020E9E72DE9F8430D4614461F46D0F8D4
:1041D0000C81002672B6D8F838301B685868C0F5D4
:1041E0000060DFF84C90C9F8000062B6013601208B
:1041F000FFF7F6FA0F4B1B68D9F80020934214D151
:10420000BE42E7DB002008E00B49C95C29540133BA
:10421000C3F30A0307490B600130064B1B689A423F
:1042200001D0A042F0D3BDE8F8830020F5E700BF3D
:10423000243A0020203A0020203200200C480D496A
:104240000D4A002302E0D458C4500433C4188C42F1
:10425000F9D30A4A0A4C002301E013600432A24257
:10426000FBD3FDF749FF00F015F8FCF7A1F9704703
:1042700000000020D000002044EE0008D000002004
:10428000F0490020FEE70000014B1868704700BFAE
:104290001400002070B500260C4D0D4C641BA410BA
:1042A000A64209D10AF054F800260A4D0A4C641BB4
:1042B000A410A64205D170BD55F8043B98470136BD
:1042C000EEE755F8043B98470136F2E73CEE00086C
:1042D0003CEE00083CEE000840EE00080A44914223
:1042E00000F1FF3300D1704710B511F8014B914236
:1042F00003F8014FF9D110BD03460244934200D1A7
:10430000704703F8011BF9E70FB40A4B13B51C689B
:1043100024B1A36913B9204600F04EF805AB20463E
:10432000049AA168019300F055F902B0BDE810406D
:1043300004B0704714000020002310B50446C0E903
:104340000033C0E90433836081814366C2818361A5
:10435000194608225C30FFF7CFFF054B24626362E9
:10436000044BA362044BE362044B236310BD00BF04
:10437000414B0008634B00089B4B0008BF4B0008F3
:10438000014900F085B800BF914E0008682370B560
:104390004D1E5D430E4605F1740100F099F8044688
:1043A00040B10021C0E900160C30A06005F16802A0
:1043B000FFF7A2FF204670BD836910B5044633BBEA
:1043C000C0E912330365124B124A1B68826298429D
:1043D00004BF0123836100F01FF86060204600F0F5
:1043E0001BF8A060204600F017F800220421E060CE
:1043F0006068FFF7A1FF01220921A068FFF79CFF79
:1044000002221221E068FFF797FF0123A36110BD8C
:1044100030E4000881430008F8B51B4B07461E68CE
:10442000B36913B93046FFF7C7FF4836D6E9013400
:10443000013B03D53368DBB13668F7E7B4F90C50BC
:10444000A5B9124B08222946C4E90055C4E9033531
:10445000C4E905556566A56004F15C00FFF74CFFF3
:10446000C4E90D55C4E912552046F8BD6834DFE7AC
:1044700004213846FFF78AFF044630600028DBD16C
:104480000C233B60F0E700BF30E400080100FFFFB1
:104490002DE9F84306468846002700F14804D4E990
:1044A0000195B9F1010905D52468002CF7D13846EA
:1044B000BDE8F883AB89012B07D9B5F90E3001337C
:1044C00003D029463046C04707436835E9E7000076
:1044D000F8B5CD1C25F0030508350C2D38BF0C258B
:1044E000002D064601DBA94203D90C2333600020CE
:1044F000F8BD00F097FD21490A6814469CB9204F89
:104500003B6823B92146304600F00AFB3860294653
:10451000304600F005FB431C23D10C2330463360AA
:1045200000F081FDE3E723685B1B17D40B2B03D955
:1045300023601C44256004E06368A2420CBF0B604A
:104540005360304600F06FFD04F10B00231D20F096
:104550000700C21ACCD01B1AA350C9E722466468D0
:10456000CCE7C41C24F00304A042E3D0211A304657
:1045700000F0D6FA0130DDD1CFE700BF283A0020A5
:104580002C3A0020936810B4013B002B936007DAAB
:104590009469A34201DB0A2902D110BC00F014BBCC
:1045A0001368581C10601970084610BC7047F8B5A5
:1045B00006460F461446D518AC4201D1002007E04C
:1045C0003A46304614F8011BFFF7DCFF431CF3D1D9
:1045D000F8BD00002DE9F04F0D46144698460646FA
:1045E0009DB018B183690BB9FFF7E6FE7A4B9D4287
:1045F0005FD17568AB891B0765D52B69002B62D02D
:104600000023099320238DF8293030234FF001092E
:10461000CDF80C80DFF8C4818DF82A3023469A4605
:1046200013F8012B0AB1252AF9D1BAEB040B0BD0F0
:104630005B46224629463046FFF7B9FF013000F0BD
:10464000BD80099A5A4409929AF80030002B00F074
:10465000B58000234FF0FF32CDE905230AF1010AAE
:10466000049307938DF853301A935446052214F897
:10467000011B5A4800F0AEFC049B78BBD80644BF2F
:1046800020228DF85320190744BF2B228DF8532088
:104690009AF800202A2A29D0544600204FF00A0C0C
:1046A000079A214611F8013B303B092B61D918BB11
:1046B00029E04B4B9D4201D1B5689BE7494B9D4298
:1046C00008BFF56896E72946304600F0E1FA002871
:1046D00096D04FF0FF301DB0BDE8F08FA0EB080082
:1046E00009FA00F01843A2460490BEE7039A111D90
:1046F00012680391002A01DB079204E0524243F062
:1047000002030792049323782E2B0CD163782A2B73
:1047100034D1039B02341A1D1B680392002BB8BFCF
:104720004FF0FF330593DFF8C0A0032250462178F5
:1047300000F050FC38B14022049BA0EB0A008240FC
:1047400013430134049314F8011B062227488DF803
:10475000281000F03FFC002835D0254B1BBB039BE5
:10476000073323F0070308330393099B3B44099362
:1047700054E70C4601200CFB023292E700234FF075
:104780000A0C194601340593204610F8012B303AE3
:10479000092A03D9002BC6D00591C4E7044601239A
:1047A0000CFB0121F0E703AB00932A463046114B86
:1047B00004A9AFF30080421C0746D6D1AB895B0643
:1047C00087D4099887E703AB00932A463046094B04
:1047D00004A900F083F8EEE754E4000894E400082C
:1047E00074E4000834E400089AE400089EE4000839
:1047F00000000000AF4500082DE9F0471646994635
:104800008A680B6907469342B8BF1346336091F834
:1048100043200C46DDF820800AB101333360236861
:10482000990642BF336802333360256815F00605E8
:1048300006D104F1190AE36832689B1AAB422BDCFB
:1048400094F84320131E226818BF0123920630D427
:104850004946384604F14302C047013023D023685B
:10486000226903F00603042B14BF002533684FF0C0
:10487000000608BFE56804F11A0408BFED1A54F8F1
:10488000123C08BF25EAE5759342C4BF9B1AED1898
:10489000B5421AD1002008E0012352464946384665
:1048A000C047013003D14FF0FF30BDE8F08701353C
:1048B000C1E73020E11881F843005A1C94F84510F4
:1048C0002244023382F84310C2E7012322464946BC
:1048D0003846C0470130E6D00136D9E72DE9FF4719
:1048E0000F7E9146782F80460C469A460C9D01F12A
:1048F000430207D8622F0AD8002F00F0D580582F26
:1049000000F0C18004F1420584F842703AE0A7F15A
:104910006303152BF6D801A151F823F0754900085F
:1049200089490008054900080549000805490008AB
:10493000054900088949000805490008054900089B
:1049400005490008054900088F4A0008B5490008D4
:10495000494A00080549000805490008B14A00080D
:1049600005490008B549000805490008054900083F
:10497000514A00082B681A1D1B682A6004F1420581
:1049800084F842300123A0E020682B68070603F179
:104990000401296001D51E6803E04606FBD5B3F982
:1049A0000060002E03DA2D23764284F843300A2378
:1049B000594812E02B682068191D2960050601D5A9
:1049C0001E6802E04106FBD51E886F2F0CBF08232E
:1049D0000A235148002184F843106568002DA8BFC0
:1049E0002168A560A4BF21F0040121600EB9002D4B
:1049F0004BD01546B6FBF3F103FB1167C75D05F815
:104A0000017D3746BB420E46F4D9082B0BD12368F3
:104A1000DE0708D5236961689942DEBF302305F8B7
:104A2000013C05F1FF35521B22614B4621464046B1
:104A3000CDF800A003AAFFF7DFFE01304AD14FF006
:104A4000FF3004B0BDE8F087236843F02003236003
:104A50007827324884F84570236829681F0651F882
:104A6000046B02D45F0648BFB6B2DF0748BF43F00D
:104A70002003296048BF23601EB9236823F0200368
:104A800023601023A6E72448E4E71546BDE72B681A
:104A90002668181D6169286035061B6801D51960F4
:104AA00002E07006FBD51980002315462361BCE7A0
:104AB0002B6800211A1D2A601D686268284600F0D4
:104AC00089FA08B1401B606063682361002384F8A1
:104AD0004330AAE72A46494640462369D047013079
:104AE000ADD023689B0713D4E068039B9842B8BFFE
:104AF0001846A6E70123324649464046D0470130D2
:104B00009DD00135E36803995B1AAB42F2DCEBE719
:104B1000002504F11906F5E7A5E40008B6E400084D
:104B200038B50023054D044608462B6000F030FBE5
:104B3000431C02D12B6803B1236038BD303A0020FA
:104B400010B50C46B1F90E1000F0E6FA0028ABBF24
:104B5000636DA3891B1823F48053ACBF6365A381E5
:104B600010BD2DE9F0411F468B890546DB050C463B
:104B7000164605D502230022B1F90E1000F0B2F955
:104B8000A389324623F48053A38128463B46B4F9D7
:104B90000E10BDE8F04100F069B810B50C46B1F94F
:104BA0000E1000F09FF9431CA38915BF606523F424
:104BB000805343F48053A38118BFA38110BDB1F982
:104BC0000E1000F0D3B80000F8B50E4614460546A6
:104BD00018B183690BB9FFF7EFFB214B9C422BD136
:104BE0006C68A369A360A3891A072FD523696BB3E7
:104BF00023692068F6B2C01A63693746834204DC31
:104C00002146284600F044F930BBA3680130013B3F
:104C1000A36023685A1C22601E706369834204D01B
:104C2000A389DB0706D50A2E04D12146284600F0C9
:104C30002FF988B93846F8BD0A4B9C4201D1AC68BF
:104C4000CFE7094B9C4208BFEC68CAE721462846DB
:104C500000F01EF80028CBD04FF0FF37EAE700BF86
:104C600054E4000874E4000834E4000838B504464D
:104C7000084611460022054D2A601A46FBF716FE2B
:104C8000431C02D12B6803B1236038BD303A0020A9
:104C9000324B70B51D6806460C4625B1AB6913B999
:104CA0002846FFF789FB2E4B9C420FD16C68A389E5
:104CB000B4F90C2019072CD4DD0611D40923336074
:104CC00042F040034FF0FF30A3813EE0254B9C4271
:104CD00001D1AC68EBE7244B9C4208BFEC68E6E7E7
:104CE000580712D5616B41B104F14403994202D0D7
:104CF000304600F099F900236363A38923F024036D
:104D0000A3810023636023692360A38943F0080320
:104D1000A38123694BB9A38903F42073B3F5007F02
:104D200003D02146304600F015F9A089B4F90C20D3
:104D300010F001030AD00023A36063695B42A36102
:104D4000236943B910F08000BAD170BD810758BF04
:104D50006369A360F4E70020F7E700BF14000020B8
:104D600054E4000874E4000834E4000838B5002373
:104D7000054D044608462B60FBF7A6FD431C02D1F7
:104D80002B6803B1236038BD303A00208A89F8B51A
:104D9000054610070C4657D44B68002B04DC0B6CFF
:104DA000002B01DC0020F8BDE66A002EFAD00023BB
:104DB00012F480522F68216A2B6032D0606DA38973
:104DC0005A0705D56368C01A636B0BB1236CC01A10
:104DD00000230246E66A2846216AB047431CA3899D
:104DE00006D129681D292BD8284A0A41D60727D47D
:104DF000002262602269D904226004D5421C01D1DC
:104E00002B6803B96065616B2F600029CAD004F17B
:104E10004403994202D0284600F006F9002060635E
:104E2000C1E701232846B047411CC8D12B68002B9D
:104E3000C5D01D2B01D0162B01D12F60B2E7A3895D
:104E400043F04003A381AEE70F69002FAAD0930778
:104E500018BF00230E6808BF4B69F61B0F608B60FC
:104E6000002E9FDD33463A462846216AD4F828C0F2
:104E7000E047002806DCA3894FF0FF3043F04003F1
:104E8000A38190E70744361AEAE700BFFEFFBFDFC1
:104E900038B50B6905460C46DBB118B183690BB90F
:104EA000FFF78AFA0C4B9C4209D16C68B4F90C30BC
:104EB0007BB121462846BDE83840FFF767BF074B66
:104EC0009C4201D1AC68F1E7054B9C4208BFEC68FD
:104ED000ECE7002038BD00BF54E4000874E400088B
:104EE00034E4000838B50446084611460022054D52
:104EF0002A601A46FBF7F2FC431C02D12B6803B16F
:104F0000236038BD303A002070B50C46B1F90E1060
:104F1000154600291E4696B00CDAA389002113F02D
:104F2000800F0CBF4FF480634023002031602B6062
:104F300016B070BD6A4600F001F90028EDDB01995A
:104F400001F47041A1F50053594259414FF4806377
:104F5000EBE700008B8973B59D0706460C4607D525
:104F600004F14703236023610123636102B070BD34
:104F70006A4601ABFFF7C8FF009905463046FFF7C8
:104F8000A7FA48B9B4F90C309A05EFD423F003031B
:104F900043F00203A381E3E70D4BB362A3892060D2
:104FA00043F08003A381009B20616361019B5BB19F
:104FB0003046B4F90E1000F0D3F828B1A38923F0DD
:104FC000030343F00103A381A3891D43A581CDE71A
:104FD00081430008034610B5C9B202449342184603
:104FE00001D1002003E0047801338C42F6D110BDDA
:104FF000884210B501EB020402D98442234607D847
:10500000431EA14208D011F8012B03F8012FF8E745
:10501000014602448A4200D110BD13F8014D02F846
:10502000014DF7E77047704738B50546002940D075
:1050300051F8043C0C1F002BB8BFE418FFF7F2FF37
:105040001C4A136833B9636014602846BDE83840D1
:10505000FFF7E9BFA34208D9206821188B4201BF9E
:1050600019685B6809182160EDE71A465B680BB1A7
:10507000A342FAD911685018A0420BD1206801440C
:10508000501883421160E0D118685B6808441060D2
:105090005360DAE702D90C232B60D6E72068211889
:1050A0008B4201BF19685B68091821606360546016
:1050B000CBE738BD283A00202DE9F0418046144660
:1050C0000E4621B91146BDE8F041FFF701BA2AB9F1
:1050D000FFF7AAFF25462846BDE8F08100F050F80A
:1050E0008442074602D8B4EB500F12D821464046FE
:1050F000FFF7EEF905460028EDD0BC4222463146C6
:1051000028BF3A46FFF7EAF831464046FFF78CFFE2
:10511000E1E73546DFE7000038B5044608461146AA
:105120000022054D2A601A46FBF7B0FB431C02D152
:105130002B6803B1236038BD303A002038B5002316
:10514000064D0446084611462B60FBF7C0FB431C86
:1051500002D12B6803B1236038BD00BF303A002074
:1051600038B50023054D044608462B60FBF7B4FB19
:10517000431C02D12B6803B1236038BD303A0020B4
:1051800051F8043C181F002BBCBF0B58C0187047C7
:10519000044A05491368002B08BF0B4618441060E9
:1051A00018467047343A0020F0490020014B186837
:1051B000704700BFC8E400082DE9F04F8FB0189F7A
:1051C000002F3AD007F15009044648468846164653
:1051D0001D4600F031FA80B37CB3D4F800A0BAF1D8
:1051E000000F04D0642528460FB0BDE8F08F40467C
:1051F00005F0E2FA30B306B3FDB1CE460DF1240C52
:10520000BEE80F00ACE80F00DEF80030CCF800304C
:1052100000F04EFA84460EAB13E90700CDF818C033
:105220008DE807000A9B5146099A06A800F0B6FAD5
:1052300050B10A2813D00125D5E70B2528460FB019
:10524000BDE8F08FC825CEE706A804F0EFFE824641
:1052500038B106A800F0E0FABAF10A0FEBD10A253E
:10526000C1E74046CDF81CA005F0B0FA82464046A2
:1052700005F0B4FAEC468646B9E80F000DF11C0BB8
:10528000CDF814B0ACE80F00D9F800302846CCF8BF
:1052900000305146724606AB04F064FD054606A890
:1052A00000F0BAFA20B95DB1672D02D0692D5FD048
:1052B00001250798002896D07B6D396E984792E7B4
:1052C000404605F093FA0028F2D00798FBF728F93A
:1052D0003B6D396E01309847DDF81CA08146504681
:1052E000FBF71EF95146421C4846FEF7F7FF2A46D7
:1052F000484608A900F002FB002837D1089B002B84
:1053000038D1C0203B6D396E98472060A0B340462D
:1053100005F074FA07F16403009331463B464A46B0
:10532000256800F0EFFB2168C5F8BC00D1F8BC008F
:1053300088B3683100F0C2FC23680546F0B997F8DD
:105340004820184683F8B02039466822FEF7C6FF89
:10535000D8F80020C0F8B820079810B17B6D396EDE
:10536000984748467B6D396E98473CE70125F3E73F
:1053700067259EE76725EFE70A25EDE7002BF5D0C7
:10538000D3F8BC303BB1404605F038FA2368D3F877
:10539000BC1000F095FC7B6D396E206898470023A7
:1053A00001252360D8E700BFF0B587B06C460D4FEC
:1053B000064650220C493846FEF790FF07F150058B
:1053C000684600F02BF90FCC0FC523682B6000F066
:1053D00093FA3946786668223046FEF77FFF3046FA
:1053E00007B0F0BD383A0020D0E40008F8B10368F7
:1053F00070B50446B3B11646D3F8BC2092B1D3F8C9
:10540000B8000D4604F048FC60B12368D3F8BC0036
:1054100040B155B13246294600F014FB003818BFA0
:10542000012070BD4FF4967070BD0B2070BD4FF41D
:10543000967070472DE9F04186B0002842D01C4696
:10544000002B3FD00F469046064604F0FFFE05466F
:10545000D4E903018DE8030005A894E80E00059542
:1054600004F0F6FE054638BB04F0F0FE314630602D
:1054700005A804F063FF0546C0B902AD284604F054
:1054800001FC95E80300331D83E8030032464146E2
:10549000384604F0D1FD054640B922460320F460A9
:1054A00006F1100105F002FB054608B100F0E8F82E
:1054B00005A804F01FFF08B100F0E2F8284606B086
:1054C000BDE8F0810B25284606B0BDE8F08100BF9D
:1054D000B8B32DE9F0430D468FB029B316461AB381
:1054E0001F460BB304460DF1100840460DF11C0990
:1054F00004F0EEFF98E8030084E80300484605F056
:1055000083F9404604F0E4FF98E803003246CDF802
:1055100000903B1D84E803002946204604F0E2FF8A
:1055200030B90FB0BDE8F0830B200FB0BDE8F083B9
:10553000039000F0A5F800F0A3F803980FB0BDE8C1
:10554000F0830B20704700BF68B32DE9F0410D4692
:105550009EB021B3164612B31F4603B30446FFF7AD
:1055600025FE0DF1100820604046FFF71DFF502278
:105570000E494046FEF7B2FE3B46324629462046DB
:10558000CDF80080FFF718FE10B91EB0BDE8F0811D
:10559000039000F075F803981EB0BDE8F0810B2071
:1055A0001EB0BDE8F0810B20704700BF20E5000869
:1055B00008F0E8BA08F0C6BB08F03CBB08F032BB04
:1055C00070B404460646044D0FCD0FC42B68304618
:1055D000236070BC704700BF70E50008A0B102688E
:1055E0009AB1416899B170B4C4685CB1856885B1FD
:1055F00000260120084BC3E90021C3E902541E61C3
:1056000070BC70472046FBE770471046704708465D
:1056100070472846F4E700BF7800002070B40446C5
:105620000646044D0FCD0FC42B683046236070BC76
:10563000704700BF7800002058B1036843B1436849
:1056400033B1C36823B18068003818BF01207047A8
:1056500018467047064B1B783BB1064B1A780AB9BF
:1056600001221A70044B18787047044B1878704761
:10567000A03A0020A13A0020B83B002084E50008B1
:10568000002000210023064A10B4C2E902010548A7
:10569000054C06491380037023700B7010BC7047D3
:1056A000C03B0020B83B0020A13A0020A03A0020D7
:1056B0000020014B18607047A43A002000285DD0FC
:1056C0002DE9F843056806460C462DB1EB68A34268
:1056D00005D91C46002DF9D11F20BDE8F883AB6821
:1056E000A34247D02F6A002C34D0B4F1804F43D26C
:1056F0004FEA840841463A46D5F818902868C847CA
:10570000002839D033683A46186041465868C8477F
:10571000034688B33568AA686860A24226D22E681C
:1057200000EB080C06EB820060454FEA820103EBB8
:10573000820703D206EB080C674521D3A21A960014
:1057400032460021FEF7D8FD324638460021FEF7EA
:10575000D3FD0BE0D5F8148028683946C04733687C
:10576000394658681C60C04735686C600020AC60E2
:10577000BDE8F8830020B0E70A20AEE70B207047B1
:1057800000200439321F0B449044314441F8040F87
:10579000414543F8040FF9D1E8E700BF82B0F8B5FE
:1057A00006AC84E80C0070B3066804462EB11E25D2
:1057B0002846BDE8F84002B0704706A80D46FFF73E
:1057C0003BFF00B32420069B0A999847206000B352
:1057D00000F110070DF1180CC0E90066C0E902667F
:1057E000BCE80F000FC7DCF80030294620463B60BC
:1057F000FFF764FF05460028DAD0079B0A99206866
:1058000098472660D4E70B252846BDE8F84002B04B
:1058100070470A25CCE700BF2DE9F843002836D0B1
:1058200004680646002C2FD0A36813B30025A846B1
:1058300017E0D4F8209067694946B847D4E90023B7
:1058400042F8258053F825004946B847E368626866
:10585000013B42F82580E36034680135A3689D422E
:1058600007D2226852F825000028E2D101359D4276
:10587000F8D300213046FFF721FF044620B93068F5
:105880004369016A984734602046BDE8F8830B24D9
:105890002046BDE8F88300BF2DE9F84F10B3046837
:1058A0000CB30D46F1B1D4F808A02768BAF1000F87
:1058B00018D090460026043F57F8049F4FEA860B05
:1058C0000136B9F1000F0BD04846FAF729FE4045E2
:1058D0000246494638BF4246284608F084FA28B1B5
:1058E000B245E9D100242046BDE8F88F636853F83B
:1058F0000B402046BDE8F88F00207047002862D09A
:105900002DE9F8430D4600295FD016460446FAF704
:1059100007FE48B123782F2B0DD002232B603EB118
:1059200000203060BDE8F88301232B60002EF7D102
:105930000020BDE8F88300F1FF3C14F80C302F2B59
:1059400045D02746631E03EB0009C4F1010E0EEBA0
:10595000030813F8011F21F02002413A192AA1F18E
:105960002F040BD95F2909D00A2C07D904232B60F7
:10597000002EDDD00020C6F80080D3E74B45E6D1ED
:105980000023DFF884E00CF1010805E011468842AD
:10599000134607F1010725D99C4503F101021DD0EB
:1059A00039782F29F2D17C785A1C2F2C114626D019
:1059B00014F80E305B07EAD506232B60002EB7D013
:1059C00000203260AEE70B2070470B20AAE70323CC
:1059D0002B60002EACD0C6F800C0A9E741460CF100
:1059E0000102D4E7F72802D8002028609AE70723AD
:1059F0002B60002E9CD0F6230020336092E7052315
:105A00002B60002EDCD193E7ADEC0008F0B4DDE9AB
:105A100004676AB163B15EB157B10546064C002018
:105A2000C4E90112C4E9033625706761F0BC704710
:105A30000B20F0BC704700BFD03B0020C96F02F0C4
:105A4000D5BA00BF002853D070B50D468EB00029DE
:105A50004BD00446006800F0F5FB002845D066688E
:105A6000002E42D0B469284623699847F36905900F
:105A700013B105A898470598D6F880301B690090A7
:105A8000726903F59070B16F06AB03F0B1F8D8B14D
:105A9000A368284606A99847336A04460BB106A8AE
:105AA000984796F87A30012BD6F8803022D01869C2
:105AB000F16F00F5907002F099FA0440E4B284F0BE
:105AC0000100C0B20EB070BDD6F880100C4A086953
:105AD000059BCDE9012600937269B16F00F59070C6
