:020000040800F2
:100000000050002051500008E9080008EB080008E3
:10001000ED080008EF080008F108000800000000E3
:10002000000000000000000000000000313B00085C
:10003000F308000800000000D13B0008153C000850
:1000400099500008995000089950000899500008EC
:1000500099500008995000089950000899500008DC
:1000600099500008995000089950000899500008CC
:10007000F508000805090008995000089950000883
:1000800099500008995000089950000899500008AC
:10009000995000089950000899500008995000089C
:1000A0009950000815090008995000089950000857
:1000B000995000089950000899500008995000087C
:1000C000995000089950000899500008995000086C
:1000D0009950000899500008995000082509000817
:1000E000995000089950000899500008000000003D
:1000F0000000000000000000000000000000000000
:0C01000000000000000000005FF808F1A3
:100110000348044B834202D0034B03B11847704796
:10012000D0000020D0000020000000000548064B51
:100130001B1AD90F01EBA301491002D0034B03B1E5
:1001400018477047D0000020D000002000000000B9
:1001500010B5064C237843B9FFF7DAFF044B13B10F
:100160000448AFF300800123237010BDD0000020AD
:100170000000000064F1000808B5044B1BB10449FD
:100180000448AFF30080BDE80840CFE7000000005E
:10019000D400002064F100087BB972B90029BEBF09
:1001A00000204FF0004106E008BF00281CBF6FF0A0
:1001B00000414FF0FF3000F0A7B9ADF1080C6DE938
:1001C00004CE002909DB002B1ADB00F035F8DDF83E
:1001D00004E0DDE9022304B07047404261EB4101D5
:1001E000002B1BDB00F028F8DDF804E0DDE902233A
:1001F00004B0404261EB4101524263EB430370475C
:10020000524263EB430300F017F8DDF804E0DDE948
:10021000022304B0404261EB41017047524263EB5C
:10022000430300F009F8DDF804E0DDE9022304B03F
:10023000524263EB430370472DE9F047089D0E4699
:1002400004468E46002B4CD18A42944667D9B2FAB6
:1002500082F353B102FA03FCC3F1200201FA03FE58
:1002600020FA02F242EA0E0E9C404FEA1C47BEFB07
:10027000F7F11FFA8CF607FB11EE01FB06F0220CDA
:1002800042EA0E4290420AD91CEB020201F1FF3E03
:1002900080F01981904240F2168102396244121AAC
:1002A000B2FBF7F007FB102200FB06F6A4B244EA0B
:1002B0000244A6420AD91CEB040400F1FF3280F08C
:1002C0000481A64240F201816444023840EA0140C0
:1002D0000021A41B1DB1DC400023C5E90043BDE89B
:1002E000F0878B4208D9002D00F0EA800021C5E993
:1002F00000060846BDE8F087B3FA83F1002946D12D
:10030000B34202D3824200F2FA80841A66EB0302FF
:1003100001209646002DE2D0C5E9004EDFE702B984
:10032000FFDEB2FA82F3002B40F08D80881A0121A3
:10033000170C96B2B0FBF7FE07FB1E00220C42EA38
:10034000004206FB0EF0904208D91CEB02020EF1AF
:10035000FF3802D2904200F2CE80C646121AB2FB9B
:10036000F7F007FB102200FB06F6A4B244EA0244B1
:10037000A64208D91CEB040400F1FF3202D2A642C7
:1003800000F2B6801046A41B40EA0E40A2E7C1F17D
:1003900020078B4022FA07FC4CEA030C26FA07FAE6
:1003A0004FEA1C48BAFBF8FE06FA01F308FB1EAA46
:1003B0001FFA8CF620FA07F400FA01F90EFB06F09A
:1003C00023431C0C44EA0A44A04202FA01F20BD96E
:1003D0001CEB04040EF1FF3A80F08880A04240F24A
:1003E0008580AEF1020E6444241A98B2B4FBF8F38F
:1003F00008FB134403FB06F640EA0444A64208D96E
:100400001CEB040403F1FF306CD2A6426AD9023B14
:10041000644443EA0E40A41BA0FB02E6B4427346C8
:10042000B04656D353D0002D6BD0B9EB030264EB2A
:10043000080422FA01F304FA07F71F43CC40C5E988
:10044000007400214BE702FA03FCC3F12000C14015
:100450004FEA1C47B1FBF7FE07FB1E1124FA00F020
:100460009E403043020C1FFA8CF642EA01420EFB1A
:1004700006F1914204FA03F409D91CEB02020EF1D1
:10048000FF3831D291422FD9AEF1020E6244521A96
:10049000B2FBF7F107FB112280B240EA024001FBF8
:1004A00006F2824208D91CEB000001F1FF3817D296
:1004B000824215D902396044801A41EA0E4139E777
:1004C000294628460BE77146E9E61046FEE6F14567
:1004D000A9D2BEEB020366EB0C060138B046A2E7D8
:1004E0004146E9E7034694E7C646D0E7D6467BE7B0
:1004F0006444023847E7AEF1020E62442EE7084634
:1005000008E72946EBE600BF704700BF10F8012B53
:1005100011F8013B012A28BF9A42F7D0D01A704740
:10052000034613F8012B002AFBD1181A0138704733
:1005300008B50268034B9A4200D008BD00F076FA75
:10054000FBE700BF002C014072B6FEE700B591B09A
:100550002822002106A804F0D9FD0023019302936C
:10056000039304930593012206924FF4803307937B
:100570000A9202220D920E934FF4E0130F9306A8F5
:1005800000F090FA80B90F23019302210291002319
:1005900003934FF480620492059301A800F0C2FC1B
:1005A00020B911B05DF804FBFFF7CEFFFFF7CCFFD9
:1005B00008B500F029FA04F029FCFFF7C7FF00F0A6
:1005C0000DF800F09FF800F0BFF803F04FFE03F0C5
:1005D00061F800F087F803F07FF8FEE782B00A4B7D
:1005E0009A6942F020029A619A6902F02002009210
:1005F000009A9A6942F008029A619B6903F0080325
:100600000193019B02B070470010024000B5A5B0F5
:10061000274B0193274B0093274B284A2849012059
:1006200006F0FEF81FA805F0D5FE264B1F93264BBB
:100630002093264B2193264B22931FA805F0D8FE2A
:1006400080B302A805F0F4FE0DF12C0E0DF1080C9C
:10065000BCE80F00AEE80F00DCF80030CEF8003048
:100660000BAB0022114610A805F0EEFD10AB194AA5
:10067000194909A805F036FE06F008FD0246174B99
:1006800009A91EA805F06AFE00230893002208A904
:100690001EA805F0B5FD089B013308930A2003F05E
:1006A000B7F8F3E79E210E4804F038FDC9E700BF14
:1006B000F5410008B7410008A94100089141000830
:1006C000340B002029400008494000086940000818
:1006D000A940000814F20008B4F10008C0F10008B5
:1006E0008CF1000808B5044A0021044803F01AF808
:1006F000034B186008BD00BFE0F100080D060008BC
:10070000A80A002000B583B00E4B5A6942F00102DE
:100710005A615B6903F001030193019B00220521EB
:100720000C2000F0B3FF0C2000F0E8FF00220521B0
:100730000D2000F0ABFF0D2000F0E0FF03B05DF8EE
:1007400004FB00BF0010024008B50A480A4B0360D2
:100750004FF4E133436000238360C36003610C22E4
:1007600042618361C36101F0D3F900B908BDFFF7AD
:10077000EBFEFBE7340B00200048004070B586B06C
:10078000002302930393049305930268334B9A4228
:1007900001D006B070BD044603F5E433DA6942F4D3
:1007A0008022DA61DA6902F480220092009A9A6962
:1007B00042F008029A619B6903F008030193019BD0
:1007C0004FF4806302930223039303230593244E83
:1007D00002A9304600F0A0FC4FF40063029300250C
:1007E0000395049502A9304600F096FC1D481E4B67
:1007F0000360456085608023C360056145612023F7
:1008000083614FF44053C36100F0AEFD00BB154B54
:10081000A3635C621548164B0360102343600023FA
:1008200083608022C2600361436183614FF440535F
:10083000C36100F099FD70B90C4B63635C620022E8
:100840000521272000F022FF272000F057FFA0E716
:10085000FFF77AFEDBE7FFF777FEEDE700480040A1
:10086000000C0140AC0A002030000240F00A0020D9
:100870001C0002400120704708B504F00FFC16234D
:1008800003604FF0FF3008BD08B54FF0FF31FFF7B0
:10089000F3FFFEE770B50C461646002506E0AFF301
:1008A0000080214601F8010B01350C46B542F6DB0C
:1008B000304670BD70B50C461646002504E014F8AD
:1008C000010BAFF300800135B542F8DB304670BD57
:1008D0004FF0FF3070474FF400534B6000207047DB
:1008E0000120704700207047FEE7FEE7FEE7FEE7C5
:1008F000FEE7704708B5024800F014FE08BD00BFCF
:10090000F00A002008B5024800F00CFE08BD00BF48
:10091000AC0A002008B5024800F038FF08BD00BF4F
:100920007C0B002008B5024801F068FA08BD00BF42
:10093000340B002000B583B00D4B9A6942F00102E0
:100940009A619A6902F001020092009ADA6942F013
:100950008052DA61DB6903F080530193019B00222E
:100960000F216FF0010000F091FE03B05DF804FB71
:100970000010024030B589B004461E4B9A6942F41B
:1009800000629A619B6903F400630193019B02A9D1
:1009900003A800F0A3FB00F091FB174AA2FB002381
:1009A0009B0C013B1548164A026040F2E732C260D8
:1009B0004360002303618360836100F0DFFF05462D
:1009C00010B1284609B030BD0C4800F0A7FE05461E
:1009D0000028F6D1192000F091FE0F2C01D9012535
:1009E000EFE700222146192000F050FE054B1C6065
:1009F000E7E700BF0010024083DE1B437C0B0020B2
:100A0000002C01400800002008B5074A136843F095
:100A100010031360032000F027FE0F20FFF7AAFF4A
:100A2000FFF788FF002008BD00200240034A11683C
:100A3000034B1B780B441360704700BFC40B0020AE
:100A400004000020014B1868704700BFC40B002051
:100A500038B50446FFF7F6FF0546B4F1FF3F02D074
:100A6000044B1B781C44FFF7EDFF401BA042FAD358
:100A700038BD00BF0400002082B0084B1B68084A44
:100A8000A2FB03235B0A00FB03F3019300BF019B5E
:100A90005A1E0192002BF9D102B070470C000020C1
:100AA000D34D6210002800F0F18170B582B0044689
:100AB000036813F0010F2CD0994B5B6803F00C0313
:100AC000042B1DD0964B5B6803F00C03082B12D04F
:100AD0006368B3F5803F41D0002B55D103F18043CB
:100AE00003F504331A6822F480321A601A6822F47B
:100AF00080221A6037E08A4B5B6813F4803FE7D0AE
:100B0000874B1B6813F4003F03D06368002B00F091
:100B1000BF81236813F0020F75D0814B5B6813F01F
:100B20000C0F5FD07E4B5B6803F00C03082B54D096
:100B30002369002B00F08A807A4B01221A60FFF7AC
:100B400081FF0546764B1B6813F0020F75D1FFF746
:100B500079FF401B0228F5D903209EE1704A1368F3
:100B600043F480331360636843B3FFF76BFF0546BC
:100B70006B4B1B6813F4003FCBD1FFF763FF401BA7
:100B80006428F5D9032088E1B3F5A02F09D0644B80
:100B90001A6822F480321A601A6822F480221A60DD
:100BA000E1E703F18043A3F53C331A6842F4802265
:100BB0001A601A6842F480321A60D4E7FFF742FFE5
:100BC0000546574B1B6813F4003FA2D0FFF73AFFCE
:100BD000401B6428F5D903205FE1514B5B6813F497
:100BE000803FA5D14E4B1B6813F0020F03D0236941
:100BF000012B40F04F814A4A136823F0F8036169E2
:100C000043EAC1031360236813F0080F33D0A369CC
:100C1000002B5CD0434B0122C3F88024FFF712FF66
:100C200005463F4B5B6A13F0020F21D1FFF70AFF25
:100C3000401B0228F5D903202FE1394A136823F01D
:100C4000F803616943EAC1031360DCE7354B002216
:100C50001A60FFF7F7FE0546314B1B6813F0020FD1
:100C6000D1D0FFF7EFFE401B0228F5D9032014E195
:100C70000120FFF701FF236813F0040F00F09680B6
:100C8000274BDB6913F0805F34D1254BDA6942F0E2
:100C90008052DA61DB6903F080530193019B0125E7
:100CA000214B1B6813F4807F26D0E368012B3DD0D5
:100CB000002B53D103F1804303F504331A6A22F069
:100CC00001021A621A6A22F004021A6233E0154B1A
:100CD0000022C3F88024FFF7B5FE0546104B5B6A7F
:100CE00013F0020FC7D0FFF7ADFE401B0228F5D965
:100CF0000320D2E00025D3E70B4A136843F4807346
:100D00001360FFF79FFE0646074B1B6813F4807FB6
:100D1000CBD1FFF797FE801B6428F5D90320BCE0F8
:100D20000010024000004242007000405F4A136A17
:100D300043F001031362E36833B3FFF783FE064613
:100D40005A4B1B6A13F0020F2FD1FFF77BFE801B5B
:100D500041F288339842F3D903209EE0052B09D055
:100D6000524B1A6A22F001021A621A6A22F0040235
:100D70001A62E0E74D4B1A6A42F004021A621A6ADC
:100D800042F001021A62D6E7FFF75CFE0646474BC7
:100D90001B6A13F0020F08D0FFF754FE801B41F2CC
:100DA00088339842F3D9032077E0E5B9E369002B53
:100DB00072D03E4A526802F00C02082A56D0022B2A
:100DC00017D03B4B00221A66FFF73CFE0446374B18
:100DD0001B6813F0007F47D0FFF734FE001B02288A
:100DE000F5D9032059E0314AD36923F08053D36108
:100DF000DCE72F4B00221A66FFF724FE05462B4B3B
:100E00001B6813F0007F06D0FFF71CFE401B022872
:100E1000F5D9032041E0236AB3F5803F1AD0234976
:100E20004B6823F47413226A606A024313434B60D5
:100E30001F4B01221A66FFF705FE04461B4B1B6879
:100E400013F0007F0ED1FFF7FDFD001B0228F5D93E
:100E5000032022E0154A536823F40033A1680B43B2
:100E60005360DCE7002018E0002016E0012B16D0CC
:100E70000E4B5B6803F48031226A914211D103F476
:100E80007013626A93420ED1002006E00120704781
:100E9000012002E0012000E0002002B070BD01202E
:100EA000FBE70120F9E70120F7E700BF001002404F
:100EB0000000424286B0174B0FCB0DF1180C0CE925
:100EC0000F0040F20123ADF80430134B5B6803F0D0
:100ED0000C02082A02D0114806B07047C3F38342BF
:100EE00018326A4412F8100C13F4803F0DD00A4BEC
:100EF0005B68C3F3404318336B4413F8143C074A50
:100F000002FB00F0B0FBF3F0E6E7054B03FB00F05B
:100F1000E2E700BF04F200080010024000127A006D
:100F200000093D00002800F0A08070B50D46044681
:100F3000524B1B6803F007038B420BD24F4A1368D6
:100F400023F007030B431360136803F007038B427E
:100F500040F08D80236813F0020F17D013F0040FB8
:100F600004D0474A536843F4E0635360236813F0A6
:100F7000080F04D0424A536843F460535360404A18
:100F8000536823F0F003A1680B435360236813F008
:100F9000010F31D06368012B20D0022B25D0384AB5
:100FA000126812F0020F64D035494A6822F0030239
:100FB00013434B60FFF746FD0646314B5B6803F079
:100FC0000C036268B3EB820F16D0FFF73BFD801B6A
:100FD00041F288339842F0D9032045E0284A12684C
:100FE00012F4003FE0D101203EE0254A126812F0E1
:100FF000007FD9D1012037E0204B1B6803F00703A5
:10100000AB420AD91D4A136823F007032B43136030
:10101000136803F00703AB422DD1236813F0040FCC
:1010200006D0174A536823F4E063E1680B4353602A
:10103000236813F0080F07D0114A536823F4605354
:10104000216943EAC1035360FFF734FF0C4B5B682F
:10105000C3F303130B4AD35CD8400B4B18600B4B04
:101060001868FFF787FC002070BD01207047012041
:10107000FAE70120F8E70120F6E700BF0020024070
:101080000010024018F200080C00002008000020A8
:10109000014B1868704700BF0C00002008B5FFF72F
:1010A000F7FF044B5B68C3F30223034AD35CD840C9
:1010B00008BD00BF0010024028F2000808B5FFF785
:1010C000E7FF044B5B68C3F3C223034AD35CD840F9
:1010D00008BD00BF0010024028F200080F23036083
:1010E0000B4B5A6802F0030242605A6802F0F002A9
:1010F00082605A6802F4E062C2605B68DB0803F455
:10110000E0630361034B1B6803F007030B60704748
:10111000001002400020024070B582B00024A446B6
:10112000A6E0804DAB4210D007D97F4DAB420CD02A
:1011300005F58035AB4208D013E0A5F58015AB422C
:1011400003D005F57025AB4207D18B68002B58D032
:10115000012B51D04261082403E0A5F58015AB4274
:10116000F3D0BEF1FF0F4ED80646BEF1FF0F4CD8AC
:101170004FEA8C0233680F25954023EA050304FAF1
:1011800002F2134333604B6813F0805F6ED0674BFD
:101190009A6942F001029A619B6903F0010301938D
:1011A000019B4FEA9C02951C614B53F825600CF0A3
:1011B0000305AD000F23AB4026EA03065D4B9842C2
:1011C00029D003F58063984200F08E8003F5806398
:1011D000984200F08B8003F58063984219D0042375
:1011E0001AE0CC68BDE7CC680434BAE7CC680834B0
:1011F000B7E7CC680C34B4E702610824B1E70024F7
:10120000AFE70424ADE7061DAFE7ACF1080292009A
:10121000B0E7032300E00023AB4033430232444DE8
:1012200045F822304B6813F4803F61D0424A13687E
:1012300043EA0E0313604B6813F4003F5ED03E4A4E
:10124000536843EA0E0353604B6813F4801F5BD06E
:10125000394A936843EA0E0393604B6813F4001F06
:1012600058D0354AD36843EA0E03D3600CF1010C21
:101270000B6833FA0CF253D0012202FA0CF203EAA3
:10128000020E32EA0303F1D14B68122B3FF649AF4D
:10129000122B3FF666AF01A555F823F04B1100085D
:1012A000E3110008ED110008FF11000863110008A8
:1012B000631100086311000863110008631100083E
:1012C000631100086311000863110008631100082E
:1012D000631100086311000863110008631100081E
:1012E000E7110008F3110008012395E7022393E7B3
:1012F000114A136823EA0E0313609CE70E4A5368F1
:1013000023EA0E0353609FE70B4A936823EA0E0318
:101310009360A2E7084AD36823EA0E03D360A5E7E7
:1013200002B070BD00002210000031100010024019
:1013300000000140000801400004014030B40124D5
:10134000056CAC40C56B6C60046863604368102B2F
:1013500005D0036899600368DA6030BC70470368A1
:101360009A600368D960F8E760B310B40246016878
:10137000154B0B441548A0FB03031B099B0013648A
:10138000134BD363022382F82130086820F47F5086
:1013900020F03000536894682343D46823431469D1
:1013A00023435469234394692343D4692343034368
:1013B0000B6000209063012382F8213082F8200026
:1013C00010BC704701207047F8FFFDBFCDCCCCCCDE
:1013D0000000024038B5044690F82000012831D0C2
:1013E000012084F8200094F82100012804D0002373
:1013F00084F82030022038BD022084F8210000202B
:10140000A0632568286820F0010028602046FFF7C7
:1014100095FFE36A5BB12268136843F00E03136023
:101420002268136843F0010313600020E3E7226899
:10143000136823F0040313602268136843F00A035F
:101440001360EDE70220D6E7034690F82120022A38
:1014500006D004228263002280F8202001207047F9
:1014600001680A6822F00E020A6001680A6822F028
:1014700001020A60026CC06B012101FA02F24260B3
:1014800083F82110002083F82000704708B590F8F9
:101490002130022B03D004238363012008BD02689E
:1014A000136823F00E0313600268136823F001032E
:1014B00013600368194A934214D0143293421FD028
:1014C000143293421ED0143293421ED014329342EF
:1014D0001ED01432934202D04FF0807203E04FF4DA
:1014E000801200E001220E4B5A60012380F8213067
:1014F000002380F82030436B6BB198470020CDE784
:101500001022F0E74FF48072EDE74FF48052EAE7E3
:101510004FF48032E7E70020C0E700BF0800024038
:101520000000024038B5C36B1A6804682568016C76
:1015300004238B40134235D015F0040F32D02368BA
:1015400013F0200F03D1236823F004032360036802
:10155000434A934214D01432934218D01432934227
:1015600017D01432934217D01432934217D014324A
:10157000934202D04FF0806203E04FF4800200E01B
:101580000422384B5A60C36A03B1984738BD4022E1
:10159000F7E74FF48062F4E74FF48042F1E74FF44D
:1015A0008022EEE702238B4013423CD015F0020F5D
:1015B00039D0236813F0200F06D1236823F00A03E3
:1015C0002360012380F821300368254A934214D018
:1015D000143293421CD0143293421BD014329342E3
:1015E0001BD0143293421BD01432934202D04FF0DE
:1015F000007203E04FF4001200E00222194B5A601F
:10160000002380F82030836A002BBFD09847BDE7C5
:101610002022F3E74FF40072F0E74FF40052EDE7B9
:101620004FF40032EAE708238B401342AED015F0A6
:10163000080FABD0236823F00E032360026CC16B4C
:10164000012303FA02F24A60836380F82130002309
:1016500080F82030036B002B98D0984796E700BFA6
:101660000800024000000240074AD36823F4E06308
:101670001B041B0C000200F4E060034343F0BF6353
:1016800043F40033D360704700ED00E000B5194B20
:10169000DB68C3F30223C3F1070CBCF1040F28BFBE
:1016A0004FF0040C03F1040EBEF1060F18D9033BF2
:1016B0004FF0FF3E0EFA0CFC21EA0C0199400EFAA5
:1016C00003FE22EA0E020A4300280BDB1201D2B20B
:1016D00000F1604000F5614080F800235DF804FBF4
:1016E0000023E5E700F00F001201D2B2024B1A54BA
:1016F000F4E700BF00ED00E014ED00E0002807DB98
:1017000000F01F02400901239340024A42F82030B2
:10171000704700BF00E100E07047000090F83D30E6
:10172000DBB2012B27D1022380F83D300268D36859
:1017300043F00103D3600368114A934210D0B3F120
:10174000804F0DD0A2F59432934209D002F5806209
:10175000934205D01A6842F001021A6000207047D7
:101760009A6802F00702062A07D01A6842F00102BE
:101770001A6000207047012070470020704700BFAA
:10178000002C0140704770477047704710B5044601
:1017900003681A6912F0020F11D0DA6812F0020F12
:1017A0000DD06FF002021A610123037703689B6971
:1017B00013F0030F70D0FFF7E6FF002323772368B1
:1017C0001A6912F0040F12D0DA6812F0040F0ED06A
:1017D0006FF004021A610223237723689B6913F4D4
:1017E000407F5FD02046FFF7CEFF0023237723689A
:1017F0001A6912F0080F12D0DA6812F0080F0ED032
:101800006FF008021A61042323772368DB6913F061
:10181000030F4ED02046FFF7B6FF0023237723683F
:101820001A6912F0100F12D0DA6812F0100F0ED0F1
:101830006FF010021A61082323772368DB6913F421
:10184000407F3DD02046FFF79EFF0023237723688B
:101850001A6912F0010F03D0DA6812F0010F36D1C5
:1018600023681A6912F0800F03D0DA6812F0800F33
:1018700034D123681A6912F0400F03D0DA6812F0ED
:10188000400F32D123681A6912F0200F03D0DA68B2
:1018900012F0200F30D110BDFFF774FF2046FFF784
:1018A00073FF8AE72046FFF76DFF2046FFF76CFFC6
:1018B0009BE72046FFF766FF2046FFF765FFACE792
:1018C0002046FFF75FFF2046FFF75EFFBDE76FF0A2
:1018D00001021A612046FEF72BFEC1E76FF080027D
:1018E0001A61204600F077F8C3E76FF040021A61F2
:1018F0002046FFF74AFFC5E76FF020021A61204635
:1019000000F068F8C7E7000003681B4A90420AD05D
:10191000B0F1804F07D0A2F59432904203D002F587
:101920008062904203D123F070034A681343124A45
:1019300090420AD0B0F1804F07D0A2F59432904285
:1019400003D002F58062904203D123F44073CA6849
:10195000134323F080034A69134303608B68C36217
:101960000B688362044B984202D0012343617047A5
:101970000B690363F9E700BF002C014040B310B5C9
:10198000044690F83D30F3B1022384F83D302146FF
:1019900051F8040BFFF7B8FF012384F8463084F8B0
:1019A0003E3084F83F3084F8403084F8413084F889
:1019B000423084F8433084F8443084F8453084F869
:1019C0003D30002010BD80F83C30FFF7A5FEDBE77E
:1019D00001207047704770470268D36823F0C00346
:1019E000D360202380F83D3070470268D36823F429
:1019F0009073D3600268536923F001035361036B52
:101A0000012B05D0202380F83E300023036370476C
:101A10000268D36823F01003D360F3E790F83D30F9
:101A2000DBB2212B01D0022070478368B3F5805FC1
:101A300017D0036A5A1C02621A7803685A60C38C72
:101A40009BB2013B9BB2C3844BB90268D36823F0BD
:101A50008003D3600268D36843F04003D360002062
:101A600070470369002BE4D1036A1B880268C3F343
:101A700008035360036A02330362E0E710B50446CB
:101A80000268136923F44053C1680B4313618368F0
:101A90000269134342691A430168CB6823F4B053C7
:101AA00023F00C031343CB600268536923F44073A3
:101AB00081690B4353610268134B9A4220D0FFF7B0
:101AC000EDFA024602EB820202EB820263689B009F
:101AD000B2FBF3F20D48A0FB02314909642303FB7A
:101AE00011231B013233A0FB03035B0903F0F00257
:101AF00002EB011203F00F03216813448B6010BD49
:101B0000FFF7DCFA0246DDE7003801401F85EB51A4
:101B100058B310B5044690F83D300BB3242384F835
:101B20003D302268D36823F40053D3602046FFF78A
:101B3000A5FF2268136923F4904313612268536957
:101B400023F02A0353612268D36843F40053D3601F
:101B500000202064202384F83D3084F83E3010BDFE
:101B600080F83C30FEF70AFED8E7012070470000FD
:101B700038B5134690F83D20D2B2202A30D1044621
:101B800000292FD0002B2FD090F83C20012A2DD0F7
:101B9000012280F83C2001628384C384002505640F
:101BA000212280F83D20426B11489062626B1148FF
:101BB000D062626B10481063626B55632268043216
:101BC000606BFFF707FC23686FF040021A6084F82F
:101BD0003C502268536943F080035361284600E07B
:101BE000022038BD0120FCE70120FAE70220F8E7D7
:101BF000631C0008AF1C0008BF1C000810B5044699
:101C000001684A6990F83D30DBB2212B0AD0216887
:101C10004A6902F0400294F83E30DBB2222B11D028
:101C2000002010BD02F08002002AF0D04B6923F0A2
:101C300080034B61406B08B1FFF706FC2046FFF7BD
:101C4000CBFEE4E7002AEBD04B6923F040034B6165
:101C5000A06B08B1FFF7F8FB2046FFF7C6FEDFE7F1
:101C6000704708B50346406A1B681B6813F0200FD5
:101C70000CD10023C3840268536923F080035361AD
:101C80000268D36843F04003D36008BDFFF7E8FF64
:101C9000FBE708B50168CA6822F04002CA6020224A
:101CA00080F83D20FFF7DCFF002008BD704708B535
:101CB000406AFFF7FBFF08BD70477047704710B5DB
:101CC000446A23685A6994F83D30DBB2212B10D066
:101CD00023685A6902F0400294F83E30DBB2222BAE
:101CE00011D0236C43F0100323642046FFF7E6FF76
:101CF00010BD02F08002002AEAD00023E3842046CF
:101D0000FFF76AFEE4E7002AEBD00023E3852046D4
:101D1000FFF76BFEE5E708B5406A0023C385C3847F
:101D2000FFF7CCFF08BD704790F83E30DBB2222BA6
:101D300060D18368B3F5805F46D0826AB3F5805F77
:101D400004D0002B4DD10369002B4AD103685B6896
:101D50001370836A01338362C38D9BB2013B9BB2D4
:101D6000C385002B48D100B583B00268D36823F047
:101D70002003D3600268D36823F48073D3600268C1
:101D8000536923F001035361202380F83E30036B35
:101D9000012B2CD1002303630268D36823F01003C6
:101DA000D36003681A6812F0100F06D00022019267
:101DB0001A6801925B680193019B818DFFF7B3FF65
:101DC000002003B05DF804FB0269002AB5D1826AE5
:101DD00003685B68C3F308031380836A023383627A
:101DE000BAE703685B6803F07F031370B1E7FFF79E
:101DF00063FFE5E7022070470020704730B583B0ED
:101E0000044602681368D068516913F00F0505D1C4
:101E100013F0200F02D010F0200F19D12DB111F0C6
:101E2000010119D110F4907F16D1216B012975D0D1
:101E300013F0800F03D010F0800F40F0D78013F024
:101E4000400F03D010F0400F40F0D48003B030BDFD
:101E50002046FFF769FFF9E713F0010F06D010F4F1
:101E6000807F03D0226C42F00102226413F0040F41
:101E700004D019B1226C42F00202226413F0020F66
:101E800004D019B1226C42F00402226413F0080F4E
:101E900007D010F0200F00D119B1226C42F00802D7
:101EA0002264226C002AD1D013F0200F02D010F04F
:101EB000200F21D123685B6903F04003226C12F0EC
:101EC000080F00D123B32046FFF78FFD23685A691E
:101ED00012F0400F18D05A6922F040025A61A36BE9
:101EE00073B1464A5A63A06BFFF7D0FA0028ADD011
:101EF000A06B436B9847A9E72046FFF715FFD9E78A
:101F00002046FFF7DBFEA1E72046FFF7D7FE9DE75F
:101F10002046FFF7D3FE0023236497E713F0100F4A
:101F200086D010F0100F83D0002301931368019323
:101F300053680193019B536913F0400F32D0A16B9A
:101F40000B685B689BB2002B80D0A08D98427FF617
:101F50007DAFE3858B69202B08D1A18DE38D9BB2EA
:101F6000C91A89B22046FFF7DEFE6FE7D36823F473
:101F70008073D3602268536923F0010353612268A0
:101F8000536923F040035361202384F83E3000233B
:101F900023632268D36823F01003D360A06BFFF79C
:101FA00053FADAE7A38DE18D89B25B1A99B2E38D1A
:101FB0009BB2002B3FF44AAF00293FF447AFD368F0
:101FC00023F49073D3602268536923F001035361B3
:101FD000202384F83E30002323632268D36823F053
:101FE0001003D3602046FFF79EFE2FE72046FFF741
:101FF00015FD2BE72046FFF74CFE27E7171D0008CD
:1020000008B5406A036B012B02D0FFF756FE08BDEE
:10201000818D4908FFF787FEF9E708B50346406A56
:102020001B681B6813F0200F16D10023C3850268BC
:10203000D36823F48073D3600268536923F00103EB
:1020400053610268536923F040035361202380F8F1
:102050003E30036B012B05D0036B012B08D0FFF73B
:102060002BFE08BD0268D36823F01003D360F3E7AA
:10207000818DFFF758FEF4E730B583B00446134670
:102080008162828500250564222280F83E20826BD1
:1020900014489062A26B1448D062A26B134810637C
:1020A000A26B556320680A46011DA06BFFF792F9E9
:1020B000019523681A6801925A680192019A84F87E
:1020C0003C50DA6842F48072DA602268536943F067
:1020D000010353612268536943F04003536128466A
:1020E00003B030BD1B20000801200008BF1C000801
:1020F00008B590F83E30DBB2202B0DD171B17AB12A
:1021000090F83C30012B0DD0012380F83C300023A7
:102110000363FFF7B1FF00E0022008BD0120FCE7E8
:102120000120FAE70220F8E7704700F10803436056
:102130004FF0FF328260C360036100230360704789
:1021400000230361704743684B609A688A6051605E
:1021500099600861036801330360704730B40D680B
:10216000B5F1FF3F11D000F108031C465B681A6807
:10217000AA42FAD963684B6099608C60616008611B
:1021800003680133036030BC70470469F2E70369F8
:10219000416882688A60416851605A68824206D00C
:1021A000002202611A68013A1A6018687047826852
:1021B0005A60F5E710B5044601F0CCFCA26BE36B66
:1021C0009A4204D0002401F0E7FC204610BD01240F
:1021D000F9E710B5044601F0BDFCA36B23B9012457
:1021E00001F0DAFC204610BD0024F9E770B5044682
:1021F0001546866B026C5AB903681BB10020013684
:10220000A66370BD406800F0E5FF00236360F6E759
:102210006DB9806802F06CFF226CA3681344A36060
:102220006268934219D32368A3602846E7E7C06831
:1022300002F05EFF226C5142E3689B1AE360226861
:10224000934202D263680B44E360022D01D0002068
:10225000D5E726B1013E0020D1E72846CFE7002090
:10226000CDE708B50346026C62B10846D96811444F
:10227000D960D3F804C0614501D31968D960D96821
:1022800002F036FF08BD38B5054601F063FC95F84D
:10229000454064B201E0013C64B2002C0ADD6B6A87
:1022A00043B105F1240000F0CFFE0028F3D000F088
:1022B0007BFFF0E7FF2385F8453001F06DFC01F06E
:1022C00049FC95F8444064B201E0013C64B2002C42
:1022D0000ADD2B6943B105F1100000F0B5FE0028BE
:1022E000F3D000F061FFF0E7FF2385F8443001F000
:1022F00053FC38BD38B5E0B10D46044601F02AFC68
:102300002368E26B216C01FB023060600020A06357
:10231000A360013A02FB0133E360FF2384F84430F9
:1023200084F84530FDB9236963B901F035FC01201B
:1023300038BD4FF0500383F31188BFF36F8FBFF3A5
:102340004F8FFEE704F1100000F07EFE0028ECD075
:102350004FF0E0234FF08052C3F8042DBFF34F8FAE
:10236000BFF36F8FE1E704F11000FFF7DEFE04F129
:102370002400FFF7DAFED8E738B51D46049C0B466B
:1023800049B92460E063236401212046FFF7B2FFCE
:1023900084F84C5038BD2260F4E740B94FF0500348
:1023A00083F31188BFF36F8FBFF34F8FFEE710B534
:1023B00084B01C46844653B192B189B94FF05003A2
:1023C00083F31188BFF36F8FBFF34F8FFEE74FF09A
:1023D000500383F31188BFF36F8FBFF34F8FFEE776
:1023E0006AB150230393039B502B13D04FF050033B
:1023F00083F31188BFF36F8FBFF34F8FFEE7002980
:10240000EFD04FF0500383F31188BFF36F8FBFF30A
:102410004F8FFEE7012384F8463000949DF8183072
:102420006046FFF7A9FF204604B010BDF0B585B0A7
:10243000019288B10F461D460446B1B1022D20D14C
:10244000E36B012B1DD04FF0500383F31188BFF3D2
:102450006F8FBFF34F8FFEE74FF0500383F3118868
:10246000BFF36F8FBFF34F8FFEE7036C002BE5D0F8
:102470004FF0500383F31188BFF36F8FBFF34F8F7B
:10248000FEE700F097FE064658B9019B002B48D0A6
:102490004FF0500383F31188BFF36F8FBFF34F8F5B
:1024A000FEE700263DE02A4639462046FFF79EFE1D
:1024B000636A7BB948B14FF0E0234FF08052C3F814
:1024C000042DBFF34F8FBFF36F8F01F065FB012029
:1024D00005B0F0BD04F1240000F0B6FD0028F4D0F2
:1024E0004FF0E0234FF08052C3F8042DBFF34F8F1D
:1024F000BFF36F8FE9E701F04FFB0020E8E702A888
:1025000000F004FE012619E0002384F8443021E0A5
:10251000002384F8453023E02046FFF7B4FE00F0A6
:1025200073FC01F017FBA26BE36B9A42BBD3022D45
:10253000B9D0019B002BDED0002EE0D001F02CFBA7
:1025400000F0C8FB01F006FB94F8442052B2B2F14F
:10255000FF3FD9D094F8452052B2B2F1FF3FD7D017
:1025600001F01AFB01A902A800F0DCFDD8B9204651
:10257000FFF720FE0028CFD0019904F1100000F0F1
:102580002FFD2046FFF77FFE00F03EFC0028C8D15B
:102590004FF0E0234FF08052C3F8042DBFF34F8F6C
:1025A000BFF36F8FBDE72046FFF76DFE00F02CFCF8
:1025B00000208DE72DE9F84390B10F4616461C46E2
:1025C0000546B1B1022C20D1EB6B012B1DD04FF091
:1025D000500383F31188BFF36F8FBFF34F8FFEE774
:1025E0004FF0500383F31188BFF36F8FBFF34F8F0A
:1025F000FEE7036C002BE5D04FF0500383F3118806
:10260000BFF36F8FBFF34F8FFEE701F08DFBEFF34A
:1026100011884FF0500383F31188BFF36F8FBFF31E
:102620004F8FAA6BEB6B9A4206D3022C04D000208A
:1026300088F31188BDE8F88395F845904FFA89F939
:10264000224639462846FFF7D1FDB9F1FF3F06D0B3
:1026500009F101035BB285F845300120E8E76B6AB8
:102660000BB90120E4E705F1240000F0EDFC18B1FE
:1026700026B101203060DBE70120D9E70120D7E750
:10268000F0B585B0019290B10F460446C1B100F09B
:1026900091FD064600BB019B002B5ED04FF050031E
:1026A00083F31188BFF36F8FBFF34F8FFEE74FF0B7
:1026B000500383F31188BFF36F8FBFF34F8FFEE793
:1026C000036C002BE3D04FF0500383F31188BFF36A
:1026D0006F8FBFF34F8FFEE700263EE0394620465E
:1026E000FFF7BFFD013DA563236923B901F054FA4B
:1026F000012005B0F0BD04F1100000F0A5FC002899
:10270000F4D04FF0E0234FF08052C3F8042DBFF314
:102710004F8FBFF36F8FE9E701F03EFA0020E8E743
:1027200002A800F0F3FC012621E0002384F84430E5
:1027300029E0002384F845302BE02046FFF7A3FD75
:1027400000F062FB09E02046FFF79DFD00F05CFB16
:102750002046FFF73EFD00283FD101F0FBF9A56BB5
:10276000002DBBD1019B002BD6D0002ED8D001F07C
:1027700013FA00F0AFFA01F0EDF994F844305BB2CF
:10278000B3F1FF3FD1D094F845305BB2B3F1FF3FD6
:10279000CFD001F001FA01A902A800F0C3FC002883
:1027A000D1D12046FFF715FD0028C6D0019904F1CC
:1027B000240000F015FC2046FFF765FD00F024FB27
:1027C0000028CAD14FF0E0234FF08052C3F8042D07
:1027D000BFF34F8FBFF36F8FBFE7002089E7000083
:1027E0000023072B0CD8074A52F833200AB10133D3
:1027F000F7E7044A42F8331002EBC3025060704717
:10280000704700BFC80B002070B504460D46164641
:1028100001F0A0F994F844305BB2B3F1FF3F0DD062
:1028200094F845305BB2B3F1FF3F0BD001F0B4F93F
:10283000A36B5BB12046FFF726FD70BD002384F833
:102840004430EDE7002384F84530EFE7324629466F
:1028500004F1240000F0DCFBECE70000084B1B68EF
:102860001B6823B9074B4FF0FF321A607047044BC7
:102870001B68DB68DB685A68024B1A60704700BF50
:102880000C0C0020B81000202DE9F04780460D46C2
:1028900017469946089EDDF824A00A9C9200A521BF
:1028A000206B02F033FC236B07F18042013A03EB0B
:1028B000820727F007074FF0000CBCF10F0F09D873
:1028C00015F80C3004EB0C0282F8343013B10CF123
:1028D000010CF2E7002384F84330372E00D9372665
:1028E000E662E66400252565201DFFF729FC04F15A
:1028F0001800FFF725FC2461C6F13806A661646262
:10290000656584F858504A464146384601F0FCF85F
:102910002060BAF1000F01D0CAF80040BDE8F0878E
:1029200038B5002407E004EB840293000E481844F5
:10293000FFF7FBFB0134372CF5D90C4D2846FFF788
:10294000F4FB0B4C2046FFF7F0FB0A48FFF7EDFBCA
:102950000948FFF7EAFB0948FFF7E7FB084B1D6052
:10296000084B1C6038BD00BF140C00208C100020E8
:10297000A0100020C0100020EC100020D810002073
:102980000C0C0020100C002010B5044601F0E2F8F9
:10299000224A136801331360214B1B685BB1214B42
:1029A0001B686BB91E4B1B68DA6AE36A9A4207D848
:1029B0001B4B1C6004E01A4B1C601368012B29D0D0
:1029C000194A1368013313606364E06A174B1B688C
:1029D000984201D9154B186000EB8000211D144B63
:1029E00003EB8000FFF7AFFB01F0D6F80D4B1B683F
:1029F0007BB10B4B1B68DA6AE36A9A4209D24FF04B
:102A0000E0234FF08052C3F8042DBFF34F8FBFF384
:102A10006F8F10BDFFF784FFD2E700BF7410002056
:102A2000080C0020D4100020841000208810002002
:102A3000140C002010B5044690F8593063B1012BF6
:102A400011D0022B0ED04FF0500383F31188BFF347
:102A50006F8FBFF34F8FFEE7006B00F0EDFF204656
:102A600000F0EAFF10BD00F0E7FFFBE70F4B1B682B
:102A7000D3B110B501F06EF80D4BDB68DC68201D9A
:102A8000FFF785FB0B4A1368013B1360074A136885
:102A9000013B136001F080F82046FFF7CBFF034BAA
:102AA0001B68002BE6D110BD704700BF78100020D6
:102AB000EC1000207410002008B5FFF7D7FF074B7B
:102AC0001B68012BF9D94FF0E0234FF08052C3F877
:102AD000042DBFF34F8FBFF36F8FEEE7140C002070
:102AE00070B504460D46174B1E68174B1868043026
:102AF000FFF74DFBB4F1FF3F0DD03444124B1B6880
:102B00005C60A64210D9114B18680F4B196804314C
:102B1000FFF724FB70BD002DEFD00B4B196804317B
:102B20000B48FFF710FBF5E70A4B1868064B1968CE
:102B30000431FFF713FB084B1B68A342EAD9064B8D
:102B40001C60E7E700110020080C0020100C00209A
:102B5000D81000200C0C0020B810002030B587B031
:102B60000B9C7CB10C9DB5B15C250495049D5C2D3E
:102B70001AD04FF0500383F31188BFF36F8FBFF368
:102B80004F8FFEE74FF0500383F31188BFF36F8F31
:102B9000BFF34F8FFEE74FF0500383F31188BFF36D
:102BA0006F8FBFF34F8FFEE70C9D2C63022485F8D7
:102BB000594000240394029505AC01940A9C0094AA
:102BC000FFF762FE0C98FFF7DFFE059807B030BDF7
:102BD0002DE9F04385B00746884614461E4690000E
:102BE00000F0B2FE00B381465C2000F0ADFE054669
:102BF000B0B1C0F83090E5B1002385F859300393A7
:102C000002950D9B01930C9B00933346224641464F
:102C10003846FFF739FE2846FFF7B6FE012005E0EB
:102C2000484600F009FFE6E74FF0FF3005B0BDE889
:102C3000F0834FF0FF30F9E710B588B00024059419
:102C4000069407AA06A905A800F004FE059B0293B6
:102C5000069B019300942346079A18491848FFF7EA
:102C60007DFF184B186040B100F068FB012806D0CA
:102C7000B0F1FF3F18D008B010BD0020F6E74FF0CC
:102C8000500383F31188BFF36F8FBFF34F8F0E4B49
:102C90004FF0FF321A600D4B01221A600C4B0022DC
:102CA0001A6000F0E1FFE6E74FF0500383F311886C
:102CB000BFF36F8FBFF34F8FFEE700BF30F2000806
:102CC000B92A0008B4100020B8100020D410002049
:102CD00000110020024A136801331360704700BFDF
:102CE00080100020014B1868704700BF00110020C1
:102CF000F8B53A4B1B68002B64D1394B1D68013580
:102D00001D60C5B9374B1B681B6843B14FF05003BA
:102D100083F31188BFF36F8FBFF34F8FFEE7314A04
:102D20001168314B186810601960304A136801331C
:102D30001360FFF793FD2E4B1B68AB4238D9002779
:102D40002C4B1B68DB6A03EB83039A002A4B9B58CE
:102D5000012B3CD901273AE00127224B1B681B6855
:102D600043B3204B1B68DB68DC6863689D4226D355
:102D7000261D3046FFF70BFAA36A1BB104F11800B9
:102D8000FFF705FAE36A1D4A1268934201D91B4A0C
:102D9000136003EB83039A00314617481044FFF792
:102DA000D2F9E26A134B1B68DB6A9A42D4D2D4E7A9
:102DB0000027D2E70E4B4FF0FF321A60C0E70C4AF3
:102DC0001360BDE70E4A13680133136000270D4BF3
:102DD0001B6803B101273846F8BD00BF80100020F2
:102DE000001100200C0C0020100C0020BC10002052
:102DF000B8100020080C0020140C002088100020BF
:102E00007C1000200411002038B5354B1B6843B9F5
:102E10004FF0500383F31188BFF36F8FBFF34F8FD1
:102E2000FEE700F097FE2E4B1A68013A1A601B6805
:102E3000002B4FD12B4B1B680BB900244BE0002417
:102E4000294B1B681BB3284BDB68DC6804F11800B6
:102E5000FFF79DF9251D2846FFF799F9E06A234BF6
:102E60001B68984201D9214B186000EB800029466D
:102E70001F4B03EB8000FFF766F9E26A1D4B1B68EE
:102E8000DB6A9A42DCD31C4B01221A60D8E70CB1F2
:102E9000FFF7E4FC194B1C6884B9174B1C68D4B1CC
:102EA0004FF0E0234FF08052C3F8042DBFF34F8F53
:102EB000BFF36F8F01240EE0013C07D0FFF718FF2E
:102EC0000028F9D00C4B01221A60F5E70B4B0022C9
:102ED0001A60E2E7002400F05FFE204638BD00BF24
:102EE0008010002074100020C010002088100020E6
:102EF000140C0020080C0020041100207C1000207D
:102F000010B5A8B10446104B1B6843B14FF05003F5
:102F100083F31188BFF36F8FBFF34F8FFEE7FFF787
:102F2000D9FE00212046FFF7DBFDFFF76DFF48B912
:102F30004FF0E0234FF08052C3F8042DBFF34F8FC2
:102F4000BFF36F8F10BD00BF801000201F4B1B68A8
:102F50001BB11F4B01221A6070471D4B00221A60E3
:102F60001C4B1B6803EB83018A001B498A585AB922
:102F70000BB1013BF6E74FF0500383F31188BFF329
:102F80006F8FBFF34F8FFEE703EB830082000A448D
:102F900050684068506003EB830C4FEA8C020832A3
:102FA000114488420BD003EB830291000A4A0A4481
:102FB0005268D168094A1160064A13607047406838
:102FC00062469100044A0A445060ECE780100020F9
:102FD0000411002088100020140C0020080C002090
:102FE00058B110B50C46094A11681831FFF7B6F808
:102FF00001212046FFF774FD10BD4FF0500383F30D
:103000001188BFF36F8FBFF34F8FFEE7080C0020CE
:1030100038B570B10D4614460A4A11681831FFF7E9
:1030200092F80CB14FF0FF3521462846FFF758FDC6
:1030300038BD4FF0500383F31188BFF36F8FBFF398
:103040004F8FFEE7080C002038B5C368DC6824B356
:1030500004F118052846FFF79AF8184B1B682BBB9C
:10306000251D2846FFF793F8E06A154B1B68984228
:1030700001D9134B186000EB80002946114B03EB7C
:103080008000FFF760F8E26A0F4B1B68DB6A9A4228
:1030900011D901200D4B186038BD4FF0500383F358
:1030A0001188BFF36F8FBFF34F8FFEE729460848A3
:1030B000FFF749F8E7E70020EEE700BF80100020A7
:1030C00088100020140C0020080C0020041100209F
:1030D000C010002060B110B5044600F03BFD094B64
:1030E0001B682360084B1B68636000F055FD10BD32
:1030F0004FF0500383F31188BFF36F8FBFF34F8FEF
:10310000FEE700BFBC10002000110020034B1B682D
:103110000360034B1B684360704700BFBC10002076
:1031200000110020D8B170B50C46054601B300F07F
:1031300011FD1B4B19686B68C81A2268B2F1FF3F7A
:1031400027D0184E3668D5F800C0B44501D08B4260
:1031500024D9824215D80023236001241AE04FF0BD
:10316000500383F31188BFF36F8FBFF34F8FFEE7D8
:103170004FF0500383F31188BFF36F8FBFF34F8F6E
:10318000FEE75B1A134423602846FFF7BFFF0024C5
:1031900000E0002400F000FD204670BD0124F9E7A6
:1031A00000110020BC100020014B01221A60704762
:1031B00004110020054B1B6833B1054B1B680BB194
:1031C000002070470220704701207047D410002073
:1031D0008010002000283BD038B504461E4B1B68E9
:1031E000834208D04FF0500383F31188BFF36F8FF1
:1031F000BFF34F8FFEE7036D43B94FF0500383F3E6
:103200001188BFF36F8FBFF34F8FFEE7013B03655C
:10321000C16AC26C91421DD00BB1002038BD051DA2
:103220002846FEF7B4FFE06CE062C0F13803A3610A
:103230000A4B1B68984201D9084B186000EB8000CC
:103240002946074B03EB8000FEF77DFF0120E5E7F1
:10325000002070470020E1E7080C002088100020C3
:10326000140C0020064B1A681368B3FA83F35B0949
:10327000036013B9D368186870470020704700BF17
:103280000811002008B54160006191420CD8D21AA3
:1032900083699A4201D3012008BD011D094B1868BA
:1032A000FEF75CFF0020F7E79A4201D2994206D26E
:1032B000011D054B1868FEF751FF0020ECE70120C7
:1032C000EAE700BF0C1100200811002030B583B0E0
:1032D00000F040FC114B1B681BB100F05DFC03B01B
:1032E00030BD0F4D2846FEF720FF0E4C2046FEF75E
:1032F0001CFF0D4B1D600D4B1C60002300930C4BFD
:103300000C4A10210A20FFF748F8044B18600028E7
:10331000E3D00949FFF764FADFE700BF2C12002071
:10332000B0110020C4110020081100200C11002051
:10333000DC1100201011002038F2000810B588B010
:10334000FFF7C4FF124B1B68CBB100240594069411
:1033500007AA06A905A800F089FA059B0293069B17
:103360000193022300932346079A0A490A48FFF76C
:10337000F5FB0A4B186010B1012008B010BD4FF0EA
:10338000500383F31188BFF36F8FBFF34F8FFEE7B6
:103390002C12002040F200087D3600083012002078
:1033A000B8B19C4603461848006858B300B585B0CC
:1033B00000910192029305291CDCFFF7FBFE022815
:1033C00010D000231A4669460F480068FFF72EF810
:1033D00015E04FF0500383F31188BFF36F8FBFF3F5
:1033E0004F8FFEE70023069A694607480068FFF7FB
:1033F0001DF804E0002362466946FFF7DBF805B0DC
:103400005DF804FB002070472C12002070B582B0DC
:103410001A4B1B681A6852B3DB681E68DC68251DEE
:103420002846FEF7B4FE636A20469847E369012BFD
:10343000EED1A36933449E4207D2636024612946DA
:103440000E4B1868FEF78AFEE2E7002100910B465A
:1034500032462046FFF7A4FF0028D9D14FF0500391
:1034600083F31188BFF36F8FBFF34F8FFEE7044ADA
:10347000106802490860136002B070BD0811002096
:103480000C11002038B50546FFF72CFC0446074B0D
:103490001B68834205D800232B60044B1C60204628
:1034A00038BDFFF7B3FF01232B60F6E7D8110020EA
:1034B00070B582B006460D4614490968C968CC68E3
:1034C000201DFEF764FEE169012904D0636A2046ED
:1034D000984702B070BDA16933462A463144204660
:1034E000FFF7D0FE0028F1D0002100910B463246B4
:1034F0002046FFF755FF0028E8D14FF0500383F333
:103500001188BFF36F8FBFF34F8FFEE708110020C4
:1035100070B582B006460C46FFF7DCFB01A8FFF74A
:10352000B1FF019B2BBB05460CB9B0421AD22CB19E
:10353000124B1B681C68B4FA84F464092246711BA0
:103540000F4B1868FFF760F9FFF75EFC98B94FF072
:10355000E0234FF08052C3F8042DBFF34F8FBFF329
:103560006F8F08E0FFF750FC29463046FFF7A0FFB9
:1035700001E0FFF749FC02B070BD00BF0C11002054
:103580002C12002010B588B002E0049B002B0FDA4B
:10359000002204A9384B1868FFF772F8002869D098
:1035A000049B002BF1DA07990698059B9847ECE7F6
:1035B000069C636913B1201DFEF7E9FD03A8FFF720
:1035C00061FF049B092BE3D801A252F823F000BF4E
:1035D000F9350008F9350008F9350008913500087B
:1035E0003F36000865360008F9350008F93500084F
:1035F000913500083F360008059BA1690246194431
:103600002046FFF73FFE0028C2D0636A2046984755
:10361000E369012BBCD1A269002100910B460598FA
:1036200002442046FFF7BCFE0028B1D14FF0500302
:1036300083F31188BFF36F8FBFF34F8FFEE70599B8
:10364000A16131B10346024601442046FFF71AFE4C
:103650009EE74FF0500383F31188BFF36F8FBFF3E2
:103660004F8FFEE794F82C30002B91D1204600F0CC
:10367000E3F98DE708B010BD2C12002000B583B02F
:1036800001A8FFF7EFFD0199FFF742FFFFF77AFF6F
:10369000F6E70000EFF3058393B9EFF3108393B9D6
:1036A0000C4B1868022804D080B90A4B01221A601A
:1036B0007047EFF31183002BF6D06FF005007047D1
:1036C0006FF0050070476FF0050070474FF0FF3056
:1036D000704700BF9014002008B5EFF30583B3B91D
:1036E000EFF31083B3B90E4B1B68022B08D0012BEC
:1036F00013D10B4B02221A60FFF79EFA002008BD7F
:10370000EFF31182002AF2D06FF00500F7E76FF0B7
:103710000500F4E76FF00500F1E74FF0FF30EEE74A
:1037200090140020F0B587B000240494EFF30584D2
:10373000002C43D1EFF31083002B3FD1334B1B6898
:10374000022B16D0002839D000238DF8173062B331
:10375000156895B1936903B918235C1E372C51D8AD
:10376000546814F0010F4FD156694EB14FEA960CD0
:1037700008E0EFF311830BBBE4E70DF11705E9E770
:103780004FF0800C94682CB1D7685B2F02D9176971
:1037900007B1B6B914B14FF0FF340CE0D46894B956
:1037A00014699CB14FF0FF3405E0002418234FF05A
:1037B000800C0DF11705012C0AD0ACB1049807B0AC
:1037C000F0BD0124F7E74FF0FF34F4E70024F2E7FF
:1037D000146992680292019400930B46624629464E
:1037E000FFF7BCF90490E9E704AA019200930B46A5
:1037F0001FFA8CF22946FFF7EBF90128DED00023EF
:103800000493DBE70020DAE70020D8E790140020DB
:1038100008B5EFF30583A3B9EFF31083A3B90C4BFD
:103820001B68022B02D040B9002008BDEFF31183C2
:10383000002BF8D06FF00500F7E7FFF761FB0020E1
:10384000F3E76FF00500F0E76FF00500EDE700BF6C
:1038500090140020034B0360034B0B608023136024
:10386000704700BF3414002034120020034B036063
:10387000034B0B604FF48073136070479418002063
:1038800094140020124A12F0070F1ED0D11D21F00F
:103890000701C1F5406313440A460E480260002147
:1038A00041601344083B23F007030B480360596051
:1038B0001960991A51601360084B1960084B196020
:1038C000084B4FF000421A6070474FF44063E4E742
:1038D000F418002000250020F0180020FC2400200F
:1038E000F8240020F4240020154B1A461B6883425C
:1038F000FBD3516802EB010C844509D0416800EB11
:10390000010C634509D00360904218D010607047E5
:103910004068014451601046F0E710B4094C246837
:10392000A3420AD05B681944416013681B680360B6
:10393000904200D0106010BC70470460F8E77047F8
:1039400000250020F018002070B50546FFF7C2F9E9
:10395000344B1B68A3B1344B1B681D424AD135B1AF
:10396000083515F0070F02D025F007050835002DA2
:1039700042D02E4B1B68AB424DD32D4A146804E055
:10398000FFF780FFE7E722461C466368AB4202D29E
:103990002368002BF7D1234B1B68A3423DD0166848
:1039A00008362368136063685B1B102B10D96019FD
:1039B00010F0070F08D04FF0500383F31188BFF3C6
:1039C0006F8FBFF34F8FFEE743606560FFF78CFF9B
:1039D000626816490B689B1A0B60164909688B428E
:1039E00001D214490B60104B1B6813436360002322
:1039F000236002E0002600E00026FFF705FA16F03B
:103A0000070F0CD04FF0500383F31188BFF36F8F73
:103A1000BFF34F8FFEE70026EFE70026EDE73046C5
:103A200070BD00BFF0180020F4240020F82400200E
:103A300000250020FC24002080B338B50446A0F106
:103A4000080550F8043C164A1268134208D14FF09A
:103A5000500383F31188BFF36F8FBFF34F8FFEE7DF
:103A600050F8081C41B14FF0500383F31188BFF3A5
:103A70006F8FBFF34F8FFEE723EA020340F8043C49
:103A8000FFF728F954F8041C064A13680B44136026
:103A90002846FFF729FFFFF7B7F938BD704700BF89
:103AA000F4240020F824002082B0002301930D4B61
:103AB0001B68B3F1FF3F08D04FF0500383F3118828
:103AC000BFF36F8FBFF34F8FFEE74FF0500383F3C9
:103AD0001188BFF36F8FBFF34F8F019B002BFCD07A
:103AE00002B070471000002006480068006880F3AC
:103AF000088862B661B6BFF34F8FBFF36F8F00DFE8
:103B000000BF000008ED00E04FF0807340F8043C77
:103B100021F0010140F8081C034B40F80C3C40F830
:103B2000202C4038704700BFA93A00080000000070
:103B3000074B19680868B0E8F00F80F30988BFF3F5
:103B40006F8F4FF0000080F311884EF00D0E70471C
:103B5000080C00204FF0500383F31188BFF36F8FE0
:103B6000BFF34F8F0B4A136801331360012B00D052
:103B700070474FF0E023D3F8043D13F0FF0FF7D068
:103B80004FF0500383F31188BFF36F8FBFF34F8F54
:103B9000FEE700BF10000020094B1B6843B94FF03F
:103BA000500383F31188BFF36F8FBFF34F8FFEE78E
:103BB000013B034A13600BB983F31188704700BFC0
:103BC00010000020000000000000000000000000C5
:103BD000EFF30980BFF36F8F0D4B1A6820E9F00FE8
:103BE00010602DE908404FF0500080F31188FFF776
:103BF000ADF94FF0000080F31188BDE80840196866
:103C00000868B0E8F00F80F30988BFF36F8F704742
:103C1000080C002008B54FF0500383F31188BFF360
:103C20006F8FBFF34F8FFFF763F828B14FF0E0239A
:103C30004FF08052C3F8042D002383F3118808BD90
:103C40004FF0E022002313619361054B1B68054987
:103C5000A1FB03139B09013B5361072313617047C9
:103C60000C000020D34D621010B582B02A4B1A7898
:103C7000D2B20192FF221A701B78DBB28DF80330AA
:103C80009DF8033003F05003244A1370244B07229D
:103C90001A6009E0224A1368013B13609DF8033063
:103CA0005B00DBB28DF803309DF8033013F0800F1A
:103CB000F0D11B4B1B68032B08D04FF0500383F34C
:103CC0001188BFF36F8FBFF34F8FFEE71B02144ABB
:103CD000136003F4E0631360019BDBB20E4A1370C0
:103CE0004FF0E023D3F8202D42F47002C3F8202DCA
:103CF000D3F8202D42F07042C3F8202DFFF7A0FF2B
:103D00000024084B1C60FFF7EFFEFFF71FF9FFF7D9
:103D1000CBFE204602B010BD00E400E008250020E4
:103D20000C25002010000020EFF305830F2B0FD986
:103D3000114A9B5CDBB2114A12789A4208D94FF0C3
:103D4000500383F31188BFF36F8FBFF34F8FFEE7EC
:103D50004FF0E023D3F80C3D03F4E063084A126807
:103D6000934208D94FF0500383F31188BFF36F8F4C
:103D7000BFF34F8FFEE77047F0E300E00825002017
:103D80000C250020124A12F0070F1ED0D11D21F081
:103D90000701C1F5406313440A460E480260002142
:103DA00041601344083B23F007030B48036059604C
:103DB0001960991A51601360084B1960084B19601B
:103DC000084B4FF000421A6070474FF44063E4E73D
:103DD0001425002020310020102500201C31002057
:103DE0001831002014310020154B1A461B688342FD
:103DF000FBD3516802EB010C844509D0416800EB0C
:103E0000010C634509D00360904218D010607047E0
:103E10004068014451601046F0E710B4094C246832
:103E2000A3420AD05B681944416013681B680360B1
:103E3000904200D0106010BC70470460F8E77047F3
:103E4000203100201025002070B50546FEF742FF06
:103E5000344B1B68A3B1344B1B681D424AD135B1AA
:103E6000083515F0070F02D025F007050835002D9D
:103E700042D02E4B1B68AB424DD32D4A146804E050
:103E8000FFF780FFE7E722461C466368AB4202D299
:103E90002368002BF7D1234B1B68A3423DD0166843
:103EA00008362368136063685B1B102B10D96019F8
:103EB00010F0070F08D04FF0500383F31188BFF3C1
:103EC0006F8FBFF34F8FFEE743606560FFF78CFF96
:103ED000626816490B689B1A0B60164909688B4289
:103EE00001D214490B60104B1B681343636000231D
:103EF000236002E0002600E00026FEF785FF16F0B2
:103F0000070F0CD04FF0500383F31188BFF36F8F6E
:103F1000BFF34F8FFEE70026EFE70026EDE73046C0
:103F200070BD00BF10250020143100201831002082
:103F3000203100201C31002080B338B50446A0F1A8
:103F4000080550F8043C164A1268134208D14FF095
:103F5000500383F31188BFF36F8FBFF34F8FFEE7DA
:103F600050F8081C41B14FF0500383F31188BFF3A0
:103F70006F8FBFF34F8FFEE723EA020340F8043C44
:103F8000FEF7A8FE54F8041C064A13680B4413609D
:103F90002846FFF729FFFEF737FF38BD704700BFFF
:103FA000143100201831002050F8043C024A1068F7
:103FB00023EA0000704700BF1431002070B50546A9
:103FC0000C46FEF787FE2046FFF73EFF064678B117
:103FD00075B12846FFF7E8FF0838844200D304464D
:103FE00022462946304601F083F82846FFF7A4FF11
:103FF000FEF70AFF304670BD38B505460C46FEF7A1
:1040000069FE05FB04F42046FFF71EFF0546034644
:1040100003E0002103F8011B1446621E002CF8D1B6
:10402000FEF7F2FE284638BD08B505490A68024485
:104030000A6004490A6802440A60FFF705FF08BDE8
:10404000283100202C31002058B110B50446FFF76C
:10405000ABFF044A13681B1A13602046FFF76CFF7E
:1040600010BD70472C31002038B50C460C4A13683F
:104070000B4413600B4A13680B44136058B1054698
:10408000FFF792FF074A13681B1A13602146284660
:10409000FFF794FF38BD0846FFF7D6FEFAE700BFEA
:1040A000283100202C31002010B501FB00F3054C15
:1040B00022681A442260044C22681A442260FFF7E6
:1040C0009BFF10BD283100202C3100200000000093
:1040D0002DE9F04107460E46144615A3D3E9002307
:1040E000FCF75AF80D4680462060616010A3D3E9C2
:1040F000002338463146FCF74FF8A260002A01DB66
:10410000BDE8F081084981FB0231D317C3EB21736D
:104110000133B8EB030165EBE3752160656003498A
:1041200001FB0322A260EBE7A12FB84400CA9A3B2F
:1041300000CA9A3B0000000070B582B00D46002412
:10414000009401946846FEF7C5FF009E019A4FEA6D
:10415000461C4CEAD26C53019B1A6CEB060C4FEADE
:104160004C2C4CEAD35C5B029B1846EB0C0C4FEAE0
:104170008C1141EA93619801C01A61EB0C0180181F
:104180002A4646EB0101FFF7A3FF204602B070BDAF
:1041900008B54FF400620349D0F80C01FDF7A8FF01
:1041A000012008BD3031002008B5D0F80C01FDF722
:1041B00025FD012008BD70B5D0F80C5195F83D30B3
:1041C000DBB2202B01D0002070BD144692B22846ED
:1041D000FDF7CEFC064646B995F83D30DBB2202B04
:1041E00003D00120FFF714FBF5E70EB92046EBE7FB
:1041F0000020E9E72DE9F8430D4614461F46D0F8A4
:104200000C81002672B6D8F838301B685868C0F5A3
:104210000060DFF84C90C9F8000062B6013601205A
:10422000FFF7F6FA0F4B1B68D9F80020934214D120
:10423000BE42E7DB002008E00B49C95C295401338A
:10424000C3F30A0307490B600130064B1B689A420F
:1042500001D0A042F0D3BDE8F8830020F5E700BF0D
:1042600034390020303900203031002008B50B48A7
:104270000B4B03600B4B436000238360C3604FF420
:104280008042026143618361C361036200F08AFA84
:1042900000B908BDFCF758F9FBE700BF383900202A
:1042A00000540040A086010010B586B000230293A0
:1042B0000393049305930268114B9A4201D006B010
:1042C00010BD104CA36943F00803A361A36903F078
:1042D00008030093009BC02302931223039303233C
:1042E000059302A90848FCF717FFE36943F400139C
:1042F000E361E36903F400130193019BDFE700BF6F
:104300000054004000100240000C014003685A694C
:1043100012F4806F01D1002070476FF480625A61FF
:1043200000230363202280F83D2080F83E30026C99
:1043300042F00402026480F83C30012070472DE90D
:10434000F04107460D4690461E4624E0FCF77AFBF6
:10435000069BC01AB04200D8EEB900233B6320226E
:1043600087F83D2087F83E303A6C42F020023A64EC
:1043700087F83C3001201EE03B689C6925EA040C6C
:104380001FFA8CFCBCFA8CFC4FEA5C1CE04511D196
:10439000B6F1FF3FDAD1C5F30743012BECD13B68FF
:1043A0005B6925EA030C1FFA8CFCBCFA8CFC4FEA13
:1043B0005C1CEBE70020BDE8F0812DE9F0410546EB
:1043C0000E46174698463DE01A6842F400721A609D
:1043D0002B686FF480625A6100232B63202285F8DA
:1043E0003D2085F83E302A6C42F004022A6485F8AC
:1043F0003C30012034E0FCF725FBA0EB0800B8427C
:1044000000D8FFB900232B63202285F83D2085F8D2
:104410003E302A6C42F020022A6485F83C300120AC
:104420001EE02B689C6926EA0404A4B2003C18BF75
:104430000124A4B12B685A6912F4806FC4D1B7F17A
:10444000FF3FD8D1C6F30743012BEAD12B685C6943
:1044500026EA0404A4B2003C18BF0124E9E70020C6
:10446000BDE8F08170B504460D46164623685B69C9
:1044700013F0800F1CD12046FFF748FFD0B9B5F1EB
:10448000FF3FF3D0FCF7DEFA801BA84201D8002DD5
:10449000ECD100232363202284F83D2084F83E30B1
:1044A000226C42F02002226484F83C30012000E0BB
:1044B000002070BD0120FCE72DE9F04385B00446E3
:1044C0000D4691461F46DDF830800D9E0368196841
:1044D00041F4807119600096434600224FF00111AB
:1044E000FFF72DFF60B9236805F0FE051D61334617
:1044F000424626492046FFF760FF68B1012008E0E8
:1045000023681B6813F4807F02D04FF40073236488
:10451000032005B0BDE8F0830023039323685A69A4
:1045200003929B690393039B324641462046FFF763
:1045300099FF30B9012F0FD123685FFA89F61E6108
:10454000E7E7236C042B01D00120E2E7226813681F
:1045500043F400731360F7E723684FEA19221A61E6
:10456000324641462046FFF77DFF20B923685FFAB7
:1045700089F61E61CDE7236C042B01D00120C8E72A
:104580002268136843F400731360F7E70200010028
:104590002DE9F04784B004460D46164699460C9F17
:1045A000DDF834800268136843F4806313600368A5
:1045B000196841F480711960CDF800803B460022F3
:1045C0004FF00111FFF7BBFE70B95FFA85FA23685F
:1045D00005F0FE051D6143463A4641492046FFF776
:1045E000ECFE68B1012008E023681B6813F4807FAB
:1045F00002D04FF400732364032004B0BDE8F087B9
:104600000023039323685A6903929B690393039BD6
:10461000424639462046FFF725FF80B9B9F1010F20
:1046200018D12368F6B21E61424639462046FFF78C
:1046300019FF68B3236C042B24D00120DDE7236C21
:10464000042B01D00120D8E72268136843F40073DB
:104650001360F7E72368320A1A614246394620465A
:10466000FFF700FF18B92368F6B21E61DCE7236C80
:10467000042B01D00120C0E72268136843F40073C3
:104680001360F7E72268136843F400731360D4E7FC
:104690002268136843F480731360CDF800803B46B2
:1046A00000224FF001112046FFF749FE68B9226849
:1046B0004AF00103136143463A4609492046FFF791
:1046C0007CFE002899D0012097E723681B6813F42B
:1046D000807F02D04FF40073236403208DE700BF76
:1046E0000200010070B504460D46164623685B695A
:1046F00013F0040F1CD12046FFF708FED0B9B5F126
:10470000FF3FF3D0FCF79EF9801BA84201D8002D93
:10471000ECD100232363202284F83D2084F83E302E
:10472000226C42F02002226484F83C30012000E038
:10473000002070BD0120FCE770B505460C4616460A
:104740002B68596911F0400F29D1596911F0100FE8
:1047500015D1FCF777F9801BA04201D8002CEFD1CE
:1047600000232B63202285F83D2085F83E302A6CFB
:1047700042F020022A6485F83C30012070BD6FF0C1
:1047800010025A6100232B63202285F83D2085F812
:104790003E302A6C2A6485F83C300120EEE7002088
:1047A000ECE70000002800F0CC8070B5044690F8DB
:1047B0003D30002B77D0242384F83D3022681368E5
:1047C00023F0010313602268136843F4004313606D
:1047D0002268136823F400431360FCF75FFC6268EF
:1047E0005A4B9A4264D85A4B98428CBF00230123FB
:1047F000002B40F0A8805749A1FB00318B0C2568A5
:104800006A6822F03F0242EA91426A6021680A6ABD
:1048100022F03F0266684D4DAE424FD8013313433C
:104820000B622168CA6922F44F4222F0FF026568D8
:10483000464B9D424CD8431E6D00B3FBF5F301334C
:1048400040F6FC70034278D0C3F30B031A43CA61ED
:1048500021680B6823F0C003E269206A0243134316
:104860000B6021688B6823F4034323F0FF03226964
:10487000E068024313438B602168CB6823F0FF0399
:104880006269A06902431343CB602268136843F056
:104890000103136000202064202384F83D3020634E
:1048A00084F83E0070BD80F83C30FFF7FDFC82E7E5
:1048B000294B98428CBF0023012399E74FF496754A
:1048C00005FB03F3254DA5FB03539B090133A6E725
:1048D000A668BEB9431E05EB450CB3FBFCF30133E0
:1048E000C3F30B03B3FA83F35B0943BBC6B9431E9F
:1048F00005EB4505B3FBF5F30133C3F30B0343F4B9
:104900000043A3E7431E05EB850C0CEB8C0CB3FBBB
:10491000FCF30133C3F30B03B3FA83F35B09E4E75E
:10492000431E05EB850505EB8505B3FBF5F3013368
:10493000C3F30B0343F4404388E7042386E70123D2
:1049400084E7012070470120ACE700BFA08601008A
:104950007F841E0083DE1B43FF083D00D34D6210A1
:104960002DE9F04383B004460F46904699460C9ECD
:10497000FCF768F8054694F83D00C0B2202803D043
:10498000022003B0BDE8F0830095192301224B49B2
:104990002046FFF7D4FC002840F0898094F83C3092
:1049A000012B00F08680012384F83C3023681A68CC
:1049B00012F0010F03D11A6842F001021A60226856
:1049C000136823F400631360212384F83D304023EF
:1049D00084F83E30002323640A9B6362BDF82C30C8
:1049E0006385638D2385364BE362019500964B46C4
:1049F000424639462046FFF75FFD00285BD1238DF4
:104A0000002B35D02A4631462046FFF72BFD20BB30
:104A1000626A236812781A61626A531C6362218D8C
:104A2000013989B22185638D9BB2013B9BB26385BD
:104A30002368586910F0040FE1D00029DFD05278C4
:104A40001A61636A01336362238D013B2385638DA1
:104A50009BB2013B9BB26385D1E7236C042B01D051
:104A600001208EE72268136843F400731360F7E7B0
:104A70002A4631462046FFF735FE50B1236C042B01
:104A800001D001207DE72268136843F400731360AE
:104A9000F7E72268136843F400731360202384F857
:104AA0003D30002384F83E3084F83C3069E7022032
:104AB00067E7022065E7012063E700BF02001000FE
:104AC0000000FFFF2DE9F04389B004460F469046F1
:104AD0009946129E00230793FBF7B4FF054694F80E
:104AE0003D00C0B2202804D00227384609B0BDE8F6
:104AF000F08300951923012281492046FFF71FFC0E
:104B0000002840F0728194F83C30012B00F06F8156
:104B1000012384F83C3023681A6812F0010F03D196
:104B20001A6842F001021A602268136823F40063D5
:104B30001360222384F83D30402384F83E30002364
:104B40002364109B6362BDF844306385638D2385C5
:104B50006C4BE362019500964B464246394620462F
:104B6000FFF716FD0746002840F04381238D5BB90F
:104B7000039323685A6903929A690392039A1A6805
:104B800042F400721A60EDE0012B0FD0022B21D00D
:104B90002268136843F4806313600023069323683C
:104BA0005A6906929B690693069BDBE022681368AC
:104BB00023F48063136072B60023049323685A6958
:104BC00004929A690492049A1A6842F400721A6074
:104BD00062B6C7E02268136843F40063136072B6DC
:104BE0000023059323685A6905929A690592059AEC
:104BF0001A6822F480621A6062B6B3E02A4631462F
:104C00002046FFF799FD002840F0F58023681A69D7
:104C1000636A1A70636A01336362238D013B2385E3
:104C2000638D9BB2013B9BB263859BE0009533464D
:104C3000002235492046FFF782FB002840F0DF8044
:104C40002268136823F48063136072B623681A69BC
:104C5000636A1A70636A01336362238D013B2385A3
:104C6000638D9BB2013B9BB26385284B1B68DB08BD
:104C7000274AA2FB03231B0A03EB8303C3EBC303F3
:104C80000793079B013B0793079B002B28D02368C2
:104C90005A6912F0040FF4D01A6842F400721A60D4
:104CA00023681A69636A1A70636A01336362238D29
:104CB000013B2385638D9BB2013B9BB2638562B64A
:104CC00023681A69636A1A70636A01336362238D09
:104CD000013B2385638D9BB2013B9BB2638541E021
:104CE0002363202284F83D2084F83E30226C42F079
:104CF0002002226462B684F83C300127F5E600BF4A
:104D0000020010000000FFFF040001000C00002062
:104D100089B5F8142A4631462046FFF70DFD0028D4
:104D20006FD123681A69636A1A70626A531C6362DE
:104D3000238D013B2385638D9BB2013B9BB2638531
:104D40002368596911F0040F0CD01B695370636A12
:104D500001336362238D013B2385638D9BB2013B4D
:104D60009BB26385238D002B36D0032BD2D8012B29
:104D70003FF444AF022B7FF459AF00953346002235
:104D800021492046FFF7DBFA002836D172B62268A7
:104D9000136843F40073136023681A69636A1A7016
:104DA000636A01336362238D013B2385638D9BB26C
:104DB000013B9BB2638562B623681A69636A1A7005
:104DC000636A01336362238D013B2385638D9BB24C
:104DD000013B9BB26385C5E7202384F83D30002367
:104DE00084F83E3084F83C307FE602277DE60227D7
:104DF0007BE6012779E6012777E6012775E601279B
:104E000073E6012771E600BF040001002DE9F043BD
:104E100087B04FF000088DF8178001248DF81740F7
:104E2000844D4FF47A77029701940DF1170600969E
:104E300023466A22D0212846FFF792FD0520FBF782
:104E400007FE02970194009623467522D02128463A
:104E5000FFF738FE0520FBF7FBFD8DF817400297A2
:104E60000194009623466B22D0212846FFF778FD57
:104E70000520FBF7EDFD8DF8178002970194009651
:104E800023461A22D0212846FFF76AFD0520FBF7AA
:104E9000DFFD4FF008098DF81790029701940096F6
:104EA00023461B22D0212846FFF75AFD0520FBF799
:104EB000CFFD8DF8179002970194009623461C228F
:104EC000D0212846FFF74CFD0520FBF7C1FD8DF8EA
:104ED000179002970194009623461D22D021284660
:104EE000FFF73EFD0520FBF7B3FD02238DF81730D9
:104EF00002970194009623463722D0212846FFF7D7
:104F00002FFD0520FBF7A4FD8DF817800297019473
:104F1000009623466C22D0212846FFF721FD05206C
:104F2000FBF796FD8DF817800297019400962346B3
:104F30000B2218212846FFF713FD0520FBF788FDFB
:104F400012238DF8173002970194009623460A2207
:104F500018212846FFF704FD0520FBF779FD02978D
:104F60000194009623461C22D0212846FFF7AAFD73
:104F70000520FBF76DFD9DF8173003F01803182B83
:104F800012D8DFE803F00D111111111111113611B2
:104F90001111111111113B111111111111114000B9
:104FA000254B4FF08D421A604FF47A730293012320
:104FB00001930DF1170200921B22D0211D48FFF72B
:104FC00081FD0520FBF744FD9DF8173003F0180321
:104FD000182B20D8DFE803F01C1F1F1F1F1F1F1FE7
:104FE000221F1F1F1F1F1F1F261F1F1F1F1F1F1FC7
:104FF0002A00114B4FF08C421A60D5E70E4B4FF050
:105000008B421A60D0E70C4B4FF08A421A60CBE714
:105010000A4B0B4A1A6007B0BDE8F083074B094AF8
:105020001A60F8E7054B084A1A60F4E7034B074A91
:105030001A60F0E7383900208C39002090390020C0
:105040000000034300008342333303423333834180
:105050000C480D490D4A002302E0D458C4500433D3
:10506000C4188C42F9D30A4A0A4C002301E01360A9
:105070000432A242FBD3FDF757F800F015F8FBF716
:1050800097FA704700000020D00000205CFC000868
:10509000D000002060490020FEE70000014B1868A6
:1050A000704700BF1400002070B500260C4D0D4C59
:1050B000641BA410A64209D10AF054F800260A4D38
:1050C0000A4C641BA410A64205D170BD55F8043BE0
:1050D00098470136EEE755F8043B98470136F2E76A
:1050E00054FC000854FC000854FC000858FC00085C
:1050F0000A44914200F1FF3300D1704710B511F816
:10510000014B914203F8014FF9D110BD034602440F
:10511000934200D1704703F8011BF9E70FB40A4B23
:1051200013B51C6824B1A36913B9204600F04EF8EA
:1051300005AB2046049AA168019300F055F902B02E
:10514000BDE8104004B0704714000020002310B5E3
:105150000446C0E90033C0E90433836081814366BB
:10516000C2818361194608225C30FFF7CFFF054BEF
:1051700024626362044BA362044BE362044B236327
:1051800010BD00BF5559000877590008AF590008F5
:10519000D3590008014900F085B800BFA55C00089C
:1051A000682370B54D1E5D430E4605F1740100F095
:1051B00099F8044640B10021C0E900160C30A06007
:1051C00005F16802FFF7A2FF204670BD836910B5A4
:1051D000044633BBC0E912330365124B124A1B6805
:1051E0008262984204BF0123836100F01FF860606F
:1051F000204600F01BF8A060204600F017F80022BF
:105200000421E0606068FFF7A1FF01220921A06886
:10521000FFF79CFF02221221E068FFF797FF0123AE
:10522000A36110BD48F2000895510008F8B51B4B6A
:1052300007461E68B36913B93046FFF7C7FF483603
:10524000D6E90134013B03D53368DBB13668F7E7B3
:10525000B4F90C50A5B9124B08222946C4E90055EF
:10526000C4E90335C4E905556566A56004F15C0031
:10527000FFF74CFFC4E90D55C4E912552046F8BDAF
:105280006834DFE704213846FFF78AFF04463060C0
:105290000028DBD10C233B60F0E700BF48F2000898
:1052A0000100FFFF2DE9F84306468846002700F17C
:1052B0004804D4E90195B9F1010905D52468002C09
:1052C000F7D13846BDE8F883AB89012B07D9B5F98A
:1052D0000E30013303D029463046C04707436835B6
:1052E000E9E70000F8B5CD1C25F0030508350C2DC5
:1052F00038BF0C25002D064601DBA94203D90C233B
:1053000033600020F8BD00F097FD21490A6814467B
:105310009CB9204F3B6823B92146304600F00AFB78
:1053200038602946304600F005FB431C23D10C238E
:105330003046336000F081FDE3E723685B1B17D440
:105340000B2B03D923601C44256004E06368A24250
:105350000CBF0B605360304600F06FFD04F10B0092
:10536000231D20F00700C21ACCD01B1AA350C9E796
:1053700022466468CCE7C41C24F00304A042E3D0B6
:10538000211A304600F0D6FA0130DDD1CFE700BF58
:105390009439002098390020936810B4013B002B09
:1053A000936007DA9469A34201DB0A2902D110BC99
:1053B00000F014BB1368581C10601970084610BC2C
:1053C0007047F8B506460F461446D518AC4201D1D1
:1053D000002007E03A46304614F8011BFFF7DCFFD7
:1053E000431CF3D1F8BD00002DE9F04F0D461446E3
:1053F000984606469DB018B183690BB9FFF7E6FEE3
:105400007A4B9D425FD17568AB891B0765D52B69C7
:10541000002B62D00023099320238DF829303023FC
:105420004FF00109CDF80C80DFF8C4818DF82A30E7
:1054300023469A4613F8012B0AB1252AF9D1BAEB73
:10544000040B0BD05B46224629463046FFF7B9FFD6
:10545000013000F0BD80099A5A4409929AF8003050
:10546000002B00F0B58000234FF0FF32CDE905237B
:105470000AF1010A049307938DF853301A935446A6
:10548000052214F8011B5A4800F0AEFC049B78BBBF
:10549000D80644BF20228DF85320190744BF2B2281
:1054A0008DF853209AF800202A2A29D0544600204B
:1054B0004FF00A0C079A214611F8013B303B092BAB
:1054C00061D918BB29E04B4B9D4201D1B5689BE7E0
:1054D000494B9D4208BFF56896E72946304600F0E3
:1054E000E1FA002896D04FF0FF301DB0BDE8F08FF4
:1054F000A0EB080009FA00F01843A2460490BEE7AA
:10550000039A111D12680391002A01DB079204E03F
:10551000524243F002030792049323782E2B0CD1BE
:1055200063782A2B34D1039B02341A1D1B68039223
:10553000002BB8BF4FF0FF330593DFF8C0A0032264
:105540005046217800F050FC38B14022049BA0EB7B
:105550000A00824013430134049314F8011B06220D
:1055600027488DF8281000F03FFC002835D0254B47
:105570001BBB039B073323F0070308330393099BEB
:105580003B44099354E70C4601200CFB023292E79E
:1055900000234FF00A0C194601340593204610F8F9
:1055A000012B303A092A03D9002BC6D00591C4E754
:1055B000044601230CFB0121F0E703AB00932A46CC
:1055C0003046114B04A9AFF30080421C0746D6D1E8
:1055D000AB895B0687D4099887E703AB00932A461B
:1055E0003046094B04A900F083F8EEE76CF200089E
:1055F000ACF200088CF200084CF20008B2F200088D
:10560000B6F2000800000000C35300082DE9F0477F
:10561000164699468A680B6907469342B8BF1346F7
:10562000336091F843200C46DDF820800AB1013345
:1056300033602368990642BF3368023333602568BC
:1056400015F0060506D104F1190AE36832689B1AC1
:10565000AB422BDC94F84320131E226818BF0123B1
:10566000920630D44946384604F14302C04701301F
:1056700023D02368226903F00603042B14BF0025FE
:1056800033684FF0000608BFE56804F11A0408BF4C
:10569000ED1A54F8123C08BF25EAE5759342C4BFE1
:1056A0009B1AED18B5421AD1002008E0012352469A
:1056B00049463846C047013003D14FF0FF30BDE8BE
:1056C000F0870135C1E73020E11881F843005A1C0A
:1056D00094F845102244023382F84310C2E70123B4
:1056E000224649463846C0470130E6D00136D9E760
:1056F0002DE9FF470F7E9146782F80460C469A464B
:105700000C9D01F1430207D8622F0AD8002F00F048
:10571000D580582F00F0C18004F1420584F8427012
:105720003AE0A7F16303152BF6D801A151F823F055
:10573000895700089D570008195700081957000895
:1057400019570008195700089D57000819570008F5
:10575000195700081957000819570008A3580008DE
:10576000C95700085D580008195700081957000864
:10577000C558000819570008C957000819570008EC
:1057800019570008655800082B681A1D1B682A6005
:1057900004F1420584F842300123A0E020682B6820
:1057A000070603F10401296001D51E6803E04606DF
:1057B000FBD5B3F90060002E03DA2D23764284F87E
:1057C00043300A23594812E02B682068191D2960CC
:1057D000050601D51E6802E04106FBD51E886F2F25
:1057E0000CBF08230A235148002184F84310656840
:1057F000002DA8BF2168A560A4BF21F0040121608D
:105800000EB9002D4BD01546B6FBF3F103FB116723
:10581000C75D05F8017D3746BB420E46F4D9082B1B
:105820000BD12368DE0708D5236961689942DEBF82
:10583000302305F8013C05F1FF35521B22614B4630
:1058400021464046CDF800A003AAFFF7DFFE013055
:105850004AD14FF0FF3004B0BDE8F087236843F031
:10586000200323607827324884F84570236829682C
:105870001F0651F8046B02D45F0648BFB6B2DF07BB
:1058800048BF43F02003296048BF23601EB9236846
:1058900023F0200323601023A6E72448E4E71546FD
:1058A000BDE72B682668181D6169286035061B68EE
:1058B00001D5196002E07006FBD51980002315465A
:1058C0002361BCE72B6800211A1D2A601D686268ED
:1058D000284600F089FA08B1401B606063682361C4
:1058E000002384F84330AAE72A4649464046236904
:1058F000D0470130ADD023689B0713D4E068039BE9
:105900009842B8BF1846A6E70123324649464046AA
:10591000D04701309DD00135E36803995B1AAB4253
:10592000F2DCEBE7002504F11906F5E7BDF200080B
:10593000CEF2000838B50023054D044608462B601A
:1059400000F030FB431C02D12B6803B1236038BD4B
:105950009C39002010B50C46B1F90E1000F0E6FAA3
:105960000028ABBF636DA3891B1823F48053ACBF21
:105970006365A38110BD2DE9F0411F468B89054663
:10598000DB050C46164605D502230022B1F90E10A0
:1059900000F0B2F9A389324623F48053A38128464C
:1059A0003B46B4F90E10BDE8F04100F069B810B5FF
:1059B0000C46B1F90E1000F09FF9431CA38915BFE6
:1059C000606523F4805343F48053A38118BFA381FF
:1059D00010BDB1F90E1000F0D3B80000F8B50E46B6
:1059E0001446054618B183690BB9FFF7EFFB214B4D
:1059F0009C422BD16C68A369A360A3891A072FD599
:105A000023696BB323692068F6B2C01A636937460D
:105A1000834204DC2146284600F044F930BBA368E9
:105A20000130013BA36023685A1C22601E70636929
:105A3000834204D0A389DB0706D50A2E04D1214670
:105A4000284600F02FF988B93846F8BD0A4B9C4229
:105A500001D1AC68CFE7094B9C4208BFEC68CAE7AC
:105A60002146284600F01EF80028CBD04FF0FF3723
:105A7000EAE700BF6CF200088CF200084CF2000864
:105A800038B50446084611460022054D2A601A46DC
:105A9000FAF710FF431C02D12B6803B1236038BD15
:105AA0009C390020324B70B51D6806460C4625B166
:105AB000AB6913B92846FFF789FB2E4B9C420FD1E7
:105AC0006C68A389B4F90C2019072CD4DD0611D415
:105AD0000923336042F040034FF0FF30A3813EE0E2
