:020000040800F2
:1000000000500020A9BD000861A2000863A20008FA
:1000100065A2000867A2000869A2000800000000AD
:100020000000000000000000000000006BA20008BB
:100030006DA20008000000006FA2000871A2000875
:10004000F1BD0008F1BD0008F1BD0008F1BD0008D8
:10005000F1BD0008F1BD0008F1BD0008F1BD0008C8
:10006000F1BD0008F1BD0008F1BD0008F1BD0008B8
:10007000F1BD0008F1BD0008F1BD0008F1BD0008A8
:10008000F1BD0008F1BD0008F1BD0008F1BD000898
:10009000F1BD0008F1BD0008F1BD0008F1BD000888
:1000A000F1BD0008F1BD0008F1BD0008F1BD000878
:1000B000F1BD0008F1BD0008F1BD0008F1BD000868
:1000C000F1BD0008F1BD0008F1BD0008F1BD000858
:1000D000F1BD0008F1BD0008F1BD000879A20008DB
:1000E000F1BD0008F1BD0008F1BD000800000000EE
:1000F0000000000000000000000000000000000000
:0C01000000000000000000005FF808F1A3
:100110000348044B834202D0034B03B11847704796
:10012000DC010020DC010020000000000548064939
:100130000B1AD90F01EBA301491002D0034B03B1F5
:1001400018477047DC010020DC010020000000009F
:1001500010B5064C237843B9FFF7DAFF044B13B10F
:100160000448AFF300800123237010BDDC010020A0
:1001700000000000F4BD000808B5044B1BB10449A1
:100180000448AFF30080BDE80840CFE7000000005E
:10019000E0010020F4BD0008014B1868704700BF63
:1001A0000000002070B50D4E0D4D761BB61006D028
:1001B000002455F8043B01349847A642F9D1094E72
:1001C000094D0BF017FE761BB61006D0002455F82B
:1001D000043B01349847A642F9D170BD84C700089A
:1001E00084C7000888C7000884C70008830730B5A3
:1001F00048D0541E002A3FD00346CAB201E0013C59
:100200003AD303F8012B9D07F9D1032C2DD9CDB298
:1002100045EA05250F2C45EA054536D9A4F110021B
:1002200022F00F0C03F1200EE6444FEA121C03F1FA
:10023000100242E9045542E9025510327245F8D1E4
:100240000CF1010214F00C0F03EB021204F00F0C7E
:1002500013D0ACF1040323F003030433134442F836
:10026000045B9342FBD10CF003042CB1CAB21C44D2
:1002700003F8012B9C42FBD130BD64461346002C91
:10028000F4D1F9E703461446BFE71A46A446E0E76F
:10029000002B2DE9F0479246B4BF2D22002288B0F2
:1002A000149EB8BF03F100491C46DDE91217B8BF20
:1002B0004C46662E109D0A7019D0462E17D026F097
:1002C0002003452B5246029735D00221009107A901
:1002D000049106A923460195039100F0FBFD672ECA
:1002E000814634D1119BDB0733D4079B1BE00321EC
:1002F000009107A9049106A923465246CDE901576A
:10030000039100F0E7FD814699F800304619302B43
:100310002CD03D683544504621460022002306F08B
:10032000BDF9C0B12B464846159AA3EB09031360EB
:1003300008B0BDE8F0870221009107A904910135BA
:1003400006A923460195039100F0C4FD8146472E7E
:10035000C8D04D44DFE7079B9D42E4D930215A1CA9
:1003600007921970079BAB42F9D3DCE75046214650
:100370000022002306F092F90028CAD1C5F1010538
:100380003D60C7E70029B4BF2D232B2370B5B8BF4C
:100390004942092982B0027000F1020E437030DD3B
:1003A0000DF1070423461D4E0D469C4686FB012396
:1003B000CA17C2EBA30202EB8203A1EB430101F1D6
:1003C0003003632D0CF8013C11460CF1FF33EBDCDC
:1003D0003031ACF10202C9B2944203F8011C1BD9BE
:1003E000724601E013F8011BA34202F8011BF9D188
:1003F0000DF10903A3EB0C0CF444ACEB000002B0CC
:1004000070BD3023F44619440CF8023B8EF80110FD
:10041000ACEB000002B070BDF446F9E767666666B3
:100420002DE9F04F91B00C46DDF868B016461F4636
:10043000054601F0D5FC036818460A9300F086FCD7
:1004400000230E9323680B900993DBF8003094F897
:100450001890073323F00703D3F804A0D3F80080E3
:10046000514640460833CBF800302AF0004BC4E92F
:1004700012014FF0FF325946994B06F041F948B945
:10048000404659464FF0FF32954B06F01BF90028C5
:1004900000F09E80424640465346514606F030F9F1
:1004A000002840F0418263685A1C31D0B9F1670FCF
:1004B00070D0B9F1470F6DD00999009341F4806174
:1004C00021600191002106910EA905910DA90391CA
:1004D0000DF133014246029153462846CDF8109063
:1004E000FFF7D6FEB9F1650F80460D9939D84A4617
:1004F000013904F150000D91FFF744FF0E9A824636
:100500001318012A236140F389810133236139E003
:10051000062363600999009341F480612160019191
:10052000002106910EA905910DA903910DF133014A
:10053000424653462846CDF810900291FFF7A8FE98
:1005400009F0DF03472B804640F007810D99C81C56
:1005500080F2FC80A9F102095FFA89F9B9F1650F0F
:10056000C5D9B9F1660F00F0FA800E9B8B4200F3FB
:10057000018123682161DB0701D54B1C23614FF00A
:10058000000AA1659DF83330002B3AD02D2384F862
:10059000433036E0002B00F025810999009341F4A7
:1005A000806121600191002106910EA905910DA99C
:1005B00003910DF133014246029153462846CDF88E
:1005C0001090FFF765FE0D998046C81CC2DBBDE0A8
:1005D000404651460022002306F06AF810B12D2350
:1005E00084F84330099B3F4823F00403236003232E
:1005F00023613D4B4FF0000AB9F1470F94BF984675
:10060000804633462146284600970FAA00F0B2F9EB
:10061000013025D0236858052DD44246314628465E
:100620002369B84701301BD0236813F0020FE0683C
:100630000F9B1AD0C21A002A17DD4FF0000804F1F0
:10064000190904E0E0680F9BC21A42450DDD012341
:100650004A4631462846B847013008F10108F1D131
:100660004FF0FF3011B0BDE8F08F9842B8BF184688
:1006700011B0BDE8F08FB9F1650F39D9D4E9120195
:100680000022002306F00AF800287BD0012331461F
:100690002846164AB8470130E2D0DDE90D239A42D8
:1006A00002DB2368D907C0D5DDE90A233146284695
:1006B000B8470130D4D00E9B012BB5DD4FF00008B8
:1006C00004F11A0903E00E9B013B4345ACDD012315
:1006D0004A46314628469844B8470130F3D1BFE72F
:1006E000FFFFEF7F40C600083CC6000848C6000870
:1006F0000E9A012A79DD0123424631462846B84741
:100700000130ADD0DDE90A2331462846B847013033
:10071000A6D0D4E912010022002305F0BFFF002873
:1007200077D00E9B012B6ADD4FF0000804F11A0907
:1007300003E00E9B013B434561DD01234A46314600
:1007400028469844B8470130F3D189E76368994255
:100750003FF700AF4FF0670907E70D99FEE6002964
:1007600061DD63682161002B00F08E8001330B4452
:10077000236104E70029CCBF0122C1F10202134426
:100780002361FCE60D9B002B55DD0E9BD4F858A091
:100790005345A8BF5346002B9B4608DD42463146D1
:1007A0002846B84701303FF45BAFD4F858A02BEA95
:1007B000EB731A46AAEB0303002B72DD4FF000091E
:1007C000924604F11A0B04E0A36DA3EB0A024A451A
:1007D00066DD01235A46314628469944B847013020
:1007E000F2D13DE70123636094E6DB0783D4424600
:1007F000012331462846B84701303FF431AF534614
:100800003146284604F15002B84701307FF40CAF5E
:1008100026E70E9B08F10102013BEAE72268D207B6
:100820007FF5B0AE71E66368002B32D12268D20743
:100830002FD40123A4E70123314628464A4AB8476A
:1008400001303FF40DAFDDE90D23134323D0DDE983
:100850000A2331462846B84701303FF401AF0D9BCB
:10086000002B77DA4FF0000904F11A0A03E00D9B20
:100870005B424B456EDD0123524631462846994482
:10088000B8470130F3D1EBE62268D0077FF577AEA9
:100890006CE7023374E72368DA077FF5C6AED6E764
:1008A0009A46DDE90D218A4202DB2368D80709D583
:1008B000DDE90A2331462846B84701303FF4D0AE7F
:1008C000DDE90D21A1EB0A098A1A9145A8BF9146DD
:1008D000B9F1000F0BDD4B463146284608EB0A0202
:1008E000B84701303FF4BCAEDDE90D32D21A29EA37
:1008F000E979A2EB0903002B7FF796AE4FF00008D1
:1009000004F11A0A07E0DDE90D239B1AA3EB0903A2
:1009100043457FF789AE0123524631462846984425
:10092000B8470130EFD19BE6BAF1000FBCBF2D23D1
:1009300084F84330099B0D4A23F00403236003230A
:1009400023610B4B4FF0000AB9F1470F94BF90465B
:10095000984656E64246314628460E9BB847013037
:100960007FF462AE7CE600BF48C6000844C60008BB
:10097000B0C500082DE9F04791461E460A698B680C
:100980000C469A42B8BF1A46C9F8002091F8433085
:100990000546DDF8208013B10132C9F80020226835
:1009A00091065DD5D9F800300233C9F800302268CD
:1009B00012F0060F11461ED1E168CB1A002BD8BFEA
:1009C000114618DD002704F1190A06E0D9F80030B5
:1009D000E268A2EB030CBC450CDD01235246314614
:1009E0002846C047013007F10107EFD14FF0FF3033
:1009F000BDE8F087216894F84330003B18BF01231D
:100A00008A060AD53021E21882F8431094F845107E
:100A10005A1C2244023382F843103146284604F11E
:100A20004302C0470130E1D0236803F00603042BE2
:100A30001DD0A3682269934225DD00279B1A1F441D
:100A400004F11A09002401E0BC421CDA01234A46E1
:100A500031462846C047013004F10104F4D1C5E70E
:100A600012F0060F12D0003B18BF0123D5E7D9F8CA
:100A70000030E1682269C91AA36821EAE17793424C
:100A8000DCDC0029DCDC0020BDE8F087E168D9F877
:100A90000030CB1A002BD8BF114693DCABE700BF68
:100AA0002DE9F04317460A7E85B00C460646984667
:100AB0000C9D01F1430C002A33D0A2F15803D9B2A6
:100AC000202967D8202B65D8DFE813F0DD0064000B
:100AD00064006400640064006400640064006400F6
:100AE0006400A3006E0064006400640064006E0093
:100AF000640064006400640021007F00BF006400A3
:100B00006400AE0064007F0064006400E4002368B9
:100B10001A0640F102812B686269191D29601B6861
:100B20001A600023E14623613B4621463046CDF85A
:100B3000008003AAFFF71EFF013020D04A46394645
:100B400030462369C047013019D02368E0689B070D
:100B5000039919D5431A002B16DD002504F1190954
:100B600004E0E0680399431AAB420DDD01234A46D5
:100B700039463046C047013005F10105F1D14FF04B
:100B8000FF3005B0BDE8F0838842B8BF084605B025
:100B9000BDE8F083012384F8422004F14209236177
:100BA000002384F84330BFE72368190602D45A06AD
:100BB00000F1BF8029680A68043129601146002AC3
:100BC0006ADB0A25DFF87CE110E02368180640F1B3
:100BD0009A802B68191D296019686F2A0CBF082597
:100BE0000A25DFF860E1002384F843306268002AB8
:100BF000A2607DDB236823F004032360002959D120
:100C0000002A77D1E146082D63D0ACEB09032361BC
:100C10008AE701222B6804F14209196804332B602A
:100C200084F842102261BBE72B6800211A1D2A605C
:100C3000D3F800906268484601F0EAF800287FD0B7
:100C4000A0EB090060602061AAE7236843F020035D
:100C500023607822DFF8F0E084F845202A68111D2F
:100C60002960190642D45D0640D51188D80744BFD3
:100C700043F020032360002943D12368102523F08B
:100C800020032360AFE75823DFF8B8E084F845304D
:100C90002368E3E72368DCE72D2284F843206268B9
:100CA0004942002AA26002DB23F0040323600A25E4
:100CB000DFF890E0E146B1FBF5F30A4605FB1310BF
:100CC00019461EF80030AA4209F8013DF3D2082D5A
:100CD0009BD12368D90798D5626823699A4294DC2E
:100CE000302309F1FF3989F800308EE71168BDE73C
:100CF0000029DFD19EF8003004F1420984F8423027
:100D000081E710256FE713F0400F2B6803F1040112
:100D100029600CBF196819885FE713F0400F2B6832
:100D2000626903F1040129601B6814BF1A801A600C
:100D3000F7E62A68B2F9001004322A600A463EE754
:100D4000606880E74CC6000860C6000820F0030118
:100D500010F00300C0F1000051F8043B00F1040C56
:100D60004FEACC0C6FF000021CBF22FA0CF21343C6
:100D70004FF0010C4CEA0C2C4CEA0C4CA3EB0C028F
:100D800022EA030212EACC1204BF51F8043B0430F9
:100D9000F4D0C2F1000102EA0102B2FA82F2C2F119
:100DA0001F0200EBD20070472DE9F04F03690C6978
:100DB00085B0A342C0F28980013C01F11405A30073
:100DC00000F11408019355F8243058F82420013319
:100DD0008A469A4208EB84018146B2FBF3F605EBA2
:100DE000840702913AD30021AE4640460A46A34604
:100DF00003955EF8045B0468ABB206FB03132D0C8D
:100E0000190C06FB05119BB2D21A1FFA84FC9444FC
:100E10008AB2C2EB144202EB2C421FFA8CFC4CEA61
:100E20000243774540F8043B4FEA11414FEA224222
:100E3000DFD2019B5C4658F80330039D73B9029BD7
:100E4000043B984504D307E0984504F1FF3403D2EE
:100E500053F80429002AF7D0C9F8104051464846F3
:100E600001F094FB00282CDB40460023013655F8A6
:100E7000041BD0F800C08AB29A1A1FFA8CFE0B0C21
:100E80007244C3EB1C4303EB224392B242EA034297
:100E9000AF4240F8042B4FEA2343E8D258F824200D
:100EA00008EB84036AB9043B984504D307E09845EE
:100EB00004F1FF3403D253F80429002AF7D0C9F80B
:100EC0001040304605B0BDE8F08F002005B0BDE809
:100ED000F08F00BF2DE9F04F90469946466A99B0D1
:100EE0000546CDE90289259C002E00F00D8331686E
:100EF00049B10123726893404A608B6001F086F823
:100F000000226B6A1A60B9F1000AB4BF0123002302
:100F10002360754BBCBF2AF0004ACDF80CA033EA21
:100F20000A0300F0AA80DDE90234184621460022B7
:100F30000023CDE9080105F0B1FB074670B101239C
:100F4000249A1360269B002B00F0F78267481860F4
:100F5000431E0493049819B0BDE8F08F16AB0193BB
:100F600017AB00932846DDE9082301F05FFC5FEA38
:100F70001A56044640F09780DDE916763E4406F2A4
:100F80003240202840F3C883C0F140000AFA00FA3A
:100F900006F2124028FA00F04AEA000005F09CF838
:100FA0000123013E1093A1F1F8710022504B04F08F
:100FB00055FF47A3D3E9002305F008F946A3D3E979
:100FC000002304F04DFF80463046894605F094F832
:100FD00043A3D3E9002305F0F9F802460B46404647
:100FE000494604F03DFF8046894605F09FFB0022FC
:100FF000834600234046494605F05AFB002840F04E
:101000008F82BBF1160F00F27282DDE90801394BC5
:1010100003EBCB03D3E9002305F04AFB00286FD094
:101020000023BE1B0D93731E0BF1FF3B059300F1D4
:10103000658200230A93BBF1000F68DA0A9BCDF8A2
:1010400018B0A3EB0B030A93CBF100030C93229B84
:101050004FF0000B092B63D8052B40F35B83002670
:10106000043B2293229B023B032B00F27E86DFE8A7
:1010700013F0740471046804490442F20F73249A53
:10108000CAF3130A13605AEA08031AD1269B002BED
:1010900000F06186184B04930833269A0498136075
:1010A00019B0BDE8F08FDDE90812C2F3130308465A
:1010B00043F07F511097A6F2FF36169F41F440117E
:1010C00073E7269B002B40F000840C4B049341E710
:1010D00061436F63A787D23FB3C8608B288AC63F3E
:1010E000FB799F501344D33F0000F07F49C60008AE
:1010F0000000F83F48BE000874C6000880C600081B
:10110000BE1B731E059300F1C6840D900A90059BCB
:101110005B44CDE9053B00230C93229B092B9BD913
:10112000002322934FF0FF330126079300230B96F1
:10113000239300216B6A5960079B1193284600F0A6
:1011400025FF0490002800F019866B6A049A1A6043
:10115000079B0E2B00F21481002E00F011810699DE
:10116000002940F36C84AF4B01F00F0203EBC20384
:101170000A46D3E900674FEA2118D10540F12584DA
:10118000DDE90801A84B4FF0030AD3E9082305F075
:1011900047F9CDE90E0108F00F08B8F1000F13D0A0
:1011A000DFF8849218F0010F09D0D9E90023304606
:1011B000394605F00BF806460F460AF1010A5FEAC8
:1011C000680809F10809EDD1DDE90E0132463B4618
:1011D00005F026F9804689460D9B43B10022404622
:1011E0004946924B05F064FA002840F04585504688
:1011F00004F082FF42464B4604F0E8FF8C4B00228D
:1012000004F02EFEA1F15073CDE90E010F93079B60
:10121000002B00F09780069B1393079B12930B9B68
:10122000002B00F0BD84129A7E4B002003EBC2031A
:1012300053E902237F4905F0F3F8DDE90E2304F0BA
:101240000DFECDE90E014946404605F06FFA07460E
:1012500004F052FF02460B464046494604F0FEFDAC
:10126000DDE90E23049E303706F8017B804689466F
:1012700005F01EFA002840F04385CDF854B01495CF
:10128000DDE90EAB0027129D0E942AE00137AF4234
:1012900080F23E85504659460022674B04F096FF87
:1012A0000022654B82468B464046494604F08EFF3D
:1012B0008946804605F03AFA044604F01DFF0246CE
:1012C0000B464046494604F0C9FD303452465B4661
:1012D00006F8014B8046894605F0EAF9002840F0FF
:1012E0000D8542464B460020504904F0B7FD52465A
:1012F0005B4605F0DDF90028C8D0DDE913350E9C0A
:10130000049A069302E0B24200F0DD84B24616F879
:10131000013D392BF7D00133DBB23370069B01332B
:101320000693DAE1504604F0E7FE42464B4604F0ED
:101330004DFF3F4B002204F093FDA1F15073CDE926
:101340000E010F934046494600223C4B04F086FDB7
:10135000DDE90E894B46424606460F4605F0C6F9C2
:101360008146002840F0BF84DDE90E01024601F10C
:1013700000433046394605F09BF9002840F056837B
:10138000179B002BC0F28C80069A0E2A00F38880EF
:10139000244B03EBC203D3E900AB239B002B1BDAE6
:1013A000079B002B18DC40F03F830022234B504664
:1013B000594604F00BFF02460B46DDE9080105F033
:1013C00081F9DDF81C904E46002800F0DE82239B58
:1013D000DDF81080DF43E0E25246DDE908785B4645
:1013E0003846414605F01CF805F0A0F98146029008
:1013F00004F082FE52465B4604F0E8FE049E0B4673
:1014000002464146384604F029FD09F1300306F84A
:10141000013B079B012B00F06E8301279946029444
:1014200005952AE048BE000838BF00080000F03FDC
:1014300000001C400000E03F000024400000144079
:1014400052465B462046294604F0EAFF05F06EF955
:10145000804604F051FE52465B4604F0B7FE013769
:101460000B4602462946204604F0F8FC08F13003FA
:101470004F4506F8013B00F03A830022B44B04F0DC
:10148000A5FE0022002304460D4605F007F90028BA
:10149000D6D0029C059D069BB246013306931CE103
:1014A0000B9A002A4FD0229A012A40F3A682079B6A
:1014B00003F1FF380C9B434580F284820C9BCDF8EE
:1014C0003080A8EB03034FF000089B44079B002BE0
:1014D000C0F24983059A1A4405920A9A17461A449B
:1014E0000A920121284600F0A9FE06462FE00123BA
:1014F000BE1B0D93731E05937FF59BADC6F10103D3
:101500000A930023059396E5102000F071FC6862B1
:10151000002800F02484C0E901660660C660F2E499
:10152000584604F0E9FD42464B4605F0B7F800285E
:101530007FF467AD0BF1FF3B63E5864B04930498A2
:1015400019B0BDE8F08FDDF83080DDE90A76002FB4
:101550000CDD059900290B4608DDB942A8BF3B46C2
:101560000A9AFF1AD21ACB1A0A9205930C9BE3B17E
:101570000B9B002B00F05C82B8F1000F10DD3146B0
:101580004246284600F01EFF0646224631462846BF
:1015900000F06AFE0346214628461C4600F036FD50
:1015A0000C9BB3EB080240F0D8820121284600F0E2
:1015B00045FEBBF1000F814600F3B380229B012B57
:1015C00040F388814FF0000A0120BBF1000F40F08A
:1015D000B480059A104410F01F0000F09280C0F112
:1015E0002003042B40F3D1830A9BC0F11C00034469
:1015F00002440A93074405920A9B002B05DD21460D
:101600001A46284600F04EFF0446059B002B05DDD8
:1016100049461A46284600F045FF81460D9B002B9F
:1016200040F03881079B002B40F31E810B9B002B61
:1016300040F09F80069B013306930127DDF8108060
:10164000DDF81CA007E0214600230A22284600F00E
:1016500001FD0446013749462046FFF7A5FB5745E3
:1016600000F1300308F8013BEDDB079A0027002A60
:10167000CCBF93464FF0010B049A934421460122BC
:101680002846029300F00EFF4946044600F07EFF14
:10169000002840F3A7811BF8013C049A0BF1FF3BA3
:1016A00004E05A4500F0B9811BF8013D392B0BF1DC
:1016B000010AF6D001338BF800304946284600F085
:1016C000A5FC56B12FB1B74203D03946284600F0E9
:1016D0009DFC3146284600F099FC2146284600F042
:1016E00095FC0023069A8AF80030249B1A60269BFA
:1016F000002B3FF42FAC0498C3F800A019B0BDE84C
:10170000F08F1C200A9B074403440A93059B034463
:10171000059371E70126A5E4C0F1200008FA00F066
:101720003CE401465A46284600F04CFE229B814686
:10173000012B40F3B2814FF0000AD9F8103009EBC9
:101740008303186900F02EFDC0F1200041E700BFBF
:101750000000244048C60008314600230A222846DB
:1017600000F078FC119B0646002B40F3E582CDE9A2
:101770000683002F00F31F81BAF1000F40F0D681DD
:10178000B046029B079903F00102049B08921F4692
:10179000013B1944229B079113430A934946204673
:1017A000FFF702FB31468346204600F0EFFE42463B
:1017B00049468246284600F009FFC26801460BF1FF
:1017C0003003002A43D102902046059300F0DEFE4C
:1017D000024602992846029200F018FC029A059BE4
:1017E0001AB90A99002900F09982BAF1000FC0F2E3
:1017F000608122994AEA010A089951EA0A0100F037
:101800005881002A00F3B381079A07F1010A974231
:10181000D3463B7000F0B181214600230A222846BE
:1018200000F018FC4645044631464FF000034FF0E7
:101830000A02284612D000F00DFC4146064600235D
:101840000A22284600F006FC57468046A6E72846AE
:10185000029300F0DBFB0122029BC6E700F0FAFBDB
:1018600057460646804699E7229B022B7CDC0B9B61
:10187000002B7FF47EAF069B49460133204606933A
:10188000FFF792FADDF810B000F1300300270BF8F3
:10189000013BF3E64946204600F078FE0028BFF6FB
:1018A000C1AE214600230A22284600F0D3FB069B46
:1018B000044603F1FF380B9B002B7FF44DAF119BC7
:1018C000002B40F332820793B7E6B14B0493033306
:1018D000FFF7E3BBDDE9021200297FF473AEC2F328
:1018E0001303002B7FF46EAEAA4B1340002B00F0C5
:1018F000FE810A9B4FF0010A01330A93059B0133D5
:10190000059361E601230B93239B069A13441193DD
:101910000133012B1846B8BF0120079300216F6ADD
:10192000172879607FF70AAC012204235B0003F1DA
:10193000140C8445114602F10102F7D97960FFF7D2
:10194000FDBB01230B93239B002B46DD184611930F
:101950000793E3E700230B93D6E700230B93F2E70B
:10196000119BCDF818800793079B002B7FF42FADB8
:1019700049460522284600F06DFB8146204649462F
:1019800000F004FE00287FF722AD31230498069F63
:10199000804600F8013B013704904946284600F094
:1019A00035FB7B1CDDF810A00693CDF81080002ECF
:1019B0007FF48FAE91E631463A46284600F072FD3C
:1019C0000646D9E6A3EB080880E5DDE908234FF0D9
:1019D000020ACDE90E23FFF7E0BB0123239307930F
:1019E000FFF7A7BB03D1029BD8073FF554AEDA46F9
:1019F0001BF8013D302BFAD05FE6109A002A00F068
:101A0000C28003F23343059ADDF830801A44059210
:101A10000A9A17461A440A9263E5069B049A013310
:101A200006933123137048E64FF000094E46CEE48A
:101A3000214628460C9A00F0C5FC0446B5E500F0A6
:101A40001581DDE90801069A534B564206F00F0254
:101A500003EBC203D3E9002304F0B8FB3611804640
:101A6000894600F0748100234FF0020A4B4FF207C1
:101A700006D5D7E9002304F0A9FB01230AF1010AE6
:101A8000761007F10807F2D1002B3FF4A5AB804692
:101A90008946FFF7A1BB0D9030E5029B002B7FF438
:101AA0004AAEDDE90212C2F31303002B3FF41CAF70
:101AB00041E6002A12DD214601222846029300F069
:101AC000F1FC4946044600F061FD0028029B40F30A
:101AD0001981392B00F0FD800BF13103BA46069ACB
:101AE00037460132464606920AF8013BE5E5059D78
:101AF000029CCDF8088002460B4604F0B1F952462C
:101B00005B468046894604F0F1FD60B952465B466B
:101B10004046494604F0C2FD00283FF4BCAC029B9D
:101B2000D9077FF5B8AC049AFFF7F0BB2846716877
:101B300000F02CFA0746002800F02C81336906F1EA
:101B40000C0102339A000C3000F0AAF93946012248
:101B5000284600F0A7FC804613E62146284600F000
:101B600031FC044621E50A9B079A9F1AB9E4392BF8
:101B700000F0AF80BA460133B1E7069A374601322A
:101B8000464606927AE5169BC3F136033BE700BF53
:101B900080C600080000F07F48BE000838BF00087B
:101BA000DDF848A08549DDE90E2301EBCA0151E9C2
:101BB000020104F00BFBCDE90E014946404604F05A
:101BC000B5FD064604F098FA0B46024649464046E3
:101BD00004F044F95346049F3036012B8046894671
:101BE00007F8016B00F0B180129E049B1E44002296
:101BF000734B4046494604F0E9FA8946804604F0B2
:101C000095FD824604F078FA02460B464046494666
:101C100004F024F90AF1300A07F801ABB742804614
:101C20008946E4D1DDE90E010022664B04F018F983
:101C300042464B4604F03CFD00285AD1DDE90E2314
:101C40000020604904F00AF942464B4604F04EFD7C
:101C500000283FF495AB16F8013CB246302B06F154
:101C6000FF36F8D0139B0133069336E54FF0020A96
:101C7000DDE90889FFF7B0BA079B002B3FF452ABB0
:101C8000119B002B7FF77CAB1293069B0022013B3C
:101C90004046494613934A4B04F098FA80468946D9
:101CA0000AF1010004F028FA42464B4604F08EFA8D
:101CB000454B002204F0D4F8A1F15073CDE90E0198
:101CC0000F93FFF7ACBA069B013306933123FFF75E
:101CD00024BB069BBB4601330693392337460BF8DA
:101CE000013B4646D9E44FF000094E464DE69A4680
:101CF0006AE4139B049A0693FFF708BB0E9C149D9D
:101D0000B246AFE77FF4EAAEDA077FF5E7AEE0E68A
:101D1000DDF854B00E9C149DFFF732BB392BD8D0A0
:101D2000BAF1000F3FF7D8AED8E6229B022B3FF75F
:101D300017AECDF818809EE5229B022B3FF710AE20
:101D4000119BCDF81880079313E53E466AE74FF0E4
:101D5000020AFFF741BA1D4B0493FFF7FBB8024696
:101D6000EA211B4B1B4800F051FF00266B6A3146ED
:101D700028465E6000F00AF9049090B900224FF402
:101D8000D571154B134800F041FF3FF435ACC0F15D
:101D90003C00B7E4024640F2EA210F4B0D4800F048
:101DA00035FF6B6A04994FF0FF32196001232396C7
:101DB00011920B930792FFF7E3BA00BF48BE0008E9
:101DC000000024400000E03F00001C4074C60008F2
:101DD00084C600089CC60008D0C60008F0307047D2
:101DE000004870475401002000487047540100200B
:101DF000024B0146186800F09BBE00BF00000020A7
:101E0000024B0146186800F02DBE00BF0000002004
:101E10005FFA81FC810710D00346511E2AB90AE0FF
:101E20009A0718460AD0013905D3184613F8012B32
:101E30006245F5D1704700207047114603290CD840
:101E40000029F8D00346014401E08B42F3D0184644
:101E500013F8012B6245F8D1ECE7024610B54CEAC5
:101E60000C2444EA04441046036804326340A3F19E
:101E7000013E2EEA030313F0803F04D10439032905
:101E80001046F0D851B10346014401E08B4205D021
:101E9000184613F8012B6245F8D110BD002010BD83
:101EA000844641EA000313F0030349D1403A23D3A7
:101EB0000B6803604B6843608B688360CB68C360CA
:101EC0000B6903614B6943618B698361CB69C361B2
:101ED0000B6A03624B6A43628B6A8362CB6AC3629A
:101EE0000B6B03634B6B43638B6B8363CB6BC36382
:101EF00040304031403ADBD230320BD30B680360C4
:101F00004B6843608B688360CB68C36010301031CE
:101F1000103AF3D20C3205D351F8043B40F8043B9D
:101F2000043AF9D2043208D0D2071CBF11F8013BA1
:101F300000F8013B01D30B8803806046704700BF67
:101F4000082A13D38B07B1D010F00303AED0C3F12E
:101F50000403D21ADB071CBF11F8013B00F8013B58
:101F6000A4D331F8023B20F8023B9FE7043AD9D3CF
:101F7000013A11F8013B00F8013BF9D20B780370EC
:101F80004B7843708B7883706046704770B5466AB3
:101F900005460C465EB1F368A3B153F82400E8B1DE
:101FA000026843F824200023C0E9033370BD1020E9
:101FB000FFF71EFF06466862E8B10023C0E901335F
:101FC0000360C36021220421284600F03DFD6B6AB6
:101FD000F060DB68002BE0D1002070BD01212846B5
:101FE00001FA04F56A1D920000F02EFD0028F3D0DE
:101FF000C0E90145D7E702466621024B024800F0DE
:1020000005FE00BF84C60008E4C6000870B5466A35
:1020100005460C464EB13CB16B6A6268DB6853F80A
:102020002210216043F8224070BD1020FFF7E0FE2F
:10203000686220B1C0E901660660C660EBE702464F
:102040008A21024B024800F0E1FD00BF84C600086F
:10205000E4C600082DE9F0414FF0000E0E461C4684
:102060000D69074601F1140001680EF1010E8BB2F3
:1020700002FB0343090C4FEA134C02FB01CC9BB259
:1020800003EB0C43754540F8043B4FEA1C44EBDC82
:102090003CB1B368AB4207DD06EB850301355C61FB
:1020A00035613046BDE8F081716838460131FFF78F
:1020B0006DFF804690B1326906F10C010232920048
:1020C0000C30FFF7EDFE314646463846FFF79EFFDF
:1020D00006EB850301355C613561E2E70246B52117
:1020E000014B024800F092FDD0C60008E4C600088B
:1020F0002DE9F8431E46DFF8A0C0174603F1080299
:102100008CFB023C092E4FEAE27305460C46C3EBFA
:102110006C0339DD4FF0010C00214FEA4C0C634594
:1021200001F10101F9DC2846FFF730FF014668B3F1
:10213000089B092F43614FF00103036112DC09275B
:102140000A34BE420BDDF61B264414F8013B0A227A
:102150002846303BFFF77EFFA6420146F5D10846F0
:10216000BDE8F88304F10909C8463C4418F8013B6E
:102170000A222846303BFFF76DFFA0450146F5D106
:10218000A7F108044C44DCE70021CCE70246CE214D
:10219000024B034800F03AFD398EE338D0C6000800
:1021A000E4C60008020C12040346CAB9102083409A
:1021B00013F07F4F04BF1B02083013F0704F04BFB1
:1021C0001B01043013F0404F04BF9B000230002B72
:1021D00005DB13F0804F00F1010008BF202070479D
:1021E0000020E5E70368024613F0070009D0D9078D
:1021F0001FD498074BBF5B089B0801200220136087
:10220000704799B209B91020C340D9B209B9083052
:102210001B0A190704BF1B090430990704BF9B0858
:102220000230D90703D45B0800F1010003D013602A
:102230007047002070472020704700BF10B50C4643
:102240000121FFF7A3FE024618B10123C0E90434BF
:1022500010BD4FF4A071024B024800F0D7FC00BF44
:10226000D0C60008E4C600082DE9F04F0E691569D4
:102270008846AE42144685B005DB2A4623463546DD
:102280000C4616469846A3686168AF19BB42B8BFB2
:102290000131FFF77BFE0190002800F08780019B51
:1022A00003F1140909EB870AD14505D24B460022F8
:1022B00043F8042B9A45FBD808F1140808EB860B69
:1022C00004F11403D8451A4603EB85055FD22B1B96
:1022D000153B23F0030304331534A54238BF042310
:1022E000CDE902A7AC461F46924605E0000C29D175
:1022F000C34509F1040948D958F8040B85B2002DEB
:10230000F4D056464C46002356F8040B216882B29E
:102310001FFA81FE05FB02EE000C0A0C05FB0022F1
:10232000734402EB13429BB243EA0243B44544F8C0
:10233000043B4FEA1243E7D849F8073058F8040C39
:10234000000CD5D0D9F80030544619464D4600222D
:102350002688090C00FB06119BB20A4443EA02439B
:1023600045F8043B54F8046B2968360C8BB200FB2B
:102370000633A44503EB12434FEA1342E8D8C345A2
:1023800049F8073009F10409B6D8DDE902A7002FA2
:1023900002DC05E0013F03D05AF8043D002BF9D0E0
:1023A000019B18461F6105B0BDE8F08F024640F260
:1023B0005D11024B024800F029FC00BFD0C60008A6
:1023C000E4C600082DE9F04112F003031446074665
:1023D00082B02DD10E46A4101CD07A6A8AB39568BB
:1023E000002D39D0E3074FF0000806D4641011D057
:1023F000286898B10546E307F8D531462A4638469D
:10240000FFF732FF0346314638461E46FFF7FEFD12
:102410006410EDD1304602B0BDE8F0812A4629466D
:102420003846FFF721FF28600546C0F80080E2E744
:10243000184A013B52F823200023FFF70BFE064603
:10244000C9E71020FFF7D4FC02467862E0B1002310
:10245000C0E901330360C360012138460192FFF7F0
:1024600095FD019A054640B1012340F27121C0E972
:102470000431002390600360B4E702464FF4A0717A
:10248000054B064800F0C2FB4FF4D771044B0348DC
:1024900000F0BCFB38BE0008D0C60008E4C6000847
:1024A00084C600082DE9F0470D462E69AB6806EB9F
:1024B0006216741C9C429146074649684FEA621AAC
:1024C00004DD5B009C4201F10101FADC3846FFF7B4
:1024D0005DFD804600284ED0BAF1000F00F11400D7
:1024E0000EDD034600210AF105024FEA820C08EBDB
:1024F000820243F8041B9342FBD1ACF1140318444D
:10250000296905F1140319F01F0903EB81012AD091
:1025100084464FF0000AC9F1200E1A6802FA09F247
:1025200042EA0A024CF8042B53F8042B994222FA8F
:102530000EFAF2D84B1B153B23F00303043305F1CD
:102540001502914238BF0423BAF1000F18BF264686
:1025500040F803A038462946C8F81060FFF756FD3A
:102560004046BDE8F087043853F8042B994240F800
:10257000042FF9D8EEE7024640F2D911014B024888
:1025800000F044FBD0C60008E4C6000884460B698E
:102590000069C01A15D10CF1140C14310CEB830234
:1025A00010B401EB830301E0944508D252F8044DC6
:1025B00053F8041D8C42F7D004D24FF0FF3010BC0A
:1025C00070477047012010BC704700BF2DE9F84FDD
:1025D0000C6913698946E41A002C17467DD101F174
:1025E0001406143202EB830206EB830301E09E42E1
:1025F00076D253F8045D52F8041D8D42F7D067D3AC
:10260000D9F80410FFF7C2FC002873D0D9F8105095
:10261000C46000F1140426464FF0000A3B6909F13A
:10262000140807F1140E09F1100C08EB85020EEBEB
:1026300083095CF804BF5EF8041B1FFA8BF3534454
:102640001FFA81FA090CA3EB0A03C1EB1B4101EB52
:1026500023419BB243EA0143F14546F8043B4FEA6C
:10266000214AE6D8A9EB070115391537B94521F0FC
:10267000030606F1040638BF042621F0030138BF23
:102680000021B044424526440C4418D937464446FC
:1026900054F8041B8BB253444FEA234A0AEB11410E
:1026A0009BB243EA0143A24247F8043B4FEA214A66
:1026B000EED8541EA4EB080424F00304344423B9D8
:1026C00054F8043D013D002BFAD00561BDE8F88FB8
:1026D0004B460124B9461F4692E7F9DB00248FE7F9
:1026E0000021FFF753FC60B101220023C0E904235D
:1026F000BDE8F88F02464FF41071054B054800F015
:1027000085FA024640F23221014B024800F07EFA7F
:10271000D0C60008E4C600080F4B0B40A3F150736D
:10272000002B02DD0020194670475B42B3F1A07F09
:102730004FEA235205DA4FF40023002043FA02F156
:102740007047143A1E2AD6BF4FF00043012223FAE5
:1027500002F20021104670470000F07F2DE9F041A1
:10276000076900F1140606EB87070C4657F8041CAE
:10277000A7F104080846FFF715FDC0F120030A2859
:10278000236036DD46451ED2B0F10B0357F8082C06
:1027900026D0C3F1200C994022FA0CF00843A7F18F
:1027A000080140F07F558E4245F440153AD202FAB6
:1027B00003F057F80C3C23FA0CF303431C46204665
:1027C0002946BDE8F081B0F10B0308D001FA03F00F
:1027D000002340F07F551C4645F44015EFE71A46AC
:1027E000144641F07F5545F4401520462946BDE882
:1027F000F081C0F10B0321FA03F2464542F07F5508
:102800002CBF002257F8082C45F4401538BFDA4099
:1028100000F1150301FA03F343EA020420462946B6
:10282000BDE8F08102FA03F31C46C8E770B5012148
:1028300082B016461D46FFF7A9FB044600284CD07F
:102840002B46C5F30A55C3F313030DB143F48013AC
:10285000002E019322D068460096FFF7C3FC0028A3
:1028600037D0019B0099C0F1200203FA02F20A431B
:10287000C34001936261002B14BF02210121A361B7
:102880002161B5B1069BA5F2334505441D60079B48
:10289000C0F135001860204602B070BD01A8FFF7F6
:1028A000A1FC0123019A1946626120302361002DA9
:1028B000E8D104EB8102A0F232431069069A13605A
:1028C000FFF770FCC0EB41112046079B196002B076
:1028D00070BDDDE900236261CDE7024640F20A31B6
:1028E000014B024800F092F9D0C60008E4C6000887
:1028F0002DE9F04383B0884669468146FFF72EFFF5
:1029000004460D46404601A9FFF728FFD9F81030CC
:10291000D8F810200F469A1ADDE90063F31A03EB8A
:102920004213002B0CDD05EB035906464D4632469B
:102930003B462046294603F073FD03B0BDE8F08313
:10294000C3EB033301EB035106460F46EFE700BF2D
:10295000172870B506460ADD002000240749084DF7
:1029600022462B4603F032FC013EF9D170BD054BE7
:1029700003EBC006D6E9040170BD00BF0000F03FC4
:102980000000244038BE000801F1FF3C116902F14B
:1029900014034FEA6C1C03EB81010CF1010C8B4218
:1029A00000EB8C0C16D210B5A0F1040E53F8044BBA
:1029B00099424EF8044FF9D88B1A153B23F00303C4
:1029C00004331844844504D9002340F8043B84456B
:1029D000FBD810BD844505D9002340F8043B84454D
:1029E000FBD87047704700BF03694A11934200F15A
:1029F000140009DA00EB830302E053F8042DC2B996
:102A00008342FAD80020704710DD11F01F010DD06D
:102A100010B450F8224000EB820324FA01F202FACB
:102A200001F18C420BD0012010BC704700EB8203F7
:102A3000E6E70120704753F8042D002AF3D18342C2
:102A4000F9D8002010BC704738B502FB01F52946C3
:102A500000F06EF8044618B12A460021FDF7C6FBC7
:102A6000204638BD002952D038B551F8043C0C1F1F
:102A7000002BB8BFE418054600F030F92B4A136864
:102A8000002B45D0A3420CD921686018834228D07E
:102A9000636028461460BDE8384000F021B9A342C5
:102AA0000FD81A465B68002BF9D111685018844280
:102AB0001DD034D3636054602846BDE8384000F030
:102AC0000FB911685018A04215D028D82168601895
:102AD0008342EFD118685B680144C4E90013546075
:102AE000EAE718685B680144C4E90013D1E723688A
:102AF00019441160E0E720680144501883421160D6
:102B0000DAD1D3E900030144C2E90013D4E77047E6
:102B1000284663601460BDE8384000F0E1B80C233B
:102B200028462B60BDE8384000F0DAB8F8010020F4
:102B3000F8B5CD1C25F0030508350C2D38BF0C2544
:102B4000002D064623DBA94221D8264F00F0C6F807
:102B50003A6822B3144603E063682246FBB11C4680
:102B600023685B1BF8D40B2B15D8636894420CBF09
:102B70003B605360304600F0B3F804F10B00231DB6
:102B800020F00700C21A01D01B1AA350F8BD0C2375
:102B900000203360F8BD23601C442560EAE77968B3
:102BA000D1B12946304600F01FF8431C01460CD035
:102BB000C41C24F00304A04205D03046611A00F082
:102BC00013F8013001D02560D4E70C233046336080
:102BD00000F086F80020F8BD304600F005F8786077
:102BE000DFE700BFF8010020002238B5064D04469B
:102BF00008462A6004F002FF431C00D038BD2B6851
:102C0000002BFBD0236038BD00020020144600B525
:102C10001A460A4B0D461B6885B0DE6803464CB168
:102C200007490191304607490294009500F022F8C7
:102C300000F0E4FA04490C46F3E700BF000000206E
:102C400018C7000828C7000820C6000808B51346A2
:102C50000022FFF7DBFF00BF0CB400B583B004AB6C
:102C600053F8042B019300F077F803B05DF804EB00
:102C700002B070470EB400B5074A82B003AB0146FC
:102C8000106853F8042B019300F066F802B05DF869
:102C900004EB03B0704700BF0000002010B4034CE9
:102CA000D4F8E440A44610BC604700BF6400002094
:102CB00082B049B15AB16BB113780B601278101E13
:102CC00018BF012002B0704701A9002AF3D11046B5
:102CD00002B070476FF00100F4E700BF704700BF1B
:102CE000704700BF9368013B002B936005DAD2F870
:102CF00018C0634507DB0A2905D01368581C10600B
:102D000008461970704700F07DB900BF9BB1F8B557
:102D1000134406460F46541E5D1E01E0AC4208D027
:102D20003A46304614F8011FFFF7DCFF431CF5D18B
:102D3000F8BD0020F8BD0020704700BF936810B5B3
:102D4000144613B91846536010BD00F065FC00230B
:102D5000C4E9013310BD00BF2DE9F04F0E46924685
:102D60001C4607469FB018B18369002B00F0A8806D
:102D7000954B9E4200F0AA80944B9E4200F0B58095
:102D8000934B9E4208BFFE68B389180740F1A380A9
:102D90003369002B00F09F80002320220B93302307
:102DA0009AF80010059401258A4C8DF831208DF891
:102DB000323000297DD0D1460B4604E019F8013F9E
:102DC000002B00F09480252BF8D1B9EB0A0B40F0D2
:102DD000918099F80030002B6BD000234FF0FF3228
:102DE00009F10109CDE90723069309938DF85B30BA
:102DF0001C9304E0001B05FA00F018430690CA4635
:102E00000522204619F8011BFFF702F8069B00284F
:102E1000F0D1D90644BF20228DF85B201A0748BFA5
:102E20002B229AF8001048BF8DF85B202A2972D116
:102E3000059A1168043200290592C0F2A080099118
:102E40009AF801100AF1010A2E2976D0DFF888914C
:102E500003224846FEF7DCFF48B14022069BA0EB68
:102E6000090002FA00F003430AF1010A06931AF876
:102E7000011B062259488DF83010FEF7C9FF0028C3
:102E800000F08380564B002B6CD005A90091324690
:102E90003846544B06A9FDF7C3FA0390039B013350
:102EA00007D00B9B039A9AF8001013440B93002948
:102EB00081D1B3895B0615D40B981FB0BDE8F08FA4
:102EC00000F08AFB404B9E427FF456AF7E68B38988
:102ED00018073FF55DAF3146384600F00DF9002880
:102EE0003FF45AAF4FF0FF30E7E7BE684CE7B9EB6D
:102EF0000A0BDED0D046CAF1010A03E0934538D967
:102F000018F8011F32463846FFF7ECFE01300AEB95
:102F10000802F3D1CDE7A1F13002092A94D8099B28
:102F20001AF8011F03EB830302EB4303A1F1300204
:102F3000092AF5D92E29099388D19AF801102A294E
:102F40002DD1059B0AF102001A680433002A05936B
:102F5000B8BF4FF0FF339AF8021007928246B8BF0D
:102F6000079373E7059B073323F0070308330593A3
:102F700097E70B9A99F800305A440B922BE7494295
:102F800043F00203099106935AE705A900913246DE
:102F90003846144B06A9FDF783FD03907EE7002316
:102FA000A1F13002092A0AF1010A07933FF64EAF58
:102FB0001AF8011F03EB830302EB4303A1F1300274
:102FC000092AF5D9079341E7A4C0000884C0000886
:102FD00064C0000868C7000870C7000874C700080C
:102FE000210400080D2D00088C4600B586461346C6
:102FF000034A714610685DF804EB6246FFF7ACBE09
:1030000000000020F8B506460D46144608B1836955
:1030100043B3254B9C422AD0244B9C4229D0244BBD
:103020009C4208BFF468A269A389A2601A0722D54E
:10303000236903B322686169D31AEDB299422F461E
:1030400029DD0133A1680139A160511C216015708F
:1030500062699A4216D0A389DB0701D50A2D11D0E7
:103060003846F8BD00F0B8FA0F4B9C42D4D17468D2
:10307000D9E7B468D7E72146304600F03DF838B9C3
:103080002369D7E72146304600F044F90028E7D00D
:103090004FF0FF37E4E72146304600F03BF90028C7
:1030A000F6D101232268CDE7A4C0000884C000083F
:1030B00064C0000803460A46024908681946FFF73B
:1030C000A1BF00BF0000002010B4034CD4F8E040C2
:1030D000A44610BC604700BF64000020034649B10D
:1030E000FF2A02D801200A7070478A224FF0FF3071
:1030F0001A607047084670473C4B70B51D6806461D
:103100000C460DB1AB69E3B1394B9C421FD0394B32
:103110009C424DD0384B9C4208BFEC68B4F90C304F
:1031200018079AB219D5216911B312F001002FD0F6
:1031300000256069A5604042A06100292ED00020D2
:1031400070BD284600F048FA294B9C42DFD16C68DC
:10315000B4F90C3018079AB2E5D4D1063ED552071F
:1031600028D4216943F00803A3819AB20029DCD155
:1031700002F42070B0F5007FD7D02146304600F031
:1031800007FCB4F90C3021699AB212F00100CFD1DA
:10319000950758BF6069A0600029D0D1120658BFBA
:1031A0000846CDD543F040034FF0FF30A38170BDFA
:1031B000AC68B3E7616B51B104F14402914204D0B1
:1031C0003046FFF74FFCB4F90C3000226263002256
:1031D000216923F02403C4E90012C3E7092243F064
:1031E000400332604FF0FF30A38170BD000000202B
:1031F000A4C0000884C0000864C00008062008B508
:1032000000F08EFD012004F0D5FB00BFF8B58B89DE
:103210000C46190707463BD46268002A55DDE66A6A
:10322000002E50D000223D683A6013F4805250D1F5
:1032300001233846216AB047421C5CD0A389E66A64
:103240005B0705D56368C01A636B0BB1236CC01AAA
:103250000246216A00233846B047411C3BD13B68F7
:10326000002B38D01D2B01D0162B4BD10023226907
:10327000C4E90023616B3D6029B304F14403994222
:1032800002D03846FFF7EEFB002318466363F8BD13
:103290002669C6B19A0718BF0023256808BF63696D
:1032A0002660AD1BA3600CE02B463246D4F828C044
:1032B0003846216AE047B0F1000CA5EB0C056644E6
:1032C00012DD002DF0DC0020F8BD226C002AA6DC07
:1032D000F9E7606DB4E70022236962602360A38987
:1032E000DB04C7D56065C5E7A3894FF0FF3043F025
:1032F0004003A381F8BD3B68002B9FD01D2B06D057
:10330000162B04D0A38943F04003A381F8BD00200D
:103310003D60F8BD38B50B69BBB10C46054608B138
:103320008369B3B10D4B9C4211D00D4B9C4213D01D
:103330000C4B9C4208BFEC68B4F90C302BB1214611
:103340002846BDE83840FFF761BF002038BD6C68F3
:10335000F2E700F041F9E5E7AC68EDE7A4C000084A
:1033600084C0000864C0000838B540B3036904464F
:10337000E3B1174B1D680DB1AB69CBB1154B9C4246
:103380000FD0154B9C4221D0144B9C4208BFEC68D7
:10339000B4F90C3053B121462846BDE83840FFF758
:1033A00035BF6C68B4F90C30002BF4D1002038BD67
:1033B000284600F011F9074B9C42E2D1F1E7084B97
:1033C00008491868BDE8384000F0BEBAAC68DFE7CD
:1033D00000000020A4C0000884C0000864C00008E9
:1033E00030BE00081533000800207047014900F086
:1033F000ABBA00BF1533000800207047682270B5D3
:103400004D1E02FB05F50E4605F17401FFF790FB1A
:10341000044640B100210C30C4E9016005F16802A6
:103420002160FCF7E3FE204670BD00BF274B2DE96D
:10343000F0411E680746B36953B34FF0040848369D
:10344000D6E90134013B04D51EE05A1C04F168049E
:103450001AD0B4F90C50013B002DF6D11C4B0822B8
:103460002946C4E90055C4E90253C4E90455656618
:10347000A56104F15C00FCF7B9FEC4E90D55C4E98F
:1034800012552046BDE8F08135682DB12E46D7E7AC
:10349000304600F01FF8D0E74FF4D6713846FFF7FA
:1034A00047FB044668B1056029460546C0F804801C
:1034B0000C304FF4D072A060FCF798FE34602E46BA
:1034C000BEE70C2330603B60DBE700BF30BE000886
:1034D0000100FFFF0023334A2DE9F0471268C0E9DD
:1034E00012339042036508BF01232F4908BF83614F
:1034F00081620546FFF79AFF034628466B60FFF797
:1035000095FFA86028460024FFF790FF04236E680B
:10351000DFF898A0DFF89890DFF89880264FE860F1
:103520000822F3602146C6E90044C6E904447466F3
:10353000B460B46106F15C00FCF758FE1F4BC6E9AD
:10354000086AC6E90A983763AE680822F360214624
:10355000C6E90044C6E904447466B460B46106F187
:103560005C00FCF743FE164BC6E9086AC6E90A98F8
:103570003763EE682146F3600822C6E90044C6E9D5
:1035800004447466B460B46106F15C00FCF72EFE7E
:103590000123C6E9086AC6E90B87C6F82890AB6123
:1035A000BDE8F08730BE0008ED3300088D3E00080E
:1035B000B53E0008F53E0008153F0008090001006F
:1035C00012000200024B0349186800F0BDB900BFA9
:1035D00030BE000815330008836903B97AE77047E5
:1035E000704700BF704700BF704700BF704700BF03
:1035F000024B0349186800F087B900BF00000020A3
:10360000E9330008024B0349186800F07DB900BF98
:1036100000000020F93300089368002B00F0B78009
:103620002DE9F04FB1F90C300C46190780461746CA
:1036300083B098B225D523691BB310F002033D680F
:103640002DD04FF0000B5E46DFF8B8A2002E00F040
:103650008B80564533465A4628BF53464046216A1A
:10366000D4F828C0E047002840F38780BB68834433
:103670001B1A361ABB60002BE8D1002003B0BDE84E
:10368000F08F21464046FFF737FD002840F0368195
:10369000B4F90C303D6898B210F00203D1D110F0AB
:1036A000010976D14E46002E5AD08205D4F808B0D2
:1036B00040F1B580B3455A4600F2CD8010F4906FCA
:1036C00000F0CB8023682169A3EB010B636903EB56
:1036D000430A0AEBDA7A0BF101034FEA6A0A334430
:1036E0005345524684BF9A465246430540F1EA800C
:1036F00011464046FFF71CFA002800F0F9805A46B0
:1037000021690190FEF7CCFBA289019B22F4906213
:1037100042F08002A28103EB0B0023613246AAEB48
:103720000B03B346C4F814A0A3602060B246002681
:103730004946019200F0BAF9A3682168019AA3EB07
:103740000B030A44A3602260B868D144A0EB0A00CE
:10375000B860002891D0B4F90C0080B2002EA4D13A
:10376000D5E9009608359EE7D5E900B608356DE73E
:1037700021464046FFF7CEFD80B3B4F90C304FF040
:10378000FF3043F04003A38103B0BDE8F08F002079
:1037900070471E46AA46994618461D4656B300284D
:1037A00032D04A4620682169B24228BF3246884258
:1037B000636904D9A16803EB010B5A4574DC934299
:1037C00065DC2A464046216AD4F828C0E047B0F1BB
:1037D000000BD2DDB9EB0B09CAD00120BB685D44F8
:1037E000A3EB0B03A6EB0B06BB60002B3FF445AF2E
:1037F000002ED4D10AF1080353F8046C9A4653F80A
:10380000085C0833002EF7D032460A212846FEF71E
:10381000FFFA002869D00130A0EB0509C1E7206854
:10382000236998421BD86369B34218D86FF0004CE3
:10383000B44528BFB4469CFBF3FC4A4603FB0CF39B
:103840004046216AD4F828C0E047B0F1000A94DD70
:10385000A6EB0A0678E7B3463246206866E7B3452A
:10386000DA4628BFB2464946524600F01FF9A3681F
:103870002268A3EB0A035244A3602260002BE7D125
:1038800021464046FFF746FD0028E1D075E729466E
:103890009346019200F00AF9A368019A9B1AA3606B
:1038A00023681A44226095E729465A4600F0FEF83C
:1038B000236821465B4440462360FFF72BFD002828
:1038C00088D05AE7404600F06DF9034600287FF49F
:1038D00022AF40462169FFF7C5F80C22B4F90C303D
:1038E000C8F8002023F0800349E7721C914659E78D
:1038F0000C22B4F90C30C8F8002040E74FF0FF303C
:10390000BCE600BF00FCFF7F2DE9F04100268846A1
:1039100000F14807D7E90154013D0ED4A389013DC8
:10392000012B06D9B4F90E30013302D02046C0472E
:1039300006436B1C04F16804F0D13F68002FE9D105
:103940003046BDE8F08100BF2DE9F8434FF0000993
:103950000746884600F14806D6E90154013D10D4D7
:10396000A389013D012B08D9B4F90E30013304D0ED
:1039700021463846C04749EA00096B1C04F1680437
:10398000EED13668002EE7D14846BDE8F88300BF87
:10399000F0B58B890C46990797B007D5012204F141
:1039A0004703C4E90432236017B0F0BDB4F90E1028
:1039B000054600292DDB6A4600F0D8FA002827DBEF
:1039C000019E4FF4806706F47046A6F50056B6FADD
:1039D00086F6394628467609FFF7AAF830B3A38958
:1039E0001A4A43F08003AA62C4E90407A381206055
:1039F000002ED9D02846B4F90E1000F0CBFA0028DA
:103A0000D2D0A38923F0030343F00103A381CBE7C2
:103A1000A38913F0800F14BF40274FF48067284616
:103A200039460026FFF784F80028D8D1B4F90C30C5
:103A30009A05B9D4012123F0030304F1470243F0AE
:103A40000203C4E90421A3812260ADE7ED3300083D
:103A500070B50C46B1F90E10164600291D4696B0F9
:103A600013DB6A4600F082FA00280EDB01994FF45E
:103A7000806301F47041A1F50051B1FA81F1002099
:103A800049092960336016B070BD0022B4F90C30CA
:103A90002A601B0604D540230020336016B070BD99
:103AA0004FF480630020336016B070BD88420DD99A
:103AB0008B1883420AD900EB020CBAB1624613F8A4
:103AC00001CD994202F801CDF9D170470F2A0ED8E5
:103AD000034602F1FF3C4AB10CF1010C013B8C445E
:103AE00011F8012B614503F8012FF9D1704740EA25
:103AF00001039B074FD1A2F1100370B501F1200C17
:103B000023F00F0501F1100E00F11004AC441B0965
:103B10005EF8105C0EF1100E44F8105C5EF81C5C50
:103B2000103444F81C5C5EF8185C44F8185C5EF8CD
:103B3000145CE64544F8145CEAD1013312F00C0F32
:103B400001EB031102F00F0400EB031327D08E46A4
:103B5000043C24F003064FEA940C1E441C1F5EF83C
:103B6000045B44F8045FB442F9D10CF1010402F0A3
:103B7000030203EB840301EB840102F1FF3C4AB131
:103B80000CF1010C013B8C4411F8012B614503F849
:103B9000012FF9D170BD034602F1FF3C9CE722469C
:103BA000EBE700BFF8B51446F9B1CAB106460D46B9
:103BB00000F018FAA04202D32F463846F8BD21463D
:103BC0003046FEF7B5FF07460028F6D022462946C4
:103BD000FEF766F930462946FEF744FF3846F8BD41
:103BE0002746FEF73FFF3846F8BD1146BDE8F840CE
:103BF000FEF79EBF38B5446C0CB1002038BD802163
:103C00000546FEF795FF0246686430B1031F7C321B
:103C100043F8044F9342FBD1EFE74FF0FF3038BD3C
:103C20001F29F8B5054608D8466C0C4617464EB114
:103C300056F8240046F82470F8BD16234FF0FF30E4
:103C40002B60F8BD8021FEF773FF0646686440B123
:103C50000021031F00F17C0543F8041F9D42FBD1A6
:103C6000E6E74FF0FF30F8BD1F2938B5054620D8EC
:103C7000426C0C466AB152F8213053B1012B16D078
:103C8000591C10D00025204642F824509847284659
:103C900038BD284600F0F8F8224601462846BDE81F
:103CA000384000F0DDB8162301202B6038BD00201D
:103CB00038BD16234FF0FF302B6038BD1F292BD89D
:103CC000426C38B50C46054682B152F8243002EBFE
:103CD00084024BB1591C1AD0012B16D00025204666
:103CE00015609847284638BD012038BD8021FEF771
:103CF0001FFF0246686460B10020131F02F17C01BF
:103D000043F8040F9942FBD1DFE7032038BD0220BE
:103D100038BD4FF0FF3038BD4FF0FF30704700BF67
:103D200038B5144B1F281D681FD86A6C044662B151
:103D300052F820304BB1012B15D0591C0FD0002563
:103D400042F820509847284638BD284600F09CF895
:103D5000224601462846BDE8384000F081B81623C7
:103D600001202B6038BD002038BD16234FF0FF30F6
:103D70002B6038BD00000020124B1F2870B51E6854
:103D800008D80D46716C044649B151F8240041F839
:103D9000245070BD16234FF0FF30336070BD80217A
:103DA0003046FEF7C5FE0146706440B10022031F95
:103DB00000F17C0C43F8042F6345FBD1E5E74FF09D
:103DC000FF3070BD0000002038B50B4B1D686C6CD7
:103DD0000CB1002038BD80212846FEF7A9FE68649A
:103DE00038B1031F00F17C0243F8044F9342FBD12A
:103DF000EFE74FF0FF3038BD0000002038B5174B1B
:103E00001F281D6827D86A6C044682B152F82430F6
:103E100002EB84024BB1591C1BD0012B17D000259B
:103E2000204615609847284638BD012038BD8021BE
:103E30002846FEF77DFE0246686460B10020131F2D
:103E400002F17C0143F8040F8B42FBD1DEE7032033
:103E500038BD022038BD4FF0FF3038BD00000020D3
:103E600070B50026074D0446084611462E6003F043
:103E700099FD431C00D070BD2B68002BFBD0236044
:103E800070BD00BF0002002003F08ABD10B50C46D3
:103E9000B1F90E1000F0B0F8002803DB636D0344A5
:103EA000636510BDA38923F48053A38110BD00BFB7
:103EB000002070472DE9F0410C46B1F90C101F4667
:103EC000CB05054616460BD421F48051A1813B4613
:103ED00032462846B4F90E10BDE8F04100F01EB895
:103EE000B4F90E100223002200F066F8B4F90C10A9
:103EF000EAE700BF10B50C46B1F90E1000F05CF80F
:103F0000A389421C0EBF23F4805343F480536065A1
:103F1000A38110BDB1F90E1000F016B838B50C46EB
:103F2000114600228446074D20462A601A46644600
:103F300003F056FD431C00D038BD2B68002BFBD08E
:103F4000236038BD00020020002238B5064D04462B
:103F500008462A6003F078FD431C00D038BD2B686A
:103F6000002BFBD0236038BD0002002070B5002676
:103F7000074D0446084611462E6003F068FD431CB9
:103F800000D070BD2B68002BFBD0236070BD00BF3C
:103F900000020020002238B5064D044608462A607B
:103FA00003F05AFD431C00D038BD2B68002BFBD01A
:103FB000236038BD0002002038B50C4611460022AF
:103FC0008446074D20462A601A46644603F046FDA3
:103FD000431C00D038BD2B68002BFBD0236038BDBC
:103FE0000002002051F8040C0028A0F10400BCBF1E
:103FF0000B58C018704700BF38B50C461146002258
:104000008446074D20462A601A46644603F0D8FCD1
:10401000431C00D038BD2B68002BFBD0236038BD7B
:10402000000200201A4A20F0004393421ADD00B536
:10403000B3F1FF4F83B005DB014602F013FC03B080
:104040005DF804FB694600F085FE00F00302012ADA
:104050000BD0022A15D07AB101220199009801F003
:104060007BFCECE7002101F03FB80199009801F0DA
:1040700073FC00F10040E2E70199009801F034F888
:10408000DDE70199009801F02FF800F10040D6E734
:10409000D80F493F1B4A20F0004393421BDD00B577
:1040A000B3F1FF4F83B005DB014602F0DBFB03B049
:1040B0005DF804FB694600F04DFE00F003000128A6
:1040C0000DD0022816D078B10199009801F00CF8B3
:1040D00000F10040EBE70022002101F03DBC019916
:1040E000009801F001F8E2E701220199009801F03F
:1040F00033FCDCE701220199009801F02DFC00F16E
:104100000040D4E7D80F493F38B5044600F0B2F874
:104110000F4B054693F9003001330CD02146204661
:1041200002F070FE38B9204601F092FD4FF07E514A
:1041300002F05EFE08B9284638BDFCF72DF82122B2
:10414000034604481A60BDE8384001F0CDBD00BF09
:10415000D001002020C6000800F0DAB970B506468C
:104160000C4600F05DFA414B054693F900300133EF
:104170001ED02146204602F045FEC8B931463046E1
:1041800002F040FE00282FD13046002102F008FE48
:1041900080B12046002102F003FE58BB204601F00A
:1041A0005BFD28B12046002102F004FE002841D129
:1041B000284670BD284601F04FFDF8B12846002181
:1041C00002F0EEFD0028F3D0304601F045FD002856
:1041D000EED0204601F040FD0028E9D0FBF7DCFFDF
:1041E000222300250360E3E72046002102F0D8FDEA
:1041F0000028DDD04FF07E55284670BD304601F0D6
:104200002BFD0028DAD0204601F026FD0028D5D06D
:104210002946284602F0F6FDE0B9FBF7BDFF222251
:104220000346002130461A6002F0C4FD40B94FF049
:10423000FF45BDE7FBF7B0FF21230D4D0360B7E756
:10424000204601F055FD214602F0AAFD0028EED1DE
:10425000074DADE7FBF7A0FF2122034600211A60BE
:10426000084602F0BDFC0546A2E700BFD0010020D1
:10427000000080FF2DE9F84320F00045B5F17E5F96
:10428000044600F0B28000F3A880B5F17C5F0646DA
:104290000DDAB5F1485F80F2CE808D4902F0E4FA84
:1042A0004FF07E5102F0A4FD002840F0C28020466D
:1042B00001F0CEFC01464FF07E5002F0D3FA4FF0F1
:1042C0007C5102F0D9FB0446824902F0D5FB8249B9
:1042D00002F0CAFA214602F0CFFB804902F0C2FA8E
:1042E000214602F0C9FB7E4902F0BEFA214602F0E7
:1042F000C3FB7C4902F0B6FA214602F0BDFB7A49C5
:1043000002F0B2FA214602F0B7FB78498046204617
:1043100002F0B2FB764902F0A5FA214602F0ACFBAE
:10432000744902F0A1FA214602F0A6FB724902F09C
:1043300099FA214602F0A0FB4FF07E5102F094FA68
:104340008146204600F078FE6C4B07469D425BDCC0
:10435000014602F089FA034649464046984602F073
:104360003FFC0146404602F087FB27F47F6525F0BD
:104370000F0580462946284602F07EFB014620466E
:1043800002F070FA29460446384602F06DFA0146FA
:10439000204602F025FC014602F066FA0146584824
:1043A00002F060FA0146404602F05CFA29460446F3
:1043B000284602F059FA0146524802F053FA0146E3
:1043C000204602F04FFA01464E4802F04BFA002E0A
:1043D00009DC00F10040BDE8F883014602F042FA32
:1043E000014602F0FDFBBDE8F883474902F044FBBB
:1043F0000346434920461C4602F03EFB0146204648
:1044000002F032FABDE8F8834946404602F0E8FB84
:10441000394602F031FB394602F026FA014602F035
:1044200023FA3A4902F020FA0146374802F01AFA14
:10443000CDE72046D7E7014602F01EFB0546254999
:1044400002F01AFB244902F00FFA294602F014FB8D
:10445000224902F007FA294602F00EFB204902F039
:1044600003FA294602F008FB1E4902F0FBF929462F
:1044700002F002FB1C4902F0F7F9294602F0FCFAAF
:104480001A490646284602F0F7FA194902F0EAF9F5
:10449000294602F0F1FA174902F0E6F9294602F03E
:1044A000EBFA154902F0DEF9294602F0E5FA4FF081
:1044B0007E5102F0D9F90146304602F091FB2146C7
:1044C00002F0DAFA214602F0CFF9BDE8F88300BF26
:1044D000CAF2497108EF1138047F4F3A4611243D62
:1044E000A80A4E3E90B0A63EABAA2A3E2EC69D3DDF
:1044F0006133303F2D57014039D119409999793FA7
:104500002EBD3BB3DB0F493FDB0FC93F2EBD3B3315
:1045100070B521F00045B5F1FF4F0A4603462CDC8B
:1045200020F00046B6F1FF4F844626DCB1F17E5FF5
:1045300035D08C1704F0020444EAD07416B33DB3AE
:10454000B5F1FF4F33D0B6F1FF4F21D0751BB5F158
:10455000F45F4FEAE55028DA002934DA3C3032DAE9
:104560000020012C40D0022C36D02CB1254902F07D
:104570007BF9254902F076F970BD1946104602F024
:1045800073F970BD022C08D0032CF5D11F4870BD03
:10459000BCF1000F07DB1E4870BD1B4870BDBDE8B5
:1045A000704001F04DBA1B4870BD1948D9E7B6F10B
:1045B000FF4F04F1FF341AD0022C1ED8164B03EB28
:1045C0008404E06870BD1146184602F009FB01F052
:1045D0003FFB01F035FAC4E70A4902F045F901460C
:1045E000094802F03FF970BD00F1004070BD022C97
:1045F00005D8094B53F8240070BD002070BD074852
:1046000070BD00BF2EBDBB33DB0F4940DB0F49C07F
:10461000DB0FC93FDB0FC9BFC4C00008DB0F493F38
:104620002DE9F04F31F0004A87B012D020F0004859
:10463000B8F1FF4F0746814605DDB34807B0BDE836
:10464000F04F01F051BBBAF1FF4F07DDB8F17E5FCB
:10465000F3D14FF07E5007B0BDE8F08F00280C4634
:104660000D46C0F235810026BAF1FF4F00F04381BC
:10467000BAF17E5F00F08B81B5F1804F00F09B8135
:10468000B5F17C5F384640F06181B9F1000F80F2EE
:10469000978101F0DDFAB8F1FF4F00F06B81B8F1BE
:1046A000000F00F06381B8F17E5F00F058814FEA9F
:1046B000D9735A1E56EA020300F08781BAF19A4F65
:1046C00040F38B81914B984540F31C83904B984568
:1046D00000F361814FF07E51009202F0C3F88D49E2
:1046E000074602F0C9F98C498146384602F0C4F900
:1046F0004FF07A518046384602F0BEF901468748AD
:1047000002F0B0F8394602F0B7F901464FF07C509C
:1047100002F0A8F80346394638461F4602F0ACF9C5
:104720000146384602F0A8F97D4902F0A5F9014694
:10473000404602F097F880464846414602F094F819
:1047400020F47F6727F00F074946384602F08AF8C1
:104750000146404602F086F88046009A25F47F65BF
:10476000013E25F00F0556EA02032946204614BFF4
:104770004FF07E566B4E02F075F8394602F07CF928
:104780000346214640461C4602F076F90146204683
:1047900002F06AF80346294638461F4602F06CF9D3
:1047A00005463846294602F05FF80028AA468046AA
:1047B000044620F0004940F33982B9F1864F00F3F6
:1047C000998200F08782B9F17C5F00F33C8200257A
:1047D000A84624F47F6424F00F042046524902F0D6
:1047E0004BF951468146204602F03CF801463846D6
:1047F00002F038F84D4902F03FF903464C49204693
:104800001C4602F039F90146204602F02DF8074611
:104810004846394602F028F84946044602F022F894
:104820000146384602F01EF821468146204602F035
:1048300023F907463F4902F01FF93F4902F012F8F9
:10484000394602F019F93D4902F00EF8394602F0F6
:1048500013F93B4902F006F8394602F00DF93949DF
:1048600002F002F8394602F007F90146204601F04D
:10487000F9FF07462046394602F0FEF803464FF09E
:10488000804138461F4601F0EDFF0146384602F0F0
:10489000A7F949460746204602F0EEF8494601F0DE
:1048A000E3FF0146384601F0DDFF214601F0DAFF63
:1048B00001464FF07E5001F0D5FF03462B44B3F57F
:1048C000000FC0F238821846314602F0D5F8C2E631
:1048D000BAF1974F38DABAF17E5F0ADB4FEAEA5352
:1048E000C3F196034AFA03F202FA03F3534500F0C8
:1048F00098810026BCE6B8F17E5F3FF4AAAE4FDD9A
:10490000002D4BDB2046A6E620C60008F7FF7F3FC0
:104910000700803F00AAB83F70A5EC36ABAAAA3EBC
:104920003BAAB83F000080BF0072313F1872313F90
:104930008CBEBF354CBB31330EEADD3555B38A38FA
:10494000610B363BABAA2A3E02268DE601F080F9C8
:10495000B8F1FF4F03D0B8F1000F7FF4A4AE002DE3
:1049600004DA01464FF07E5002F03AF9B9F1000F37
:10497000BFF671AEA8F17E5858EA060340F04B81AD
:10498000014601F06FFF014602F02AF963E6002DAF
:104990000BDB38465FE6002D00F3B78100205AE6B6
:1049A000002DFBDA04F1004055E639464FF07E5009
:1049B00002F016F94FE63946384602F05DF84AE64D
:1049C00007B0BDE8F04F00F037BB3946384601F07C
:1049D00049FF014602F004F93DE619F0FF4F40F0AF
:1049E0005B814FF09741009202F046F86FF017019B
:1049F0008046009A4FEAE8537F3B5918A74BC8F30B
:104A000016089845009148F07E5907DDA44B98455B
:104A100040F3808101310091A9F5000900230027AE
:104A20004FF07E5A05930493514648460392CDF8C1
:104A3000049001F017FF019B8346514618460293EC
:104A400001F012FF01464FF07E5002F0C9F8034614
:104A500058461946019302F00FF84FEA690141F0F8
:104A6000005101F5802120F47F6929F00F090F44DE
:104A700080463946484601F0FFFF0146584601F09E
:104A8000F1FE844651463846674601F0EBFE029B34
:104A90000146184601F0E6FE494601F0EDFF0146E9
:104AA000384601F0DFFE019901F0E6FF41468246FB
:104AB000404601F0E1FF07467A4901F0DDFF7A49FF
:104AC00001F0D2FE394601F0D7FF784901F0CCFE63
:104AD000394601F0D1FF764901F0C6FE394601F0B2
:104AE000CBFF744901F0C0FE394601F0C5FF7249A1
:104AF00001F0BAFE0346394638461F4601F0BCFFB6
:104B00000146384601F0B8FF07464946404601F0E5
:104B1000ABFE514601F0B0FF394601F0A5FE494613
:104B20008346484601F0A8FF6449019001F09CFECD
:104B3000594601F099FE074627F47F6727F00F07D3
:104B40003946484601F098FF5C498146384601F0F5
:104B500089FE019B194601F085FE0146584601F089
:104B600081FE414601F088FF0346394650461F4604
:104B700001F082FF0146384601F076FE8046484645
:104B8000414601F071FE20F47F6727F00F07384699
:104B90004B4901F071FF034649463846994601F0FA
:104BA00061FE0146404601F05DFE464901F064FFAA
:104BB0000346454938461F4601F05EFF0146384628
:104BC00001F052FE049901F04FFE8046009801F07A
:104BD000FFFE82464146484601F046FEDDF814B02D
:104BE000594601F041FE514601F03EFE20F47F6738
:104BF00027F00F075146384601F034FE594601F0C0
:104C000031FE494601F02EFE0146404601F02AFEE3
:104C1000039A8046A2E5012E7FF41DAD00F100400D
:104C200019E502F00102C2F1020621E5274B994580
:104C300079DC7FF4C8AD294601F014FE394602F054
:104C4000CDF800286FD14FF400034FEAE959A9F1DC
:104C50007E0943FA09F909EB0403C3F3C7521C495F
:104C6000C3F316087F3A114148F40008C2F1170255
:104C700048FA02F8002C23EA01012846B8BFC8F11F
:104C8000000801F0EFFD82463846514601F0ECFD88
:104C90004FEAC85504469CE50021ABE671C41C00F0
:104CA000D6B35D0042F1533E55326C3E05A38B3EB8
:104CB000ABAAAA3EB76DDB3E9A99193F000040406F
:104CC0000038763F4F38763FA0C39D36000016432C
:104CD000FFFF7F001A49384601F0C6FD034629460A
:104CE0004046984601F0BEFD0146404602F080F87D
:104CF0000028A8D03046134901F0BEFE114901F04A
:104D0000BBFEA8E4002DBFF649AE0E49084601F0EF
:104D1000B3FEA0E40C4B4FF4001705930B4B4FF080
:104D20007F5A049380E63046094901F0A5FE084900
:104D300001F0A2FE8FE4414601F02EF8C4E500BF69
:104D40003CAA3833CAF2497100C0153FDCCFD135D7
:104D50006042A20D2DE9F04FAA4A20F0004494428F
:104D60000D4689B06CDDA84A074694421CDC002839
:104D7000A64940F31D8101F075FDA54B24F00F04F9
:104D80009C4206466BD0A34901F06CFD01463046BB
:104D9000296001F067FD9F4901F064FD012668600C
:104DA000304609B0BDE8F08F9B4A94426CDDB4F107
:104DB000FF4F4DDAE615863EA4EBC654204602F0BE
:104DC00037F801F005FE01462046059101F04AFD45
:104DD0004FF0874101F050FE804602F029F801F0C3
:104DE000F7FD044640462146069401F03BFD4FF096
:104DF000874101F041FE0021079001F0D1FF00281A
:104E000000F0B7802046002101F0CAFF002814BF3F
:104E100001230223022481493246019105A8294633
:104E2000009400F027FA002F0646B9DAD5E90023EE
:104E300002F1004203F100432A606B604642AFE793
:104E400000262860002230464A6009B0BDE8F08F95
:104E5000014601F007FD002668602860A0E7704960
:104E600001F000FD6F49044601F0FCFC01462046BC
:104E7000296001F0F7FC6B4901F0F4FC0126686041
:104E8000304609B0BDE8F08F00F0E2FE664980468A
:104E900001F0F2FD4FF07C5101F0E6FC01F0C8FF9B
:104EA000064601F095FD5949834601F0E5FD0146AE
:104EB000404601F0D7FC57498246584601F0DCFDD8
:104EC0001F2E81460146504620DC584B721E53F877
:104ED000223024F0FF029A4218D001F0C3FC804631
:104EE000C5F800804146504601F0BCFC494601F03F
:104EF000B9FC002F6860BFF653AF08F1004800F11D
:104F00000040C5F800806860764249E701F0AAFCDD
:104F1000C0F3C752E315C2EBD454082C8046DFDD42
:104F20003F495846039301F0A7FD8046504641464D
:104F300001F098FC04465046214601F093FC41469E
:104F400001F090FC80463749584601F095FD4146F6
:104F500001F088FC81462046494601F083FC039B12
:104F6000C0F3C7529B1A192B804604DCA246286066
:104F7000B8E703234EE72E49584601F07DFD8046F1
:104F80002046414601F06EFC82462046514601F023
:104F900069FC414601F066FC04462649584601F08A
:104FA0006BFD214601F05EFC81465046494694E780
:104FB00001F05AFC164B24F00F049C4206460ED01A
:104FC000144901F051FC01463046296001F04AFCC9
:104FD000104901F049FC4FF0FF366860E0E61049E7
:104FE00001F042FC0F49044601F03EFC0146204618
:104FF000296001F037FC0B4901F036FC4FF0FF3619
:105000006860CDE6D80F493FE3CB1640800FC93F1B
:10501000D00FC93F43443537800F49435CC1000876
:105020000044353708A3852E84F9223FDCC00008F0
:1050300000A3852E32318D2420F00042B2F1FF4FC3
:1050400010B5044634D292B30028034642DB10F078
:10505000FF4F4FEAE05432D00021A4F17F00E20775
:105060004FF0190C4FEA60044FF080720846C3F30A
:10507000160343F4000358BF5B005B0000EB020E15
:105080009E4504DC0EEB0200A3EB0E031144BCF1C1
:10509000010C4FEA43034FEA5202EFD113B1013141
:1050A00021F00101481000F17C5000EBC45010BD0C
:1050B000014601F0E1FC214601F0D6FB10BD10F4E1
:1050C00000020ED15B001802114602F10102F9D56F
:1050D000641AC1E7014601F0C5FB014601F080FDFD
:1050E00010BD4FF0FF31F3E72DE9F84320F0004504
:1050F000B5F1485F064688464ADA01F099FE002875
:1051000000F09F803146304601F0B6FC04464F491E
:1051100001F0B2FC4E4901F0A7FB214601F0ACFCC6
:105120004C4901F09FFB214601F0A6FC4A4901F0E1
:105130009BFB214601F0A0FC484901F093FB21466E
:1051400001F09AFC464901F08FFB214601F094FCE6
:1051500007464FF07C51204601F08EFC034639464D
:1051600020461C4601F088FC41460546304601F0C9
:1051700083FC0146284601F075FB0146204601F0FC
:1051800071FB01464FF07E5001F06CFBBDE8F883E7
:10519000014601F071FC04462C4901F06DFC2C49DC
:1051A00001F062FB214601F067FC2A4901F05AFB3D
:1051B000214601F061FC284901F056FB214601F02F
:1051C0005BFC264901F04EFB214601F055FC2449C9
:1051D00001F04AFB214601F04FFC224B07469D425D
:1051E000B7DD214B9D4228DC05F17F4529464FF074
:1051F0007E5001F037FB814620464FF07C5101F094
:105200003BFC294601F02EFB0346394620461C464E
:1052100001F032FC41460546304601F02DFC0146C6
:10522000284601F01FFB0146204601F01BFB01460A
:10523000484601F017FBBDE8F883DFF830900C4DCD
:10524000DAE74FF07E50BDE8F88300BF4ED747AD98
:10525000F6740F317CF29334010DD037610BB63AFE
:10526000ABAA2A3D9999993E0000483F0000383F7B
:105270000000903E2DE9F04FDDB0669DA74C0693EF
:1052800054F825400991013B111D054603940B92EA
:105290000193C0F2F182D31E48BF131DDB100593AA
:1052A0000133DB000A93DDE90A239B1A0493059A74
:1052B000019BD61A039A12EB030818D408F10108CF
:1052C0000024DDF89C91B04420AF08E059F8260096
:1052D00001F07EFB0136464547F8040B07D0002E4F
:1052E000F4DA20460136464547F8040BF7D1039B14
:1052F000002BC0F21583069B20AA02EB83079A00BD
:105300000092039A291F019E02910DF5907802EBFD
:10531000030901EB8305019B002BB8BF002410DBC0
:10532000BB460024DDF808A05BF8041D5AF8040F02
:1053300001F0A2FB0146204601F096FAAA45044678
:10534000F2D101364E4548F8044B07F10407E2D18B
:10535000029B009D0BAA1D44039B02EB8302089253
:105360000CAA994602EB8303083B07935CAB03EB63
:105370008903B9F1000F53F850AC4FEA890821DDD9
:1053800048AF0CAE07EB89044FF06E51504601F068
:1053900073FB01F04DFD01F01BFB4FF0874183468D
:1053A00001F06AFB0146504601F05CFA01F040FD55
:1053B00054F8041D46F8040B584601F055FABC4257
:1053C0008246E1D1049E5046314600F0E5FC4FF0A4
:1053D0007851044601F050FB00F046FC4FF082414A
:1053E00001F04AFB0146204601F03CFA044601F078
:1053F0001FFD824601F0ECFA0146204601F032FA28
:10540000002E0446334640F38B80184609F1FF32E4
:105410000CA951F82260C3F1080346FA03F101FA1E
:1054200003F3F61A0CAB43F82260C0F107031E41E8
:10543000002E8A447EDC0021204601F0B1FC0028C9
:1054400000F0CF80039B09F1FF34A34210DC00225F
:1054500009F18043013B0CA9089801EB830353F841
:105460000419834242EA0102F9D1002A40F0118175
:10547000039B0CAA013B52F82330002B40F0038120
:105480000127079B53F804290137002AFAD009F1B4
:10549000010AD04609EB07030093069B679A03EBCA
:1054A0000906059B534403F18043013B02EB83094A
:1054B00020AB03EB860648AB03EB8A0A59F8040FCE
:1054C00001F086FA019B3446002B06F1040646F8EB
:1054D000040C1ADB0027DDF808B0043C01E054F8A6
:1054E00004095BF8041F01F0C7FA0146384601F0D1
:1054F000BBF9AB450746F2D1009B08F1010898457E
:105500004AF8047BDADD994630E70027009B08F172
:10551000010898454AF8047BD0DDF4E774C400081C
:1055200040F0998009F1FF330CAA52F8236036123B
:10553000002E80DDB9F1000F0AF1010A40F3A181CC
:105540000C9F002F7FD1B9F1010F1BD001220CABB2
:1055500053F8047F002F79D0531CC7F580770CA92E
:10556000994541F822700CDD51F82320884401EB65
:10557000830300E01A68C2F1FF0243F8042B43459D
:10558000F8D10127049B002B0EDD012B00F069816F
:10559000022B09D109F1FF320CAB53F822300CA9D0
:1055A00003F03F0341F82230022E7FF444AF21463E
:1055B0004FF07E5001F056F90446002F3FF43BAF08
:1055C00004994FF07E5000F0E7FB0146204601F0C1
:1055D00049F904460021204601F0E2FB00287FF44F
:1055E00031AFDDE90A322046991A009600F0D4FB6B
:1055F0004FF08741054601F0F1FB002800F06C8177
:10560000049B4FF06E5108332846049301F034FA9E
:1056100001F00EFC01F0DCF94FF08741064601F085
:105620002BFA0146284601F01DF901F001FC0CABF4
:1056300043F82900304601F0FBFB09F101040CABF3
:1056400043F824003BE00123002286E701324A456B
:105650007FF47EAF96E74FF07C5101F0BFFB06462A
:1056600000283FF4E8AEB9F1000FC8BF02260AF1E6
:10567000010A3FF765AF21464FF07E5001F0F2F886
:1056800002260446D7E609F1010AD046CDF800A06B
:1056900003E7049B0096A3F108020CAB53F82430F7
:1056A000049263B909F18043023B0CA901EB830327
:1056B00053F80419013C083A0029F9D004924FF03C
:1056C0007E50049900F068FB002C0746C0F22E8142
:1056D0004FF06E56A30048AA02EB0308019304336F
:1056E000029330330DEB030908F1040559F8040D5A
:1056F00001F06EF9394601F0BFF9034631463846EC
:1057000045F8043D01F0B8F90CAB99450746EDD1D9
:105710000027A346DDF80C90A8F10408CDF810A0EE
:10572000B9F1000FB8BF002515DBC24600250026E1
:105730008748884C03E0B7420DDB54F8040F5AF851
:10574000041F01F099F90146284601F08DF8013651
:10575000B1450546EFDA5CAB03EB8703BB4543F885
:10576000A05CA8F1040807F1010301D01F46D7E7A8
:10577000669A5C46022ADDF810A018DC002A00F3C5
:1057800082800FD10020029C34AD2C4454F8041DBB
:1057900001F06AF8A542F9D1009B0BB100F100407D
:1057A000099B18600AF007005DB0BDE8F08F669BAA
:1057B000032BF7D1002C00F0C680019A34AE02F51D
:1057C000B8736B4453F8A05CB71857F8049C28468C
:1057D000494601F049F8A84605464846294601F0E1
:1057E00041F8414601F040F8386047F8045DBE4298
:1057F000EBD1012C40F3A780019B0DF1D408F718E1
:105800003D4603F5B8736B4453F8A04C55F804BCFF
:105810002046594601F028F8A1460446584621463C
:1058200001F020F8494601F01FF8286045F8044DC2
:10583000A845EBD100200437083657F8041D01F0C5
:1058400013F8BE42F9D1009B002B4DD10999349A2F
:10585000359B88600AF007000A604B605DB0BDE8C8
:10586000F08F09F1FF320CAB53F822300CA903F092
:105870007F0341F8223097E608230A93002305931B
:1058800011E500277EE6002034AE06EB830555F8CF
:10589000041D00F0E9FFAE42F9D1009B002B34D18A
:1058A000099B01461860349800F0DCFF002C0CDDE9
:1058B000012534AE56F8041F013500F0D5FFAC4287
:1058C000F8DA009B0BB100F10040099B58600AF028
:1058D00007005DB0BDE8F08F284601F0A9FA0CABD7
:1058E0004C4643F82900EAE6099900F10040DDE959
:1058F0003423886002F1004203F100430AF00700FC
:105900000A604B605DB0BDE8F08F099A00F100437A
:1059100001461360349800F0A5FF002CC8DCD2E7E4
:105920002B1F0293069B9B00009311E5669B022BA5
:1059300005DC002B09DC7FF435AF00202CE7669BEB
:10594000032B7FF42FAF00207DE70020A5E700BFE9
:105950000000C93F80C400082DE9F84320F000434F
:10596000B3F1485F04460E46174603DA01F060FAC9
:10597000002856D02146204601F07EF805462046F4
:10598000294601F079F828498046284601F074F844
:10599000264900F067FF294601F06EF8244900F01F
:1059A00063FF294601F068F8224900F05BFF2946B1
:1059B00001F062F8204900F057FF814617B34FF01D
:1059C0007C51304601F058F849460746404601F000
:1059D00053F80146384600F045FF294601F04CF8DF
:1059E000314600F03FFF15490546404601F044F8B6
:1059F0000146284600F038FF0146204600F032FFFD
:105A0000BDE8F8830146284601F036F80B4900F05E
:105A100029FF414601F030F8214600F025FFBDE89E
:105A2000F8832046BDE8F883D3C92E2F342FD73210
:105A30001BEF3836010D50398988083CABAA2A3E45
:105A40002DE9F04120F00045B5F1A14F044607468D
:105A500007DBB5F1FF4F71DC00287FDD6948BDE849
:105A6000F081694B9D427CDCB5F1445F6BDB4FF00C
:105A7000FF382146204600F0FFFF0146064600F0B1
:105A8000FBFF0546614900F0F7FF614900F0ECFEBD
:105A9000294600F0F1FF5F4900F0E6FE294600F0DC
:105AA000EBFF5D4900F0E0FE294600F0E5FF5B49B1
:105AB00000F0DAFE294600F0DFFF594900F0D4FE7D
:105AC000314600F0D9FF57490646284600F0D4FF7A
:105AD000554900F0C7FE294600F0CEFF534900F0BB
