:020000040800F2
:1000000000900020D1EC0008B1890008B3890008F5
:1000100000000000000000000000000000000000E0
:1000200000000000000000000000000045CF0008B4
:100030000000000000000000B1CF000831CB000834
:1000400021ED000821ED000821ED000821ED000858
:1000500021ED000821ED000821ED000821ED000848
:1000600021ED0008B5890008C589000821ED0008C8
:1000700021ED000821ED0008D5890008E589000878
:10008000F5890008058A000821ED000821ED000827
:1000900021ED000821ED000821ED000821ED000808
:1000A00021ED000821ED000821ED0008158A000867
:0C00B00021ED000821ED000821ED000802
:1000C0000448054B10B5834203D0044B002B00D0ED
:1000D000984710BDBC010020BC01002000000000BA
:1000E00006480749091A8B10C90FC91810B54910DD
:1000F00003D0044B002B00D0984710BDBC0100205A
:10010000BC0100200000000010B5074C2378002B34
:1001100009D1FFF7D5FF054B002B02D0044800E0C2
:1001200000BF0123237010BDC001002000000000AB
:10013000888E0108054B10B5002B03D004490548F3
:1001400000E000BFFFF7CCFF10BDC046000000007C
:10015000C4010020888E0108014B18687047C04612
:100160000000002070B50C4D0C4E761BB61005D06B
:10017000002408CD01349847A642FAD118F084FE35
:10018000074D084E761BB61005D0002408CD01346B
:100190009847A642FAD170BDE8A20108E8A201087A
:1001A000E8A20108ECA20108F0B5C64600B50F2A86
:1001B00041D903270D003E0005430C0003002E40EB
:1001C0002F423DD11500103D2D09A8462D01AC460A
:1001D000844427681D001F6067685F60A7689F6090
:1001E000E7681034DF6010336545F2D145460F23D0
:1001F0000C2401352D01491913404519144222D010
:100200008C59AC5104369C1B032CF9D8043B9B0839
:1002100001339B00ED18C91803231A40561E002A0B
:1002200006D00023CC5C1A00EC5401339642F9D17D
:1002300080BCB846F0BD0500561E002AF1D1F7E794
:100240000500561EEDE71A00F6E7C046F0B50500BA
:10025000830749D0541E002A45D003000326CAB2A2
:1002600002E00135013C3ED301332A703342F8D11C
:10027000032C30D9FF220A40150215432A041543E6
:100280000F2C34D92700103F3F093E01B4461E0011
:100290001A0010366644156055609560D5601032BE
:1002A000B242F8D101373F01DB190F270C2227405A
:1002B00022403C00002A0ED03E1FB608B400A446DF
:1002C0001A001C1D644420C2A242FCD10324013642
:1002D000B6009B193C40002C05D0C9B21C191970FE
:1002E00001339C42FBD1F0BD03001400C0E727009E
:1002F000E2E7C04600B51C4A430083B05B08934266
:1003000019DDFF22D205934204DB011C02F090FDAF
:1003100003B000BD694600F013FD032301991840A6
:1003200001280CD0022817D0002811D001220098F3
:1003300001F03EFBECE7002100F0D4FEE8E70122EB
:10034000009801F035FB80231B069C466044DFE7E4
:10035000009800F0C7FEDBE7009800F0C3FE8023A2
:100360001B069C466044D3E7D80F493F00B51D4AA1
:10037000430083B05B0893421CDDFF22D205934209
:1003800004DB011C02F054FD03B000BD694600F01F
:10039000D7FC032301991840012810D0022817D058
:1003A000002810D0009800F09DFE80231B069C467C
:1003B0006044E9E70022002101F0FAFAE4E700983E
:1003C00000F090FEE0E70122009801F0F1FADBE78F
:1003D0000122009801F0ECFA80231B069C46604441
:1003E000D2E7C046D80F493F10B500F08FF810BDD6
:1003F00070B5061C0C1C00F00FF9424B051C1B7855
:100400005BB2013322D0211C201C02F0BFFE002869
:100410001CD1311C301C02F0B9FE0021002832D161
:10042000301C01F0EFFE002812D00021201C01F04A
:10043000E9FE00282CD1201C01F05CFC002805D02E
:100440000021201C01F0E4FE002841D1281C70BDD1
:10045000281C01F04FFC00281DD00021281C01F0B1
:10046000D1FE0028F2D0301C01F044FC0028EDD071
:10047000201C01F03FFC0028E8D0FFF76DFE22238E
:1004800000250360E2E7201C01F0BCFE0028DDD05F
:10049000FE25AD05DAE7301C01F02CFC0028DCD08D
:1004A000201C01F027FC0028D7D0291C281C02F0B2
:1004B0006DFE00281CD1FFF74FFE222300210360B0
:1004C000301C01F0A5FE002808D1FF25ED05BDE791
:1004D000FFF742FE21230C4D0360B7E7201C01F01B
:1004E00063FC211C01F08EFE0028EED1064DADE725
:1004F000FFF732FE212300210360081C02F0AAF955
:10050000051CA3E764000020000080FFF8B5FF256C
:100510004A00031C5208081CED05AA422BDC5900B6
:100520009C464908A94226DCFE24A405A04234D0FA
:10053000022487173C40DF0F3C4300291FD0002ACC
:1005400024D0AA4231D0A94220D08A1AD2153C2AFE
:1005500029DC002834DA3C3232DA0020012C40D089
:10056000022C36D0002C09D0244901F0D5FF2449B3
:1005700002F05EFC02E0191C01F0CEFFF8BD022C77
:1005800009D0181C032CF9D11E48F7E76346002B4D
:1005900007DB1D48F2E71A48F0E7181C01F080FA63
:1005A000ECE71A48EAE71848D8E7013C91421DD029
:1005B0000020022CE2D8164BA4001C19E068DDE7ED
:1005C000011C181C02F046F901F090FB01F068FADA
:1005D000C4E70A4901F0A0FF011C094802F028FC09
:1005E000CCE780231B069C466044C7E7022C03D857
:1005F000074BA400E058C1E70648BFE72EBDBB3358
:10060000DB0F4940DB0F49C0DB0FC93FDB0FC9BF20
:10061000B48E0108DB0F493FF0B54E464546DE4635
:100620005746E0B54B005A088946904687B0061CED
:100630000C1C002B10D0FF23470005007F08DB05B2
:100640009F4203DDD84801F0ABFB07E09A420CDD86
:10065000FE239B059F42F5D1FE20800507B0F0BC2C
:10066000BB46B246A946A046F0BD00230093002831
:1006700000DA2BE1FF23DB05984500D13FE1FE23A3
:100680009B05984500D16CE18023DB05994500D19D
:1006900079E1FC23301C9B05994500D03FE1002DFA
:1006A00000DB75E101F022FBFF23DB059F4200D157
:1006B00049E1002F00D143E1FE239B059F4200D179
:1006C00036E1009BF50F013D2B4300D163E19A23F6
:1006D000DB05984500DC89E1B44B9F4200DCE2E297
:1006E000B34B9F4200DDFAE2FE21890502F0A0FB38
:1006F000B049061C02F076FAAF498046301C02F081
:1007000071FAFA21071C8905301C02F06BFA011CF2
:10071000AA4802F08DFB311C02F064FA011CFC2097
:10072000800502F085FB311C8146301C02F05AFA2C
:10073000011C484602F056FAA14902F053FA011C86
:10074000381C02F075FB011C071C404601F0E4FE5A
:100750004146060B3603301C02F06AFB011C381CB4
:1007600002F066FB009B8146013B1D4300D04DE239
:10077000944F250B2D03291C201C02F059FB311C22
:1007800002F030FA211C8046484602F02BFA011C88
:10079000404601F0C1FE291C8046301C02F022FABE
:1007A000011C8246061C404601F0B6FE450081460B
:1007B00004006D08002800DC2BE28623DB059D4247
:1007C00000DD68E200D157E2FC239B059D4200DD7D
:1007D0002CE2002300269946240B24037A49201C8E
:1007E00002F000FA5146051C201C02F021FB011CFE
:1007F000404602F01DFB754902F0F4F97449804649
:10080000201C02F0EFF9011C404601F085FE8046F5
:10081000011C281C01F080FE291C041C02F008FBAE
:10082000011C404602F004FB211C8046201C02F003
:10083000D9F96849051C02F0D5F9674902F0F8FAC0
:10084000291C02F0CFF9654901F066FE291C02F06F
:10085000C9F9634902F0ECFA291C02F0C3F96149B5
:1008600001F05AFE291C02F0BDF9011C201C02F007
:10087000DFFA051C011C201C02F0B4F9802182461D
:10088000C905281C02F0D4FA011C504601F0E2FF11
:100890004146051C201C02F0A5F9414601F03CFE32
:1008A000011C281C02F0C4FA211C02F0C1FA011C30
:1008B000FE20800502F0BCFA3618F215002A00DC92
:1008C00012E2301C391C02F08DF9C7E69723DB05D4
:1008D0009A4221DAFE239B059A4200DACFE6D3152D
:1008E0009622D31A42461A4111009940414500D040
:1008F000C5E601231A4001339B1A0093BFE6FE238D
:100900009B059F4200D1A7E636DD4B46201C002BFD
:1009100000DBA3E60020A1E602230093AAE601F093
:10092000E5F9FF23DB059F4202D0002F00D0C3E68C
:100930004B46002B04DA011CFE20800501F08AFFE3
:10094000002D00DB8AE6284B9C46009B67441F4332
:1009500000D052E1011C02F06BFA011C01F07AFF99
:100960007CE64B46301C002B00DB77E6FE20311C7A
:10097000800501F06FFF71E64B46002BCADA802339
:100980001B06E0186AE6311C301C02F02BF965E604
:1009900000F050FB62E6311C301C02F049FA011CE9
:1009A00001F058FF5AE6C04670A10108F7FF7F3FEB
:1009B0000700803F00AAB83F70A5EC36ABAAAA3E5C
:1009C0003BAAB83F000080BF0072313F1872313F30
:1009D0008CBEBF354CBB31330EEADD3555B38A389A
:1009E000610B363BABAA2A3E000080C0FF23DB052B
:1009F0000022334206D19721C90502F0F3F81822EC
:100A000007005242FB157F3B7F0299187B0AFE27A5
:100A1000B74ABF0501911F43934208DDB54A93428F
:100A200000DC49E1B44B01319C460191674400234D
:100A30000593049300230393FE239B059B4659468D
:100A4000381C02F0F5F959468146381C01F064FD66
:100A5000011CFE20800501F0FDFE011C02904846AD
:100A600002F0C0F8BA467B108027BF051F438023E1
:100A7000DB029C46039B67449C46060B6744360397
:100A80008046391C301C02F0ADF8011C484602F0CB
:100A9000CFF959468146381C02F0CAF9011C50466C
:100AA00002F0C6F9311C02F09DF8011C484602F024
:100AB000BFF9029902F096F841468146404602F09D
:100AC00091F88E49071C02F08DF88D4901F024FD44
:100AD000391C02F087F88B4901F01EFD391C02F029
:100AE00081F8894901F018FD391C02F07BF887492B
:100AF00001F012FD391C02F075F8854901F00CFD7A
:100B0000391C8246381C02F06DF8011C504602F078
:100B100069F8311C071C404601F0FEFC494602F012
:100B200061F8391C01F0F8FC311C8246301C02F0DF
:100B300059F87849834601F0EFFC514601F0ECFC8E
:100B4000070B3F03391C301C02F04CF87149061C9E
:100B5000381C02F06DF9594602F06AF9011C504642
:100B600002F066F9414602F03DF8391C80464846DD
:100B700002F038F8011C404601F0CEFC8146011C11
:100B8000301C01F0C9FC070B3F036349381C02F01D
:100B900029F8311C8046381C02F04AF9011C4846ED
:100BA00002F046F95D4902F01DF85D49061C381C4B
:100BB00002F018F8011C301C01F0AEFC049901F0A1
:100BC000ABFC071C019802F017FB8146391C40461C
:100BD00001F0A2FC059B191C9A4601F09DFC4946B8
:100BE00001F09AFC060B36034946301C02F020F94E
:100BF000514602F01DF94146AEE5009B012B00D0A5
:100C00002CE580231B069C46604427E5FE27BF0594
:100C1000AFE5444B9D425ADC00D0D5E5311C02F0D3
:100C200007F9414601F012FB002850D18020000452
:100C30000300ED157E3D2B411B191D005A005B0280
:100C40005B0A034317203849120E7F3A1141821A7A
:100C500013418D4329009946002C01DA5B429946E5
:100C6000301C02F0E5F8011C8246404601F054FCBD
:100C70004B460400DE05AFE52C49404601F04CFC34
:100C8000311C8246484602F0D3F8011C504601F060
:100C9000D3FA0028CAD02649381C01F0A3FF244902
:100CA00001F0A0FFDAE44B46002B00DB32E62049DE
:100CB000081C01F097FFD1E41E4B05931E4B0493D3
:100CC00080239B030393FF239B059B46B7E61B49A9
:100CD000381C01F087FF194901F084FFBEE44B4640
:100CE000002BE4DC0020B9E4494601F0ABF8E9E56B
:100CF00071C41C00D6B35D00000080FF42F1533E7A
:100D000055326C3E05A38B3EABAAAA3EB76DDB3EC7
:100D10009A99193F000040400038763F4F38763F9F
:100D2000A0C39D3600001643FFFF7F003CAA383366
:100D3000CAF2497100C0153FDCCFD1356042A20D27
:100D4000F0B54E46DE4657464546E0B5AC4B89B059
:100D500046000C00039076089E4200DC71E0A94B2F
:100D60009E4220DCA849002800DC1FE102F060F868
:100D70000F239E43A54B051C9E426ED0A44902F052
:100D800057F8011C2060281C02F052F8A04902F01C
:100D90004FF801256060280009B0F0BCBB46B246A0
:100DA000A946A046F0BD9B4B9E4268DDFF23DB05B4
:100DB0009E424BDAF715863FFD05751B281C02F095
:100DC000FBF902F019FA011C0590281C02F030F81A
:100DD0008721C90501F006FF804602F0EDF902F017
:100DE0000BFA011C0690051C404602F021F88721F1
:100DF000C90501F0F7FE0021079001F003FA002871
:100E000000D1B6E00021281C01F0FCF94342434127
:100E10000133814A21000192022205A800923A0082
:100E200000F028FA039B0500002BB4DA802212069A
:100E30009446236845426344236063686344636067
:100E4000A9E70023002508604B60A4E7011C01F01E
:100E5000EFFF0025606020609DE7704901F0E8FF2A
:100E60006F49051C01F0E4FF011C2060281C01F003
:100E7000DFFF6B4901F0DCFF012560608BE700F0CC
:100E800035FF6849071C01F0ADFEFC21890501F022
:100E900043FB02F091F9050002F0AEF95A4982468F
:100EA00001F0A0FE011C381C01F0C2FF5849814628
:100EB000504601F097FE80461F2D23DCFF233200B1
:100EC00059499A436B1E9B005B589A421AD041467F
:100ED000484601F0ADFF071C2760391C484601F069
:100EE000A7FF414601F0A4FF039B6060002B00DBDD
:100EF00051E780231B069C4667446044276060607E
:100F00006D4248E74146484601F092FFF3159B4683
:100F1000FF22C30D13405A46071CD31A082BDBDDF2
:100F20003E49504601F05EFE071C011C484601F098
:100F30007FFF011C061C484601F07AFF391C01F0B6
:100F400077FF3749071C504601F04CFE391C01F071
:100F50006FFF011C8046301C01F06AFFFF22C30DA9
:100F600013405A46071CD31A192B04DCB1462060E3
:100F7000B3E703234DE72D49504601F033FE071C2C
:100F8000011C301C01F054FF011C8146301C01F093
:100F90004FFF391C01F04CFF2549071C504601F05A
:100FA00021FE391C01F044FF804690E701F0B4FABD
:100FB0000F239E43154B051C9E420ED0144901F091
:100FC000ABFA011C2060281C01F032FF104901F02F
:100FD000A3FA012560606D42DDE6104901F09CFA3C
:100FE0000F49051C01F098FA011C2060281C01F033
:100FF0001FFF0B4901F090FA012560606D42CAE6BF
:10100000D80F493FE3CB1640800FC93FD00FC93FEF
:1010100043443537800F49434C8F0108004435372E
:1010200008A3852E84F9223FCC8E010800A3852ECB
:1010300032318D24FF21420070B50300041C520898
:10104000C9058A423AD2002A37D000283FDBC515AD
:1010500001420BD1802109040A00024001423DD126
:101060005B00100001320B42FAD02D1A5B025A0AC3
:1010700080232E001B047F3E1343EA0725D58022E0
:1010800019210025002476105B005204A018984214
:1010900002DC84181B1AAD1801395B0052080029C4
:1010A000F4D1002B02D0012301359D43FC239B0585
:1010B0009C4668106044F605301870BD011C01F0B4
:1010C00091FD211C01F028FAF7E75B00D7E7011C2E
:1010D00001F0AEFE011C01F0BDFBEEE70120404235
:1010E0002D1AC3E7F8B54746CE46C823460080B55B
:1010F000051C0F1C76089B059E4248DA02F05CF83E
:10110000002800D19FE0291C281C01F06BFD4F49ED
:10111000041C01F067FD4E4901F0FEF9211C01F0AD
:1011200061FD4C4901F084FE211C01F05BFD4A4940
:1011300001F0F2F9211C01F055FD484901F078FE5B
:10114000211C01F04FFD464901F0E6F9211C01F098
:1011500049FD8046FC21201C890501F043FD4146E4
:10116000061C201C01F03EFD391C041C281C01F04B
:1011700039FD011C201C01F05BFE011C301C01F03C
:1011800057FE011CFE20800501F052FE53E0011CB9
:1011900001F028FD2D49041C01F024FD2C4901F02B
:1011A000BBF9211C01F01EFD2A4901F041FE211C62
:1011B00001F018FD284901F0AFF9211C01F012FDE2
:1011C000264901F035FE211C01F00CFD244901F0F7
:1011D000A3F9211C01F006FD224B80469E42B9DD99
:1011E000214B9E422BDCFF231B069C46FE206644BF
:1011F000311C800501F01CFE8146FC21201C890564
:1012000001F0F0FC311C01F013FE4146061C201CCD
:1012100001F0E8FC391C041C281C01F0E3FC011C53
:10122000201C01F005FE011C301C01F001FE011C18
:10123000484601F0FDFDC0BCB946B046F8BD0B4BB9
:101240000B4E9946D9E7FE208005F4E74ED747AD0F
:10125000F6740F317CF29334010DD037610BB63A3E
:10126000ABAA2A3D9999993E0000483F0000383FBB
:101270000000903EF0B5DE4657464E464546E0B586
:10128000DFB0039018000B91689908938B00BF4959
:101290000D92C958130006910100013901911A1DE0
:1012A00000DAFEE2DA1E0723D1170B409B18DB1091
:1012B000591C0093CB000C930C9A0D9B9B1A059321
:1012C000009A019BD41A069AD6180ED40136699F4B
:1012D00022AD36190020002C03DBA300F85801F0E2
:1012E0008BFF013401C5B442F4D1069B002B00DA18
:1012F0003CE3089A4AAB94469A460793019B9F00A9
:10130000994622AB9846069BB84463449B46039B90
:1013100004379C466744019B0024002B0EDB4646A5
:101320000024039D316801CD01F05CFC011C201CF0
:1013300001F0F2F8043E041CBD42F3D1534610C341
:101340009A4604239C46033BE0449C46E144D9452D
:10135000E1D10EAB04219A46494251448C46069A8B
:1013600093009C4461460A916999083B8C4653441A
:101370000993009B08999B0063440293039B8F0091
:10138000043BDF190492049B9A0093465946079A3E
:101390005458002B28DD1E007D4BB9469C46664400
:1013A000944690465746B6006644EE21201C8905B7
:1013B00001F018FC01F000FF01F01EFF8721C905B4
:1013C000051C01F00FFC011C201C01F031FD01F097
:1013D000F3FE316801C7281C01F09EF83300041C9D
:1013E000043E9845E1D14F46059E201C310000F097
:1013F00029FDF8218905041C01F0F4FB00F084FCB0
:101400008221C90501F0EEFB011C201C01F010FD3A
:10141000041C01F0D1FE814601F0EEFE011C201CEF
:1014200001F006FD051C002E7BDD049B08205A1EE2
:10143000534692009B58801B19000141894481400A
:101440005B1A51468B500722921B13419846434624
:10145000002B74DC0021281C00F0D4FE002800D1F1
:10146000CDE0049B069A591E8A420EDC484A0A982F
:101470009446002263449B0053441C68043B22436F
:101480008342FAD1002A00D00BE15246069B013B71
:101490009B00D358002B00D0FEE00122099B196865
:1014A000043B01320029FAD0049B9C46591C894612
:1014B00062440092089B049E9C4622AB9846079B80
:1014C00066449C46B600B044E3444B46029A9B00F7
:1014D000D05801F091FE43461860019B002B1EDBA3
:1014E00046460024039D01E030680435296801F078
:1014F00079FB011C201C01F00FF8043E041CBD42C6
:10150000F2D15B465C6001239C460333E1449C4678
:10151000009BE044E3449945D7DD049333E700247E
:10152000EFE7059B002B00D0ACE05246049B013B4B
:101530009B00D3581B1298464346002B8ADD01239B
:101540009C46049BE144002B00DCBFE153461C6831
:10155000002C00D08CE0049B012B21D001220FAB8A
:101560001C68002C00D186E0531C802149000C1B14
:10157000514692008C50049A9A4210DD50469B00CE
:10158000CA585844FF21534405E0C04664920108FC
:10159000FFFFFF3F1A688A1A04C38342FAD101246D
:1015A000059B002B0DDD012B00D175E1022B08D12D
:1015B0003F22049B013B9B005146C9580A405146BB
:1015C000CA504346022B00D044E7FE20291C800568
:1015D00001F02EFC051C002C00D13BE7FE200599F4
:1015E000800500F02FFC011C281C01F021FC051CCB
:1015F0000021281C00F006FE002800D031E74346F9
:1016000001934B460D9A03930C9B281C991A00F0EA
:1016100019FC8721C905051C00F018FE002800D11F
:1016200080E1EE21281C890501F0DCFA01F0C4FDFF
:1016300001F0E2FD8721C905041C01F0D3FA011C69
:10164000281C01F0F5FB01F0B7FD53465A469850AF
:1016500001229446049B201C63449846059B083352
:10166000059343469D0001F0A7FD5346585135E0D0
:101670000123002279E70499013204338A4200D021
:101680006EE78DE7FC21890500F0E0FD002800D021
:101690000CE100239846DDE6049B01339946009354
:1016A00008E74346884601934B4603934346524618
:1016B00005999B00D35808390591002B0ED1B84AE3
:1016C000049B9446424663449B0053441868043B81
:1016D000013A08390028F9D090460591FE20059975
:1016E000800500F0AFFB4346041C002B00DA40E10C
:1016F0009B009C46079A1D00624491461600029387
:101700005544286801F078FD211C01F06BFAEE21A8
:1017100030608905201C01F065FA043E2B00041C92
:10172000043D9A45EDD10C22944636AB9B469D4B29
:10173000002763449A4643460093069B98464346D7
:101740000024002B1ADB3B0000264F460024002516
:101750009946954804E00436A9450CDB5346F058F9
:10176000B95901F03FFA011C201C00F0D5FE0135EB
:10177000041CA845EFDA4B46B9461F005A46BB0089
:10178000D450042252429446009A7B1CE144974272
:1017900001D01F00D3E7009B9846689B022B21DCF9
:1017A000002B00DD94E013D100205D46029C5C44D8
:1017B000216800F0B1FE2300043C9D42F8D1019B5A
:1017C000002B03D080231B069C4660440B9B1860B3
:1017D0000720039B18405FB0F0BCBB46B246A94649
:1017E000A046F0BD689B032BF2D14346002B00D1ED
:1017F000D3E05B46029A9E586C4B434499469D0049
:101800005D442B68301C191C9A4600F085FE341C80
:10181000011C061C504601F00BFB211C00F07CFE55
:101820002F0068602E60043DBB45EAD14346012B82
:1018300000DCB2E05B46029A5D469E584B469B0038
:10184000984645442F68301C391C00F065FE341C56
:10185000011C061C381C01F0EBFA211C00F05CFE98
:101860002F0068602E60043DAB45EBD1444600205C
:1018700004345C442168043C00F04EFEA742F9D1D8
:10188000019B002B57D10B9B369A98601A605A46E1
:10189000526800925A609BE7049B7F22013B9B00A9
:1018A0008AE608230C930023009305E501239C4658
:1018B00001339846049BE144002B00DD46E6FE2000
:1018C000291C800501F0B4FA051CC3E5002467E675
:1018D00000205D46029C5C44216800F01DFE230050
:1018E000043C9D42F8D1019B002B32D10B9B011C83
:1018F0001860369801F09CFA4346002B0FDD012456
:10190000464637AD02CD013400F006FEA642F9DAB4
:10191000019B002B03D080231B069C4660440B9B3D
:10192000586055E7281C01F047FC53465A4698502A
:10193000049B9846D2E6802212069446369B0B9A68
:10194000634413605B465B6860446344536090602B
:101950003EE780230B9A1B06C3181360011C3698C0
:1019600001F066FA4346002BC9DCD4E74AAB079383
:10197000EFE4689B022B06DC002B0CDC0020002B24
:1019800000D11CE724E7689B032B00D020E736AB8F
:1019900000209B4674E70020A5E7002070E7C046C2
:1019A000FEFFFF3F649201080000C93FFFFFFF3FB9
:1019B000F8B54746CE4680B51700C8224300041C40
:1019C0000E1C5B089205934205DA01F0F5FB03005B
:1019D000201C002B32D0211C201C01F003F9051C17
:1019E000011C201C01F0FEF827498046281C01F04C
:1019F000F9F8264901F01CFA291C01F0F3F82449F2
:101A000000F08AFD291C01F0EDF8224901F010FADE
:101A1000291C01F0E7F8204900F07EFD8146002FE7
:101A200010D1011C281C01F0DDF81C4901F000FA5E
:101A3000414601F0D7F8211C00F06EFDC0BCB9464C
:101A4000B046F8BDFC21301C890501F0CBF84946B1
:101A5000071C404601F0C6F8011C381C01F0E8F9EB
:101A6000291C01F0BFF8311C01F0E2F90B49051CFB
:101A7000404601F0B7F8011C281C00F04DFD011C88
:101A8000201C01F0D5F9D9E7D3C92E2F342FD73236
:101A90001BEF3836010D50398988083CABAA2A3E25
:101AA000F0B5A123C6464500060000B5041C6D082C
:101AB000DB059D420BDBFF23DB059D4200DD7BE068
:101AC000002800DC8BE0754880BCB846F0BD744B44
:101AD0009D4200DD85E0C4239B059D4270DB012310
:101AE0005B429846211C201C01F07CF8011C071C5D
:101AF00001F078F86B49051C01F074F86A4900F0B0
:101B00000BFD291C01F06EF8684900F005FD291C49
:101B100001F068F8664900F0FFFC291C01F062F84A
:101B2000644900F0F9FC291C01F05CF8624900F0FE
:101B3000F3FC391C01F056F86049071C281C01F021
:101B400051F85F4901F074F9291C01F04BF85D4927
:101B500001F06EF9291C01F045F85B4901F068F9C4
:101B6000291C01F03FF8594901F062F9291C01F0E4
:101B700039F84346011C013351D043469B00984637
:101B8000381C00F0C9FC211C01F02CF84346504DD4
:101B9000EB18196901F04CF9211C01F049F9434691
:101BA000011C585901F044F9002E00DB8CE780231A
:101BB0001B069C46604487E7011C00F0ADFC83E7F0
:101BC000444900F0A9FCFE21890500F035FB030023
:101BD000201C002B00D077E7013B984682E73E4867
:101BE00072E700F083F83D4B041C9D4222DC3C4B25
:101BF0009D4240DC011C00F08FFCFE21890501F0B4
:101C000017F98021051CC905201C00F085FC011C6A
:101C1000281C00F01FFE0023041C984662E7381CB5
:101C200000F07AFC211C00F0DDFF011C201C01F0FB
:101C3000FFF849E72B4B9D4215DCFF21890501F098
:101C4000F7F8FF21051C8905201C00F0CBFFFE21C1
:101C5000890500F061FC011C281C00F0FBFD02233B
:101C6000041C98463EE7011C1F4800F0F3FD0323C7
:101C7000041C984636E7FE21890501F0D9F8FE21BB
:101C8000051C8905201C00F047FC011C281C00F0E5
:101C9000E1FD0123041C984624E7C046DB0FC93F41
:101CA000FFFFDF3ED769853C59DA4B3D356B883DF8
:101CB0006E2EBA3D2549123EABAAAA3E21A215BD01
:101CC0006BF16E3D95879D3D388EE33DCDCC4C3E0E
:101CD0009C920108CAF24971DB0FC9BFFFFF973F11
:101CE000FFFF2F3FFFFF1B40000080BF4000400868
:101CF0007047C046FF2243005B080120D205934293
:101D000000DB00207047C046F0B5C64644006308BB
:101D1000240E7F3C0700984600B5051C162C2EDCCF
:101D2000002C1ADB1B4B061C23419846034210D0A3
:101D3000194900F0F1FB002100F07EFA002808D0DC
:101D4000002D03DA80273F0427417F1943469F4334
:101D50003E00301C80BCB846F0BD0F4900F0DCFBF3
:101D6000002100F069FA2E1C0028F2D00026002D78
:101D7000EFDA43462E1C002BEBD0084EE9E7FF2399
:101D8000061CDB059845E4D3011C00F0C5FB061CCE
:101D9000DFE7C046FFFF7F00CAF24971000080BF45
:101DA000004870470000C07F30B543005A081B0E42
:101DB0007F3B010083B0162B1EDC002A1AD0C40F13
:101DC000002B20DB1D4A1A41024213D05208024266
:101DD00004D080208003184191430843184BA4008D
:101DE000E458011C201C00F097FB01900198211C75
:101DF00001F01EF803B030BDFF23DB059A42F9D392
:101E000000F08AFBF6E70E4B4202520AA000C558CA
:101E10005342134380225B0AD203090D1340090584
:101E20001943281C00F078FB01900198291C00F050
:101E3000FFFF40004008E4072043DBE7FFFF7F008F
:101E4000BC920108420070B5031C0C00560801004A
:101E5000002A1BD0FF25ED05AE4218D2284219D129
:101E60009821C90500F0BEFE1E4A031C94422ADBDD
:101E70004200120E193A12190100FE2A0EDD1A480C
:101E8000002B00DA1948184900F0ACFE70BD00F0D4
:101E900043FBFBE7120E1219FE2AF0DC002A0DDCD0
:101EA0001000163013DA124A9442E8DC1148002B75
:101EB00000DA11480F4900F095FEE7E70F480140AE
:101EC000D0050843E2E70B4900F08CFEDEE719324B
:101ED000D0050A4A11400843CC21890500F082FE52
:101EE000D4E7C046B03CFFFFCAF24971CAF249F1DB
:101EF00050C300006042A20D6042A28DFFFF7F80B0
:101F0000002243088B4274D303098B425FD3030A38
:101F10008B4244D3030B8B4228D3030C8B420DD34B
:101F2000FF22090212BA030C8B4202D312120902D9
:101F300065D0030B8B4219D300E0090AC30B8B4217
:101F400001D3CB03C01A5241830B8B4201D38B03C5
:101F5000C01A5241430B8B4201D34B03C01A52416A
:101F6000030B8B4201D30B03C01A5241C30A8B42AD
:101F700001D3CB02C01A5241830A8B4201D38B0298
:101F8000C01A5241430A8B4201D34B02C01A52413C
:101F9000030A8B4201D30B02C01A5241CDD2C309AE
:101FA0008B4201D3CB01C01A524183098B4201D32A
:101FB0008B01C01A524143098B4201D34B01C01A15
:101FC000524103098B4201D30B01C01A5241C3088D
:101FD0008B4201D3CB00C01A524183088B4201D3FC
:101FE0008B00C01A524143088B4201D34B00C01AE8
:101FF0005241411A00D20146524110467047FFE754
:1020000001B5002000F0F0F802BDC0460029F7D06D
:1020100076E7704703460B437FD4002243088B4288
:1020200074D303098B425FD3030A8B4244D3030B5F
:102030008B4228D3030C8B420DD3FF22090212BA24
:10204000030C8B4202D31212090265D0030B8B42A0
:1020500019D300E0090AC30B8B4201D3CB03C01A8A
:102060005241830B8B4201D38B03C01A5241430B65
:102070008B4201D34B03C01A5241030B8B4201D355
:102080000B03C01A5241C30A8B4201D3CB02C01AC0
:102090005241830A8B4201D38B02C01A5241430A38
:1020A0008B4201D34B02C01A5241030A8B4201D327
:1020B0000B02C01A5241CDD2C3098B4201D3CB01CE
:1020C000C01A524183098B4201D38B01C01A52417D
:1020D00043098B4201D34B01C01A524103098B4281
:1020E00001D30B01C01A5241C3088B4201D3CB006C
:1020F000C01A524183088B4201D38B00C01A52414F
:1021000043088B4201D34B00C01A5241411A00D2FE
:1021100001465241104670475DE0CA0F00D0494267
:10212000031000D34042534000229C4603098B42D7
:102130002DD3030A8B4212D3FC22890112BA030A5F
:102140008B420CD3890192118B4208D389019211E1
:102150008B4204D389013AD0921100E08909C30966
:102160008B4201D3CB01C01A524183098B4201D368
:102170008B01C01A524143098B4201D34B01C01A53
:10218000524103098B4201D30B01C01A5241C308CB
:102190008B4201D3CB00C01A524183088B4201D33A
:1021A0008B00C01A5241D9D243088B4201D34B0055
:1021B000C01A5241411A00D20146634652415B1097
:1021C000104601D34042002B00D549427047634678
:1021D0005B1000D3404201B5002000F005F802BDBD
:1021E0000029F8D016E770477047C04684460800BB
:1021F0006146FFE71FB500F0B1FC002801D40021C3
:10220000C8421FBD10B500F03DFC4042013010BD7A
:1022100010B500F0A3FC002801DB002010BD012058
:1022200010BDC04610B500F099FC002801DD00206B
:1022300010BD012010BDC04610B500F049FC0028BB
:1022400001DC002010BD012010BDC04610B500F01B
:102250003FFC002801DA002010BD012010BDC0465F
:10226000002B15D1002A13D1002906DB01DC002840
:1022700006D00020C043410802E08021090600206A
:1022800007B4024801A14018029003BD5DFFFFFFA3
:1022900003B4684601B5029800F020F9019B9E4600
:1022A00002B00CBC7047C046002B11D1002A0FD1E0
:1022B000002900D1002802D00021C943080007B43A
:1022C000024802A14018029003BDC0461DFFFFFF57
:1022D00003B4684601B5029800F034F8019B9E46AD
:1022E00002B00CBC7047C046F0B5CE46474680B53C
:1022F000070099463B0C9C4613041B0C1D000E0066
:1023000061460004140C000C45434B436043614399
:10231000C0182C0C20188C46834203D980235B0202
:102320009846C444494679437243030C63442D04E0
:102330002D0CC918000440198918C0BCB946B04614
:10234000F0BDC046F0B557464E464546DE46E0B5C0
:1023500004000D009246994683B08B4230D82DD0B0
:102360004946504602F01EFE29000600200002F0F9
:1023700019FE331A9846203B9B4633D45A4653469F
:10238000934042461F00534693401E00AF423AD846
:10239000AF4200D178E05B46A41BBD41002B00DAC0
:1023A00075E0002200230092019301235A469340D6
:1023B0000193012342469340009328E08242CFD903
:1023C00000220023009201930C9B002B01D01C6083
:1023D0005D600098019903B0F0BCBB46B246A946C7
:1023E000A046F0BD424620239B1A5246DA404146A1
:1023F00013004A468A40170042461F435346934003
:102400001E00AF42C4D9002200230092019343462C
:10241000002BD9D0FB0772081A4346467B080EE012
:10242000AB4201D1A2420CD8A41A9D41012024192B
:102430006D410021013E24184D41002E06D0AB42D3
:10244000EED9013E24196D41002EF8D10098019972
:102450005B4600196941002B24DB2B005A46444699
:10246000D3402A00E2401C005B461500002B2ADB0B
:1024700026009E40330026004746BE403200801AA8
:102480009941009001919FE7A342BCD883E742465F
:10249000202300219B1A0022009101920122DA40A0
:1024A000019286E7424620239B1A2A0046469A401C
:1024B0002300F340444613432A00E2401C005B46DD
:1024C0001500002BD4DA42462F0020232600974027
:1024D0009B1ADE403B003343CDE7C046F8B5CE46FD
:1024E000474680B59146984604000D0002F066FD0F
:1024F00007000E0002000B0048464146FFF7F4FEBD
:10250000241A8D41089B380031001C605D60C0BCFE
:10251000B946B046F8BDC046F0B5C64643025B0AB0
:102520004E0245004F00DA00C40F9C46700A9046E8
:1025300000B52D0E3F0EC90FB6098C424BD0EA1BD9
:10254000002A36DD002F61D0FF2D00D1ADE08023C1
:10255000DB041E431B2A00DCD3E001204346181A8B
:10256000430100D48CE080018709380002F0FCFCB4
:1025700005388740854200DCB6E02D1AB348384064
:10258000430704D00F230340042B00D00430430141
:1025900000D478E06A1CFE2D65D08001430A9C4679
:1025A000D2B26346D0051843E407204380BCB84646
:1025B000F0BD002A35D07A1B002D00D0AFE0434695
:1025C000002B00D1A7E0531E012A00D12FE1FF2AE2
:1025D00069D01A00AAE0E91B002970DD002F37D06E
:1025E000FF2D62D08023DB041E431B2900DCB0E0FA
:1025F00001204044430143D50135FF2D33D0012351
:10260000934A0340400810401843B9E7002E00D118
:1026100083E0511E012A00D1D8E0FF2A45D00A00EC
:1026200098E7FE276A1C174200D086E0002D00D0F4
:10263000B7E04346002B00D1F3E00022002EB0D0DB
:10264000981B430100D4FAE043460C00F01A97E7C8
:10265000002E00D1C8E04A1E012900D1AEE0FF29BA
:1026600023D01100C1E70023FF229C4699E7FE21F9
:102670006A1C114277D0FF2AF5D015004644700835
:10268000430700D07EE7C308FF2D0ED05B025B0A34
:102690009C46EAB285E7002E07D08022D20313427F
:1026A00003D0104201D10C000300002BDBD08020AE
:1026B000C00318434002430A9C46FF2271E70029E9
:1026C000D5D07A1B002D60D14346002B24D0531E59
:1026D000012A73D0FF2AE7D01A001B2A00DC85E00C
:1026E00001203D00801985E720233A00451B380072
:1026F0000135EA405D1BA840431E98410025104368
:102700003EE7202330009B1A31009840D140431E01
:102710009841084322E70C0003001500B4E7FF2F9F
:10272000C1D080234046DB04184380461B2A51DD7C
:1027300001200C003D00301A12E743469F1B7B012D
:102740002BD4002F00D010E70023002400229C4649
:1027500027E7202332003000CA40591A8840431E20
:102760009841104345E7002D4AD14346002B63D0E2
:102770000022002E00D114E730004044430100D471
:102780007EE7324B013518407AE7FF2F8CD080234B
:102790004146DB04194388469FE743460C00F71A7D
:1027A000E3E64246002A00D075E7002E00D07AE723
:1027B0008023DB0300249C46FF22F2E630004044E5
:1027C0000125430100D45BE7022518E743460125B4
:1027D000981BC5E6202344464046D4409A1A9040B0
:1027E000431E98412043A4E70D004DE720234146B6
:1027F0004046D1409A1A9040431E9841084370E7E2
:102800004246002A00D14FE7002E00D14DE780223A
:10281000D203134200D148E7104200D045E703003D
:1028200043E7002E90D00C0084460022B9E64346D0
:102830000C00F01A013593E684460022B1E6002828
:1028400000D01DE7002300249C46AAE6FFFFFFFB03
:10285000FFFFFF7DF0B54F464646D6464502C0B560
:1028600047000C1C6D0A3F0EC60F002F00D170E010
:10287000FF2F00D175E0EB008025ED041D43002300
:1028800099469A467F3F6002430A984663001B0EB2
:10289000E40F002B4ED0FF2B46D04246D0008022C2
:1028A000D2040243904600227F3B3100FF1A4B4680
:1028B0006140C9B213430F2B00D9B5E06E489B00AD
:1028C000C3589F46002398462600454692465346E5
:1028D000022B00D189E0032B00D19EE0012B18D000
:1028E0003B007F33002B69DD6A0704D00F222A40AA
:1028F000042A00D004352A0103D5604B1D403B005B
:102900008033FE2B00DD70E0AD016D0AD8B202E02D
:102910000E0000200025C0052843F6073043E0BC28
:10292000BA46B146A846F0BD4346002B3FD102222D
:10293000FF3F03E04346002B2DD1012231004B46DF
:102940006140C9B213430F2B34D84D489B00C35884
:102950009F46002D13D104239946033B00279A4636
:1029600091E7002D05D108239946063BFF279A469B
:1029700089E70C239946093BFF279A4683E72800FD
:1029800002F0F2FA7627431F9D4000237F429946CA
:102990009A463F1A77E7404602F0E6FA4246431F5E
:1029A0009A4076235B4290461B1A00227DE7FF2364
:1029B00003227AE70E00FF200025ACE70120C01AB1
:1029C0001B28A6DC9E372A00BD40C2406B1E9D41DD
:1029D00015436B0704D00F232B40042B00D0043584
:1029E0006B0144D50120002595E7FF20002592E7E3
:1029F00080250026FF20ED038DE7002398468020E8
:102A0000C003054209D04346034206D1454605436B
:102A10006D022600FF206D0A7DE78020C00305437C
:102A20006D02FF206D0A76E742466B01500183423A
:102A300019D21B220025013F01261C006D005B00FE
:102A4000002C01DB984201D81B1A3543013A002AB9
:102A5000F3D15A1E93411D433B007F330E00002BE0
:102A600000DD41E7AAE71A2201251B1AE4E7AD01C0
:102A700000206D0A4FE7C046D0920108FFFFFFF724
:102A80001093010870B5420045024E024C00C30F7E
:102A90006D0A0120120E760A240EC90FFF2A06D0F5
:102AA000FF2C03D0A24201D1B54206D070BD002D4B
:102AB000FCD1FF2CFAD1002EF8D18B4206D0012098
:102AC000002AF3D12800431E9841EFE70020EDE7EC
:102AD00070B5420045024E024C00C30F6D0A120E43
:102AE000760A240EC80FFF2A1BD0FF2C0ED0002A16
:102AF0001BD1002C01D1002E1CD0002D0CD0834204
:102B00001CD00221581E0840013870BD002E22D171
:102B1000002AF4D1002DF2D10028F6D10120404244
:102B2000F3E7002D17D1FF2CF0D0002CE7D1002EB9
:102B3000E5D1E6E70020002DE7D0E2E7A24205DC80
:102B4000EADBB54202D8E7D30020DEE74342584132
:102B500040000138D9E702204042D6E770B5420074
:102B600045024E024C00C30F6D0A120E760A240E67
:102B7000C80FFF2A0BD0FF2C0DD0002A1FD1002C2C
:102B800016D1002E14D10020002D10D009E0002D08
:102B90000CD1FF2C13D1002E08D1002A08D083427B
:102BA00012D00221581E0840013800E0022070BDFA
:102BB000002DF4D10028FAD101204042F7E7002C83
:102BC000EDD1002EEBD1ECE7A24205DCF2DBB54201
:102BD00002D8EFD30020EAE74342584140000138D1
:102BE000E5E7C046F0B54F464646D64644024500A6
:102BF000C0B5640A0F1C2D0EC60F002D00D18DE04C
:102C0000FF2D00D192E00023802099469A46E400EF
:102C1000C00404437F3D7802430A98467B001B0EA4
:102C2000FF0F002B00D170E0FF2B00D186E0424661
:102C3000D00080227F3BED180023D204024390464F
:102C40009C4631004B467940681C0F2B1CD8764AB5
:102C50009B00D3589F4639004446E2465346022B18
:102C60000FD0032B00D1D7E0012B37D10020002457
:102C7000C0052043C9070843E0BCBA46B146A84690
:102C8000F0BDFF200024F3E7260C2404220C444668
:102C90002404240C434627001B0C574374435A4317
:102CA0005E4312193B0C9B189C4203D980225202AE
:102CB000944666443F041A043F0CD2199401671EDF
:102CC000BC411B0C920E9B1914439B011C431B011E
:102CD00000D49BE0012362081C40144302007F32B1
:102CE000002A64DD630704D00F232340042B00D0A7
:102CF0000434230103D502004C4B80321C40FE2AD1
:102D0000BFDCA401640AD0B2B2E74346002B3DD138
:102D10004A4601331A4391469C4692E7002C29D13A
:102D200004239946033B00259A4674E7002C1BD1E7
:102D300008239946063BFF259A466CE74346FF3534
:102D4000002B0BD102234A461A4391469C4678E752
:102D500053463100022B00D083E792E703234A4613
:102D60001A4391469C466CE70C239946093BFF2584
:102D70009A4650E7200002F0F7F87625431F9C4062
:102D800000236D4299469A462D1A44E7404602F0C8
:102D9000EBF84246431F9A4000232D1A90469C466A
:102DA000763D4EE780240021FF20E40360E7012305
:102DB0009B1A1B2B00DD59E722009E30DA4084402D
:102DC0001300621E94411C43630704D00F23234069
:102DD000042B00D0043463011AD50120002447E7F6
:102DE0008020C003044209D04346034206D1444632
:102DF000044364023900FF20640A39E78020C003DD
:102E0000044364023100FF20640A31E7280065E7CB
:102E1000A4010020640A2BE78020C003044364025D
:102E2000FF20640A24E7C04650930108FFFFFFF724
:102E3000F8B5CE46474643025B0A4E02DA00944696
:102E4000720A914645004A0080B52D0E1F00C40F3E
:102E5000120EC90FB609FF2A5BD0012041408C42F7
:102E600039D0A81A00285ADD002A6AD0FF2D00D1D7
:102E7000D9E08022D20416431B2800DCE9E00120BF
:102E80006346181A430100D4B4E080018709380072
:102E900002F06AF805388740854200DCCCE02D1A44
:102EA000B5483840430704D00F230340042B00D01B
:102EB0000430430100D4A0E06A1CFE2D00D18DE057
:102EC0008001470AD2B2D0053843E4072043C0BC92
:102ED000B946B046F8BDA81A8046002845DD002A4C
:102EE00070D0FF2D00D19EE08023DB041E434346BB
:102EF0001B2B00DCD2E00120604443017AD5013570
:102F0000FF2D6BD001239D4A034040081040184319
:102F1000C8E7002E20D08C4223D02800FF3800289C
:102F200039D0571B002D00D09DE06346002B00D107
:102F3000DBE07B1E012F00D10DE1FF2F71D01F00C0
:102F400098E0002E00D1A7E0421E012800D1E6E063
:102F5000FF2868D010008FE701204140A14200D037
:102F60007FE7FF2040428046A8444046002838D0F2
:102F7000511B002D00D1AEE0FF2A00D1DFE08023FD
:102F80006046DB04184384461B2900DCD9E001209D
:102F900015008019B1E7FE206A1C104271D1002D86
:102FA00000D0A6E06346002B00D1D9E00022002E1D
:102FB00000D188E7981B430100D4E1E063460C0090
:102FC000F01A6FE7002E00D1B7E00200013A0128A5
:102FD00000D19CE0FF2826D0904688E7FF220027FA
:102FE00071E7FE206A1C104264D0FF2AF6D015005B
:102FF00066447008430700D056E7C308FF2D12D07F
:103000005B025F0AEAB25EE76246002A00D196E000
:10301000002E08D08022D203134204D0484610422A
:1030200001D10C004B46002BD8D08027FF031F4353
:103030007F02FF227F0A46E720233A00451B380023
:103040000135EA405D1BA840431E9841002510430E
:1030500028E720231B1A32009E40C2403000431E46
:10306000984110430CE7FF2ADBD080236046DB0445
:10307000184384461B2F56DD01200C001500301A22
:1030800000E763469F1B7B013DD4002F00D0FEE686
:1030900000240022002716E70500AFE73200434670
:1030A0004146DA4020235B1A9E403000431E98417F
:1030B000104321E7002DA7D16346002B59D00022F1
:1030C000002E00D1FFE630006044430192D52A4B28
:1030D000013518408EE76346002B47D04B1E01296F
:1030E00015D0FF292BD019004EE70C004B463D00B0
:1030F00084E76246002A8BD1002E92D180270024DB
:10310000FF22FF03DFE663460C00F71ABFE630003C
:1031100060440125430100D46CE70225F2E66346D2
:103120000125981BAEE6202364466046FC40DF1B69
:10313000B840431E984120439FE705005EE74B4699
:1031400071E7202365466046CD40591A8840431EEA
:10315000984128431CE763460C000125F01A91E6CC
:10316000002E95D00C004F460022ACE64B460D00D9
:1031700044E74F460022A6E6FFFFFFFBFFFFFF7D6F
:10318000002800D036E7002400279CE643024A02CC
:10319000400049005B0A520A090E000EFF2806D0C3
:1031A0000020FF2902D1531E9A4110007047FE38BB
:1031B000002BFBD1F4E7C04641024200C30F490A8D
:1031C0000020120E7E2A03DD9D2A02DD094A98188E
:1031D0007047802000040143952A07DC9620821A5C
:1031E000D1404842002BF3D10800F1E7963A9140D4
:1031F000F7E7C046FFFFFF7FF8B5002813D0C317DD
:10320000C6185E40C40F300001F0AEFE9E230500DC
:103210001B1A962B0FDC082801DD083DAE40760214
:10322000760AD8B202E0002400200026C005304310
:10323000E4072043F8BD992B0CDD05223100121A5A
:10324000D1400A00010030001B318840411E8841F6
:1032500002431600052D12DC31000D4F3940720774
:1032600009D00F203040042805D004314A0102D58E
:103270009F2339405B1B89014E0AD8B2D6E76A1FEB
:1032800096403100024F39407207F4D0E9E7C0465A
:10329000FFFFFFFB70B5051E0ED001F065FE9E23FB
:1032A00004001B1A962B0CDC082801DD083CA54005
:1032B0006D026D0AD8B201E000200025C005284348
:1032C00070BD992B09DD020029001B3291404A1E76
:1032D00091410522121AD5400D43052C12DC29001C
:1032E0000C4E31406A0709D00F202840042805D031
:1032F00004314A0102D59F2331401B1B89014D0A2D
:10330000D8B2DBE7621F95402900024E31406A07C0
:10331000F4D0E9E7FFFFFFFBF0B54F464646D6463F
:103320000D000400C0B51F0011002803620F400A01
:1033300010437A00520DE3003C039146640AFA0FF1
:103340004F0F6E0027439246B846760DED0FC90029
:10335000954200D199E04C46341BA446002C00DC79
:103360007CE04A46002A00D1B8E0C54A964200D126
:103370001CE180223C0012041443A0466246382A15
:1033800000DD61E11F2A00DDCCE164462022121B32
:10339000444694400F00A14664469140E7404C46A5
:1033A0004A1E91413C43424621436446E240801A12
:1033B0005C1AA3429B415F42C71B3B0200D4D0E092
:1033C0007F027F0A002F00D1FFE0380001F0CCFD22
:1033D00001000839202322005B1A8F40DA408C401C
:1033E0001743B14200DAFFE0891B4B1C1F2B00DDA5
:1033F000A8E020223900D21A200094409140D84001
:10340000621E9441DF40002601430C43630709D04C
:103410000F232340042B05D0231DA342A441644263
:103420003F191C003B0200D49EE0954B01369E42A2
:1034300000D1B7E0934AE40817407B0771057F028B
:1034400023433F0B4A0D12053A43ED072A43180068
:103450001100E0BCBA46B146A846F0BD002C4BD0E6
:103460004C46A41BA446002E00D023E104001C43BC
:1034700000D1AFE16246541E012A00D115E2804D11
:10348000AC4500D1C8E1A4461BE14A46B21A9446B5
:10349000002A00DCACE04A46002A43D0784A964233
:1034A00000D1AFE180223C0012041443A0466246E2
:1034B000382A67DC1F2A00DC5FE14746203AD74004
:1034C0006246202A05D064464022121B444694409E
:1034D00021434A1E91410C003C4357E03A000A4305
:1034E00000D105E12200013A012C00D182E1644CB7
:1034F000A4455BD0944641E7634C771C274200D03B
:10350000C4E004001C43002E00D069E1002C00D16F
:10351000BFE144460C4300D0D0E14207DB0813432F
:10352000C00829E03A000A4300D170E162466446CF
:10353000013A012C00D1E0E0514CA44500D161E1F9
:103540009446B4E73A001F39CA401100202B03D03B
:103550004022D31A9F403C43631E9C410027002613
:103560000C43630700D053E7B446E4087B072343CA
:10357000F808434A94451DD06246070352053F0BA5
:10358000520D60E744460C43621E9441E4189C428D
:103590009B415F423F183B02E3D5394B01369E42C7
:1035A00000D0B5E03200002700234CE74207DB08DB
:1035B0001343C0081A00024300D1E1E180273F0312
:1035C00007433F032E4A3F0B3DE7200001F0CCFCB0
:1035D000010018311F2900DCFCE608388440270070
:1035E0000024B14200DBFFE6264A761A17400DE7B9
:1035F000002A2FD04A46921B9446002E00D1ADE0FF
:103600001F4A914500D10FE1802212041043624607
:10361000382A00DD0FE11F2A00DD80E16446202208
:103620001E00121B6746040093409440FE405A1E41
:103630009341F84034431C43804464188C42BF419A
:103640007F424E464744A6E742460A4311004A1EBF
:103650009141ADE60C4C721C224200D0A1E0020068
:103660001A43002E00D0FAE0002A00D145E13A00CA
:103670000A4300D046E14207DB081343C0087BE75A
:10368000FF070000FFFF7FFFFE07000047465C1AB0
:10369000C21BA342BF417F42B94617004A46BF1A28
:1036A0003A0200D58DE023003B4300D08AE600209B
:1036B000002561E7B44CA14500D1ADE0802424048D
:1036C00020436446382C3DDC62461F2C00DDB7E009
:1036D00020251E002D1B0400AB40AC40D640D0403E
:1036E00042465D1EAB413443121A904623432CE000
:1036F0004207DB081343C0083BE75C189C429B4130
:1037000040445B42C71801263B0200D429E7022649
:103710009E4A63081740012214401C43FB071C43C8
:103720007F0873E64446203AD4406246202A05D0FA
:1037300067464022D21B4746974039434A1E914173
:10374000214335E60343581E8341CC1AA142BF41B1
:1037500043467F4255464E46DF1B2EE602001A4383
:1037600000D1BDE062466446013A012C00D1E5E09B
:10377000854CA44558D0944649E764462022121B44
:10378000444694400F00A14664469140E7404C46B1
:103790004A1E91413C4342460C436146CA40801850
:1037A000F4E6794CA24200D1FDE6591899429B41BA
:1037B00040445F42C719FC07490816000C437F08C4
:1037C000CFE6CC1AA142BF4143467F42181A554664
:1037D000C71BF7E5C9087B0755460B43F808C8E641
:1037E000002C00D081E043460B4315D180200025FA
:1037F0000003E3E65C1AA3429B41C71B5B42012620
:10380000FF1ADAE54207DB081343C008D2E6420795
:10381000DB081343C008ACE643464246C9085B07D1
:1038200055460B43D008C5E6434642465B07C908E8
:103830000B43D008BEE603431C00631E9C41FCE61C
:103840000200203CE24014006246202A03D04025BA
:10385000AD1AA8400343581E8341234375E7002A4D
:10386000E2D03A000A43CDD04207DB08134380225E
:10387000C0081203104206D0FC08144203D12000F5
:10388000CB087A0713435A0FDB005207DB081343B8
:1038900090E643460B4300D109E743464246C90838
:1038A0005B0755460B43D00866E6CC1AA142894116
:1038B0003F1A4942554601267F1A7EE542465C1A68
:1038C000871AA34292415242BF1A3A023DD5CC1AFE
:1038D000A1428941434649421F1A55467F1A95E540
:1038E0007B07C9080B43F80843E64446DB080C4352
:1038F00030D142071343C0085CE67B07C9080B437D
:10390000F80839E65C189C429B4140445B42C7186A
:103910003B0200D425E61D4B01261F4021E6040092
:10392000203AD4406246202A04D040226646921BA8
:10393000904003435A1E93411C437EE65C188C4220
:103940008941404449424718DDE623003B4300D10A
:10395000ADE606E6440723438024C0082403204242
:1039600008D04246D608264204D155463000CB083E
:1039700051070B435A0FDB00DB085207134319E6CC
:103980000023014A1F005EE5FF070000FFFF7FFFE5
:10399000F0B557464E464546DE46E0B598460C0320
:1039A0004B000600924687B0240B5B0DCF0F002B17
:1039B00000D15CE1D94A934200D175E1420FE400A5
:1039C0001443802212041443D54AC500944663442C
:1039D0000093002399469B46434642461E03D20F5E
:1039E0005B0050469046360B5B0D00D120E1CB4A80
:1039F000934200D162E1CA49420F8C460099634468
:103A0000F6008C46164380229C44120463461643FB
:103A1000C200002000930099434601318C4649467C
:103A20007B4001930F2926D8BE4B890059588F46F9
:103A3000434601933400150083465B46022B16D0A3
:103A4000032B00D103E2012B00D0CDE000220024A3
:103A50000025019B12052243DB071A4328001100B1
:103A600007B0F0BCBB46B246A946A046F0BD002454
:103A70000025AA4AEDE7280C2D042D0C2B00110C73
:103A80001204120C5343984613002F0043439946E7
:103A90004F434F44BB4647460B003F0CBA46434397
:103AA000DA440293D14504D980277F02B9464B44BA
:103AB000029353461B0C9B4653461F0443461B046C
:103AC0001B0C98463B0043440493330C3604360CDD
:103AD0009846330043439946434643432F009A4652
:103AE000434677435D43380C4D444519A94503D9F6
:103AF00080235B029946CA443F04280C3F0C2D04E6
:103B0000ED19270C2404240C0300200050437A43B1
:103B100091463A0053440593030C9A464A43614345
:103B200049445144AB44894503D980235B029946FB
:103B30004A4400040B0C000C0904091820009946A3
:103B4000434670435C437E435F43030C9846A4198D
:103B500044444A440397A64204D980235B02984612
:103B6000474403972304029E9A46059B5E44984669
:103B7000AE42AD4176188E4289410004000C50449B
:103B800040446D424719B846934649428946C3446A
:103B9000D94498428041A845AD4193459241894519
:103BA00089416D4240422843240C524249420A4313
:103BB000039B00198018C7184B46DC0D049B750247
:103BC0001D436A1E95414B46F60D7F0235435A024E
:103BD0003C431543FB0100D41CE101216A080D4060
:103BE0001543E207154364084F496144002900DC8E
:103BF000B0E06B0709D00F222A40042A05D02A1D05
:103C0000AA42AD416D4264191500E30104D580213B
:103C1000464AC90014406144454A914200DD26E706
:103C20006207ED08640249051543240B4A0D10E7AD
:103C30005246324300D17FE0002E00D1DCE030005C
:103C400001F092F902000B3A1D2301009B1A524623
:103C50000839DA408E40164352468A40009B354967
:103C6000181A03008C46634400200093D3E6250015
:103C700005434AD0002C00D1B0E0200001F074F9D7
:103C8000010002000B391D2310005B1A31003500C2
:103C900008388440D94085400C432648831A009355
:103CA000002399469B4697E60500254326D1082226
:103CB00000930223002491469B468DE65246009BCA
:103CC000324310D1154900268C466344494600937F
:103CD00002231943894602209DE65B460197022B89
:103CE00000D0ADE6C3E60D4A0320944663444A463D
:103CF000009303231A43914652468CE60C2200930C
:103D00000323050091469B4666E60423994600235B
:103D10000093013300249B465EE6C046FF07000087
:103D200001FCFFFF90930108FF030000FFFFFFFE6F
:103D3000FE0700000DFCFFFF494601231943894699
:103D40000026012067E6002380240025434A0193D2
:103D500024037EE60120401A382800DD76E61F287D
:103D60005BDD1F2223005242511ACB40190020284C
:103D700003D03B4A6244944025436A1E95412A0081
:103D80000A4307210D000024154011425BD00F218A
:103D900000241140042953D0111D914292415242F6
:103DA000A4180A0023024BD501220024002550E666
:103DB00080231B031C4209D01E4207D133431C033E
:103DC00043461500240B254A019342E68022120344
:103DD00014432403214A240B01973AE601F0C4F866
:103DE00001000200153120321C2900DC4BE73400B1
:103DF00008380025844050E701F0B6F803001A00A7
:103E0000153220301C2A00DC1EE75646083B0022F3
:103E10009E4023E7009B9C46E6E61249220061444F
:103E20002E008D408A40C640691E8D4132432A4390
:103E3000C4405307B6D00F2111400429ACD1B1E7DB
:103E400065076402240BD2081543002201E6802294
:103E5000120314432403014A240BFAE5FF07000070
:103E60003E0400001E04000070B5002816D0C317E1
:103E7000C5185D40C40F280001F076F8114A121AE7
:103E80000A2816DC03002E0015339E400B23181A57
:103E9000C54052052D032D0B530D03E000240023D4
:103EA000002500261B052B43E4072343300019009F
:103EB00070BD0B38854052052D0300262D0B530D88
:103EC000F0E7C0461E04000070B543004602C40F70
:103ED000FE201B0E591C750A08420CD0E0229200ED
:103EE00094466D07360B63441B053343E4072343B5
:103EF0002800190070BD002B14D1002D1BD0280004
:103F000001F032F80A281CDC0B232E001B1ADE40BD
:103F1000030015339D400E4A3603121A5205360B24
:103F2000530DE1E7002D09D08022360B1203094B17
:103F30006D071643D8E700230026D5E70026054B7A
:103F4000D2E703000B3B9D402E000025E3E7C0466F
:103F500089030000FF07000002004B00F0B55B0D75
:103F60000C033D4E640A400F5F1CC90F0443D5008B
:103F700037420AD039481E18FE2E16DDFF200024D5
:103F8000C0052043C9070843F0BD002B06D12C43D0
:103F900026D005229201540AD8B2F1E72543EDD08C
:103FA0008020C0030443FF20EAE7002E1BDD9201BE
:103FB000531E9A41E4006D0F22432A43530748D011
:103FC0000F231340042B00D004328023DB04134062
:103FD0003FD0701CFE2ED1D09201540AC0B2CFE760
:103FE00000200024CCE73200173222DB80200004BE
:103FF00020431E24A41B1F2C1DDD02225242961BAF
:104000000200F2401600202C04D0154A9446634466
:10401000984005432A00531E9A4132430026530715
:10402000CED180241300E404012023402242D3D1C6
:10403000B0E70023ADE70B4A94462A00E2401400A3
:104040002A0063449A409840551EAA4102432243E5
:10405000E4E733009EE7C046FE07000080FCFFFF58
:10406000A2FCFFFF82FCFFFF03685A0004D58022F8
:1040700012061343C01870475B005B08FAE7C0469E
:10408000F8B557464546DE464E469046E0B5070031
:10409000002924D04B1E9A46994600239B465B4636
:1040A0004B44DC0FE4186410E5007E193000FFF784
:1040B000DBFFA2450CD040450CD82800083038184A
:1040C000FFF7D2FF013840450AD2631C9B46E6E762
:1040D000404505D9A34502D0631E9946DFE7002677
:1040E0003000F0BCBB46B246A946A046F8BDC0466B
:1040F0000300012805D0022807D00020002B02D0A1
:1041000070470348FCE70348FAE70348F8E7C0466E
:10411000194800080D4800082548000830B5234B11
:10412000050083B08C1E002B26D0200001A900E0E2
:1041300000BF00281CD001992200FFF7A1FF041E38
:1041400016D0FFF791FF6368A864012B2AD0201DC9
:10415000002B23DBFFF788FF0023E8642B6503684F
:10416000002B0FDBFFF780FF2861002003B030BD7C
:10417000002309202B61F9E70D480E49091AC910DF
:104180000191D9E71801000FFFF7B2FF2861431E24
:1041900098410823404298430930E7E70123E86447
:1041A0002B65DCE7002305202B61DFE70000000022
:1041B00010A20108E8A20108036810B50400DA079C
:1041C00005D49B070AD5483000F080FC23685A07C5
:1041D0000AD51A070FD5DB0615D510BD483000F0FB
:1041E00071FC23685A07F4D42000D03000F072FC30
:1041F00023681A07EFD420005130FF3000F06EFC26
:104200002368DB06E9D42000D130FF3000F06AFCDF
:10421000E3E7C0460920704703000068002800D08B
:10422000C01870477047C04670B504000D002000EC
:10423000296CFFF773FF002811D12B6C2A006361F2
:1042400021000120236998470828F0D0072806D1CB
:104250000020296CFFF7E6FF281D00F01DFC00F090
:1042600093FFC046F0B5CE46474680B5C368304C94
:104270009846A5448369040016000431402205A82D
:104280009946FBF791FF0023049325E0F022149B4D
:104290005200636104A97CA80393FBF785FF21000A
:1042A000280023697CAA98478A9B050003931593ED
:1042B0004B46019304AB0093220023003100012000
:1042C000C047002822D1F0227CA9520004A8FBF7A5
:1042D0006BFF0026082D22D1149B200019000393A8
:1042E000FFF71CFF09360700F5B20028CED0129B5D
:1042F0001021039315934B46019304AB00932200C6
:10430000230001202943C047002800D00927380096
:10431000F5239B009D44C0BCB946B046F0BD072DB7
:10432000F4D130001499FFF77DFF05A800F0B4FB2D
:104330002CFCFFFF406C704770B5CB6BFAB00B6480
:1043400005000E004022043103A8FBF72DFF0123D6
:104350005B42029306E029002B6902AA98470400F9
:1043600008280AD1129B280019000193FFF7D6FEF6
:104370000028F0D009207AB070BD02A8FFF71CFF1A
:10438000062CF7D131002800FFF74EFF10B58261EF
:10439000DA6BC1601A6419000022FFF763FF10BDD9
:1043A000436970B50B64C36804000D00002B13D182
:1043B0000A002369010002209847072805D0082831
:1043C0000FD129002000FFF72FFF0020296CFFF7F5
:1043D00029FF281D00F060FB0122FFF743FF00F0DA
:1043E000D3FE00F0D1FEC046C36810B5002B05D047
:1043F000CB6B00220B64FFF735FF10BDFFF79CFF6E
:10440000FBE7C0467047C0468368010010B5002B2B
:1044100001D00120984710BD012915D00AD8002BE2
:1044200010D10F2A0ED8920082185268009B0020EB
:104430001A6006E001200339C9B288428041404237
:10444000013070470220FCE70120FAE700B585B093
:1044500003AB0A00009300210023FFF7DDFF039860
:1044600005B000BD012915D00AD8002B10D10F2AA4
:104470000ED8009B92001B6882185360002006E053
:1044800001200339C9B2884280414042013070475F
:104490000220FCE70120FAE700B585B003AB0392E8
:1044A00000930A0000230021FFF7DCFF05B000BDE8
:1044B00070B51A4CD36BA544136405000C0019A801
:1044C000111D4022FBF770FE01235B42189314E09C
:1044D0000C2118A802AAFFF7DFFF210018A8A8479F
:1044E000002812D1069B18AA02A908300193984708
:1044F000060005280AD0092807D0289B02A8190021
:104500000193FFF70BFE0028E2D0092618A8FFF759
:1045100053FE300090239B009D4470BDC0FDFFFF03
:10452000F0B557469246032245464E46DE4699462A
:104530001300E0B58846CD6C494689B0034000932E
:1045400008CD0695002900D180E01A0C1B040593C4
:10455000022304A90B73FD3313409B004A73ED182B
:10456000009B022B01D143469D6B43461B6DDB072D
:104570000FD5504605A900F05BFB002801D10820AB
:1045800000E0092009B0F0BCBB46B246A946A046EF
:10459000F0BD2F68002FECD00823034002930023C6
:1045A0000193013354469B464646BA464B46022B7E
:1045B00049D02B886F889A4604355A463B0093436E
:1045C000B26C0F21904620009844FFF73FFF002374
:1045D000804506D853465A469343434498429B41EC
:1045E0005B4202227F001740594652460A40174359
:1045F000012F30D0022F4CD0002FC2D1009A002AB8
:1046000002D0002B00D09BE004352B689A46002B8B
:10461000CCD1200005A9A24600F00AFB0028B0D1A9
:10462000019B002BABD00F215046FFF70FFF0E214F
:1046300002005046FFF730FF50460F21724AFFF745
:104640002BFF07209EE76F680835B6E71B0205932E
:1046500004AB9A8184E7009A002A49D1002B16D036
:104660002B68DF0F6B689A1C00D18AE73200583242
:104670000492013300D1B6E0281DFFF7CDFD3A00CA
:10468000010004AB300000E000BF00286CD1083509
:10469000BBE72A68009957007F0800290DD1002B3D
:1046A00004D0029B002B72D0002F3CD0002A00DAED
:1046B00004350137BF00ED19A7E7336A0D2120004B
:1046C0009846FFF7C3FE804501D02A68EEE7B36A3B
:1046D0009D42FAD10023F362043333632B1DB7628A
:1046E00073632B68002B00DA87E001230193E0E776
:1046F0000D212000376AFFF7A9FE8742C7D1B36AB0
:104700009D42C4D1B046A2462800FFF7ADFC0F2160
:1047100002005046FFF7C0FE504642460021FFF718
:10472000BBFE07202EE7B046A2460D215046FFF7FC
:104730008DFE4346049A18625A6206209D6221E764
:104740002800FFF791FC0435A246B5630400300051
:1047500000E000BF002800D113E7504622000F21DF
:10476000FFF79AFE07200DE7A2460D2104005046F0
:10477000FFF76CFEB04633003062022C39D1049A48
:104780002C33F2627362434606209D62FAE62B1DCB
:104790009A460023984658339C4621004A46B44422
:1047A0005446A9468A463D0003924746E0460EE03D
:1047B000434620000493FFF72FFD0022010004ABC5
:1047C000300000E000BF01370434002804D1AF42BC
:1047D000EED14D46B046A8E72F004D46039B544608
:1047E00099462A6862E70D212000FFF72FFEB046A8
:1047F00030624346049A5A62C5E7781C8000B0468E
:10480000A246281881E7C0460000000010B500232A
:10481000FFF786FE10BDC04610B50123FFF780FEEE
:1048200010BDC04610B50223FFF77AFE10BDC0468A
:10483000F0B5CE46474680B5050014001E00C3B053
:10484000032944D020D8002949D0012941D1130C93
:1048500014049846230C9946012E00D17AE0052EC7
:1048600037D144464C44202C33D843460F2B00D834
:10487000B5E04C46002C00D0C2E04A46A96B20AF00
:10488000002A22D000247FE0042922D1002B20D14D
:10489000102A1ED8102203681A4200D0C7E020AFA9
:1048A000380000F021F9012639000023AA6B3000FE
:1048B0009840044201D001CA086001330431042B3E
:1048C000F5D13800AA6300F00DF9002002E0032BB7
:1048D0001CD0022043B0C0BCB946B046F0BD002B8E
:1048E000F7D1002301271604826B360C011D380016
:1048F0009840064201D001CA086001330431102BF0
:10490000F5D10020A304E5D4AA63E3E71404160C50
:10491000240C3319102BDCD8082203681A4200D06B
:104920008CE020AF380000F0DBF8F600AB6B002C19
:104930000AD0F61AE400321F1C19BA1819000968C7
:1049400004339950A342F9D13800AB6300F0C6F8A4
:104950000020BFE743464B44102BBAD843460F2BE9
:10496000B7D82B681E4206D00322280093432B6041
:10497000483000F0A9F820AF380000F0A5F84A460A
:104980000024A96B002A61D04346DB00FF180023F6
:10499000D200C858F85004339A42FAD18918002C32
:1049A0000FD06F464046102800D210200023103848
:1049B000C0003818E200CF58C75004339342FAD1F0
:1049C000C918012E41D04346A9630F2B45D9002CAD
:1049D00000D17AE7684600F07DF800207AE7102CD5
:1049E00046D9103C01222B681A4207D09343022279
:1049F000280013432B60483000F06AF8002C39D0AF
:104A000004222B681A422CD143460F2B03D820AF27
:104A1000380000F05DF86F46380000F05DF81022B5
:104A20004346A96BD21A002ABCDD20AFACE7934302
:104A30000360D130FF3000F057F830E79343036054
:104A40005130FF3000F04CF86BE720AF04313800F4
:104A5000A96300F037F800203CE720A800F036F802
:104A6000B5E7280093432B60D03000F035F8CBE752
:104A70000024B7E743460F2B00D9FEE620AF3800ED
:104A800000F026F84A46A96B002A00D0FAE6380062
:104A900000F01CF800201DE70100343138C9043B48
:104AA0009C461D60A646010020313CC990469946AF
:104AB000A246AB4601000831FCC941680068E546E2
:104AC00000BDC0467047C0467047C0467047C046EC
:104AD0007047C0467047C0467047C0467047C046E2
:104AE0007047C0467047C0467047C04601B401A831
:104AF00001B585B0FFB408A841464A4653465C4616
:104B000065463EC001A83EC80F98009000230CB433
:104B100001A9FFF711FC109B12B0184701B401A8BE
:104B200001B585B0FFB408A841464A4653465C46E5
:104B300065463EC001A83EC80F98009000230CB403
:104B400001A9FFF72DFC109B12B0184701B401A872
:104B500001B585B0FFB408A841464A4653465C46B5
:104B600065463EC001A83EC80F98009000230CB4D3
:104B700001A9FFF739FC109B12B0184701B401A836
:104B800001B585B0FFB408A841464A4653465C4685
:104B900065463EC001A83EC80F98009000230CB4A3
:104BA00001ABFFF7F3FB109B12B0184701B401A84B
:104BB00001B585B0FFB408A841464A4653465C4655
:104BC00065463EC001A83EC80F98009000230CB473
:104BD00001AAFFF76DFC109B12B01847027A030080
:104BE000002A0BD1427A002A0FD0013A4272426861
:104BF000111D416003211268017202E0013A027244
:104C00000268100E12021A607047B020FCE7C0461E
:104C100000B585B003AB00930C2200230021FFF701
:104C2000FBFB039805B000BD10B5FFF7F1FF10BD09
:104C3000F0B54E4645465746DE460023E0B587B000
:104C400003930F339846083B994680231B030500C6
:104C50000E009A463000FFF7C1FF0400B02800D1D3
:104C6000C1E0030629D5030042469343DBB2802B03
:104C700053D0902B3DD0A02B6BD0B02B00D17EE039
:104C8000C02B00D195E003004A469343DBB2D02B02
:104C90000AD15346024001321A430523012128005C
:104CA000FFF7C6FD0028D5D00924200007B0F0BCCE
:104CB000BB46B246A946A046F0BDFF238200134082
:104CC0001F1D05AB9B4600930D22002300212800E9
:104CD000FFF7A2FB630639D4059B9C4667445B46FD
:104CE0000597009300230D2200212800FFF7BAFB4F
:104CF000B0E7833B03400D2BD6D005AF0240002325
:104D0000002128000097FFF787FB00230D220021D8
:104D100028000097FFF7A6FB9CE704023000FFF78E
:104D20005DFF802720433F02B842BDD0040100054B
:104D3000020C002300212800FFF77AFD0028B3D1E0
:104D40003C4200D186E70123039383E7059BDF1BE9
:104D5000C5E7FF234A461B011900824311410A009F
:104D60001A40030702D58023DB011A4300230021E8
:104D70002800FFF75DFD002800D16BE794E7B1281C
:104D800045D0B22800D19FE0B32855D0FC23034082
:104D9000B42B00D188E74A465346024001321A43F9
:104DA000012101232800FFF743FD002800D151E72E
:104DB0007AE7C6284BD0C7285DD003004A46934304
:104DC000DBB2C02B6CD0C82871D0C92800D06BE7EB
:104DD0003000FFF703FFF02302031B03134042469A
:104DE0000240013258E7039B0024002B00D05CE70F
:104DF00005AE0E22002128000096FFF70DFB0023D0
:104E00000F22002128000096FFF72CFB4DE7300011
:104E1000FFF7E4FE021E00D146E7030041468B4344
:104E2000DBB2002B00D03FE700212800FFF700FD98
:104E3000002800D10EE737E73000FFF7CFFEF02360
:104E400002031B031340424602400132A7E7300031
:104E5000FFF7C4FEF02302031B0313404246024047
:104E600001321A43032303212800FFF7E1FC002845
:104E700000D1EFE618E73000FFF7B0FE021E00D1C8
:104E800012E7030041468B43DBB2002B00D00BE757
:104E900004212800FFF7CCFC002800D1DAE603E764
:104EA0004346A0221C40013412032243DAE73000BB
:104EB000FFF794FE434602009A43D2B210321840E4
:104EC000120301300243E8E605AB00939B460D2236
:104ED000002300212800FFF79FFA3000FFF77EFE35
:104EE00003061AD57F27B03C059B3840A0409C465E
:104EF0006044059030000734FFF770FE0306F3D4DA
:104F000081217F2389008C460340A340059A624497
:104F10009B1805935B460093E4E60224F0E7C04645
:104F2000030000B5DA6C85B0536808000832190236
:104F300001910292694603221B0E0A734B7301A969
:104F4000FFF776FE05B000BD10B5FFF76DFE806C73
:104F500010BDC04610B5FFF767FEC26CD0790230B5
:104F60008000101810BDC0461C2101231B0498426C
:104F700001D3000C10391B0A984201D3000A0839EA
:104F80001B09984201D30009043902A2105C4018A1
:104F90007047C04604030202010101010000000045
:104FA0000000000010B5002903D1FFF7DDFF20301D
:104FB00002E00800FFF7D8FF10BDC046F0B5574625
:104FC0004E464546DE46E0B50F00190000230600B8
:104FD0009846100083B0002F07DA33003C0000270A
:104FE0005E42A74101235B429846002907DA434607
:104FF000DB430C009846030000215842A1413400D5
:105000003D0082468946B9426AD867D04946504633
:10501000FFF7C8FF834639003000FFF7C3FF5B4648
:105020001B1A9C46203B9B466BD4584651468140F8
:1050300060460B00514681400A00BB4200D972E035
:10504000BB4200D179E034003D005946A41A9D418D
:10505000002900DA74E0002100200126009001916F
:1050600059468E400196614601268E406146009663
:1050700000295FD0D90756080E435F086146012218
:1050800000230CE0AF4201D1A6420AD8A41BBD41C7
:1050900024196D410139A4185D41002906D0AF42A1
:1050A000F0D9013924196D410029F8D100980199EE
:1050B0005B4600196941002B4DDB2E002C00DE40C1
:1050C0006346DC405B46002B55DB34009C402300EC
:1050D0006446A6403200801A994103E0B04295D957
:1050E000002000214346002B04D003000C000021C7
:1050F0005842A14103B0F0BCBB46B246A946A04607
:10510000F0BD624648462023514690409B1AD94044
:1051100003000091009960460B43514681400A000C
:10512000BB4200D88CE7002100200090019161462D
:1051300000299FD100980199D4E7B142F3D882E7C2
:10514000614620260127761A00200021F7400090B2
:105150000191019787E7624620239B1A2A009A4013
:10516000260013006246D6402C001E436346DC40F6
:105170005B46002BA9DA62462023350094409B1A37
:10518000DD4023002B43A3E7062010B500F084FA8E
:10519000012007F0A3FFC046030010B50A00034931
:1051A0000868190000F080F810BDC046000000201B
:1051B000030010B50A0003490868190000F010F850
:1051C00010BDC0460000002000B5044B83B00100B4
:1051D00001AA186800F004F803B000BD0000002028
:1051E000F0B54F464646D646C0B5904607000E007D
:1051F00000F0F4FF1D4B1D689946002D0AD033784E
:105200003400002B04D12FE063780134002B0AD046
:105210003D2BF9D1380000F0E3FF0020E0BCBA4696
:10522000B146A846F0BDA41B28680028F2D0220091
:10523000310000F047FC002805D12B681A191B5DCE
:1052400092463D2B04D0686804350028EFD1E1E791
:105250004B461B683800ED1A4346AD101D6000F048
:10526000BFFF50460130D9E70024DDE7C000002031
:1052700000B583B001AAFFF7B3FF03B000BDC0467D
:1052800010B5034B0100186800F07CF810BDC04653
:105290000000002010B5034B0100186800F012F860
:1052A00010BDC046000000204A4370B51100150033
:1052B00000F068F8041E03D02A000021FAF7C6FFA8
:1052C000200070BD70B50500002915D00C1F2368A3
:1052D000002B23DB280000F0C7FF294A1368002BAE
:1052E00005D0A3420BD92168601883422DD063609A
:1052F0002800146000F0BAFF70BDA34210D81A0055
:105300005B68002BF9D1106811188C4219D030D38A
:1053100063605460280000F0A9FFEDE7E418D9E7C6
:1053200011685018A04217D023D821686018834212
:10533000EED118685B688446614421606360546004
:10534000E8E7236818181060E4E718685B6884468B
:10535000614421606360CBE7206809185018116030
:105360008342D7D118685B688446614411605360FA
:10537000D0E70C2328002B6000F078FFBCE7C04684
:10538000DC010020F8B50323CD1C9D430835060041
:105390000C2D27D20C25A94226D8300000F064FF3E
:1053A000284F3A68002A27D0140004E063682200DE
:1053B000002B21D01C0023685B1BF7D40B2B17D8C4
:1053C0006368944235D05360300000F04FFF2000F6
:1053D00007220B30231D9043C21A984207D01B1A94
:1053E000A35004E0002DD6DA0C2300203360F8BD72
:1053F0002360E4182560E7E77B68002B1BD02900B9
:10540000300000F0A1F8431C0CD00323C41C9C43C3
:10541000A04205D0211A300000F096F8431C01D0BC
:105420002560D1E70C233000336000F01FFF00201F
:10543000DDE73B60C8E70021300000F085F87860C8
:10544000DDE7C046DC010020114B70B51C6805008B
:10545000A36B002B03D000221D615A6170BD182080
:10546000FFF70EFF031EA0630CD00A4A0021026062
:10547000094A4260094A82600B2282810120186138
:105480005961E8E700224221054B064800F080FE02
:10549000000000200E33CDAB34126DE6ECDE0500CB
:1054A00018A1010830A10108184B70B51D68AC6B3C
:1054B000002C0ED020696169154A164BFCF714FFC9
:1054C0000122002312184B415800400822616361F9
:1054D00070BD1820FFF7D4FE041EA8630FD00E4B3A
:1054E000012203600D4B43600D4B83600B238381CE
:1054F00000230261436107480A4A064BE6E700229F
:105500004E21094B094800F043FEC0460000002030
:105510002D7F954C2DF451580E33CDAB34126DE6E2
:10552000ECDE05002E7F954C18A1010830A1010882
:10553000030010B50A0003490868190000F098FE3E
:1055400010BDC04600000020002370B5064D0400C9
:1055500008002B6007F0E4FD431C00D070BD2B68F1
:10556000002BFBD02360F9E7E4010020436C10B569
:105570000400002B01D0002010BD8021FFF702FFA6
:105580006064002806D002000023803208C09042E8
:10559000FCD1F0E701204042EEE7C046F8B5060036
:1055A0000C0017001F2907D8456C002D09D0A40056
:1055B0002D1928682F60F8BD162303600120404292
:1055C000F9E78021FFF7DEFE051E706407D00100B9
:1055D00003000022803104C38B42FCD1E7E70120A5
:1055E0004042E8E770B505000C001F2920D8436C45
:1055F000002B0ED08A009B181A68002A09D0012AB5
:1056000014D0511C0ED000212000196090470020BA
:1056100070BD280000F0F8F822000100280000F01A
:10562000DFF8F5E7162303600120F1E70020EFE73C
:105630001623036001204042EAE7C04670B504002B
:105640000D001F2925D8426C002A10D0A80012187E
:105650001368002B09D0591C19D0012B15D000213B
:10566000280011609847002070BD0120FCE78021D0
:10567000FFF788FE021E60640BD0040003000020C8
:10568000803401C3A342FCD1E0E70320ECE7022011
:10569000EAE701204042E7E7154B70B504001D68BA
:1056A0001F281FD86B6C002B0DD082009B181A6826
:1056B000002A08D0012A13D0511C0DD000211960F6
:1056C0009047002070BD280000F09EF822000100E5
:1056D000280000F085F8F5E7162301202B60F1E79C
:1056E0000020EFE7162301202B604042EAE7C04686
:1056F00000000020124B70B504000D001E681F282A
:1057000007D8706C002809D0A4000419206825600F
:1057100070BD1623012033604042F9E7802130003C
:10572000FFF730FE7064002807D00100030000225C
:10573000803104C39942FCD1E6E701204042E7E70B
:10574000000000200C4B10B51C68636C002B01D0CE
:10575000002010BD80212000FFF714FE60640028A7
:1057600006D002000023803208C09042FCD1EFE74F
:1057700001204042EDE7C04600000020174B70B505
:1057800005001C681F2826D8626C002A10D0A800CB
:1057900012181368002B09D0591C1AD0012B16D0EF
:1057A0000021280011609847002070BD0120FCE70F
:1057B00080212000FFF7E6FD021E60640BD004008C
:1057C00003000021803402C3A342FCD1DFE70320A1
:1057D000EBE70220E9E701204042E6E70000002075
:1057E000002370B5074D0400080011002B6007F07E
:1057F0006DFC431C00D070BD2B68002BFBD02360D8
:10580000F9E7C046E401002010B507F05DFC10BDCB
:1058100008B410B504009DB0002A31DB822368462D
:105820009B00838202910691002A14D00123013A41
:105830005B42C382049220AB079220001F9A02A908
:10584000019300F033FE431C01DA8B232360002315
:10585000029A13700FE001235B42C382049220ABD3
:10586000079220001F9A02A9019300F01FFE431C1B
:1058700001DA8B2323601DB010BC08BC01B01847AF
:105880008B23036001204042F5E7C0460CB410B5FD
:105890001E4B9CB01C68002932DB82236A469B00A9
:1058A000938202900690002914D0012301395B42B3
:1058B000D38204911FAB079120001E9A02A9019385
:1058C00000F0F4FD431C01DA8B2323600023029ACD
:1058D000137010E001236A465B42D38204911FAB30
:1058E000079120001E9A02A9019300F0DFFD431CDE
:1058F00001DA8B2323601CB010BC08BC02B018472F
:105900008B23012023604042F5E7C04600000020C1
:10591000CAB2F0B5002A35D0032483072DD1FF2564
:1059200029400D0229430D040D4329000468264E29
:1059300061408B198B43A119A143244E0B43334281
:1059400011D14168204F0C00CB196C408B43E119F9
:10595000A1430B4304303342F3D00378002B05D02E
:105960009A4204D001300378002BF9D10020F0BD19
:105970009342FCD001302042D1D00378002BF7D1E4
:105980000020F4E7830708D0032202E00130104230
:1059900003D00378002BF9D1E9E702680A4B0B49E1
:1059A000D31893430B4206D14268074B0430D318F7
:1059B00093430B42F8D00378002BD8D043780130C2
:1059C000002BFBD1D3E7C046FFFEFEFE8080808027
:1059D000024670B50A4392072AD11E4DEE0104C853
:1059E00008C9541B9443344017D0D0B2D9B2401ADE
:1059F0002106014310D190B299B2401A210401430B
:105A00000AD110021902000A090A401A21020143B0
:105A100002D1100E190E401A70BD9A42DFD010BA92
:105A200019BA884201D9012070BD0020C04370BD61
:105A300002780B7801300131002A09D09A4207D14F
:105A400002780B7801300131002A01D09A42EFD060
:105A5000D01A70BD0101010103000A7801311A70EA
:105A60000133002AF9D1704710B583070AD003002B
:105A7000032102E001330B4205D01A78002AF9D144
:105A8000181A10BD030019680C4A0D4C8A188A4375
:105A900022420FD15968094A04338A188A432242A4
:105AA00008D15968054A04338A188A432242F1D042
:105AB00000E001331A78002AFBD1E1E7FFFEFEFE89
:105AC0008080808030B5002A26D003000B439B07DE
:105AD00024D1032A22D9164D0BE0043A002A1BD008
