:020000040800F2
:1000000000500020C5360008190400081B04000831
:100010001D0400081F04000821040008000000005F
:100020000000000000000000000000007134000823
:1000300023040008000000001135000855350008B1
:100040000D3700080D3700080D3700080D37000880
:100050000D3700080D3700080D3700080D37000870
:100060000D3700080D3700080D3700080D37000860
:1000700025040008350400080D3700080D37000876
:100080000D3700080D3700080D3700080D37000840
:100090000D3700080D3700080D3700080D37000830
:1000A0000D370008450400080D3700080D3700081B
:1000B0000D3700080D3700080D3700080D37000810
:1000C0000D3700080D3700080D3700080D37000800
:1000D0000D3700080D3700080D37000855040008DB
:1000E0000D3700080D3700080D370008000000002C
:1000F0000000000000000000000000000000000000
:0C01000000000000000000005FF808F1A3
:100110000348044B834202D0034B03B11847704796
:100120002000002020000020000000000548064BB1
:100130001B1AD90F01EBA301491002D0034B03B1E5
:100140001847704720000020200000200000000019
:1001500010B5064C237843B9FFF7DAFF044B13B10F
:100160000448AFF300800123237010BD200000205D
:10017000000000008437000808B5044B1BB1044997
:100180000448AFF30080BDE80840CFE7000000005E
:10019000240000208437000808B50268034B9A4207
:1001A00000D008BD00F0DAF9FBE700BF002C0140E9
:1001B00072B6FEE700B591B02822002106A803F030
:1001C000D9FA002301930293039304930593012228
:1001D00006924FF4803307930A9202220D920E93F7
:1001E0004FF4E0130F9306A800F0E0F980B90F2355
:1001F000019302210291002303934FF48062049241
:10020000059301A800F012FC20B911B05DF804FBC1
:10021000FFF7CEFFFFF7CCFF08B500F08DF9FFF731
:10022000C9FF00F00BF800F03FF800F05FF802F0B3
:10023000D3FE00F029F802F0F1FEFEE782B00A4B8F
:100240009A6942F020029A619A6902F020020092B3
:10025000009A9A6942F008029A619B6903F00803C8
:100260000193019B02B070470010024008B51122B3
:100270000349044801F000FA0A2002F06BFFF6E798
:1002800000000020C800002008B5044A00210448EE
:1002900002F0EAFE034B186008BD00BFA837000853
:1002A0006D0200083C00002000B583B00E4B5A6977
:1002B00042F001025A615B6903F001030193019B63
:1002C000002205210C2000F065FF0C2000F09AFFB1
:1002D000002205210D2000F05DFF0D2000F092FFAF
:1002E00003B05DF804FB00BF0010024008B50A48E7
:1002F0000A4B03604FF4E133436000238360C36023
:1003000003610C2242618361C36101F085F900B988
:1003100008BDFFF74DFFFBE7C80000200048004084
:1003200070B586B00023029303930493059302688B
:10033000334B9A4201D006B070BD044603F5E43356
:10034000DA6942F48022DA61DA6902F480220092EA
:10035000009A9A6942F008029A619B6903F00803C7
:100360000193019B4FF480630293022303930323C1
:100370000593244E02A9304600F052FC4FF400636E
:10038000029300250395049502A9304600F048FC2D
:100390001D481E4B0360456085608023C360056176
:1003A0004561202383614FF44053C36100F060FD39
:1003B00000BB154BA3635C621548164B036010230A
:1003C0004360002383608022C260036143618361D4
:1003D0004FF44053C36100F04BFD70B90C4B6363A5
:1003E0005C6200220521272000F0D4FE272000F0C7
:1003F00009FFA0E7FFF7DCFEDBE7FFF7D9FEEDE73B
:1004000000480040000C0140400000203000024045
:10041000840000201C000240FEE7FEE7FEE7FEE746
:10042000FEE7704708B5024800F000FE08BD00BFB7
:100430008400002008B5024800F0F8FD08BD00BFA8
:100440004000002008B5024800F024FF08BD00BFAE
:100450000C01002008B5024801F022FA08BD00BFD7
:10046000C800002000B583B00D4B9A6942F001022C
:100470009A619A6902F001020092009ADA6942F0E8
:100480008052DA61DB6903F080530193019B002203
:100490000F216FF0010000F07DFE03B05DF804FB5A
:1004A0000010024030B589B004461E4B9A6942F4F0
:1004B00000629A619B6903F400630193019B02A9A6
:1004C00003A800F08FFB00F07DFB174AA2FB00237E
:1004D0009B0C013B1548164A026040F2E732C260AD
:1004E0004360002303618360836100F0CBFF054616
:1004F00010B1284609B030BD0C4800F093FE054607
:100500000028F6D1192000F07DFE0F2C01D901251D
:10051000EFE700222146192000F03CFE054B1C604D
:10052000E7E700BF0010024083DE1B430C01002000
:10053000002C01401400002008B5074A136843F05E
:1005400010031360032000F013FE0F20FFF7AAFF33
:10055000FFF788FF002008BD00200240034A116811
:10056000034B1B780B441360704700BF54010020FD
:1005700011000020014B1868704700BF5401002093
:1005800082B0084B1B68084AA2FB03235B0A00FBEE
:1005900003F3019300BF019B5A1E0192002BF9D176
:1005A00002B0704718000020D34D6210002800F000
:1005B000F18170B582B00446036813F0010F2CD0AE
:1005C000994B5B6803F00C03042B1DD0964B5B68C2
:1005D00003F00C03082B12D06368B3F5803F41D0C1
:1005E000002B55D103F1804303F504331A6822F43C
:1005F00080321A601A6822F480221A6037E08A4B2F
:100600005B6813F4803FE7D0874B1B6813F4003F0F
:1006100003D06368002B00F0BF81236813F0020F42
:1006200075D0814B5B6813F00C0F5FD07E4B5B681D
:1006300003F00C03082B54D02369002B00F08A80B0
:100640007A4B01221A60FFF795FF0546764B1B682F
:1006500013F0020F75D1FFF78DFF401B0228F5D96B
:1006600003209EE1704A136843F48033136063688B
:1006700043B3FFF77FFF05466B4B1B6813F4003F46
:10068000CBD1FFF777FF401B6428F5D9032088E121
:10069000B3F5A02F09D0644B1A6822F480321A6097
:1006A0001A6822F480221A60E1E703F18043A3F57F
:1006B0003C331A6842F480221A601A6842F480328D
:1006C0001A60D4E7FFF756FF0546574B1B6813F433
:1006D000003FA2D0FFF74EFF401B6428F5D903204E
:1006E0005FE1514B5B6813F4803FA5D14E4B1B6813
:1006F00013F0020F03D02369012B40F04F814A4AC7
:10070000136823F0F803616943EAC10313602368A7
:1007100013F0080F33D0A369002B5CD0434B0122A8
:10072000C3F88024FFF726FF05463F4B5B6A13F0B2
:10073000020F21D1FFF71EFF401B0228F5D903202D
:100740002FE1394A136823F0F803616943EAC103D2
:100750001360DCE7354B00221A60FFF70BFF0546FC
:10076000314B1B6813F0020FD1D0FFF703FF401B82
:100770000228F5D9032014E10120FFF701FF2368C7
:1007800013F0040F00F09680274BDB6913F0805FB5
:1007900034D1254BDA6942F08052DA61DB6903F02B
:1007A00080530193019B0125214B1B6813F4807F2B
:1007B00026D0E368012B3DD0002B53D103F18043B9
:1007C00003F504331A6A22F001021A621A6A22F04F
:1007D00004021A6233E0154B0022C3F88024FFF7AD
:1007E000C9FE0546104B5B6A13F0020FC7D0FFF736
:1007F000C1FE401B0228F5D90320D2E00025D3E733
:100800000B4A136843F480731360FFF7B3FE064688
:10081000074B1B6813F4807FCBD1FFF7ABFE801B27
:100820006428F5D90320BCE00010024000004242D9
:10083000007000405F4A136A43F001031362E368EB
:1008400033B3FFF797FE06465A4B1B6A13F0020FAD
:100850002FD1FFF78FFE801B41F288339842F3D9E6
:1008600003209EE0052B09D0524B1A6A22F00102A8
:100870001A621A6A22F004021A62E0E74D4B1A6A01
:1008800042F004021A621A6A42F001021A62D6E7C2
:10089000FFF770FE0646474B1B6A13F0020F08D0A5
:1008A000FFF768FE801B41F288339842F3D903209A
:1008B00077E0E5B9E369002B72D03E4A526802F056
:1008C0000C02082A56D0022B17D03B4B00221A6686
:1008D000FFF750FE0446374B1B6813F0007F47D0EC
:1008E000FFF748FE001B0228F5D9032059E0314AE2
:1008F000D36923F08053D361DCE72F4B00221A66C3
:10090000FFF738FE05462B4B1B6813F0007F06D01F
:10091000FFF730FE401B0228F5D9032041E0236A8F
:10092000B3F5803F1AD023494B6823F47413226A2D
:10093000606A024313434B601F4B01221A66FFF7A4
:1009400019FE04461B4B1B6813F0007F0ED1FFF706
:1009500011FE001B0228F5D9032022E0154A536836
:1009600023F40033A1680B435360DCE7002018E058
:10097000002016E0012B16D00E4B5B6803F480318B
:10098000226A914211D103F47013626A93420ED12C
:10099000002006E001207047012002E0012000E075
:1009A000002002B070BD0120FBE70120F9E7012023
:1009B000F7E700BF001002400000424286B0174B2C
:1009C0000FCB0DF1180C0CE90F0040F20123ADF82C
:1009D0000430134B5B6803F00C02082A02D0114864
:1009E00006B07047C3F3834218326A4412F8100C01
:1009F00013F4803F0DD00A4B5B68C3F340431833B8
:100A00006B4413F8143C074A02FB00F0B0FBF3F010
:100A1000E6E7054B03FB00F0E2E700BFCC37000838
:100A20000010024000127A0000093D00002800F08A
:100A3000A08070B50D460446524B1B6803F00703B7
:100A40008B420BD24F4A136823F007030B4313600A
:100A5000136803F007038B4240F08D80236813F086
:100A6000020F17D013F0040F04D0474A536843F421
:100A7000E0635360236813F0080F04D0424A5368C0
:100A800043F460535360404A536823F0F003A16875
:100A90000B435360236813F0010F31D06368012BBF
:100AA00020D0022B25D0384A126812F0020F64D0F1
:100AB00035494A6822F0030213434B60FFF75AFDA1
:100AC0000646314B5B6803F00C036268B3EB820FA0
:100AD00016D0FFF74FFD801B41F288339842F0D9C2
:100AE000032045E0284A126812F4003FE0D10120BB
:100AF0003EE0254A126812F0007FD9D1012037E08C
:100B0000204B1B6803F00703AB420AD91D4A136848
:100B100023F007032B431360136803F00703AB4272
:100B20002DD1236813F0040F06D0174A536823F41D
:100B3000E063E1680B435360236813F0080F07D0AC
:100B4000114A536823F46053216943EAC103536097
:100B5000FFF734FF0C4B5B68C3F303130B4AD35C02
:100B6000D8400B4B18600B4B1868FFF79BFC00201C
:100B700070BD012070470120FAE70120F8E701204D
:100B8000F6E700BF0020024000100240E0370008F6
:100B90001800002014000020014B1868704700BFA7
:100BA0001800002008B5FFF7F7FF044B5B68C3F39C
:100BB0000223034AD35CD84008BD00BF00100240A6
:100BC000F037000808B5FFF7E7FF044B5B68C3F395
:100BD000C223034AD35CD84008BD00BF00100240C6
:100BE000F03700080F2303600B4B5A6802F0030232
:100BF00042605A6802F0F00282605A6802F4E062D1
:100C0000C2605B68DB0803F4E0630361034B1B68AD
:100C100003F007030B607047001002400020024001
:100C200070B582B00024A446A6E0804DAB4210D03F
:100C300007D97F4DAB420CD005F58035AB4208D0CB
:100C400013E0A5F58015AB4203D005F57025AB4246
:100C500007D18B68002B58D0012B51D0426108245A
:100C600003E0A5F58015AB42F3D0BEF1FF0F4ED8DF
:100C70000646BEF1FF0F4CD84FEA8C0233680F25B1
:100C8000954023EA050304FA02F2134333604B68EC
:100C900013F0805F6ED0674B9A6942F001029A614F
:100CA0009B6903F001030193019B4FEA9C02951C91
:100CB000614B53F825600CF00305AD000F23AB40EA
:100CC00026EA03065D4B984229D003F580639842DB
:100CD00000F08E8003F58063984200F08B8003F56E
:100CE0008063984219D004231AE0CC68BDE7CC6831
:100CF0000434BAE7CC680834B7E7CC680C34B4E7FE
:100D000002610824B1E70024AFE70424ADE7061D23
:100D1000AFE7ACF108029200B0E7032300E0002344
:100D2000AB4033430232444D45F822304B6813F454
:100D3000803F61D0424A136843EA0E0313604B6858
:100D400013F4003F5ED03E4A536843EA0E035360FB
:100D50004B6813F4801F5BD0394A936843EA0E0353
:100D600093604B6813F4001F58D0354AD36843EAA8
:100D70000E03D3600CF1010C0B6833FA0CF253D064
:100D8000012202FA0CF203EA020E32EA0303F1D165
:100D90004B68122B3FF649AF122B3FF666AF01A509
:100DA00055F823F0530C0008EB0C0008F50C000874
:100DB000070D00086B0C00086B0C00086B0C00089A
:100DC0006B0C00086B0C00086B0C00086B0C000827
:100DD0006B0C00086B0C00086B0C00086B0C000817
:100DE0006B0C00086B0C0008EF0C0008FB0C0008F3
:100DF000012395E7022393E7114A136823EA0E03C0
:100E000013609CE70E4A536823EA0E0353609FE782
:100E10000B4A936823EA0E039360A2E7084AD3685B
:100E200023EA0E03D360A5E702B070BD00002210D4
:100E30000000311000100240000001400008014095
:100E40000004014030B40124056CAC40C56B6C60FB
:100E5000046863604368102B05D0036899600368D9
:100E6000DA6030BC704703689A600368D960F8E7BD
:100E700060B310B402460168154B0B441548A0FB43
:100E800003031B099B001364134BD363022382F8F3
:100E90002130086820F47F5020F0300053689468B7
:100EA0002343D46823431469234354692343946937
:100EB0002343D469234303430B6000209063012341
:100EC00082F8213082F8200010BC70470120704762
:100ED000F8FFFDBFCDCCCCCC0000024038B50446B5
:100EE00090F82000012831D0012084F8200094F8E7
:100EF0002100012804D0002384F82030022038BDCE
:100F0000022084F821000020A0632568286820F0D2
:100F1000010028602046FFF795FFE36A5BB1226875
:100F2000136843F00E0313602268136843F0010353
:100F300013600020E3E72268136823F004031360C2
:100F40002268136843F00A031360EDE70220D6E736
:100F5000034690F82120022A06D004228263002250
:100F600080F820200120704701680A6822F00E02F4
:100F70000A6001680A6822F001020A60026CC06B14
:100F8000012101FA02F2426083F82110002083F867
:100F90002000704708B590F82130022B03D00423BD
:100FA0008363012008BD0268136823F00E031360F9
:100FB0000268136823F0010313600368194A93421F
:100FC00014D0143293421FD0143293421ED01432E4
:100FD00093421ED0143293421ED01432934202D058
:100FE0004FF0807203E04FF4801200E001220E4BBC
:100FF0005A60012380F82130002380F82030436BB1
:101000006BB198470020CDE71022F0E74FF48072D3
:10101000EDE74FF48052EAE74FF48032E7E7002033
:10102000C0E700BF080002400000024038B5C36BB3
:101030001A6804682568016C04238B40134235D07C
:1010400015F0040F32D0236813F0200F03D123686A
:1010500023F0040323600368434A934214D01432FC
:10106000934218D01432934217D01432934217D0BF
:101070001432934217D01432934202D04FF0806260
:1010800003E04FF4800200E00422384B5A60C36A48
:1010900003B1984738BD4022F7E74FF48062F4E788
:1010A0004FF48042F1E74FF48022EEE702238B40B9
:1010B00013423CD015F0020F39D0236813F0200FF3
:1010C00006D1236823F00A032360012380F821302E
:1010D0000368254A934214D0143293421CD0143230
:1010E00093421BD0143293421BD0143293421BD034
:1010F0001432934202D04FF0007203E04FF400121A
:1011000000E00222194B5A60002380F82030836AE5
:10111000002BBFD09847BDE72022F3E74FF40072C1
:10112000F0E74FF40052EDE74FF40032EAE708230E
:101130008B401342AED015F0080FABD0236823F0DC
:101140000E032360026CC16B012303FA02F24A60B2
:10115000836380F82130002380F82030036B002B5C
:1011600098D0984796E700BF080002400000024070
:10117000074AD36823F4E0631B041B0C000200F44D
:10118000E060034343F0BF6343F40033D360704730
:1011900000ED00E000B5194BDB68C3F30223C3F197
:1011A000070CBCF1040F28BF4FF0040C03F1040E30
:1011B000BEF1060F18D9033B4FF0FF3E0EFA0CFCB0
:1011C00021EA0C0199400EFA03FE22EA0E020A43BC
:1011D00000280BDB1201D2B200F1604000F5614043
:1011E00080F800235DF804FB0023E5E700F00F0022
:1011F0001201D2B2024B1A54F4E700BF00ED00E036
:1012000014ED00E0002807DB00F01F024009012375
:101210009340024A42F82030704700BF00E100E0EE
:101220007047000090F83D30DBB2012B27D102233C
:1012300080F83D300268D36843F00103D36003684F
:10124000114A934210D0B3F1804F0DD0A2F59432E1
:10125000934209D002F58062934205D01A6842F0A9
:1012600001021A60002070479A6802F00702062AFD
:1012700007D01A6842F001021A600020704701206E
:1012800070470020704700BF002C01407047704736
:101290007047704710B5044603681A6912F0020FD0
:1012A00011D0DA6812F0020F0DD06FF002021A614D
:1012B0000123037703689B6913F0030F70D0FFF7D6
:1012C000E6FF0023237723681A6912F0040F12D077
:1012D000DA6812F0040F0ED06FF004021A610223D4
:1012E000237723689B6913F4407F5FD02046FFF784
:1012F000CEFF0023237723681A6912F0080F12D05B
:10130000DA6812F0080F0ED06FF008021A61042399
:1013100023772368DB6913F0030F4ED02046FFF7D5
:10132000B6FF0023237723681A6912F0100F12D03A
:10133000DA6812F0100F0ED06FF010021A61082355
:1013400023772368DB6913F4407F3DD02046FFF705
:101350009EFF0023237723681A6912F0010F03D040
:10136000DA6812F0010F36D123681A6912F0800F83
:1013700003D0DA6812F0800F34D123681A6912F0B2
:10138000400F03D0DA6812F0400F32D123681A6997
:1013900012F0200F03D0DA6812F0200F30D110BD08
:1013A000FFF774FF2046FFF773FF8AE72046FFF739
:1013B0006DFF2046FFF76CFF9BE72046FFF766FFB7
:1013C0002046FFF765FFACE72046FFF75FFF2046AA
:1013D000FFF75EFFBDE76FF001021A612046FEF7DE
:1013E000DBFEC1E76FF080021A61204600F077F85B
:1013F000C3E76FF040021A612046FFF74AFFC5E7D6
:101400006FF020021A61204600F068F8C7E700007C
:1014100003681B4A90420AD0B0F1804F07D0A2F572
:101420009432904203D002F58062904203D123F0BF
:1014300070034A681343124A90420AD0B0F1804FB9
:1014400007D0A2F59432904203D002F58062904218
:1014500003D123F44073CA68134323F080034A691D
:10146000134303608B68C3620B688362044B98422A
:1014700002D00123436170470B690363F9E700BFA2
:10148000002C014040B310B5044690F83D30F3B154
:10149000022384F83D30214651F8040BFFF7B8FFD2
:1014A000012384F8463084F83E3084F83F3084F8D5
:1014B000403084F8413084F8423084F8433084F876
:1014C000443084F8453084F83D30002010BD80F869
:1014D0003C30FFF7A5FEDBE70120704770477047FF
:1014E0000268D36823F0C003D360202380F83D3026
:1014F00070470268D36823F49073D360026853691D
:1015000023F001035361036B012B05D0202380F8E6
:101510003E300023036370470268D36823F0100352
:10152000D360F3E790F83D30DBB2212B01D00220ED
:1015300070478368B3F5805F17D0036A5A1C026254
:101540001A7803685A60C38C9BB2013B9BB2C38478
:101550004BB90268D36823F08003D3600268D36874
:1015600043F04003D360002070470369002BE4D1AF
:10157000036A1B880268C3F308035360036A0233DB
:101580000362E0E710B504460268136923F4405390
:10159000C1680B43136183680269134342691A43AC
:1015A0000168CB6823F4B05323F00C031343CB60E2
:1015B0000268536923F4407381690B4353610268E5
:1015C000134B9A4220D0FFF7EDFA024602EB82025B
:1015D00002EB820263689B00B2FBF3F20D48A0FBB2
:1015E00002314909642303FB11231B013233A0FBA1
:1015F00003035B0903F0F00202EB011203F00F0397
:10160000216813448B6010BDFFF7DCFA0246DDE76A
:10161000003801401F85EB5158B310B5044690F8CF
:101620003D300BB3242384F83D302268D36823F483
:101630000053D3602046FFF7A5FF2268136923F407
:10164000904313612268536923F02A03536122688F
:10165000D36843F40053D36000202064202384F82F
:101660003D3084F83E3010BD80F83C30FEF758FE27
:10167000D8E701207047000038B5134690F83D20A8
:10168000D2B2202A30D1044600292FD0002B2FD0EF
:1016900090F83C20012A2DD0012280F83C200162E4
:1016A0008384C38400250564212280F83D20426B99
:1016B00011489062626B1148D062626B10481063EF
:1016C000626B556322680432606BFFF707FC236886
:1016D0006FF040021A6084F83C502268536943F06E
:1016E00080035361284600E0022038BD0120FCE75A
:1016F0000120FAE70220F8E707170008531700084F
:1017000061170008704708B50346406A1B681B68EC
:1017100013F0200F0CD10023C3840268536923F017
:10172000800353610268D36843F04003D36008BD6F
:10173000FFF7E8FFFBE708B50168CA6822F040023E
:10174000CA60202280F83D20FFF7DCFF002008BDA2
:10175000704708B5406AFFF7FBFF08BD7047704748
:1017600010B5446A23685A6994F83D30DBB2212BE6
:1017700010D023685A6902F0400294F83E30DBB280
:10178000222B11D0236C43F0100323642046FFF773
:10179000E6FF10BD02F08002002AEAD00023E384B5
:1017A0002046FFF79DFEE4E7002AEBD00023E38507
:1017B0002046FFF79EFEE5E708B5406A0023C38593
:1017C000C384FFF7CCFF08BD704790F83E30DBB212
:1017D000222B60D18368B3F5805F46D0826AB3F56F
:1017E000805F04D0002B4DD10369002B4AD10368E0
:1017F0005B681370836A01338362C38D9BB2013BC4
:101800009BB2C385002B48D100B583B00268D36872
:1018100023F02003D3600268D36823F48073D3607D
:101820000268536923F001035361202380F83E309E
:10183000036B012B2CD1002303630268D36823F0D0
:101840001003D36003681A6812F0100F06D000224C
:1018500001921A6801925B680193019B818DFFF7E9
:10186000B3FF002003B05DF804FB0269002AB5D184
:10187000826A03685B68C3F308031380836A0233D8
:101880008362BAE703685B6803F07F031370B1E714
:10189000FFF764FFE5E70220704700207047000073
:1018A00030B583B0044602681368D068516913F0FC
:1018B0000F0505D113F0200F02D010F0200F19D121
:1018C0002DB111F0010119D110F4907F16D1216BC7
:1018D000012975D013F0800F03D010F0800F40F075
:1018E000D78013F0400F03D010F0400F40F0D480A9
:1018F00003B030BD2046FFF768FFF9E713F0010F92
:1019000006D010F4807F03D0226C42F001022264E2
:1019100013F0040F04D019B1226C42F002022264C9
:1019200013F0020F04D019B1226C42F004022264B9
:1019300013F0080F07D010F0200F00D119B1226C5E
:1019400042F008022264226C002AD1D013F0200F4A
:1019500002D010F0200F21D123685B6903F040030F
:10196000226C12F0080F00D123B32046FFF7C1FD0F
:1019700023685A6912F0400F18D05A6922F04002C9
:101980005A61A36B73B1464A5A63A06BFFF702FB1F
:101990000028ADD0A06B436B9847A9E72046FFF71E
:1019A00014FFD9E72046FFF7DAFEA1E72046FFF74C
:1019B000D6FE9DE72046FFF7D2FE0023236497E77B
:1019C00013F0100F86D010F0100F83D00023019376
:1019D0001368019353680193019B536913F0400FFF
:1019E00032D0A16B0B685B689BB2002B80D0A08DBE
:1019F00098427FF67DAFE3858B69202B08D1A18DBE
:101A0000E38D9BB2C91A89B22046FFF7DDFE6FE76E
:101A1000D36823F48073D3602268536923F00103F1
:101A200053612268536923F040035361202384F8F3
:101A30003E30002323632268D36823F01003D36071
:101A4000A06BFFF785FADAE7A38DE18D89B25B1A07
:101A500099B2E38D9BB2002B3FF44AAF00293FF4CB
:101A600047AFD36823F49073D3602268536923F09F
:101A700001035361202384F83E300023236322684E
:101A8000D36823F01003D3602046FFF79DFE2FE7B5
:101A90002046FFF747FD2BE72046FFF74CFE27E7E0
:101AA000B9170008704700F1080343604FF0FF3298
:101AB0008260C360036100230360704700230361F9
:101AC000704743684B609A688A605160996008610A
:101AD000036801330360704730B40D68B5F1FF3F10
:101AE00011D000F108031C465B681A68AA42FAD9B3
:101AF00063684B6099608C606160086103680133C2
:101B0000036030BC70470469F2E70369416882688A
:101B10008A60416851605A68824206D000220261A0
:101B20001A68013A1A601868704782685A60F5E7C7
:101B300010B5044601F0AEFCA26BE36B9A4204D0F0
:101B4000002401F0C9FC204610BD0124F9E710B5BE
:101B5000044601F09FFCA36B23B9012401F0BCFCF7
:101B6000204610BD0024F9E770B504461546866B83
:101B7000026C5AB903681BB100200136A66370BD20
:101B8000406800F0C9FF00236360F6E76DB9806824
:101B900001F0E2FD226CA3681344A36062689342E3
:101BA00019D32368A3602846E7E7C06801F0D4FD95
:101BB000226C5142E3689B1AE3602268934202D28E
:101BC00063680B44E360022D01D00020D5E726B105
:101BD000013E0020D1E72846CFE70020CDE708B539
:101BE0000346026C62B10846D9681144D960D3F843
:101BF00004C0614501D31968D960D96801F0ACFD12
:101C000008BD38B5054601F045FC95F8454064B27D
:101C100001E0013C64B2002C0ADD6B6A43B105F1BE
:101C2000240000F0CFFE0028F3D000F05FFFF0E7C3
:101C3000FF2385F8453001F04FFC01F02BFC95F8AF
:101C4000444064B201E0013C64B2002C0ADD2B691F
:101C500043B105F1100000F0B5FE0028F3D000F00C
:101C600045FFF0E7FF2385F8443001F035FC38BD2F
:101C700038B5E0B10D46044601F00CFC2368E26B78
:101C8000216C01FB023060600020A063A360013A78
:101C900002FB0133E360FF2384F8443084F84530CD
:101CA000FDB9236963B901F017FC012038BD4FF07D
:101CB000500383F31188BFF36F8FBFF34F8FFEE79D
:101CC00004F1100000F07EFE0028ECD04FF0E0237D
:101CD0004FF08052C3F8042DBFF34F8FBFF36F8FC7
:101CE000E1E704F11000FFF7DEFE04F12400FFF746
:101CF000DAFED8E738B51D46049C0B4649B9246086
:101D0000E063236401212046FFF7B2FF84F84C50C2
:101D100038BD2260F4E740B94FF0500383F31188D7
:101D2000BFF36F8FBFF34F8FFEE710B584B01C4633
:101D3000844653B192B189B94FF0500383F31188AF
:101D4000BFF36F8FBFF34F8FFEE74FF0500383F366
:101D50001188BFF36F8FBFF34F8FFEE76AB1502337
:101D60000393039B502B13D04FF0500383F3118840
:101D7000BFF36F8FBFF34F8FFEE70029EFD04FF017
:101D8000500383F31188BFF36F8FBFF34F8FFEE7CC
:101D9000012384F8463000949DF818306046FFF720
:101DA000A9FF204604B010BDF0B585B0019288B1FE
:101DB0000F461D460446B1B1022D20D1E36B012B25
:101DC0001DD04FF0500383F31188BFF36F8FBFF323
:101DD0004F8FFEE74FF0500383F31188BFF36F8FEF
:101DE000BFF34F8FFEE7036C002BE5D04FF050039D
:101DF00083F31188BFF36F8FBFF34F8FFEE700F0BF
:101E00007BFE064658B9019B002B48D04FF050038B
:101E100083F31188BFF36F8FBFF34F8FFEE7002668
:101E20003DE02A4639462046FFF79EFE636A7BB9AD
:101E300048B14FF0E0234FF08052C3F8042DBFF3B8
:101E40004F8FBFF36F8F01F047FB012005B0F0BD4E
:101E500004F1240000F0B6FD0028F4D04FF0E02398
:101E60004FF08052C3F8042DBFF34F8FBFF36F8F35
:101E7000E9E701F031FB0020E8E702A800F0E8FD07
:101E8000012619E0002384F8443021E0002384F87F
:101E9000453023E02046FFF7B4FE00F073FC01F06C
:101EA000F9FAA26BE36B9A42BBD3022DB9D0019B26
:101EB000002BDED0002EE0D001F00EFB00F0C8FBBE
:101EC00001F0E8FA94F8442052B2B2F1FF3FD9D0C1
:101ED00094F8452052B2B2F1FF3FD7D001F0FCFA9E
:101EE00001A902A800F0C0FDD8B92046FFF720FEE6
:101EF0000028CFD0019904F1100000F02FFD2046FA
:101F0000FFF77FFE00F03EFC0028C8D14FF0E02331
:101F10004FF08052C3F8042DBFF34F8FBFF36F8F84
:101F2000BDE72046FFF76DFE00F02CFC00208DE79A
:101F30002DE9F84390B10F4616461C460546B1B14F
:101F4000022C20D1EB6B012B1DD04FF0500383F3FB
:101F50001188BFF36F8FBFF34F8FFEE74FF0500331
:101F600083F31188BFF36F8FBFF34F8FFEE7036CCE
:101F7000002BE5D04FF0500383F31188BFF36F8F30
:101F8000BFF34F8FFEE701F06FFBEFF311884FF0C7
:101F9000500383F31188BFF36F8FBFF34F8FAA6B8A
:101FA000EB6B9A4206D3022C04D0002088F31188F0
:101FB000BDE8F88395F845904FFA89F922463946ED
:101FC0002846FFF7D1FDB9F1FF3F06D009F1010323
:101FD0005BB285F845300120E8E76B6A0BB9012058
:101FE000E4E705F1240000F0EDFC18B126B1012072
:101FF0003060DBE70120D9E70120D7E7F0B585B0F5
:10200000019290B10F460446C1B100F075FD06463D
:1020100000BB019B002B5ED04FF0500383F311886F
:10202000BFF36F8FBFF34F8FFEE74FF0500383F383
:102030001188BFF36F8FBFF34F8FFEE7036C002B48
:10204000E3D04FF0500383F31188BFF36F8FBFF3DA
:102050004F8FFEE700263EE039462046FFF7BFFDE2
:10206000013DA563236923B901F036FA012005B0CB
:10207000F0BD04F1100000F0A5FC0028F4D04FF0F2
:10208000E0234FF08052C3F8042DBFF34F8FBFF30E
:102090006F8FE9E701F020FA0020E8E702A800F0DE
:1020A000D7FC012621E0002384F8443029E00023F6
:1020B00084F845302BE02046FFF7A3FD00F062FBDB
:1020C00009E02046FFF79DFD00F05CFB2046FFF78E
:1020D0003EFD00283FD101F0DDF9A56B002DBBD1FD
:1020E000019B002BD6D0002ED8D001F0F5F900F0DE
:1020F000AFFA01F0CFF994F844305BB2B3F1FF3F8F
:10210000D1D094F845305BB2B3F1FF3FCFD001F0AE
:10211000E3F901A902A800F0A7FC0028D1D12046CC
:10212000FFF715FD0028C6D0019904F1240000F046
:1021300015FC2046FFF765FD00F024FB0028CAD1FE
:102140004FF0E0234FF08052C3F8042DBFF34F8FC0
:10215000BFF36F8FBFE7002089E700000023072B44
:102160000CD8074A52F833200AB10133F7E7044A82
:1021700042F8331002EBC30250607047704700BF53
:102180005801002070B504460D46164601F082F94C
:1021900094F844305BB2B3F1FF3F0DD094F8453072
:1021A0005BB2B3F1FF3F0BD001F096F9A36B5BB1CB
:1021B0002046FFF726FD70BD002384F84430EDE78C
:1021C000002384F84530EFE73246294604F1240025
:1021D00000F0DCFBECE70000084B1B681B6823B930
:1021E000074B4FF0FF321A607047044B1B68DB68E7
:1021F000DB685A68024B1A60704700BF9C010020E0
:10220000480600202DE9F04780460D4617469946BE
:10221000089EDDF824A00A9C9200A521206B01F005
:10222000A9FA236B07F18042013A03EB820727F0FA
:1022300007074FF0000CBCF10F0F09D815F80C3050
:1022400004EB0C0282F8343013B10CF1010CF2E70C
:10225000002384F84330372E00D93726E662E6643F
:1022600000252565201DFFF729FC04F11800FFF764
:1022700025FC2461C6F13806A6616462656584F8B0
:1022800058504A464146384601F0E0F82060BAF11D
:10229000000F01D0CAF80040BDE8F08738B500242F
:1022A00007E004EB840293000E481844FFF7FBFBA1
:1022B0000134372CF5D90C4D2846FFF7F4FB0B4CB5
:1022C0002046FFF7F0FB0A48FFF7EDFB0948FFF750
:1022D000EAFB0948FFF7E7FB084B1D60084B1C6051
:1022E00038BD00BFA40100201C06002030060020DD
:1022F000500600207C060020680600209C0100207B
:10230000A001002010B5044601F0C4F8224A136869
:1023100001331360214B1B685BB1214B1B686BB908
:102320001E4B1B68DA6AE36A9A4207D81B4B1C6093
:1023300004E01A4B1C601368012B29D0194A13685A
:10234000013313606364E06A174B1B68984201D93C
:10235000154B186000EB8000211D144B03EB80002F
:10236000FFF7AFFB01F0B8F80D4B1B687BB10B4BCF
:102370001B68DA6AE36A9A4209D24FF0E0234FF011
:102380008052C3F8042DBFF34F8FBFF36F8F10BD82
:10239000FFF784FFD2E700BF040600209801002069
:1023A000640600201406002018060020A401002066
:1023B00010B5044690F8593063B1012B11D0022BAF
:1023C0000ED04FF0500383F31188BFF36F8FBFF32C
:1023D0004F8FFEE7006B00F0D1FF204600F0CEFFEC
:1023E00010BD00F0CBFFFBE70F4B1B68D3B110B55E
:1023F00001F050F80D4BDB68DC68201DFFF785FB12
:102400000B4A1368013B1360074A1368013B1360D2
:1024100001F062F82046FFF7CBFF034B1B68002B4F
:10242000E6D110BD704700BF080600207C060020E2
:102430000406002008B5FFF7D7FF074B1B68012BE8
:10244000F9D94FF0E0234FF08052C3F8042DBFF3C9
:102450004F8FBFF36F8FEEE7A401002070B50446E5
:102460000D46174B1E68174B18680430FFF74DFBDD
:10247000B4F1FF3F0DD03444124B1B685C60A642A0
:1024800010D9114B18680F4B19680431FFF724FB62
:1024900070BD002DEFD00B4B196804310B48FFF7CE
:1024A00010FBF5E70A4B1868064B19680431FFF773
:1024B00013FB084B1B68A342EAD9064B1C60E7E7F5
:1024C0009006002098010020A0010020680600204E
:1024D0009C0100204806002030B587B00B9C7CB1E1
:1024E0000C9DB5B15C250495049D5C2D1AD04FF070
:1024F000500383F31188BFF36F8FBFF34F8FFEE755
:102500004FF0500383F31188BFF36F8FBFF34F8FEA
:10251000FEE74FF0500383F31188BFF36F8FBFF3D3
:102520004F8FFEE70C9D2C63022485F85940002450
:102530000394029505AC01940A9C0094FFF762FE97
:102540000C98FFF7DFFE059807B030BD2DE9F0438A
:1025500085B00746884614461E46900000F096FE59
:1025600000B381465C2000F091FE0546B0B1C0F892
:102570003090E5B1002385F85930039302950D9B07
:1025800001930C9B00933346224641463846FFF7A1
:1025900039FE2846FFF7B6FE012005E0484600F068
:1025A000EDFEE6E74FF0FF3005B0BDE8F0834FF0F9
:1025B000FF30F9E710B588B000240594069407AA07
:1025C00006A905A800F0E8FD059B0293069B019370
:1025D00000942346079A18491848FFF77DFF184BC7
:1025E000186040B100F04CFB012806D0B0F1FF3F6D
:1025F00018D008B010BD0020F6E74FF0500383F369
:102600001188BFF36F8FBFF34F8F0E4B4FF0FF3228
:102610001A600D4B01221A600C4B00221A6000F068
:10262000C3FFE6E74FF0500383F31188BFF36F8FCA
:10263000BFF34F8FFEE700BFF837000835240008CE
:102640004406002048060020640600209006002072
:10265000024A136801331360704700BF1006002060
:10266000014B1868704700BF90060020F8B53A4B40
:102670001B68002B64D1394B1D6801351D60C5B93D
:10268000374B1B681B6843B14FF0500383F311882D
:10269000BFF36F8FBFF34F8FFEE7314A1168314BA5
:1026A000186810601960304A136801331360FFF72F
:1026B00093FD2E4B1B68AB4238D900272C4B1B686F
:1026C000DB6A03EB83039A002A4B9B58012B3CD90E
:1026D00001273AE00127224B1B681B6843B3204BBC
:1026E0001B68DB68DC6863689D4226D3261D304684
:1026F000FFF70BFAA36A1BB104F11800FFF705FA04
:10270000E36A1D4A1268934201D91B4A136003EB26
:1027100083039A00314617481044FFF7D2F9E26A62
:10272000134B1B68DB6A9A42D4D2D4E70027D2E766
:102730000E4B4FF0FF321A60C0E70C4A1360BDE742
:102740000E4A13680133136000270D4B1B6803B159
:1027500001273846F8BD00BF100600209006002073
:102760009C010020A00100204C060020480600200B
:1027700098010020A4010020180600200C0600206B
:102780009406002038B5354B1B6843B94FF0500311
:1027900083F31188BFF36F8FBFF34F8FFEE700F015
:1027A00079FE2E4B1A68013A1A601B68002B4FD134
:1027B0002B4B1B680BB900244BE00024294B1B68F2
:1027C0001BB3284BDB68DC6804F11800FFF79DF9A8
:1027D000251D2846FFF799F9E06A234B1B689842AC
:1027E00001D9214B186000EB800029461F4B03EBF9
:1027F0008000FFF766F9E26A1D4B1B68DB6A9A42AC
:10280000DCD31C4B01221A60D8E70CB1FFF7E4FCC3
:10281000194B1C6884B9174B1C68D4B14FF0E023E6
:102820004FF08052C3F8042DBFF34F8FBFF36F8F6B
:1028300001240EE0013C07D0FFF718FF0028F9D073
:102840000C4B01221A60F5E70B4B00221A60E2E7FD
:10285000002400F041FE204638BD00BF10060020D5
:10286000040600205006002018060020A4010020C5
:1028700098010020940600200C06002010B5A8B195
:102880000446104B1B6843B14FF0500383F311888B
:10289000BFF36F8FBFF34F8FFEE7FFF7D9FE002125
:1028A0002046FFF7DBFDFFF76DFF48B94FF0E0234F
:1028B0004FF08052C3F8042DBFF34F8FBFF36F8FDB
:1028C00010BD00BF100600201F4B1B681BB11F4B23
:1028D00001221A6070471D4B00221A601C4B1B68B6
:1028E00003EB83018A001B498A585AB90BB1013B9B
:1028F000F6E74FF0500383F31188BFF36F8FBFF3F8
:102900004F8FFEE703EB830082000A445068406863
:10291000506003EB830C4FEA8C020832114488426A
:102920000BD003EB830291000A4A0A445268D16833
:10293000094A1160064A1360704740686246910078
:10294000044A0A445060ECE7100600209406002078
:1029500018060020A40100209801002058B110B5ED
:102960000C46094A11681831FFF7B6F801212046D4
:10297000FFF774FD10BD4FF0500383F31188BFF3D0
:102980006F8FBFF34F8FFEE79801002038B570B10D
:102990000D4614460A4A11681831FFF792F80CB137
:1029A0004FF0FF3521462846FFF758FD38BD4FF060
:1029B000500383F31188BFF36F8FBFF34F8FFEE790
:1029C0009801002038B5C368DC6824B304F1180509
:1029D0002846FFF79AF8184B1B682BBB251D284685
:1029E000FFF793F8E06A154B1B68984201D9134B27
:1029F000186000EB80002946114B03EB8000FFF7C5
:102A000060F8E26A0F4B1B68DB6A9A4211D9012019
:102A10000D4B186038BD4FF0500383F31188BFF39E
:102A20006F8FBFF34F8FFEE729460848FFF749F83D
:102A3000E7E70020EEE700BF1006002018060020A0
:102A4000A4010020980100209406002050060020D8
:102A5000034B1B680360034B1B684360704700BF58
:102A60004C06002090060020D8B170B50C460546F3
:102A700001B300F00FFD1B4B19686B68C81A226880
:102A8000B2F1FF3F27D0184E3668D5F800C0B445E4
:102A900001D08B4224D9824215D80023236001241F
:102AA0001AE04FF0500383F31188BFF36F8FBFF329
:102AB0004F8FFEE74FF0500383F31188BFF36F8F02
:102AC000BFF34F8FFEE75B1A134423602846FFF7DE
:102AD000BFFF002400E0002400F0FEFC204670BD93
:102AE0000124F9E7900600204C060020014B01224A
:102AF0001A60704794060020054B1B6833B1054BE4
:102B00001B680BB1002070470220704701207047FE
:102B1000640600201006002000283BD038B504468B
:102B20001E4B1B68834208D04FF0500383F311887B
:102B3000BFF36F8FBFF34F8FFEE7036D43B94FF0C5
:102B4000500383F31188BFF36F8FBFF34F8FFEE7FE
:102B5000013B0365C16AC26C91421DD00BB10020DC
:102B600038BD051D2846FEF7D0FFE06CE062C0F1DD
:102B70003803A3610A4B1B68984201D9084B1860BF
:102B800000EB80002946074B03EB8000FEF799FF1E
:102B90000120E5E7002070470020E1E798010020D0
:102BA00018060020A4010020064B1A681368B3FA27
:102BB00083F35B09036013B9D3681868704700207A
:102BC000704700BF9806002008B54160006191423F
:102BD0000CD8D21A83699A4201D3012008BD011D85
:102BE000094B1868FEF778FF0020F7E79A4201D2F8
:102BF000994206D2011D054B1868FEF76DFF0020B3
:102C0000ECE70120EAE700BF9C06002098060020C0
:102C100030B583B000F03EFC114B1B681BB100F0D7
:102C20005BFC03B030BD0F4D2846FEF73CFF0E4C59
:102C30002046FEF738FF0D4B1D600D4B1C60002336
:102C400000930C4B0C4A10210A20FFF764F8044B48
:102C500018600028E3D00949FFF780FADFE700BFDA
:102C6000BC070020400700205407002098060020E1
:102C70009C0600206C070020A006002000380008F9
:102C800010B588B0FFF7C4FF124B1B68CBB100240E
:102C90000594069407AA06A905A800F089FA059BE1
:102CA0000293069B0193022300932346079A0A4945
:102CB0000A48FFF711FC0A4B186010B1012008B058
:102CC00010BD4FF0500383F31188BFF36F8FBFF334
:102CD0004F8FFEE7BC07002008380008C12F00080E
:102CE000C0070020B8B19C4603461848006858B396
:102CF00000B585B000910192029305291CDCFFF715
:102D0000FBFE022810D000231A4669460F480068CF
:102D1000FFF74AF815E04FF0500383F31188BFF333
:102D20006F8FBFF34F8FFEE70023069A694607486F
:102D30000068FFF739F804E0002362466946FFF7B0
:102D4000F7F805B05DF804FB00207047BC070020D1
:102D500070B582B01A4B1B681A6852B3DB681E68E4
:102D6000DC68251D2846FEF7D0FE636A204698479A
:102D7000E369012BEED1A36933449E4207D263601D
:102D8000246129460E4B1868FEF7A6FEE2E70021F3
:102D900000910B4632462046FFF7A4FF0028D9D108
:102DA0004FF0500383F31188BFF36F8FBFF34F8F42
:102DB000FEE7044A106802490860136002B070BD63
:102DC000980600209C06002038B50546FFF748FC11
:102DD0000446074B1B68834205D800232B60044B35
:102DE0001C60204638BDFFF7B3FF01232B60F6E7D8
:102DF0006807002070B582B006460D461449096880
:102E0000C968CC68201DFEF780FEE169012904D065
:102E1000636A2046984702B070BDA16933462A46CE
:102E200031442046FFF7D0FE0028F1D00021009168
:102E30000B4632462046FFF755FF0028E8D14FF0F9
:102E4000500383F31188BFF36F8FBFF34F8FFEE7FB
:102E50009806002070B582B006460C46FFF7F8FBD6
:102E600001A8FFF7B1FF019B2BBB05460CB9B0428F
:102E70001AD22CB1124B1B681C68B4FA84F4640992
:102E80002246711B0F4B1868FFF77CF9FFF77AFC9D
:102E900098B94FF0E0234FF08052C3F8042DBFF3F0
:102EA0004F8FBFF36F8F08E0FFF76CFC2946304669
:102EB000FFF7A0FF01E0FFF765FC02B070BD00BFA7
:102EC0009C060020BC07002010B588B002E0049BDF
:102ED000002B0FDA002204A9384B1868FFF78EF890
:102EE000002869D0049B002BF1DA07990698059B0E
:102EF0009847ECE7069C636913B1201DFEF705FEB9
:102F000003A8FFF761FF049B092BE3D801A252F845
:102F100023F000BF3D2F00083D2F00083D2F000883
:102F2000D52E0008832F0008A92F00083D2F000888
:102F30003D2F0008D52E0008832F0008059BA169AE
:102F4000024619442046FFF73FFE0028C2D0636ABC
:102F500020469847E369012BBCD1A269002100916A
:102F60000B46059802442046FFF7BCFE0028B1D16D
:102F70004FF0500383F31188BFF36F8FBFF34F8F70
:102F8000FEE70599A16131B103460246014420469E
:102F9000FFF71AFE9EE74FF0500383F31188BFF34B
:102FA0006F8FBFF34F8FFEE794F82C30002B91D139
:102FB000204600F0E3F98DE708B010BDBC07002003
:102FC00000B583B001A8FFF7EFFD0199FFF742FFBD
:102FD000FFF77AFFF6E70000EFF3058393B9EFF30D
:102FE000108393B90C4B1868022804D080B90A4B9F
:102FF00001221A607047EFF31183002BF6D06FF0B7
:10300000050070476FF0050070476FF005007047CE
:103010004FF0FF30704700BF200A002008B5EFF3E3
:103020000583B3B9EFF31083B3B90E4B1B68022BC2
:1030300008D0012B13D10B4B02221A60FFF7BAFA0A
:10304000002008BDEFF31182002AF2D06FF00500D6
:10305000F7E76FF00500F4E76FF00500F1E74FF0D8
:10306000FF30EEE7200A0020F0B587B0002404947A
:10307000EFF30584002C43D1EFF31083002B3FD1F5
:10308000334B1B68022B16D0002839D000238DF853
:10309000173062B3156895B1936903B918235C1EA4
:1030A000372C51D8546814F0010F4FD156694EB1E6
:1030B0004FEA960C08E0EFF311830BBBE4E70DF148
:1030C0001705E9E74FF0800C94682CB1D7685B2FA7
:1030D00002D9176907B1B6B914B14FF0FF340CE04B
:1030E000D46894B914699CB14FF0FF3405E0002412
:1030F00018234FF0800C0DF11705012C0AD0ACB14C
:10310000049807B0F0BD0124F7E74FF0FF34F4E76F
:103110000024F2E7146992680292019400930B462E
:1031200062462946FFF7D8F90490E9E704AA01921C
:1031300000930B461FFA8CF22946FFF707FA012885
:10314000DED000230493DBE70020DAE70020D8E795
:10315000200A002008B5EFF30583A3B9EFF310832D
:10316000A3B90C4B1B68022B02D040B9002008BD4C
:10317000EFF31183002BF8D06FF00500F7E7FFF7AE
:103180007DFB0020F3E76FF00500F0E76FF005002E
:10319000EDE700BF200A0020034B0360034B0B60E8
:1031A00080231360704700BFC4090020C4070020BB
:1031B000034B0360034B0B604FF480731360704745
:1031C000240E0020240A0020124A12F0070F1ED0FD
:1031D000D11D21F00701C1F5406313440A460E4892
:1031E0000260002141601344083B23F007030B48B1
:1031F000036059601960991A51601360084B196097
:10320000084B1960084B4FF000421A6070474FF4AA
:103210004063E4E7840E0020901A0020800E002016
:103220008C1A0020881A0020841A0020154B1A4698
:103230001B688342FBD3516802EB010C844509D023
:10324000416800EB010C634509D00360904218D03F
:10325000106070474068014451601046F0E710B4B8
:10326000094C2468A3420AD05B6819444160136882
:103270001B680360904200D0106010BC704704606F
:10328000F8E77047901A0020800E002070B50546C0
:10329000FFF7DEF9344B1B68A3B1344B1B681D42AA
:1032A0004AD135B1083515F0070F02D025F00705D2
:1032B0000835002D42D02E4B1B68AB424DD32D4A12
:1032C000146804E0FFF780FFE7E722461C466368C6
:1032D000AB4202D22368002BF7D1234B1B68A342D9
:1032E0003DD0166808362368136063685B1B102B9B
:1032F00010D9601910F0070F08D04FF0500383F376
:103300001188BFF36F8FBFF34F8FFEE74360656097
:10331000FFF78CFF626816490B689B1A0B60164911
:1033200009688B4201D214490B60104B1B68134390
:1033300063600023236002E0002600E00026FFF720
:1033400021FA16F0070F0CD04FF0500383F31188C9
:10335000BFF36F8FBFF34F8FFEE70026EFE7002626
:10336000EDE7304670BD00BF800E0020841A0020BB
:10337000881A0020901A00208C1A002080B338B5DB
:103380000446A0F1080550F8043C164A126813429E
:1033900008D14FF0500383F31188BFF36F8FBFF351
:1033A0004F8FFEE750F8081C41B14FF0500383F3F4
:1033B0001188BFF36F8FBFF34F8FFEE723EA02033D
:1033C00040F8043CFFF744F954F8041C064A13681B
:1033D0000B4413602846FFF729FFFFF7D3F938BDE8
:1033E000704700BF841A0020881A002082B0002392
:1033F00001930D4B1B68B3F1FF3F08D04FF0500312
:1034000083F31188BFF36F8FBFF34F8FFEE74FF049
:10341000500383F31188BFF36F8FBFF34F8F019B6E
:10342000002BFCD002B070471C000020064800684A
:10343000006880F3088862B661B6BFF34F8FBFF3B0
:103440006F8F00DF00BF000008ED00E04FF08073D9
:1034500040F8043C21F0010140F8081C034B40F8FF
:103460000C3C40F8202C4038704700BFED3300087A
:10347000074B19680868B0E8F00F80F30988BFF3BC
:103480006F8F4FF0000080F311884EF00D0E7047E3
:10349000980100204FF0500383F31188BFF36F8F22
:1034A000BFF34F8F0B4A136801331360012B00D019
:1034B00070474FF0E023D3F8043D13F0FF0FF7D02F
:1034C0004FF0500383F31188BFF36F8FBFF34F8F1B
:1034D000FEE700BF1C000020094B1B6843B94FF0FA
:1034E000500383F31188BFF36F8FBFF34F8FFEE755
:1034F000013B034A13600BB983F31188704700BF87
:103500001C0000200000000000000000000000007F
:10351000EFF30980BFF36F8F0D4B1A6820E9F00FAE
:1035200010602DE908404FF0500080F31188FFF73C
:10353000CBF94FF0000080F31188BDE8084019680E
:103540000868B0E8F00F80F30988BFF36F8F704709
:103550009801002008B54FF0500383F31188BFF3A2
:103560006F8FBFF34F8FFFF781F828B14FF0E02343
:103570004FF08052C3F8042D002383F3118808BD57
:103580004FF0E022002313619361054B1B6805494E
:10359000A1FB03139B09013B536107231361704790
:1035A00018000020D34D621010B582B02A4B1A7853
:1035B000D2B20192FF221A701B78DBB28DF8033071
:1035C0009DF8033003F05003244A1370244B072264
:1035D0001A6009E0224A1368013B13609DF803302A
:1035E0005B00DBB28DF803309DF8033013F0800FE1
:1035F000F0D11B4B1B68032B08D04FF0500383F313
:103600001188BFF36F8FBFF34F8FFEE71B02144A81
:10361000136003F4E0631360019BDBB20E4A137086
:103620004FF0E023D3F8202D42F47002C3F8202D90
:10363000D3F8202D42F07042C3F8202DFFF7A0FFF1
:103640000024084B1C60FFF7F1FEFFF73DF9FFF780
:10365000CDFE204602B010BD00E400E0981A002024
:103660009C1A00201C000020EFF305830F2B0FD9BC
:10367000114A9B5CDBB2114A12789A4208D94FF08A
:10368000500383F31188BFF36F8FBFF34F8FFEE7B3
:103690004FF0E023D3F80C3D03F4E063084A1268CE
:1036A000934208D94FF0500383F31188BFF36F8F13
:1036B000BFF34F8FFEE77047F0E300E0981A002059
:1036C0009C1A00200C480D490D4A002302E0D458F2
:1036D000C4500433C4188C42F9D30A4A0A4C00235C
:1036E00001E013600432A242FBD3FEF7DBF900F0E5
:1036F0000FF8FCF791FD704700000020200000202B
:103700001838000820000020A01A0020FEE7000062
:1037100070B500260C4D0D4C641BA410A64209D1B7
:1037200000F030F800260A4D0A4C641BA410A64293
:1037300005D170BD55F8043B98470136EEE755F8C2
:10374000043B98470136F2E71038000810380008AB
:1037500010380008143800080A44914200F1FF3381
:1037600000D1704710B511F8014B914203F8014F99
:10377000F9D110BD03460244934200D1704703F8CB
:10378000011BF9E7F8B500BFF8BC08BC9E467047BE
:0C379000F8B500BFF8BC08BC9E467047AE
:10379C0064656661756C745461736B009C370008CA
:1037AC00000000000000000000000000000000000D
:1037BC0000020000180000000000000000000000E3
:1037CC0002030405060708090A0B0C0D0E0F101056
:1037DC0000000000000000000000000001020304D3
:1037EC0006070809000000000102030449444C4587
:1037FC0000000000546D725100000000546D7220E6
:04380C00537663008C
:043810007901000832
:043814005101000856
:1038180068656C6C6F20776F726C642121210D0ACA
:1038280000010000100000000024F400AAAAAAAABF
:04000005080036C5F4
:00000001FF
