:020000040800F2
:100000000040002021370008DD170008DF17000836
:10001000E1170008E3170008E517000800000000DA
:10002000000000000000000000000000E7170008CA
:10003000E917000800000000EB170008ED170008A2
:1000400071370008713700087137000871370008F0
:1000500071370008713700087137000871370008E0
:1000600071370008713700087137000871370008D0
:1000700071370008713700087137000871370008C0
:100080007137000871370008713700080000000060
:1000900000000000000000000000000071370008B0
:1000A0007137000871370008713700087137000890
:1000B00071370008000000000000000071370008E0
:1000C0007137000871370008713700080000000020
:1000D0007137000871370008713700087137000860
:1000E00071370008713700080000000000000000B0
:1000F0000000000000000000000000000000000000
:10010000000000000000000000000000713700083F
:10011000000000000000000071370008000000002F
:1001200000000000000000000000000000000000CF
:1001300000000000000000000000000000000000BF
:10014000713700087137000800000000000000004F
:10015000000000000000000000000000000000009F
:10016000713700087137000800000000000000002F
:10017000000000000000000000000000000000007F
:080180000000000071370008C7
:1001C0000348044B834202D0034B03B118477047E6
:1001D0007000002070000020000000000548064963
:1001E0000B1AD90F01EBA301491002D0034B03B145
:1001F00018477047700000207000002000000000C9
:1002000010B5064C237843B9FFF7DAFF044B13B15E
:100210000448AFF300800123237010BD700000205C
:10022000000000007437000808B5044B1BB10449F6
:100230000448AFF30080BDE80840CFE700000000AD
:10024000740000207437000870B50D4E0D4D761BFC
:10025000B61006D0002455F8043B01349847A64256
:10026000F9D1094E094D761B03F084FAB61006D079
:10027000002455F8043B01349847A642F9D170BDDB
:10028000A0380008A0380008A4380008A0380008EA
:10029000830730B548D0541E002A3FD0CAB2034667
:1002A00001E0013C3AD303F8012B9D07F9D1032C5F
:1002B0002DD9CDB245EA05250F2C45EA054536D99D
:1002C000A4F1100222F00F0C03F1200EE6444FEAD5
:1002D000121C03F1100242E9045542E902551032A2
:1002E0007245F8D10CF1010214F00C0F03EB02126D
:1002F00004F00F0C13D0ACF1040323F00303043318
:10030000134442F8045B9342FBD10CF003042CB17C
:10031000CAB21C4403F8012B9C42FBD130BD644699
:100320001346002CF4D1F9E703461446BFE71A46FA
:10033000A446E0E70CB410B59CB01EAB6FF00044CF
:10034000CDE906140291084953F8042B059102A93E
:100350000193049400F080F9029B00221A701CB0F3
:10036000BDE8104002B070470802FFFF0EB410B5A0
:100370009DB06FF000411FABCDE906010491094922
:1003800053F8042B0290084C0868019302A90594C5
:1003900000F062F9029B00221A701DB0BDE8104007
:1003A00003B07047000000200802FFFF00000000BB
:1003B000000000000000000000000000000000003D
:1003C00090F800F06DE9024520F007016FF0000C95
:1003D00010F0070491F820F040F049804FF000043D
:1003E0006FF00700D1E9002391F840F000F1080018
:1003F00082FA4CF2A4FA8CF283FA4CF3A2FA8CF350
:100400004BBBD1E9022382FA4CF200F10800A4FAB6
:100410008CF283FA4CF3A2FA8CF3E3B9D1E904230A
:1004200082FA4CF200F10800A4FA8CF283FA4CF341
:10043000A2FA8CF37BB9D1E9062301F1200182FAFB
:100440004CF200F10800A4FA8CF283FA4CF3A2FA01
:100450008CF3002BC6D0002A04BF04301A4612BA0F
:10046000B2FA82F2FDE8024500EBD2007047D1E912
:10047000002304F00305C4F100004FEAC50514F0A1
:10048000040F91F840F00CFA05F562EA05021CBF72
:1004900063EA050362464FF00004A9E72DE9F0473F
:1004A0008F689F420C461D46164638D8824688897A
:1004B00010F4906F0ED108683D462A46314600F090
:1004C000C1FCA2682368D21B2B44A26023600020D9
:1004D000BDE8F0874B69096903EB4308236808EB23
:1004E000D878A3EB01096B1C4FEA68084B444345DD
:1004F000424684BF98464246430513D511465046AE
:1005000000F07EFD074608B321694A4600F000FC72
:10051000A38923F4906343F08003A38107E0086874
:100520001F46CAE7504600F0C5FD074650B107EB2D
:100530000900A8EB09032761C4F81480A3602060B8
:100540002F46BAE72169504600F0F8FC0C23CAF8A0
:100550000030A38943F040034FF0FF30A381B7E799
:100560002DE9F04F936883B09146002B6ED0176849
:100570008D6880460C460868083744E0A38913F468
:10058000906F2ED0D4E90415A0EB010A05EB4505C8
:1005900005EBD5750AEB06006D100130A8422A461E
:1005A00084BF05462A465B0537D51146404600F014
:1005B00027FD00283BD052462169019000F0A8FB9E
:1005C000A289019B22F4906242F08002A281A5EBF5
:1005D0000A0203EB0A006561A260236120603546D0
:1005E000B2465946524600F02DFCA068D9F80810D2
:1005F0002368451B8E1B03EB0A00A5602060C9F829
:1006000008601EB3083757E902B6002EFAD0B5428B
:10061000AA46B3D93546B246E3E7404600F04AFD64
:1006200003460028D3D12169404600F087FC0C2303
:10063000C8F80030A389002243F040034FF0FF3098
:10064000A381C9E9012203B0BDE8F08F0020C9F8F9
:10065000040003B0BDE8F08F2DE9F04F92468A897F
:1006600015069DB0884681461C4603D50A69002AB6
:1006700000F0EF80002209929AF800307E4D03943A
:1006800020228DF8292030228DF82A200126002BE7
:1006900072D0544603E014F8013F002B76D0252B8E
:1006A000F9D1B4EB0A0B74D12278002A64D000236C
:1006B0004FF0FF32CDE90523049307938DF85330B3
:1006C0001A93013404E0049A06FA03F313430493E3
:1006D000A246052214F8011B284600F0C9FA431B64
:1006E0000028F0D1049BD80644BF20228DF8532067
:1006F00019079AF8001044BF2B228DF853202A299D
:1007000054D1039A11680432002903927CDB0791CB
:100710009AF801100AF1010A2E2959D0574C0322E8
:10072000204600F0A5FA40B1049B001B402404FAC7
:1007300000F0034304930AF1010A1AF8011B504820
:100740008DF82810062200F093FA002862D04D4B55
:10075000002B52D003AA00924B4B424604A94846B4
:10076000AFF3008007467A1C06D0099B3B440993EF
:100770009AF80030002B8CD1B8F80C305B0654BFCF
:1007800009984FF0FF301DB0BDE8F08FB4EB0A0BB5
:10079000F2D05B46524641464846FFF77FFE0130A5
:1007A000EAD0099B22785B4409937EE7A1F13002ED
:1007B000092AB1D8079B1AF8011F03EB830302EB48
:1007C0004303A1F13002092AF5D92E290793A5D1B7
:1007D0009AF801102A2927D1039B9AF802101A6867
:1007E00005920433002A0AF102000393B8BF4FF0C8
:1007F000FF338246B8BF059390E7039B073323F08E
:10080000070308330393B0E7494243F0020307911B
:1008100004937DE703AA00921B4B424604A9484675
:1008200000F0CAF807469EE7A1F130020023092A2A
:1008300005930AF1010A3FF671AF1AF8011F03EBA5
:10084000830302EB4303A1F13002092AF5D9059392
:1008500064E7402100F0D4FBC8F80000C8F810009D
:1008600018B14022C8F8142004E70C23C9F800305E
:100870004FF0FF3087E700BF643800086C3800088D
:1008800070380008000000009D0400082DE9F84FB2
:1008900092461F460A698B68DDF828909A42B8BFD5
:1008A0001A46CAF8002091F843300C46064613B1A8
:1008B0000132CAF80020226891065DD5DAF80030CE
:1008C0000233CAF80030226812F0060F11461ED11A
:1008D000E168CB1A002BD8BF114618DD04F1190BC3
:1008E0004FF0000805E0E568DAF80030ED1A4545FC
:1008F0000CDD01235A4639463046C847013008F11D
:100900000108F0D14FF0FF30BDE8F88F216894F86E
:100910004330003B18BF01238A060AD5E1185A1C50
:10092000302081F84300224494F8451082F84310A7
:10093000023304F1430239463046C8470130E1D062
:10094000236803F00603042B1DD0A3682269934299
:1009500025DD4FF000089B1A98441A34002501E069
:1009600045451CDA0123224639463046C847013046
:1009700005F10105F4D1C5E712F0060F12D0003BD6
:1009800018BF0123D5E7DAF80030E1682269C91AF7
:10099000A368934221EAE178DDDC0029DDDC002058
:1009A000BDE8F88FE168DAF80030CB1A002BD8BF29
:1009B000114693DCABE700BF2DE9F0470C4684B04D
:1009C0009046227E0C990746994604F14300002A7E
:1009D00033D0A2F15803DDB2202D67D8202B65D883
:1009E000DFE813F0DE00640064006400640064006B
:1009F00064006400640064006400A3006E0064008E
:100A00006400640064006E006400640064006400BC
:100A100021007F00C00064006400AE0064007F001D
:100A200064006400E50023681A0640F104810B6845
:100A300062691D1D0D601B681A60002382462361D8
:100A4000CDF80090434603AA21463846FFF71EFF23
:100A5000013020D02369524641463846C84701300C
:100A600019D02368E068039E9B0719D5831B002BD0
:100A700016DD04F1190A002504E0E068039E831BDB
:100A8000AB420DDD0123524641463846C84701308E
:100A900005F10105F1D14FF0FF3004B0BDE8F0875A
:100AA000B042B8BF304604B0BDE8F087012384F8F7
:100AB0004220236104F1420A002384F84330BFE757
:100AC00023681A0602D45E0600F1C1800D682A6808
:100AD00004350D601546002A6BDBDFF884C10A2659
:100AE00010E023681D0640F19C800B681D1D0D6001
:100AF0001D68DFF86CC16F2A0CBF08260A26002388
:100B000084F843306268A260002A7FDB236823F008
:100B100004032360002D5BD1002A79D18246082E80
:100B200065D0A0EB0A0020618AE70B6801221868F3
:100B300004330B6004F1420A84F842002261BBE7EF
:100B40000B686268181D0860D3F800A000215046A9
:100B500000F08EF8002800F08180A0EB0A006060B1
:100B60002061A9E7236843F0200323607822DFF89F
:100B7000F4C084F845200A68151D0D601D0643D495
:100B8000590641D51588DE0744BF43F02003236092
:100B9000002D44D1236823F0200323601026AEE704
:100BA000582384F84530DFF8B8C02368E3E72368AA
:100BB000DCE76268A2602D21002AC5F1000584F8F7
:100BC000431002DB23F004032360DFF894C00A26FD
:100BD0008246B5FBF6F306FB13512A461CF80110BA
:100BE0000AF8011DB2421D46F3D2082E99D123689E
:100BF000D90796D5626823699A4292DC30230AF8B5
:100C0000013C0AF1FF3A8CE71568BCE7002DDFD103
:100C10009CF8003084F8423004F1420A7FE7102645
:100C20006DE713F0400F0B6803F104050D600CBF76
:100C30001D681D885DE713F0400F0B68626903F1C2
:100C400004050D601B6814BF1A801A60F5E60A6877
:100C5000B2F9005004320A602A463CE760687FE738
:100C6000783800088C380008000000000000000000
:100C700001F0FF01102A2BDB10F0070F08D010F84D
:100C8000013B013A8B422DD010F0070F42B3F6D151
:100C9000F0B441EA012141EA014122F007047FF06A
:100CA00000070023F0E80256083C85EA010586EAC1
:100CB000010685FA47F5A3FA87F586FA47F6A5FAFD
:100CC00087F68EB9EED1F0BC01F0FF0102F0070209
:100CD00032B110F8013B013A83EA010313B1F8D1B4
:100CE0000020704701387047002D06BF3546033895
:100CF000073815F0010F07D1013015F4807F02BFCE
:100D0000013015F4C03F0130F0BC0138704700BF1E
:100D1000844641EA000313F003036DD1403A41D306
:100D200051F8043B40F8043B51F8043B40F8043BC5
:100D300051F8043B40F8043B51F8043B40F8043BB5
:100D400051F8043B40F8043B51F8043B40F8043BA5
:100D500051F8043B40F8043B51F8043B40F8043B95
:100D600051F8043B40F8043B51F8043B40F8043B85
:100D700051F8043B40F8043B51F8043B40F8043B75
:100D800051F8043B40F8043B51F8043B40F8043B65
:100D900051F8043B40F8043B51F8043B40F8043B55
:100DA000403ABDD2303211D351F8043B40F8043BF5
:100DB00051F8043B40F8043B51F8043B40F8043B35
:100DC00051F8043B40F8043B103AEDD20C3205D305
:100DD00051F8043B40F8043B043AF9D2043208D0FD
:100DE000D2071CBF11F8013B00F8013B01D30B886F
:100DF00003806046704700BF082A13D38B078DD04D
:100E000010F003038AD0C3F10403D21ADB071CBF1E
:100E100011F8013B00F8013B80D331F8023B20F888
:100E2000023B7BE7043AD9D3013A11F8013B00F8C1
:100E3000013BF9D20B7803704B7843708B78837049
:100E40006046704788420DD98B1883420AD900EB5F
:100E5000020CBAB1624613F801CD02F801CD9942F5
:100E6000F9D170470F2A0ED8034602F1FF3C4AB170
:100E70000CF1010C013B8C4411F8012B03F8012FFC
:100E80006145F9D1704740EA01039B0750D1A2F1B7
:100E9000100370B501F1200C23F00F0501F1100EC5
:100EA00000F11004AC441B095EF8105C44F8105CBF
:100EB0005EF80C5C44F80C5C5EF8085C44F8085C76
:100EC0005EF8045C44F8045C0EF1100EE64504F193
:100ED0001004E9D1013312F00C0F01EB031102F001
:100EE0000F0400EB031327D0043C24F003064FEA61
:100EF000940C1E441C1F8E465EF8045B44F8045F8D
:100F0000B442F9D10CF1010402F0030203EB8403B3
:100F100001EB840102F1FF3C4AB10CF1010C013BF1
:100F20008C4411F8012B03F8012F6145F9D170BDF4
:100F300002F1FF3C03469BE72246EBE7002958D02D
:100F400030B551F8043C83B0002BA1F10404B8BFC4
:100F5000E418019000F0E8F8284A0198136833B1CA
:100F6000A3420DD9216804EB010C63452FD06360C7
:100F7000146003B0BDE8304000F0D8B8A34210D8E8
:100F80001A465B68002BF9D1116802EB010C64452D
:100F900019D02FD36360546003B0BDE8304000F037
:100FA000C5B8116802EB010CA44516D022D82168FF
:100FB00004EB010C6345EDD11D685B682944C4E96D
:100FC00000135460D5E7236819441160D1E71D6808
:100FD0005B682944C4E90013CAE724682144541813
:100FE000A3421160C5D1D3E900432144C2E90013F3
:100FF000BFE770470C230360BBE700BF8C000020F5
:10100000F8B5CD1C25F0030508350C2D38BF0C258F
:10101000002D064623DBA94221D8254F00F084F895
:101020003A6822B3144603E063682246FBB11C46CB
:1010300023685B1BF8D40B2B15D8636894420CBF54
:101040003B605360304600F071F804F10B00231D43
:1010500020F00700C21A01D01B1AA350F8BD0C23C0
:1010600033600020F8BD23601C442560EAE77968FE
:10107000C9B12946304600F045F8431C0CD0C41CC9
:1010800024F00304A04205D0211A304600F03AF8BB
:10109000013001D02560D5E70C233046336000F0E5
:1010A00045F80020F8BD304600F02CF87860E0E705
:1010B0008C000020F8B51446F9B1CAB106460D46B9
:1010C00000F036F8A04202D32F463846F8BD21463C
:1010D0003046FFF795FF07460028F6D022462946FE
:1010E000FFF716FE30462946FFF728FF3846F8BDC1
:1010F0002746FFF723FF3846F8BDBDE8F840114604
:10110000FFF77EBF38B5074D0022044608462A6027
:1011100000F018F8431C00D038BD2B68002BFBD022
:10112000236038BD94000020704700BF704700BFA7
:1011300051F8040C0028A0F10400BCBF0B58C018E3
:10114000704700BF044A05491368002B08BF0B46CF
:10115000184410601846704798000020780100205D
:1011600081F0004102E000BF83F0004330B54FEA58
:1011700041044FEA430594EA050F08BF90EA020FC5
:101180001FBF54EA000C55EA020C7FEA645C7FEA58
:10119000655C00F0E2804FEA5454D4EB5555B8BF7B
:1011A0006D420CDD2C4480EA020281EA030382EAEC
:1011B000000083EA010180EA020281EA0303362D7E
:1011C00088BF30BD11F0004F4FEA01314FF4801C51
:1011D0004CEA113102D0404261EB410113F0004F63
:1011E0004FEA03334CEA133302D0524263EB43031A
:1011F00094EA050F00F0A780A4F10104D5F1200EB8
:101200000DDB02FA0EFC22FA05F2801841F1000112
:1012100003FA0EF2801843FA05F359410EE0A5F1E6
:1012200020050EF1200E012A03FA0EFC28BF4CF017
:10123000020C43FA05F3C01851EBE37101F00045CD
:1012400007D54FF0000EDCF1000C7EEB00006EEBDA
:101250000101B1F5801F1BD3B1F5001F0CD3490864
:101260005FEA30004FEA3C0C04F101044FEA4452BB
:1012700012F5800F80F09A80BCF1004F08BF5FEA42
:10128000500C50F1000041EB045141EA050130BD22
:101290005FEA4C0C404141EB0101013C28BFB1F534
:1012A000801FE9D291F0000F04BF01460020B1FA7F
:1012B00081F308BF2033A3F10B03B3F120020CDA52
:1012C0000C3208DD02F1140CC2F10C0201FA0CF030
:1012D00021FA02F10CE002F11402D8BFC2F1200C95
:1012E00001FA02F120FA0CFCDCBF41EA0C0190404B
:1012F000E41AA2BF01EB0451294330BD6FEA040494
:101300001F3C1CDA0C340EDC04F11404C4F120027E
:1013100020FA04F001FA02F340EA030021FA04F390
:1013200045EA030130BDC4F10C04C4F1200220FAE7
:1013300002F001FA04F340EA0300294630BD21FA25
:1013400004F0294630BD94F0000F83F4801306BFEB
:1013500081F480110134013D4EE77FEA645C18BFDF
:101360007FEA655C29D094EA050F08BF90EA020F76
:1013700005D054EA000C04BF1946104630BD91EA6E
:10138000030F1EBF0021002030BD5FEA545C05D171
:101390004000494128BF41F0004130BD14F58004B0
:1013A0003CBF01F5801130BD01F0004545F0FE4124
:1013B00041F470014FF0000030BD7FEA645C1ABF59
:1013C000194610467FEA655C1CBF0B46024650EA90
:1013D000013406BF52EA033591EA030F41F40021BC
:1013E00030BD00BF90F0000F04BF0021704730B542
:1013F0004FF4806404F132044FF000054FF0000117
:1014000050E700BF90F0000F04BF0021704730B5D7
:101410004FF4806404F1320410F0004548BF4042AC
:101420004FF000013EE700BF42004FEAE2014FEA01
:1014300031014FEA02701FBF12F07F4393F07F4FDC
:1014400081F06051704732F07F4208BF704793F0DF
:101450007F4F04BF41F40021704730B54FF46074F2
:1014600001F0004521F000411CE700BF50EA0102F5
:1014700008BF704730B54FF000050AE050EA01029E
:1014800008BF704730B511F0004502D5404261EB0E
:1014900041014FF4806404F132045FEA915C3FF44F
:1014A000D8AE4FF003025FEADC0C18BF03325FEAEC
:1014B000DC0C18BF033202EBDC02C2F1200300FA9D
:1014C00003FC20FA02F001FA03FE40EA0E0021FAC2
:1014D00002F11444BDE600BF10B50446FEF770FFEC
:1014E00082B22146014801F0E7FE10BDE80000206D
:1014F00072B6FEE700B59DB02822002112A8FEF7C3
:10150000C7FE00210D910E910F9110911191302283
:1015100001A8FEF7BDFE032312934FF4803313930B
:101520000122169210221792022219921A934FF456
:10153000E0131B9312A800F0C7FFC0B90F230D934F
:1015400002210E9100230F934FF4806210921193A9
:101550000DA801F00BFB60B9202301930023049335
:1015600001A801F009FC30B91DB05DF804FBFFF7DC
:10157000BFFFFFF7BDFFFFF7BBFF000000B5CDB019
:1015800000F06AFF294B93E8030011908DF8481092
:101590005F2200210DF14900FEF77AFEFFF7AAFF56
:1015A00000F048F800F068F800F0C6F800F03AF9EA
:1015B00043A800F045FB4398FFF736FF04460D466D
:1015C0004B98FFF731FFCDE90E014A98FFF72CFF4A
:1015D000CDE90C014998FFF727FFCDE90A014898AA
:1015E000FFF722FFCDE908014798FFF71DFFCDE97E
:1015F00006014698FFF718FFCDE904014598FFF76B
:1016000013FFCDE902014498FFF70EFFCDE9000179
:1016100022462B4606492AA8FEF7A8FE2AA8FFF76D
:101620005BFF11A8FFF758FFC2E700BF8C37000827
:10163000F037000884B00F4B5A6942F480025A61B7
:101640005A6902F480020192019A5A6942F4802296
:101650005A615A6902F480220292029A5A6942F44B
:1016600000325A615B6903F400330393039B04B0B7
:10167000704700BF0010024008B51248124B0360CB
:10168000124B4360002383600122C2600361436107
:101690008361C361036200F055FC50B90021094821
:1016A00000F05AFE40B90021064800F083FE30B930
:1016B00008BDFFF71DFFF1E7FFF71AFFF3E7FFF79C
:1016C00017FFF5E79C000020005400400E090020A1
:1016D00010B588B0002303930493059306930793F2
:1016E0000268124B9A4201D008B010BD104C6369D9
:1016F00043F480236361636903F480230193019BB6
:10170000C023039312230493032306930423079314
:1017100003A9084801F03EFCE36943F40013E361C8
:10172000E36903F400130293029BDDE700540040D9
:10173000001002400004004808B50B480B4B036042
:101740004FF41643436000238360C36003610C229F
:1017500042618361C3610362436201F0A6FF00B985
:1017600008BDFFF7C5FEFBE7E80000200048004089
:1017700000B589B000230393049305930693079360
:101780000268144B9A4202D009B05DF804FB03F5DD
:10179000E433DA6942F48022DA61DA6902F4802201
:1017A0000192019A5A6942F480225A615B6903F4FA
:1017B00080230293029B4FF440630393022304931C
:1017C000032306930723079303A9034801F0E2FBD1
:1017D000DAE700BF0048004000040048FEE7FEE7EB
:1017E000FEE7FEE7FEE770477047704708B500F078
:1017F00045FE08BD82B00A4B9A6942F001029A6127
:101800009A6902F001020092009ADA6942F080526D
:10181000DA61DB6903F080530193019B02B07047EA
:10182000001002402DE9F04387B04FF000088DF81A
:10183000178001248DF81740844D4FF47A77029772
:1018400001940DF11706009623466A22D0212846FE
:1018500000F0D6FB052000F023FE029701940096CD
:1018600023467522D021284600F09EFC052000F07A
:1018700017FE8DF8174002970194009623466B22BD
:10188000D021284600F0BCFB052000F009FE8DF8B1
:10189000178002970194009623461A22D0212846E9
:1018A00000F0AEFB052000F0FBFD4FF008098DF8BD
:1018B000179002970194009623461B22D0212846B8
:1018C00000F09EFB052000F0EBFD8DF817900297CD
:1018D0000194009623461C22D021284600F090FB5C
:1018E000052000F0DDFD8DF8179002970194009619
:1018F00023461D22D021284600F082FB052000F05F
:10190000CFFD02238DF817300297019400962346ED
:101910003722D021284600F073FB052000F0C0FDDF
:101920008DF8178002970194009623466C22D021EF
:10193000284600F065FB052000F0B2FD8DF8178009
:1019400002970194009623460B221821284600F0A6
:1019500057FB052000F0A4FD12238DF817300297E5
:101960000194009623460A221821284600F048FBDD
:10197000052000F095FD02970194009623461C2255
:10198000D021284600F010FC052000F089FD9DF8CC
:10199000173003F01803182B12D8DFE803F00D11ED
:1019A00011111111111136111111111111113B11D8
:1019B0001111111111114000254B4FF08D421A6089
:1019C0004FF47A730293012301930DF117020092F1
:1019D0001B22D0211D4800F0E7FB052000F060FD30
:1019E0009DF8173003F01803182B20D8DFE803F018
:1019F0001C1F1F1F1F1F1F1F221F1F1F1F1F1F1FF7
:101A0000261F1F1F1F1F1F1F2A00114B4FF08C4244
:101A10001A60D5E70E4B4FF08B421A60D0E70C4BA3
:101A20004FF08A421A60CBE70A4B0B4A1A6007B0A4
:101A3000BDE8F083074B094A1A60F8E7054B084AEE
:101A40001A60F4E7034B074A1A60F0E79C00002095
:101A50006C0100207001002000000343000083425D
:101A6000333303423333834110B588B004464FF417
:101A70007A7302930623019306AB009301233B2262
:101A8000D0211E4800F090FB052000F009FD002148
:101A90000FE04A0008AB03EB410010F8083C1B02C2
:101AA0001BB221326A4412F8082C134320F8103C70
:101AB00001310229EDDDBDF9103007EE103A104B6F
:101AC000D3ED007AB8EEC77AC7EE276AC4ED006A94
:101AD000BDF9123007EE103AB8EEC77AC7EE276AA2
:101AE000C4ED016ABDF9143007EE103AB8EEC77ABA
:101AF000C7EE276AC4ED026A08B010BD9C00002042
:101B00006C01002010B588B004464FF47A7302933C
:101B10000623019306AB009301234322D0211E48E4
:101B200000F042FB052000F0BBFC00210FE04A0062
:101B300008AB03EB410010F8083C1B021BB221323A
:101B40006A4412F8082C134320F8103C0131022992
:101B5000EDDDBDF9103007EE103A104BD3ED007AF1
:101B6000B8EEC77AC7EE276AC4ED036ABDF9123032
:101B700007EE103AB8EEC77AC7EE276AC4ED046ADA
:101B8000BDF9143007EE103AB8EEC77AC7EE276AEF
:101B9000C4ED056A08B010BD9C0000207001002053
:101BA00010B588B004464FF47A730293062301936C
:101BB00006AB00930123032218211F4800F0F4FA1A
:101BC000052000F06DFC00210FE04A0002F1210326
:101BD0006B4413F8083C1B021BB220326A4412F813
:101BE000080C034322F8103C01310229EDDDBDF958
:101BF000123007EE903AF8EEE77A9FED107AC7EED2
:101C0000876AC4ED066ABDF9103007EE903AF8EE27
:101C1000E77AC7EE876AC4ED076ABDF9143006EEAD
:101C2000903AF8EEE66AC6EE877AF1EE677AC4ED8E
:101C3000087A08B010BD00BF9C0000200681153E48
:101C400010B50446FFF710FF2046FFF75BFF204664
:101C5000FFF7A6FF10BD03689A6912F0020F01D0CA
:101C600000229A6203689A6912F0010F03D19A69FF
:101C700042F001029A61704730B4029D04686068C6
:101C80004FEA555C0CF4806C4CF07F7C4CF4583C73
:101C90004CF47F7C4CF0030C20EA0C00C1F30901EA
:101CA00041EA0241194329430143616030BC704756
:101CB000F8B50E460368996911F0100F46D0054635
:101CC00017465A6812F0007F03D15A6842F48042E6
:101CD0005A602B689C6914F0200F17D1B6F1FF3FB2
:101CE000F7D000F0D7FBC01BB04201D8002EF0D1D6
:101CF0006B6C43F020036B64202385F84130002394
:101D000085F8423085F84030012020E01022DA6169
:101D10002B682024DC612846FFF79DFF2A68536862
:101D200023F0FF7323F48B3323F4FF7323F00103B9
:101D300053606B6C43F004036B6485F841400023EF
:101D400085F8423085F84030012000E00020F8BDE1
:101D500070B504460D46164623689B6913F0020FC2
:101D60001DD1324629462046FFF7A2FFC8B9B5F17A
:101D7000FF3FF1D000F08EFB801BA84201D8002D60
:101D8000EAD1636C43F020036364202384F841307C
:101D9000002384F8423084F84030012000E0002025
:101DA00070BD0120FCE72DE9F04106468846174644
:101DB0001D463468A46938EA04030CBF4FF0010CD7
:101DC0004FF0000CBC4518D1B5F1FF3FF1D000F049
:101DD00061FB069BC01AA84201D8002DE9D1736CA3
:101DE00043F020037364202386F84130002386F8F3
:101DF000423086F84030012000E00020BDE8F0814C
:101E00002DE9F04182B0044690461D46089E099F88
:101E1000194B00934FF08073EAB2FFF72DFF3A465B
:101E200031462046FFF794FFF8B9012D0ED1236803
:101E30005FFA88F29A62009733460022802120469A
:101E4000FFF7B1FFA8B902B0BDE8F08123684FEAFF
:101E500018229A623A4631462046FFF779FF30B998
:101E600023685FFA88F29A62E5E70120EBE7012038
:101E7000E9E70120E7E700BF002000802DE9F041FD
:101E800082B0044690461D46089E099F184B009359
:101E90000023EAB2FFF7F0FE3A4631462046FFF74C
:101EA00057FFF8B9012D0ED123685FFA88F29A62C4
:101EB00000973346002240212046FFF774FFA8B95F
:101EC00002B0BDE8F08123684FEA18229A623A46D0
:101ED00031462046FFF73CFF30B923685FFA88F2AD
:101EE0009A62E5E70120EBE70120E9E70120E7E757
:101EF0000020008070B505460C4616462B689B698D
:101F000013F0200F1AD1324621462846FFF7D0FEA3
:101F1000B0B900F0BFFA801BA04201D8002CEDD16F
:101F20006B6C43F020036B64202385F84130002361
:101F300085F8423085F84030012070BD0020FCE774
:101F40000120FAE7002859D010B5044690F8413036
:101F5000002B43D0242384F841302268136823F0F7
:101F6000010313606368226823F0706313612268C1
:101F7000936823F400439360E368012B33D0A36894
:101F8000226843F404439360E368022B31D0226853
:101F9000536843F0007343F4004353602268D368EE
:101FA00023F40043D360236962691343A169226863
:101FB00043EA0123D360E369216A22680B4313607B
:101FC0002268136843F0010313600020606420233B
:101FD00084F84130206384F8420010BD80F840301E
:101FE000FFF776FBB6E7A368226843F400439360EB
:101FF000CAE723684FF400625A60C8E701207047BF
:102000002DE9F04F83B00E46BDF834A00E9D90F838
:102010004110C9B2202940F0BB8004469046994641
:102020000C9BCBB1BAF1000F16D090F84030012BC9
:1020300000F0B2804FF0010B80F840B000F02AFAB7
:102040000746009019235A464FF400412046FFF7F7
:10205000AAFE30B101209CE04FF4007363640120BC
:1020600097E0212384F84130402384F84230002354
:1020700063640C9A6262A4F82AA0636301970095D6
:102080004B46424631462046FFF7BAFE70B9638D93
:102090009BB2FF2B0FD9FF222285002300934FF024
:1020A000807331462046FFF7E7FD21E0002384F8E6
:1020B000403058466DE0628D92B222850023009335
:1020C0004FF00073D2B231462046FFF7D5FD0FE046
:1020D000628D92B22285002300934FF00073D2B23A
:1020E00031462046FFF7C8FD638D9BB2002B33D0ED
:1020F0003A4629462046FFF72BFE00284ED1626A59
:10210000236812789A62636A01336362638D9BB2BB
:10211000013B9BB26385238D013B9BB22385628D7E
:1021200092B2002AE0D0002BDED100972B4600228D
:1021300080212046FFF737FE90BB638D9BB2FF2BBB
:10214000C6D9FF222285002300934FF080733146C9
:102150002046FFF791FDC7E73A4629462046FFF79C
:10216000C9FEF8B923682022DA6121684B6823F0A0
:10217000FF7323F48B3323F4FF7323F001034B60CD
:1021800084F84120002384F8423084F8403000E095
:10219000022003B0BDE8F08F0220FAE70120F8E743
:1021A0000120F6E70120F4E72DE9F04F83B00E4659
:1021B000BDF834A00E9D90F84110C9B2202940F01E
:1021C000BC800446904699460C9BCBB1BAF1000FF7
:1021D00016D090F84030012B00F0B3804FF0010B87
:1021E00080F840B000F056F90746009019235A468F
:1021F0004FF400412046FFF7D6FD30B101209DE0AD
:102200004FF400736364012098E0222384F8413086
:10221000402384F84230002363640C9A6262A4F87D
:102220002AA06363019700954B46424631462046FB
:10223000FFF724FE70B9638D9BB2FF2B0FD9FF22ED
:102240002285444B00934FF0807331462046FFF7C0
:1022500013FD21E0002384F8403058466EE0628D83
:1022600092B222853B4B00934FF00073D2B23146BD
:102270002046FFF701FD0FE0628D92B22285002318
:1022800000934FF00073D2B231462046FFF7F4FCC2
:10229000638D9BB2002B34D000972B460022042183
:1022A0002046FFF780FD00284DD123685A6A636AF3
:1022B0001A70636A01336362228D013A92B22285F9
:1022C000638D9BB2013B9BB26385638D9BB2002BF8
:1022D000DED0002ADCD100972B4680212046FFF774
:1022E00062FD90BB638D9BB2FF2BC5D9FF22228577
:1022F000002300934FF0807331462046FFF7BCFC6B
:10230000C6E73A4629462046FFF7F4FDF8B92368A8
:102310002022DA6121684B6823F0FF7323F48B33AA
:1023200023F4FF7323F001034B6084F84120002362
:1023300084F8423084F8403000E0022003B0BDE869
:10234000F08F0220FAE70120F8E70120F6E70120EC
:10235000F4E700BF0024008090F84130DBB2202B6E
:1023600024D190F84030012B22D0012380F8403056
:10237000242380F841300268136823F001031360BE
:102380000268136823F480531360026813681943CA
:1023900011600268136843F001031360202380F882
:1023A0004130002380F840301846704702207047C3
:1023B0000220704790F84130DBB2202B22D190F8F8
:1023C0004030012B20D0012380F84030242380F8B6
:1023D00041300268136823F0010313600268136838
:1023E00023F4706343EA012111600268136843F02B
:1023F00001031360202380F84130002380F840302F
:1024000018467047022070470220704710B50446F6
:102410000E4B18784FF47A73B3FBF0F30C4A106844
:10242000B0FBF3F000F0DEFE68B90F2C01D90120FB
:102430000AE0002221464FF0FF3000F09BFE054BE2
:102440001C60002000E0012010BD00BF64000020DF
:102450006C0000206800002008B5074A136843F0AC
:1024600010031360032000F073FE0F20FFF7CEFF70
:10247000FFF7C0F9002008BD00200240034A1168A0
:10248000034B1B780B441360704700BF740100209E
:1024900064000020014B1868704700BF74010020E1
:1024A00038B50446FFF7F6FF0546B4F1FF3F02D00A
:1024B000044B1B781C44FFF7EDFF401BA042FAD3EE
:1024C00038BD00BF64000020002800F0018370B513
:1024D00082B00446036813F0010F3BD0B54B5B6834
:1024E00003F00C03042B1ED0B24B5B6803F00C030B
:1024F000082B13D06368B3F5803F68D0002B40F001
:10250000928003F1804303F504331A6822F4803289
:102510001A601A6822F480221A605DE0A54B5B689D
:1025200013F4803FE6D04FF4003393FAA3F3A14BAA
:1025300019684FF4003393FAA3F3B3FA83F303F06B
:102540001F03012202FA03F30B4203D06368002B3E
:1025500000F0C082236813F0020F00F0C580954B95
:102560005B6813F00C0F00F09C80924B5B6803F0EB
:102570000C03082B00F08F802369002B00F0F28001
:10258000012292FAA2F3B3FA83F303F1845303F521
:1025900084139B001A60FFF77DFF0546022393FA20
:1025A000A3F3844B1968022393FAA3F3B3FA83F3DA
:1025B00003F01F03012202FA03F30B4240F0C38031
:1025C000FFF768FF401B0228E8D903208BE2794A15
:1025D000136843F480331360764AD36A23F00F0301
:1025E000A1680B43D3626368002B36D0FFF752FF1C
:1025F00005464FF4003393FAA3F36E4B19684FF47A
:10260000003393FAA3F3B3FA83F303F01F03012219
:1026100002FA03F30B429DD1FFF73CFF401B6428F5
:10262000E7D903205FE2B3F5A02F09D0614B1A6808
:1026300022F480321A601A6822F480221A60CBE7F2
:1026400003F18043A3F53C331A6842F480221A60F8
:102650001A6842F480321A60BEE7FFF71BFF054696
:102660004FF4003393FAA3F3524B19684FF400333D
:1026700093FAA3F3B3FA83F303F01F03012202FAE0
:1026800003F30B423FF466AFFFF704FF401B6428DF
:10269000E6D9032027E2474B5B6813F4803F7FF4C1
:1026A0006BAF022393FAA3F3424B1968022393FA08
:1026B000A3F3B3FA83F303F01F03012202FA03F337
:1026C0000B4203D02369934240F0068239480368E5
:1026D00023F0F8036169F82292FAA2F2B2FA82F2C8
:1026E00001FA02F213430360236813F0080F00F0AD
:1026F0008D80A369002B61D0012191FAA1F2B2FA79
:1027000082F22D4B13449B001960FFF7C3FE054670
:10271000022393FAA3F293FAA3F293FAA3F2254ABF
:10272000516A93FAA3F3B3FA83F303F01F03012270
:1027300002FA03F30B4269D1FFF7ACFE401B0228FB
:10274000E6D90320CFE11B48036823F0F803616951
:10275000F82292FAA2F2B2FA82F201FA02F21343DA
:102760000360C1E7012393FAA3F3B3FA83F303F100
:10277000845303F584139B0000221A60FFF78AFE3E
:102780000546022393FAA3F30A4B1968022393FA2E
:10279000A3F3B3FA83F303F01F03012202FA03F356
:1027A0000B42A1D0FFF776FE401B0228E9D9032097
:1027B00099E100BF0010024020819010012292FA9E
:1027C000A2F2B2FA82F2B74B13449B0000221A60C5
:1027D000FFF760FE0546022393FAA3F293FAA3F2F1
:1027E00093FAA3F2B04A516A93FAA3F3B3FA83F3CC
:1027F00003F01F03012202FA03F30B4206D0FFF796
:1028000049FE401B0228E6D903206CE1236813F03F
:10281000040F00F0A980A44BDB6913F0805F20D186
:10282000A14BDA6942F08052DA61DB6903F0805330
:102830000193019B01259D4B1B6813F4807F12D0EF
:10284000E368012B23D073BB03F1804303F504330A
:102850001A6A22F001021A621A6A22F004021A624B
:102860001AE00025E7E7914A136843F48073136088
:10287000FFF710FE06468D4B1B6813F4807FDFD1F7
:10288000FFF708FE801B6428F5D903202BE1864A58
:10289000136A43F001031362E368002B3CD0FFF797
:1028A000F9FD06462BE0052B09D07F4B1A6A22F072
:1028B00001021A621A6A22F004021A62ECE77A4BE9
:1028C0001A6A42F004021A621A6A42F001021A629B
:1028D000E2E7754B196A022393FAA3F3B3FA83F381
:1028E00003F01F03012202FA03F319423BD1FFF761
:1028F000D1FD801B41F28833984200F2EF80022321
:1029000093FAA3F293FAA3F3002BE2D1022393FAF2
:10291000A3F3654B596ADEE7FFF7BCFD064615E0F9
:10292000614B196A022393FAA3F3B3FA83F303F01A
:102930001F03012202FA03F3194214D0FFF7AAFD84
:10294000801B41F28833984200F2CA80022393FA36
:10295000A3F293FAA3F3002BE2D1022393FAA3F399
:10296000514B596ADEE7B5BBE369002B00F0BA8032
:102970004D4A526802F00C02082A00F09980022B9E
:102980002FD04FF0807393FAA3F3B3FA83F303F1DC
:10299000845303F584139B0000221A60FFF77AFD2D
:1029A00004464FF0007393FAA3F33F4B19684FF0BE
:1029B000007393FAA3F3B3FA83F303F01F03012226
:1029C00002FA03F319426BD0FFF764FD001B0228E3
:1029D000E7D9032087E0344AD36923F08053D361D9
:1029E000C2E74FF0807393FAA3F3B3FA83F303F1D2
:1029F000845303F584139B0000221A60FFF74AFDFD
:102A000005464FF0007393FAA3F3274B19684FF074
:102A1000007393FAA3F3B3FA83F303F01F030122C5
:102A200002FA03F3194206D0FFF734FD401B0228D7
:102A3000E7D9032057E01C494B6823F47413626AFA
:102A4000206A024313434B604FF0807393FAA3F361
:102A5000B3FA83F303F1845303F584139B0001223B
:102A60001A60FFF717FD04464FF0007393FAA3F3C3
:102A70000D4B19684FF0007393FAA3F3B3FA83F385
:102A800003F01F03012202FA03F3194206D1FFF7F4
:102A900001FD001B0228E7D9032024E0002022E0EA
:102AA000002020E0208190100010024000700040C3
:102AB000012B1AD0104B5B6803F48031226A9142DB
:102AC00015D103F47013626A934212D100200AE018
:102AD00001207047012006E0012004E0032002E00D
:102AE000032000E0002002B070BD0120FBE70120C0
:102AF000F9E70120F7E700BF00100240164B5B68C2
:102B000003F00C02082A01D01448704703F4701136
:102B10004FF4701292FAA2F2B2FA82F221FA02F2A1
:102B20000F49885C0C4AD26A02F00F020F2191FA19
:102B3000A1F1B1FA81F1CA400A498A5C13F4803FDD
:102B400005D0064BB3FBF2F303FB00F07047064BD6
:102B500003FB00F0704700BF0010024000127A0033
:102B60002C3800083C38000800093D00002800F01F
:102B7000BE8070B50D460446614B1B6803F0070329
:102B80008B420BD25E4A136823F007030B4313609A
:102B9000136803F007038B4240F0AB80236813F007
:102BA000020F06D0574A536823F0F003A1680B4385
:102BB0005360236813F0010F5AD06368012B2DD0A6
:102BC000022B40D0022292FAA2F24E4A1068022250
:102BD00092FAA2F2B2FA82F202F01F02012101FA85
:102BE00002F2104200F0878046494A6822F0030250
:102BF00013434B60FFF74EFC0646424B5B6803F005
:102C00000C036268B3EB820F32D0FFF743FC801BEA
:102C100041F288339842F0D9032067E04FF4003244
:102C200092FAA2F2374A10684FF4003292FAA2F2F6
:102C3000B2FA82F202F01F02012101FA02F202420C
:102C4000D2D1012052E04FF0007292FAA2F22D4A46
:102C500010684FF0007292FAA2F2B2FA82F202F019
:102C60001F02012101FA02F21042BDD101203DE014
:102C7000234B1B6803F00703AB420AD9204A1368B1
:102C800023F007032B431360136803F00703AB42E1
:102C900033D1236813F0040F06D01A4A536823F483
:102CA000E063E1680B435360236813F0080F07D01B
:102CB000144A536823F46053216943EAC103536003
:102CC000FFF71CFF0F4B5B6803F0F003F02292FA52
:102CD000A2F2B2FA82F2D3400B4AD35CD8400B4B3B
:102CE00018600B4B1868FFF791FB002070BD0120A6
:102CF00070470120FAE70120F8E70120F6E700BF5E
:102D000000200240001002404C3800086C000020F7
:102D100068000020014B1868704700BF6C0000205D
:102D200008B5FFF7F7FF074B5B6803F4E0634FF468
:102D3000E06292FAA2F2B2FA82F2D340024AD35C83
:102D4000D84008BD001002405C38000808B5FFF705
:102D5000E1FF074B5B6803F460534FF4605292FA53
:102D6000A2F2B2FA82F2D340024AD35CD84008BD44
:102D7000001002405C380008F0B583B004460368D8
:102D800013F4803F48D0804BDB6913F0805F40F044
:102D9000B3807D4BDA6942F08052DA61DB6903F07F
:102DA00080530193019B0125784B1B6813F4807FAE
:102DB00000F0A480744B1B6A13F4407322D0626845
:102DC00002F440729A421DD06F48016A21F44076A5
:102DD0004FF4803393FAA3F2B2FA82F26C4F3A4482
:102DE00092004FF0010CC2F800C093FAA3F3B3FABB
:102DF00083F33B449B0000221A60066211F0010F2E
:102E000040F09180604A136A23F4407361680B4379
:102E10001362002D40F0AE80236813F0010F06D03E
:102E2000594A136B23F00303A1680B431363236810
:102E300013F0200F06D0544A136B23F01003E168FF
:102E40000B431363236813F0400F06D04E4A136BF5
:102E500023F0200321690B431363236813F4004F0D
:102E600006D0494A136B23F0400361690B43136397
:102E7000236813F4007F06D0434A536823F4000309
:102E8000E1690B435360236813F0800F06D03E4A7C
:102E9000D36A23F4F873A1690B43D362236813F454
:102EA000805F06D0384A136B23F48073216A0B438A
:102EB0001363236813F4802F06D0334A136B23F473
:102EC0008063616A0B431363236813F4002F06D0F9
:102ED0002D4A136B23F40063A16A0B431363236829
:102EE00013F4801F4DD0284A136B23F40053E16A7A
:102EF0000B431363002045E0002555E7234A136880
:102F000043F480731360FFF7C5FA06461F4B1B6836
:102F100013F4807F7FF44EAFFFF7BCFA801B642868
:102F2000F4D903202EE0FFF7B5FA064615E0164B5C
:102F3000196A022393FAA3F3B3FA83F303F01F038E
:102F4000012202FA03F30B427FF45CAFFFF7A2FA0F
:102F5000801B41F28833984211D8022393FAA3F2DE
:102F600093FAA3F3002BE2D1022393FAA3F3064BC7
:102F7000596ADEE7D36923F08053D3614CE703201D
:102F800000E0002003B0F0BD0010024000700040DF
:102F900000819010F0B583B0002362E085685E0088
:102FA0000324B44025EA0405CC68B4402C43846073
:102FB000446824EA0C0C4C68C4F300149C4044EAB6
:102FC0000C0444605EE0DD08083550F8256003F02D
:102FD00007044FEA840C0F2404FA0CF426EA040ECA
:102FE0000C6904FA0CF444EA0E0440F8254060E051
:102FF000032400E0002404FA0EF42C430CF1020C2C
:103000004F4D45F82C404F4C2568D44325EA020625
:103010004F6817F4803F01D042EA0506494D2E6003
:103020006D6804EA05064F6817F4003F01D042EAD4
:103030000506444D6E60AD6804EA05064F6817F456
:10304000801F01D042EA05063E4DAE60ED682C407F
:103050004E6816F4001F01D042EA0504394AD460D4
:1030600001330A6832FA03F468D04FF0010C0CFA0D
:1030700003FC1CEA0202F3D04C6804F00304013C98
:10308000012C8BD94C6804F00304032C0CD0C468C9
:103090005D004FF0030C0CFA05FC24EA0C0C8C6864
:1030A000AC4044EA0C04C4604C6804F00304022CF5
:1030B00089D004684FEA430E4FF0030C0CFA0EFC63
:1030C00024EA0C0C4C6804F0030404FA0EF444EAFD
:1030D0000C0404604C6814F4403FC1D01A4CA5693C
:1030E00045F00105A561A46904F001040194019C67
:1030F0004FEA930C0CF10205114C54F8255003F0E3
:1031000003044FEA840E0F2404FA0EF425EA0405A2
:10311000B0F1904F3FF46EAF0C4CA0420AD004F5D2
:103120008064A04208D004F58064A0423FF460AF00
:10313000052460E701245EE702245CE703B0F0BDEC
:10314000000001400004014000100240000400485B
:10315000074AD36823F4E0631B041B0C000200F44D
:10316000E060034343F0BF6343F40033D360704730
:1031700000ED00E000B5194BDB68C3F30223C3F197
:10318000070CBCF1040F28BF4FF0040C03F1040E30
:10319000BEF1060F18D9033B4FF0FF3E0EFA0CFCB0
:1031A00021EA0C0199400EFA03F322EA03031943C2
:1031B00000280BDB0901C9B200F1604000F5614055
:1031C00080F800135DF804FB0023E5E700F00F0032
:1031D0000901C9B2024B1954F4E700BF00ED00E049
:1031E00014ED00E00138B0F1807F0BD24FF0E02306
:1031F0005861054AF02182F82310002098610722C7
:103200001A6170470120704700ED00E0836F212BA9
:1032100000D07047B0F852309BB293B9026852E8C0
:10322000003F23F0800342E800310029F6D1026814
:1032300052E8003F43F0400342E800310029F6D154
:103240007047C26C036812781A85C36C0133C3647B
:10325000B0F852309BB2013B9BB2A0F85230D8E795
:10326000836F212B00D07047B0F852309BB293B9D6
:10327000026852E8003F23F0800342E80031002951
:10328000F6D1026852E8003F43F0400342E80031C3
:103290000029F6D17047C36C1B880268C3F308038A
:1032A0001385C36C0233C364B0F852309BB2013B48
:1032B0009BB2A0F85230D6E7836F202B2FD1002984
:1032C0002FD0002A2FD090F87430012B2DD001235D
:1032D00080F87430C164A0F85020A0F85220002378
:1032E0008366C0F88030212383678368B3F5805FED
:1032F0000FD00F4B8366002380F87430026852E8C9
:10330000003F43F0800342E800310029F6D100205D
:1033100070470369002BECD1064B8366EBE7022074
:10332000704701207047012070470220704700BF9E
:103330000D3200086132000810B504468368026946
:10334000134342691343C2691343016808684E4A34
:10335000024013430B602268536823F44053E16832
:103360000B435360A269236A1A4321688B6823F4D4
:10337000306313438B602368444A934214D0444A19
:10338000934227D002F5806293421FD01023E06958
:10339000B0F5004F20D0082B70D8DFE803F04A606A
:1033A000486F636F6F6F66003A4B1B6B03F003034C
:1033B000032B09D8DFE803F00204060C0023E6E73C
:1033C0000423E4E70823E2E71023E0E70023DEE735
:1033D0000223DCE70023DAE7082B49D8DFE803F013
:1033E000051F2548224848480900FFF799FC002896
:1033F00040D06268530803EB4000B0FBF2F080B2AB
:10340000A0F110024FF6EF739A4235D820F00F0367
:10341000C0F3420018432368D86000201BE0FFF788
:1034200095FCE4E7FFF76AFBE1E71B48E1E71A4890
:1034300002E0FFF775FC18B3636800EB5300B0FBC4
:10344000F3F080B2A0F110024FF6EF739A4219D850
:103450002368D860002000236366A36610BDFFF7D1
:1034600075FCE8E7FFF74AFBE5E74FF40040E3E7C8
:103470000120F0E70020EEE70120ECE70120EAE779
:103480000020E8E70120E6E7F369FFEF003801409C
:10349000004400400010024000127A00436A13F01A
:1034A000010F06D00268536823F40033816A0B438E
:1034B0005360436A13F0020F06D00268536823F486
:1034C0008033C16A0B435360436A13F0040F06D084
:1034D0000268536823F48023016B0B435360436AF3
:1034E00013F0080F06D00268536823F40043416BC1
:1034F0000B435360436A13F0100F06D002689368C1
:1035000023F48053816B0B439360436A13F0200FC5
:1035100006D00268936823F40053C16B0B43936099
:10352000436A13F0400F0AD00268536823F48013F3
:10353000016C0B435360036CB3F5801F0BD0436ADF
:1035400013F0800F06D00268536823F40023816CC7
:103550000B43536070470268536823F4C003416C07
:103560000B435360EBE72DE9F84305460F4616463B
:103570009946DDF820802C68E46937EA04030CBF23
:103580004FF0010C4FF0000CB44553D1B8F1FF3FA0
:10359000F1D0FEF77FFFA0EB090040452DD8B8F130
:1035A000000F2AD02B681A6812F0040FE3D0DA69F2
:1035B00012F4006FDFD04FF400621A622A6852E8FA
:1035C000003F23F4D07342E800310029F6D12A6885
:1035D00002F1080353E8003F23F00103083242E8F8
:1035E00000310029F3D12023AB67EB67C5F88030A9
:1035F000002385F8743003201DE02A6852E8003F5C
:1036000023F4D07342E800310029F6D12A6802F190
:10361000080353E8003F23F00103083242E8003179
:103620000029F3D12023AB67EB67002385F87430C2
:10363000032000E00020BDE8F88330B583B00446E5
:103640000023C0F88030FEF725FF05462268126887
:1036500012F0080F0DD123681B6813F0040F16D168
:103660002023A367E3670020206684F8740003B07A
:1036700030BD6FF07E430093034600224FF40011EB
:103680002046FFF770FF0028E5D00320EFE76FF03A
:103690007E4300932B4600224FF480012046FFF723
:1036A00062FF0028DCD00320E1E768B310B50446D0
:1036B000836F03B32423A3672268136823F00103F5
:1036C00013602046FFF738FE012813D0636ABBB9A8
:1036D0002268536823F4904353602268936823F070
:1036E0002A0393602268136843F0010313602046A5
:1036F000FFF7A3FF10BD80F87430FEF739F8D9E763
:103700002046FFF7CBFEE3E701207047034AD2F8DB
:10371000883043F47003C2F88830704700ED00E051
:10372000DFF834D00D480E490E4A002302E0D45889
:10373000C4500433C4188C42F9D30B4A0B4C0023F9
:1037400001E013600432A242FBD3FFF7DFFFFCF776
:103750007BFDFDF713FFFEE7004000200000002086
:1037600070000020A83800087000002078010020B8
:10377000FEE70000F8B500BFF8BC08BC9E467047E5
:0C378000F8B500BFF8BC08BC9E467047BE
:10378C006C6D616F00000000000000000000000084
:10379C00000000000000000000000000000000001D
:1037AC00000000000000000000000000000000000D
:1037BC0000000000000000000000000000000000FD
:1037CC0000000000000000000000000000000000ED
:1037DC0000000000000000000000000000000000DD
:1037EC000000000025302E32662C2025302E32664B
:1037FC002C2025302E32663B25302E32662C20258F
:10380C00302E32662C2025302E32663B25302E325F
:10381C00662C2025302E32662C2025302E32660068
:10382C0002030405060708090A0B0C0D0E0F1010F5
:10383C000102030405060708090A0B0C0D0E0F10F4
:10384C000000000000000000010203040607080944
:10385C000000000001020304232D302B2000000087
:10386C00686C4C0065666745464700003031323362
:10387C003435363738394142434445460000000060
:10388C0030313233343536373839616263646566CA
:04389C000000000028
:0438A00029020008F1
:0438A4000102000815
:1038A80004000020000000000000000000000000EC
:1038B8000000000000000000000000000000000000
:1038C80000000000000000000000000000000000F0
:1038D80000000000000000000000000000000000E0
:1038E80000000000000000000000000000000000D0
:1038F80000000000000000000000000000000000C0
:1039080000000000010000001000000000127A0012
:040000050800372197
:00000001FF
