:020000040800F2
:1000000000500020153D00088509000887090008F8
:10001000890900088B0900088D090008000000000C
:10002000000000000000000000000000C13A0008CD
:100030008F09000800000000613B0008A53B000894
:100040005D3D00085D3D00085D3D00085D3D000828
:100050005D3D00085D3D00085D3D00085D3D000818
:100060005D3D00085D3D00085D3D00085D3D000808
:100070005D3D00085D3D00085D3D00085D3D0008F8
:1000800091090008A10900085D3D00085D3D0008D8
:100090005D3D00085D3D00085D3D00085D3D0008D8
:1000A0005D3D0008B10900085D3D00085D3D0008A8
:1000B000C1090008D1090008E10900085D3D0008F8
:1000C0005D3D00085D3D00085D3D00085D3D0008A8
:1000D0005D3D00085D3D0008F10900085D3D000838
:1000E0005D3D00085D3D00085D3D0008000000002A
:1000F0000000000000000000000000000000000000
:0C01000000000000000000005FF808F1A3
:100110000348044B834202D0034B03B11847704796
:1001200010000020100000200000000005480649D3
:100130000B1AD90F01EBA301491002D0034B03B1F5
:100140001847704710000020100000200000000039
:1001500010B5064C237843B9FFF7DAFF044B13B10F
:100160000448AFF300800123237010BD100000206D
:1001700000000000603D000808B5044B1BB10449B5
:100180000448AFF30080BDE80840CFE7000000005E
:1001900014000020603D000870B50D4E0D4D761B1B
:1001A000B61006D0002455F8043B01349847A64207
:1001B000F9D1094E094D03F0D3FD761BB61006D0D8
:1001C000002455F8043B01349847A642F9D170BD8C
:1001D000EC3D0008EC3D0008F03D0008EC3D000857
:1001E000844641EA000313F0030349D1403A23D384
:1001F0000B6803604B6843608B688360CB68C360A7
:100200000B6903614B6943618B698361CB69C3618E
:100210000B6A03624B6A43628B6A8362CB6AC36276
:100220000B6B03634B6B43638B6B8363CB6BC3635E
:1002300040304031403ADBD230320BD30B680360A0
:100240004B6843608B688360CB68C36010301031AB
:10025000103AF3D20C3205D351F8043B40F8043B7A
:10026000043AF9D2043208D0D2071CBF11F8013B7E
:1002700000F8013B01D30B8803806046704700BF44
:10028000082A13D38B07B1D010F00303AED0C3F10B
:100290000403D21ADB071CBF11F8013B00F8013B35
:1002A000A4D331F8023B20F8023B9FE7043AD9D3AC
:1002B000013A11F8013B00F8013BF9D20B780370C9
:1002C0004B7843708B78837060467047830730B5F6
:1002D00048D0541E002A3FD00346CAB201E0013C78
:1002E0003AD303F8012B9D07F9D1032C2DD9CDB2B8
:1002F00045EA05250F2C45EA054536D9A4F110023B
:1003000022F00F0C03F1200EE6444FEA121C03F119
:10031000100242E9045542E9025510327245F8D103
:100320000CF1010214F00C0F03EB021204F00F0C9D
:1003300013D0ACF1040323F003030433134442F855
:10034000045B9342FBD10CF003042CB1CAB21C44F1
:1003500003F8012B9C42FBD130BD64461346002CB0
:10036000F4D1F9E703461446BFE71A46A446E0E78E
:1003700008B50268034B9A4200D008BD00F0BCFBF0
:10038000FBE700BF002C014072B6FEE700B591B05C
:100390002822002106A8FFF799FF0023019302936A
:1003A000039304930593012206924FF4803307933D
:1003B0000A9202220D920E934FF4E0130F9306A8B7
:1003C00000F0C2FB80B90F230193022102910023A8
:1003D00003934FF480620492059301A800F0F4FDAA
:1003E00020B911B05DF804FBFFF7CEFFFFF7CCFF9B
:1003F00008B500F06FFBFFF7C9FF00F011F800F03F
:1004000061F800F081F800F0D3F800F025F900F071
:1004100023FA03F005F900F045F803F023F9FEE7AD
:1004200030B589B000240494059406940794184BC1
:100430009A6942F020029A619A6902F020020192C0
:10044000019A9A6942F004029A619A6902F00402E0
:100450000292029A9A6942F008029A619B6903F03B
:1004600008030393039B0B4D22464FF480712846EB
:1004700000F0B6FF4FF480730493012305930694B4
:100480000223079304A9284600F098FE09B030BD66
:10049000001002400008014008B5012003F07EF979
:1004A000FBE7000008B5044A0021044803F000F906
:1004B000034B186008BD00BF843D00089904000884
:1004C000E809002000B583B00E4B5A6942F00102E2
:1004D0005A615B6903F001030193019B002205212E
:1004E000102001F0DBF8102001F010F900220521A6
:1004F000112001F0D3F8112001F008F903B05DF8E4
:1005000004FB00BF0010024000B587B00023049335
:100510000593009301930293039324484FF0804284
:100520000260436083604FF6FF72C26003618361C3
:1005300001F0A8FA38BB00230493059304A91B48D3
:1005400001F052FB10BB00220092012301930292A2
:1005500003926946154801F0EDFAD0B904226946C4
:10056000124801F0E7FAB8B9082269460F4801F0CD
:10057000E1FAA0B90C2269460C4801F0DBFA88B90F
:1005800007B05DF804FBFFF7FFFED4E7FFF7FCFEC2
:10059000D9E7FFF7F9FEE1E7FFF7F6FEE4E7FFF73B
:1005A000F3FEE7E7FFF7F0FEEAE700BFEC09002003
:1005B00000B587B000230493059300930193029341
:1005C00003932348234A0260436083604FF6FF721F
:1005D000C2600361836101F055FA38BB00230493C4
:1005E000059304A91A4801F0FFFA10BB00220092FB
:1005F00001230193029203926946154801F09AFA89
:10060000D0B904226946124801F094FAB8B9082218
:1006100069460F4801F08EFAA0B90C2269460C48D1
:1006200001F088FA88B907B05DF804FBFFF7ACFE6B
:10063000D4E7FFF7A9FED9E7FFF7A6FEE1E7FFF74A
:10064000A3FEE4E7FFF7A0FEE7E7FFF79DFEEAE77A
:10065000340A00200004004000B587B00023049352
:10066000059300930193029303932348234A026066
:10067000436083604FF6FF72C2600361836101F0E3
:1006800001FA38BB00230493059304A91A4801F02A
:10069000ABFA10BB00220092012301930292039255
:1006A0006946154801F046FAD0B904226946124855
:1006B00001F040FAB8B9082269460F4801F03AFA49
:1006C000A0B90C2269460C4801F034FA88B907B089
:1006D0005DF804FBFFF758FED4E7FFF755FED9E7B6
:1006E000FFF752FEE1E7FFF74FFEE4E7FFF74CFEAE
:1006F000E7E7FFF749FEEAE77C0A00200008004030
:1007000010B58CB00023089309930A930B930368E8
:10071000B3F1804F07D04A4A934242D0494A9342AC
:100720006AD00CB010BD03F50433DA6942F001025F
:10073000DA61DA6902F001020192019A9A6942F0E3
:1007400008029A619A6902F008020292029A9A6972
:1007500042F004029A619B6903F004030393039B34
:1007600040F60843089308A9374800F027FD4FF4E6
:1007700000430893002409940A9408A9334800F020
:100780001DFD334A536843F0E06343F44073536004
:10079000224605211C2000F081FF1C2000F0B6FF3E
:1007A000BFE72C4BDA6942F00202DA61DA6902F043
:1007B00002020492049A9A6942F008029A619B69C3
:1007C00003F008030593059B3323089308A91E48EB
:1007D00000F0F4FC1E4A536823F4406343F0E063E6
:1007E00043F400635360002205211D2000F056FFF2
:1007F0001D2000F08BFF94E7164BDA6942F00402EB
:10080000DA61DA6902F004020692069A9A6942F005
:1008100008029A619B6903F008030793079B4FF452
:100820007073089308A9084800F0C8FC002205214D
:100830001E2000F033FF1E2000F068FF71E700BFAC
:100840000004004000080040000C01400008014086
:10085000000001400010024008B50A480A4B03603E
:100860004FF4E133436000238360C36003610C22D3
:1008700042618361C36101F083FA00B908BDFFF7EB
:1008800083FDFBE74C0B00200044004070B586B0B0
:10089000002302930393049305930268334B9A4217
:1008A00001D006B070BD044603F5E633DA6942F4C0
:1008B0000032DA61DA6902F400320092009A9A6931
:1008C00042F004029A619B6903F004030193019BC7
:1008D000042302930223039303230593244E02A9C6
:1008E000304600F06BFC0823029300250395049525
:1008F0000DEB0301304600F061FC1E481E4B036007
:10090000456085608023C360056145612023836164
:100910004FF44053C36100F069FD00BB154BA36366
:100920005C621648164B036010234360002383600B
:100930008022C2600361436183614FF44053C3610D
:1009400000F054FD70B90D4B63635C620022052119
:10095000262000F0A3FE262000F0D8FEA1E7FFF736
:1009600013FDDBE7FFF710FDEDE700BF004400409B
:1009700000080140C40A00206C000240080B00205F
:1009800080000240FEE7FEE7FEE7FEE7FEE7704775
:1009900008B5024800F0CEFD08BD00BFC40A002023
:1009A00008B5024800F0C6FD08BD00BF080B0020D6
:1009B00008B5024800F042FF08BD00BF900B0020C0
:1009C00008B5024800F03AFF08BD00BFEC0900205E
:1009D00008B5024800F032FF08BD00BF340A00200D
:1009E00008B5024800F02AFF08BD00BF7C0A0020BD
:1009F00008B5024801F076FA08BD00BF4C0B002094
:100A000000B583B00D4B9A6942F001029A619A6970
:100A100002F001020092009ADA6942F08052DA6133
:100A2000DB6903F080530193019B00220F216FF0DB
:100A3000010000F033FE03B05DF804FB001002403B
:100A400030B589B004461E4B9A6942F400629A613F
:100A50009B6903F400630193019B02A903A800F0C2
:100A60008FFB00F07DFB03461648A0FB03239B0C85
:100A7000013B1548154A026040F2E732C26043600C
:100A8000002303618360836100F0D0FF054610B14D
:100A9000284609B030BD0C4800F098FE05460028F5
:100AA000F6D1192000F032FE0F2C01D90125EFE715
:100AB00000222146192000F0F1FD054B1C60E7E7FC
:100AC0000010024083DE1B43900B0020002C0140ED
:100AD0000400002008B5074A136843F010031360B0
:100AE000032000F0C9FD0F20FFF7AAFFFFF788FFE2
:100AF000002008BD00200240034A1168034B1B7808
:100B00000B441360704700BFD80B0020000000208A
:100B1000014B1868704700BFD80B002082B0084B0B
:100B20001B68084AA2FB03235B0A00FB03F3019343
:100B300000BF019B5A1E0192002BF9D102B07047F1
:100B400008000020D34D6210002800F0F18170B53C
:100B500082B00446036813F0010F2CD0994B5B68F8
:100B600003F00C03042B1DD0964B5B6803F00C03C1
:100B7000082B12D06368B3F5803F41D0002B55D1CC
:100B800003F1804303F504331A6822F480321A60BB
:100B90001A6822F480221A6037E08A4B5B6813F4EB
:100BA000803FE7D0874B1B6813F4003F03D0636896
:100BB000002B00F0BF81236813F0020F75D0814B2A
:100BC0005B6813F00C0F5FD07E4B5B6803F00C0387
:100BD000082B54D02369002B00F08A807A4B012225
:100BE0001A60FFF795FF0546764B1B6813F0020F5E
:100BF00075D1FFF78DFF401B0228F5D903209EE138
:100C0000704A136843F480331360636843B3FFF79B
:100C10007FFF05466B4B1B6813F4003FCBD1FFF7FA
:100C200077FF401B6428F5D9032088E1B3F5A02F96
:100C300009D0644B1A6822F480321A601A6822F4D0
:100C400080221A60E1E703F18043A3F53C331A6880
:100C500042F480221A601A6842F480321A60D4E7A3
:100C6000FFF756FF0546574B1B6813F4003FA2D011
:100C7000FFF74EFF401B6428F5D903205FE1514B7D
:100C80005B6813F4803FA5D14E4B1B6813F0020F35
:100C900003D02369012B40F04F814A4A136823F0A7
:100CA000F803616943EAC1031360236813F0080F76
:100CB00033D0A369002B5CD0434B0122C3F88024BE
:100CC000FFF726FF05463F4B5B6A13F0020F21D169
:100CD000FFF71EFF401B0228F5D903202FE1394AF8
:100CE000136823F0F803616943EAC1031360DCE78A
:100CF000354B00221A60FFF70BFF0546314B1B688E
:100D000013F0020FD1D0FFF703FF401B0228F5D9E3
:100D1000032014E10120FFF701FF236813F0040F03
:100D200000F09680274BDB6913F0805F34D1254BB0
:100D3000DA6942F08052DA61DB6903F08053019393
:100D4000019B0125214B1B6813F4807F26D0E368AB
:100D5000012B3DD0002B53D103F1804303F5043325
:100D60001A6A22F001021A621A6A22F004021A6256
:100D700033E0154B0022C3F88024FFF7C9FE054677
:100D8000104B5B6A13F0020FC7D0FFF7C1FE401B88
:100D90000228F5D90320D2E00025D3E70B4A1368D7
:100DA00043F480731360FFF7B3FE0646074B1B68DE
:100DB00013F4807FCBD1FFF7ABFE801B6428F5D9FD
:100DC0000320BCE0001002400000424200700040DE
:100DD0005F4A136A43F001031362E36833B3FFF71A
:100DE00097FE06465A4B1B6A13F0020F2FD1FFF7EE
:100DF0008FFE801B41F288339842F3D903209EE096
:100E0000052B09D0524B1A6A22F001021A621A6AA3
:100E100022F004021A62E0E74D4B1A6A42F0040223
:100E20001A621A6A42F001021A62D6E7FFF770FEF0
:100E30000646474B1B6A13F0020F08D0FFF768FE07
:100E4000801B41F288339842F3D9032077E0E5B95B
:100E5000E369002B72D03E4A526802F00C02082A65
:100E600056D0022B17D03B4B00221A66FFF750FEDC
:100E70000446374B1B6813F0007F47D0FFF748FE4E
:100E8000001B0228F5D9032059E0314AD36923F029
:100E90008053D361DCE72F4B00221A66FFF738FE40
:100EA00005462B4B1B6813F0007F06D0FFF730FE82
:100EB000401B0228F5D9032041E0236AB3F5803FA7
:100EC0001AD023494B6823F47413226A606A0243E0
:100ED00013434B601F4B01221A66FFF719FE0446AD
:100EE0001B4B1B6813F0007F0ED1FFF711FE001B98
:100EF0000228F5D9032022E0154A536823F4003371
:100F0000A1680B435360DCE7002018E0002016E0E6
:100F1000012B16D00E4B5B6803F48031226A91429C
:100F200011D103F47013626A93420ED1002006E0DF
:100F300001207047012002E0012000E0002002B003
:100F400070BD0120FBE70120F9E70120F7E700BFB2
:100F5000001002400000424286B0174B0FCB0DF14B
:100F6000180C0CE90F0040F20123ADF80430134BCC
:100F70005B6803F00C02082A02D0114806B07047E3
:100F8000C3F3834218326A4412F8100C13F4803F02
:100F90000DD00A4B5B68C3F3404318336B4413F81E
:100FA000143C074A02FB00F0B0FBF3F0E6E7054B08
:100FB00003FB00F0E2E700BFA83D0008001002407C
:100FC00000127A0000093D00002800F0A08070B5F2
:100FD0000D460446524B1B6803F007038B420BD2AD
:100FE0004F4A136823F007030B431360136803F0A1
:100FF00007038B4240F08D80236813F0020F17D057
:1010000013F0040F04D0474A536843F4E06353607D
:10101000236813F0080F04D0424A536843F4605326
:101020005360404A536823F0F003A1680B435360B8
:10103000236813F0010F31D06368012B20D0022BFD
:1010400025D0384A126812F0020F64D035494A6838
:1010500022F0030213434B60FFF75AFD0646314B63
:101060005B6803F00C036268B3EB820F16D0FFF7E6
:101070004FFD801B41F288339842F0D9032045E0B0
:10108000284A126812F4003FE0D101203EE0254AD0
:10109000126812F0007FD9D1012037E0204B1B6885
:1010A00003F00703AB420AD91D4A136823F0070374
:1010B0002B431360136803F00703AB422DD1236861
:1010C00013F0040F06D0174A536823F4E063E16875
:1010D0000B435360236813F0080F07D0114A53687D
:1010E00023F46053216943EAC1035360FFF734FFDF
:1010F0000C4B5B68C3F303130B4AD35CD8400B4B18
:1011000018600B4B1868FFF79BFC002070BD012096
:1011100070470120FAE70120F8E70120F6E700BF59
:101120000020024000100240BC3D000808000020E2
:1011300004000020014B1868704700BF0800002021
:1011400008B5FFF7F7FF044B5B68C3F30223034ABC
:10115000D35CD84008BD00BF00100240CC3D000861
:1011600008B5FFF7E7FF044B5B68C3F3C223034AEC
:10117000D35CD84008BD00BF00100240CC3D000841
:101180000F2303600B4B5A6802F0030242605A6857
:1011900002F0F00282605A6802F4E062C2605B68AA
:1011A000DB0803F4E0630361034B1B6803F00703F0
:1011B0000B607047001002400020024070B582B002
:1011C0000024A446A6E0804DAA4210D007D97F4D46
:1011D000AA420CD005F58035AA4208D013E0A5F547
:1011E0008015AA4203D005F57025AA4207D18A6866
:1011F000002A58D0012A51D04361082403E0A5F504
:101200008015AA42F3D0BEF1FF0F4ED80646BEF1BC
:10121000FF0F4CD84FEA8C0233680F25954023EA24
:10122000050304FA02F2134333604B6813F0805F46
:101230006ED0674B9A6942F001029A619B6903F094
:1012400001030193019B4FEA9C02951C614B53F8EB
:1012500025600CF003039D000F23AB4026EA030634
:101260005D4B984229D003F58063984200F08E8050
:1012700003F58063984200F08B8003F58063984209
:1012800019D004231AE0CC68BDE7CC680434BAE76F
:10129000CC680834B7E7CC680C34B4E703610824A1
:1012A000B1E70024AFE70424ADE7061DAFE7ACF1DA
:1012B00008029200B0E7032300E00023AB40334371
:1012C0000232444D45F822304B6813F4803F61D020
:1012D000424A136843EA0E0313604B6813F4003F5D
:1012E0005ED03E4A536843EA0E0353604B6813F4E2
:1012F000801F5BD0394A936843EA0E0393604B68C2
:1013000013F4001F58D0354AD36843EA0E03D36064
:101310000CF1010C0A6832FA0CF353D0012303FAE2
:101320000CF302EA030E33EA0202F1D14A68122AF0
:101330003FF649AF122A3FF666AF01A555F822F0F5
:10134000EF1100088712000891120008A31200088C
:101350000712000807120008071200080712000809
:1013600007120008071200080712000807120008F9
:1013700007120008071200080712000807120008E9
:10138000071200088B12000897120008012395E746
:10139000022393E7114A136823EA0E0313609CE7C4
:1013A0000E4A536823EA0E0353609FE70B4A936883
:1013B00023EA0E039360A2E7084AD36823EA0E03E8
:1013C000D360A5E702B070BD00002210000031100C
:1013D00000100240000001400008014000040140EC
:1013E0000AB10161704709040161704760B310B42C
:1013F00002460168154B0B441548A0FB03031B096B
:101400009B001364134BD363022382F821300868D6
:1014100020F47F5020F03000536894682343D46850
:101420002343146923435469234394692343D469B0
:10143000234303430B6000209063012382F8213093
:1014400082F8200010BC704701207047F8FFFDBFF4
:10145000CDCCCCCC0000024090F82130022B06D03D
:1014600004238363002380F8203001207047026842
:10147000136823F00E0313600268136823F001035E
:101480001360036CC16B012202FA03F34B6080F816
:101490002120002380F820301846704708B590F8C6
:1014A0002130022B03D004238363012008BD02688E
:1014B000136823F00E0313600268136823F001031E
:1014C00013600368194A934214D0143293421FD018
:1014D000143293421ED0143293421ED014329342DF
:1014E0001ED01432934202D04FF0807203E04FF4CA
:1014F000801200E001220E4B5A60012380F8213057
:10150000002380F82030436B6BB198470020CDE773
:101510001022F0E74FF48072EDE74FF48052EAE7D3
:101520004FF48032E7E70020C0E700BF0800024028
:101530000000024038B5C36B1A6804682568016C66
:1015400004238B40134235D015F0040F32D02368AA
:1015500013F0200F03D1236823F0040323600368F2
:10156000434A934214D01432934218D01432934217
:1015700017D01432934217D01432934217D014323A
:10158000934202D04FF0806203E04FF4800200E00B
:101590000422384B5A60C36A03B1984738BD4022D1
:1015A000F7E74FF48062F4E74FF48042F1E74FF43D
:1015B0008022EEE702238B4013423CD015F0020F4D
:1015C00039D0236813F0200F06D1236823F00A03D3
:1015D0002360012380F821300368254A934214D008
:1015E000143293421CD0143293421BD014329342D3
:1015F0001BD0143293421BD01432934202D04FF0CE
:10160000007203E04FF4001200E00222194B5A600E
:10161000002380F82030836A002BBFD09847BDE7B5
:101620002022F3E74FF40072F0E74FF40052EDE7A9
:101630004FF40032EAE7082303FA01F11142ADD07A
:1016400015F0080FAAD0236823F00E032360026C64
:10165000C16B012303FA02F24A60836380F82130F0
:10166000002380F82030036B002B97D0984795E734
:101670000800024000000240074AD36823F4E063F8
:101680001B041B0C000200F4E060034343F0BF6343
:1016900043F40033D360704700ED00E000B5194B10
:1016A000DB68C3F30223C3F1070CBCF1040F28BFAE
:1016B0004FF0040C03F1040EBEF1060F18D9033BE2
:1016C0004FF0FF3E0EFA0CFC21EA0C0199400EFA95
:1016D00003F322EA0303194300280BDB0901C9B213
:1016E00000F1604000F5614080F800135DF804FBF4
:1016F0000023E5E700F00F000901C9B2024B1954BD
:10170000F4E700BF00ED00E014ED00E0002807DB87
:1017100000F01F02400901239340024A42F82030A2
:10172000704700BF00E100E030B4046A24F0100408
:1017300004628469056A24F4407C4CEA022C2CF48F
:10174000704C1B039BB243EA0C0325F0A005090172
:1017500001F0A00129438361016230BC704730B4BD
:10176000046A24F480740462C469056A24F0030CDA
:101770004CEA020C2CF0F00C1B01DBB243EA0C0328
:1017800025F40075090201F400712943C361016267
:1017900030BC704730B4046A24F480540462C469D5
:1017A000056A24F4407C4CEA022C2CF4704C1B0398
:1017B0009BB243EA0C0325F40055090301F40051E0
:1017C0002943C361016230BC7047704790F83D30D7
:1017D000DBB2012B27D1022380F83D300268D368A9
:1017E00043F00103D3600368114A934210D0B3F170
:1017F000804F0DD0A2F59432934209D002F5806259
:10180000934205D01A6842F001021A600020704726
:101810009A6802F00702062A07D01A6842F001020D
:101820001A6000207047012070470020704700BFF9
:10183000002C0140704770477047704710B5044650
:1018400003681A6912F0020F11D0DA6812F0020F61
:101850000DD06FF002021A610123037703689B69C0
:1018600013F0030F70D0FFF7E6FF00232377236800
:101870001A6912F0040F12D0DA6812F0040F0ED0B9
:101880006FF004021A610223237723689B6913F423
:10189000407F5FD02046FFF7CEFF002323772368E9
:1018A0001A6912F0080F12D0DA6812F0080F0ED081
:1018B0006FF008021A61042323772368DB6913F0B1
:1018C000030F4ED02046FFF7B6FF0023237723688F
:1018D0001A6912F0100F12D0DA6812F0100F0ED041
:1018E0006FF010021A61082323772368DB6913F471
:1018F000407F3DD02046FFF79EFF002323772368DB
:101900001A6912F0010F03D0DA6812F0010F36D114
:1019100023681A6912F0800F03D0DA6812F0800F82
:1019200034D123681A6912F0400F03D0DA6812F03C
:10193000400F32D123681A6912F0200F03D0DA6801
:1019400012F0200F30D110BDFFF774FF2046FFF7D3
:1019500073FF8AE72046FFF76DFF2046FFF76CFF15
:101960009BE72046FFF766FF2046FFF765FFACE7E1
:101970002046FFF75FFF2046FFF75EFFBDE76FF0F1
:1019800001021A612046FEF7F3FCC1E76FF0800206
:101990001A61204600F05FF9C3E76FF040021A6158
:1019A0002046FFF74AFFC5E76FF020021A61204684
:1019B00000F050F9C7E7000003681B4A90420AD0C4
:1019C000B0F1804F07D0A2F59432904203D002F5D7
:1019D0008062904203D123F070034A681343124A95
:1019E00090420AD0B0F1804F07D0A2F594329042D5
:1019F00003D002F58062904203D123F44073CA6899
:101A0000134323F080034A69134303608B68C36266
:101A10000B688362044B984202D0012343617047F4
:101A20000B690363F9E700BF002C014040B310B518
:101A3000044690F83D30F3B1022384F83D3021464E
:101A400051F8040BFFF7B8FF012384F8463084F8FF
:101A50003E3084F83F3084F8403084F8413084F8D8
:101A6000423084F8433084F8443084F8453084F8B8
:101A70003D30002010BD80F83C30FFF7A6FEDBE7CC
:101A80000120704740B310B5044690F83D30F3B1E3
:101A9000022384F83D30214651F8040BFFF78CFFF8
:101AA000012384F8463084F83E3084F83F3084F8CF
:101AB000403084F8413084F8423084F8433084F870
:101AC000443084F8453084F83D30002010BD80F863
:101AD0003C30FEF715FEDBE70120704770B4046A66
:101AE00024F0010404628469056A114EB0420DD0ED
:101AF000B0F1804F0AD0A6F59436B04206D006F574
:101B00008066B04202D044F0010202E024F00304F7
:101B1000224322F0F0021B01DBB2134325F00A023C
:101B200001F00A0111438361016270BC704700BF7C
:101B3000002C014038B590F83C30012B52D00446BF
:101B40000D46012380F83C30C2B1042A27D0082A70
:101B500037D0CB684A6809680068FFF71BFE226827
:101B6000D36923F44063D3612268D369A96843EA47
:101B70000123D361002084F83C0038BDCB684A685B
:101B800009680068FFF7AAFF2268936923F00C0335
:101B9000936122689369A9680B439361EAE7CB6874
:101BA0004A6809680068FFF7BFFD2268936923F45B
:101BB0004063936122689369A96843EA01239361B2
:101BC000D8E7CB684A6809680068FFF7C8FD226853
:101BD000D36923F00C03D3612268D369A9680B434E
:101BE000D361C7E70220C8E790F83C30012B2CD026
:101BF00010B4012380F83C30022380F83D300368A4
:101C00005A689C6822F0700C0A6842EA0C025A601A
:101C100003680F4A93420AD0B3F1804F07D0A2F570
:101C20009432934203D002F58062934204D124F0AF
:101C300080044A6814439C60012380F83D300023EF
:101C400080F83C30184610BC70470220704700BF37
:101C5000002C0140704770470268D36823F49073EA
:101C6000D3600268536923F001035361036B012BB6
:101C700005D0202380F83E300023036370470268BC
:101C8000D36823F01003D360F3E790F83D30DBB264
:101C9000212B01D0022070478368B3F5805F17D0F5
:101CA000036A5A1C02621A7803685A60C38C9BB29A
:101CB000013B9BB2C3844BB90268D36823F0800315
:101CC000D3600268D36843F04003D36000207047BC
:101CD0000369002BE4D1036A1B880268C3F308037D
:101CE0005360036A02330362E0E7000010B5044664
:101CF0000268136923F44053C1680B43136183687E
:101D00000269134342691A430168CB6823F4B05354
:101D100023F00C031343CB600268536923F4407330
:101D200081690B4353610268134B9A4220D0FFF73D
:101D300007FA024602EB820202EB820263689B0012
:101D4000B2FBF3F20D48A0FB02314909642303FB07
:101D500011231B013233A0FB03235B0903F0F002C4
:101D600002EB011203F00F03216813448B6010BDD6
:101D7000FFF7F6F90246DDE7003801401F85EB5119
:101D800058B310B5044690F83D300BB3242384F8C3
:101D90003D302268D36823F40053D3602046FFF718
:101DA000A5FF2268136923F49043136122685369E5
:101DB00023F02A0353612268D36843F40053D360AD
:101DC00000202064202384F83D3084F83E3010BD8C
:101DD00080F83C30FEF75AFDD8E701207047704785
:101DE00008B50168CA6822F04002CA60202280F863
:101DF0003D20FFF7F4FF002008BD7047704708B58D
:101E0000406A0023C385C384FFF7F8FF08BD70470D
:101E100090F83E30DBB2222B60D18368B3F5805F4F
:101E200046D0826AB3F5805F04D0002B4DD10369A0
:101E3000002B4AD103685B681370836A01338362A5
:101E4000C38D9BB2013B9BB2C385002B48D100B52B
:101E500083B00268D36823F02003D3600268D3689C
:101E600023F48073D3600268536923F00103536144
:101E7000202380F83E30036B012B2CD10023036319
:101E80000268D36823F01003D36003681A6812F065
:101E9000100F06D0002201921A6801925B6801932C
:101EA000019B818DFFF7B3FF002003B05DF804FBB9
:101EB0000269002AB5D1826A03685B68C3F308032C
:101EC0001380836A02338362BAE703685B6803F0B6
:101ED0007F031370B1E7FFF790FFE5E7022070473B
:101EE0000020704730B583B0044602681368D0689C
:101EF000516913F00F0505D113F0200F02D010F037
:101F0000200F19D12DB111F0010119D110F4907FDA
:101F100016D1216B012975D013F0800F03D010F07A
:101F2000800F40F0D78013F0400F03D010F0400F27
:101F300040F0D48003B030BD2046FFF769FFF9E7D9
:101F400013F0010F06D010F4807F03D0226C42F012
:101F50000102226413F0040F04D019B1226C42F084
:101F60000202226413F0020F04D019B1226C42F075
:101F70000402226413F0080F07D010F0200F00D1E4
:101F800019B1226C42F008022264226C002AD1D0DE
:101F900013F0200F02D010F0200F21D123685B69CD
:101FA00003F04003226C12F0080F00D123B3204647
:101FB000FFF752FE23685A6912F0400F18D05A6991
:101FC00022F040025A61A36B73B1464A5A63A06B78
:101FD000FFF764FA0028ADD0A06B436B9847A9E7E0
:101FE0002046FFF715FFD9E72046FFF707FFA1E7D7
:101FF0002046FFF703FF9DE72046FFF7FFFE002383
:10200000236497E713F0100F86D010F0100F83D0E1
:10201000002301931368019353680193019B536953
:1020200013F0400F32D0A16B0B685B689BB2002BA2
:1020300080D0A08D98427FF67DAFE3858B69202B01
:1020400008D1A18DE38D9BB2C91A89B22046FFF752
:10205000DEFE6FE7D36823F48073D3602268536990
:1020600023F0010353612268536923F04003536155
:10207000202384F83E30002323632268D36823F0B2
:102080001003D360A06BFFF7E7F9DAE7A18DE38DCA
:102090009BB2C91A89B2E38D9BB2002B3FF44AAFC1
:1020A00000293FF447AFD36823F49073D3602268CC
:1020B000536923F001035361202384F83E30002349
:1020C00023632268D36823F01003D3602046FFF710
:1020D0009EFE2FE72046FFF7D8FD2BE72046FFF7AF
:1020E0007FFE27E7FF1D0008704700F108034360EB
:1020F0004FF0FF328260C3600361002303607047CA
:1021000000230361704743684B609A688A6051609E
:1021100099600861036801330360704730B40D684B
:10212000B5F1FF3F11D000F108031C465B681A6847
:10213000AA42FAD963684B6099608C60616008615B
:1021400003680133036030BC70470469F2E7036938
:10215000416882688A60416851605A68824206D04C
:10216000002202611A68013A1A6018687047826892
:102170005A60F5E710B5044601F0B4FCA26BE36BBE
:102180009A4204D0002401F0CFFC204610BD012467
:10219000F9E710B5044601F0A5FCA36B23B90124AF
:1021A00001F0C2FC204610BD0024F9E770B50446DA
:1021B0001546866B026C5AB903681BB100200136C4
:1021C000A66370BD406800F0CBFF00236360F6E7B4
:1021D0006DB98068FEF704F8226CA3681344A3600D
:1021E0006268934219D32368A3602846E7E7C06872
:1021F000FDF7F6FF226C5142E3689B1AE360226808
:10220000934202D263680B44E360022D01D00020A8
:10221000D5E726B1013E0020D1E72846CFE70020D0
:10222000CDE708B50346026C62B10846D96811448F
:10223000D960D3F804C0614501D31968D960D96861
:10224000FDF7CEFF08BD38B5054601F04BFC95F80B
:10225000454064B201E0013C64B2002C0ADD6B6AC7
:1022600043B105F1240000F0D1FE0028F3D000F0C6
:1022700061FFF0E7FF2385F8453001F055FC01F0E0
:1022800031FC95F8444064B201E0013C64B2002C9A
:102290000ADD2B6943B105F1100000F0B7FE0028FC
:1022A000F3D000F047FFF0E7FF2385F8443001F05A
:1022B0003BFC38BD38B5E0B10D46044601F012FCD8
:1022C0002368E26B216C01FB023060600020A06398
:1022D000A360013A02FB0133E360FF2384F844303A
:1022E00084F84530FDB9236963B901F01DFC012074
:1022F00038BD4FF0500383F31188BFF36F8FBFF3E6
:102300004F8FFEE704F1100000F080FE0028ECD0B3
:102310004FF0E0234FF08052C3F8042DBFF34F8FEE
:10232000BFF36F8FE1E704F11000FFF7DEFE04F169
:102330002400FFF7DAFED8E738B51D46049C0B46AB
:1023400049B92460E063236401212046FFF7B2FF0E
:1023500084F84C5038BD2260F4E740B94FF0500388
:1023600083F31188BFF36F8FBFF34F8FFEE710B574
:1023700084B01C46844653B192B189B94FF05003E2
:1023800083F31188BFF36F8FBFF34F8FFEE74FF0DA
:10239000500383F31188BFF36F8FBFF34F8FFEE7B6
:1023A0006AB150230393039B502B13D04FF050037B
:1023B00083F31188BFF36F8FBFF34F8FFEE70029C0
:1023C000EFD04FF0500383F31188BFF36F8FBFF34B
:1023D0004F8FFEE7012384F8463000949DF81830B3
:1023E0006046FFF7A9FF204604B010BDF0B585B0E8
:1023F000019288B10F461D460446B1B1022D20D18D
:10240000E36B012B1DD04FF0500383F31188BFF312
:102410006F8FBFF34F8FFEE74FF0500383F31188A8
:10242000BFF36F8FBFF34F8FFEE7036C002BE5D038
:102430004FF0500383F31188BFF36F8FBFF34F8FBB
:10244000FEE700F07DFE064658B9019B002B48D000
:102450004FF0500383F31188BFF36F8FBFF34F8F9B
:10246000FEE700263DE02A4639462046FFF79EFE5D
:10247000636A7BB948B14FF0E0234FF08052C3F854
:10248000042DBFF34F8FBFF36F8F01F04DFB012081
:1024900005B0F0BD04F1240000F0B8FD0028F4D030
:1024A0004FF0E0234FF08052C3F8042DBFF34F8F5D
:1024B000BFF36F8FE9E701F037FB0020E8E702A8E0
:1024C00000F0EAFD012619E0002384F8443021E001
:1024D000002384F8453023E02046FFF7B4FE00F0E7
:1024E00075FC01F0FFFAA26BE36B9A42BBD3022D9D
:1024F000B9D0019B002BDED0002EE0D001F014FB00
:1025000000F0CAFB01F0EEFA94F8442052B2B2F1A6
:10251000FF3FD9D094F8452052B2B2F1FF3FD7D057
:1025200001F002FB01A902A800F0C2FDD8B92046C3
:10253000FFF720FE0028CFD0019904F1100000F031
:1025400031FD2046FFF77FFE00F040FC0028C8D197
:102550004FF0E0234FF08052C3F8042DBFF34F8FAC
:10256000BFF36F8FBDE72046FFF76DFE00F02EFC36
:1025700000208DE72DE9F84390B10F4616461C4622
:102580000546B1B1022C20D1EB6B012B1DD04FF0D1
:10259000500383F31188BFF36F8FBFF34F8FFEE7B4
:1025A0004FF0500383F31188BFF36F8FBFF34F8F4A
:1025B000FEE7036C002BE5D04FF0500383F3118846
:1025C000BFF36F8FBFF34F8FFEE701F075FBEFF3A3
:1025D00011894FF0500383F31188BFF36F8FBFF35E
:1025E0004F8FAA6BEB6B9A4206D3022C04D00020CB
:1025F00089F31188BDE8F88395F845804FFA88F88B
:10260000224639462846FFF7D1FDB8F1FF3F06D0F4
:1026100008F101035BB285F845300120E8E76B6AF9
:102620000BB90120E4E705F1240000F0EFFC18B13C
:1026300026B101203060DBE70120D9E70120D7E790
:10264000F0B585B0019290B10F460446C1B100F0DB
:1026500077FD064600BB019B002B5ED04FF0500378
:1026600083F31188BFF36F8FBFF34F8FFEE74FF0F7
:10267000500383F31188BFF36F8FBFF34F8FFEE7D3
:10268000036C002BE3D04FF0500383F31188BFF3AA
:102690006F8FBFF34F8FFEE700263EE0394620469E
:1026A000FFF7BFFD013DA563236923B901F03CFAA3
:1026B000012005B0F0BD04F1100000F0A7FC0028D7
:1026C000F4D04FF0E0234FF08052C3F8042DBFF355
:1026D0004F8FBFF36F8FE9E701F026FA0020E8E79C
:1026E00002A800F0D9FC012621E0002384F8443040
:1026F00029E0002384F845302BE02046FFF7A3FDB6
:1027000000F064FB09E02046FFF79DFD00F05EFB52
:102710002046FFF73EFD00283FD101F0E3F9A56B0D
:10272000002DBBD1019B002BD6D0002ED8D001F0BC
:10273000FBF900F0B1FA01F0D5F994F844305BB23E
:10274000B3F1FF3FD1D094F845305BB2B3F1FF3F16
:10275000CFD001F0E9F901A902A800F0A9FC0028F6
:10276000D1D12046FFF715FD0028C6D0019904F10C
:10277000240000F017FC2046FFF765FD00F026FB63
:102780000028CAD14FF0E0234FF08052C3F8042D47
:10279000BFF34F8FBFF36F8FBFE7002089E70000C3
:1027A0000023072B0CD8074A52F833200AB1013313
:1027B000F7E7044A42F8331002EBC303586070474E
:1027C000704700BFDC0B002070B504460D4616466E
:1027D00001F088F994F844305BB2B3F1FF3F0DD0BB
:1027E00094F845305BB2B3F1FF3F0BD001F09CF998
:1027F000A36B5BB12046FFF726FD70BD002384F874
:102800004430EDE7002384F84530EFE732462946AF
:1028100004F1240000F0DEFBECE70000084B1B682D
:102820001B6823B9074B4FF0FF321A607047044B07
:102830001B68DB68DB685A68024B1A60704700BF90
:10284000200C0020CC1000202DE9F04780460D46DA
:1028500017469946089EDDF824A00A9C9200A521FF
:10286000206BFDF733FD236B07F18042013A03EB48
:10287000820727F007074FF0000CBCF10F0F0BD8B1
:1028800015F80C2004EB0C0383F8342015F80C30F9
:1028900013B10CF1010CF0E7002384F84330372E1C
:1028A00000D93726E662E66400252565201DFFF77E
:1028B00027FC04F11800FFF723FC2461C6F1380659
:1028C000A6616462656584F858504A4641463846B8
:1028D00001F0E0F82060BAF1000F01D0CAF8004022
:1028E000BDE8F08738B5002407E004EB84029300CC
:1028F0000E481844FFF7F9FB0134372CF5D90C4D7D
:102900002846FFF7F2FB0B4C2046FFF7EEFB0A4888
:10291000FFF7EBFB0948FFF7E8FB0948FFF7E5FB8A
:10292000084B1D60084B1C6038BD00BF280C002000
:10293000A0100020B4100020D410002000110020AE
:10294000EC100020200C0020240C002010B50446C0
:1029500001F0C8F8224A136801331360214B1B6849
:102960005BB1214B1B686BB91E4B1B68DA6AE36ACB
:102970009A4207D81B4B1C6004E01A4B1C6013687A
:10298000012B29D0194A1368013313606364E06A8C
:10299000174B1B68984201D9154B186000EB80005B
:1029A000211D144B03EB8000FFF7ADFB01F0BCF8D9
:1029B0000D4B1B687BB10B4B1B68DA6AE36A9A42CA
:1029C00009D24FF0E0234FF08052C3F8042DBFF33B
:1029D0004F8FBFF36F8F10BDFFF784FFD2E700BFAB
:1029E000881000201C0C0020E81000209810002007
:1029F0009C100020280C002010B5044690F8593097
:102A000063B1012B11D0022B0ED04FF0500383F392
:102A10001188BFF36F8FBFF34F8FFEE7006B00F09D
:102A2000D1FF204600F0CEFF10BD00F0CBFFFBE74A
:102A30000F4B1B68D3B110B501F054F80D4BDB6898
:102A4000DC68201DFFF783FB0B4A1368013B136012
:102A5000074A1368013B136001F066F82046FFF750
:102A6000CBFF034B1B68002BE6D110BD704700BFA6
:102A70008C100020001100208810002008B5FFF7FE
:102A8000D7FF074B1B68012BF9D94FF0E0234FF01C
:102A90008052C3F8042DBFF34F8FBFF36F8FEEE763
:102AA000280C002070B504460D46174B1E68174BC6
:102AB00018680430FFF74BFBB4F1FF3F0DD03444EE
:102AC000124B1B685C60A64210D9114B18680F4B63
:102AD00019680431FFF722FB70BD002DEFD00B4BBE
:102AE000196804310B48FFF70EFBF5E70A4B18682D
:102AF000064B19680431FFF711FB084B1B68A34212
:102B0000EAD9064B1C60E7E7141100201C0C0020DA
:102B1000240C0020EC100020200C0020CC10002001
:102B200030B587B00B9C7CB10C9DB5B15C2504958C
:102B3000049D5C2D1AD04FF0500383F31188BFF32E
:102B40006F8FBFF34F8FFEE74FF0500383F3118871
:102B5000BFF36F8FBFF34F8FFEE74FF0500383F348
:102B60001188BFF36F8FBFF34F8FFEE70C9D2C636F
:102B7000022485F8594000240394029505AC019481
:102B80000A9C0094FFF760FE0C98FFF7DFFE0598A3
:102B900007B030BD2DE9F04385B00746884614469E
:102BA0001E46900000F096FE00B381465C2000F0C7
:102BB00091FE0546B0B1C0F83090E5B1002385F82C
:102BC0005930039302950D9B01930C9B0093334660
:102BD000224641463846FFF737FE2846FFF7B6FE45
:102BE000012005E0484600F0EDFEE6E74FF0FF303B
:102BF00005B0BDE8F0834FF0FF30F9E710B588B0BD
:102C000000240594069407AA06A905A800F0E8FD8B
:102C1000059B0293069B019300942346079A18494B
:102C20001848FFF77DFF184B186040B100F04CFBCF
:102C3000012806D0B0F1FF3F18D008B010BD002029
:102C4000F6E74FF0500383F31188BFF36F8FBFF3A4
:102C50004F8F0E4B4FF0FF321A600D4B01221A605E
:102C60000C4B00221A6000F0C7FFE6E74FF050035C
:102C700083F31188BFF36F8FBFF34F8FFEE700BF61
:102C8000D43D00087D2A0008C8100020CC10002088
:102C9000E810002014110020024A13680133136069
:102CA000704700BF94100020014B1868704700BFA8
:102CB00014110020F8B53A4B1B68002B64D1394B36
:102CC0001D6801351D60C5B9374B1B681B6843B1D2
:102CD0004FF0500383F31188BFF36F8FBFF34F8F13
:102CE000FEE7314A1168314B186810601960304AAC
:102CF000136801331360FFF791FD2E4B1B68AB4245
:102D000038D900272C4B1B68DB6A03EB83039A003E
:102D10002A4B9B58012B3CD901273AE00127224B33
:102D20001B681B6843B3204B1B68DB68DC68636867
:102D30009D4226D3261D3046FFF709FAA36A1BB130
:102D400004F11800FFF703FAE36A1D4A1268934280
:102D500001D91B4A136003EB83039A0031461748DD
:102D60001044FFF7D0F9E26A134B1B68DB6A9A4202
:102D7000D4D2D4E70027D2E70E4B4FF0FF321A60CF
:102D8000C0E70C4A1360BDE70E4A136801331360B5
:102D900000270D4B1B6803B101273846F8BD00BF63
:102DA0009410002014110020200C0020240C00207E
:102DB000D0100020CC1000201C0C0020280C00207B
:102DC0009C100020901000201811002038B5354BC1
:102DD0001B6843B94FF0500383F31188BFF36F8F23
:102DE000BFF34F8FFEE700F07DFE2E4B1A68013ACD
:102DF0001A601B68002B4FD12B4B1B680BB90024AA
:102E00004BE00024294B1B681BB3284BDB68DC68B4
:102E100004F11800FFF79BF9251D2846FFF797F9E5
:102E2000E06A234B1B68984201D9214B186000EBE4
:102E3000800029461F4B03EB8000FFF764F9E26A2C
:102E40001D4B1B68DB6A9A42DCD31C4B01221A60C3
:102E5000D8E70CB1FFF7E2FC194B1C6884B9174B9B
:102E60001C68D4B14FF0E0234FF08052C3F8042D1A
:102E7000BFF34F8FBFF36F8F01240EE0013C07D0EB
:102E8000FFF718FF0028F9D00C4B01221A60F5E774
:102E90000B4B00221A60E2E7002400F045FE2046BA
:102EA00038BD00BF9410002088100020D4100020EE
:102EB0009C100020280C00201C0C00201811002061
:102EC0009010002010B5A8B10446104B1B6843B108
:102ED0004FF0500383F31188BFF36F8FBFF34F8F11
:102EE000FEE7FFF7D9FE00212046FFF7DBFDFFF7E5
:102EF0006DFF48B94FF0E0234FF08052C3F8042D26
:102F0000BFF34F8FBFF36F8F10BD00BF9410002031
:102F10001F4B1B681BB11F4B01221A6070471D4BD2
:102F200000221A601C4B1B6803EB83018A001B49BB
:102F30008A585AB90BB1013BF6E74FF0500383F3BF
:102F40001188BFF36F8FBFF34F8FFEE703EB830052
:102F500082000A4450684068506003EB830C4FEADB
:102F60008C020832114488420BD003EB830291009B
:102F70000A4A0A445268D168094A1160064A136035
:102F80007047406862469100044A0A445060ECE78A
:102F900094100020181100209C100020280C002004
:102FA0001C0C002058B110B50C46094A11681831A4
:102FB000FFF7B4F801212046FFF774FD10BD4FF074
:102FC000500383F31188BFF36F8FBFF34F8FFEE77A
:102FD0001C0C002038B570B10D4614460A4A116821
:102FE0001831FFF790F80CB14FF0FF352146284615
:102FF000FFF758FD38BD4FF0500383F31188BFF33E
:103000006F8FBFF34F8FFEE71C0C002038B5C368ED
:10301000DC6824B304F118052846FFF798F8184B2C
:103020001B682BBB251D2846FFF791F8E06A154B5E
:103030001B68984201D9134B186000EB80002946A9
:10304000114B03EB8000FFF75EF8E26A0F4B1B6841
:10305000DB6A9A4211D901200D4B186038BD4FF040
:10306000500383F31188BFF36F8FBFF34F8FFEE7D9
:1030700029460848FFF747F8E7E70020EEE700BFDA
:10308000941000209C100020280C00201C0C002014
:1030900018110020D4100020034B1B680360034B61
:1030A0001B684360704700BFD0100020141100203F
:1030B000D8B170B50C46054601B300F013FD1B4BAB
:1030C00019686B68C81A2268B2F1FF3F27D0184E02
:1030D0003668D5F800C0B44501D08B4224D982426D
:1030E00015D80023236001241AE04FF0500383F326
:1030F0001188BFF36F8FBFF34F8FFEE74FF0500380
:1031000083F31188BFF36F8FBFF34F8FFEE75B1A16
:10311000134423602846FFF7BFFF002400E000248B
:1031200000F002FD204670BD0124F9E714110020D3
:10313000D0100020014B01221A60704718110020A6
:10314000054B1B6833B1054B1B680BB10020704762
:103150000220704701207047E810002094100020E2
:1031600000283BD038B504461E4B1B68834208D06C
:103170004FF0500383F31188BFF36F8FBFF34F8F6E
:10318000FEE7036D43B94FF0500383F31188BFF39B
:103190006F8FBFF34F8FFEE7013B0365C16AC26CBF
:1031A00091421DD00BB1002038BD051D2846FEF709
:1031B000CEFFE06CE062C0F13803A3610A4B1B68EC
:1031C000984201D9084B186000EB80002946074B54
:1031D00003EB8000FEF797FF0120E5E70020704732
:1031E0000020E1E71C0C00209C100020280C00208F
:1031F000064B1A681368B3FA83F35B09036013B9CB
:10320000D368186870470020704700BF1C11002069
:1032100008B54160006191420CD8D21A83699A4284
:1032200001D3012008BD011D094B1868FEF776FF88
:103230000020F7E79A4201D2994206D2011D054BC0
:103240001868FEF76BFF0020ECE70120EAE700BFFB
:10325000201100201C11002030B583B000F042FC8A
:10326000114B1B681BB100F05FFC03B030BD0F4D6C
:103270002846FEF73AFF0E4C2046FEF736FF0D4B70
:103280001D600D4B1C60002300930C4B0C4A102159
:103290000A20FFF762F8044B18600028E3D00949C0
:1032A000FFF77EFADFE700BF40120020C4110020C4
:1032B000D81100201C11002020110020F011002046
:1032C00024110020DC3D000810B588B0FFF7C4FFD2
:1032D000124B1B68CBB100240594069407AA06A9DB
:1032E00005A800F089FA059B0293069B019302232F
:1032F00000932346079A0A490A48FFF711FC0A4B34
:10330000186010B1012008B010BD4FF0500383F3D6
:103310001188BFF36F8FBFF34F8FFEE7401200207D
:10332000E43D00080936000844120020B8B19C466C
:1033300003461848006858B300B585B00091019263
:10334000029305291CDCFFF7FBFE022810D00023A6
:103350001A4669460F480068FFF748F815E04FF035
:10336000500383F31188BFF36F8FBFF34F8FFEE7D6
:103370000023069A694607480068FFF737F804E01B
:10338000002362466946FFF7F5F805B05DF804FBD7
:10339000002070474012002070B582B01A4B1B68A5
:1033A0001A6852B3DB681E68DC68251D2846FEF7E4
:1033B000CEFE636A20469847E369012BEED1A369EC
:1033C00033449E4207D26360246129460E4B18683D
:1033D000FEF7A4FEE2E7002100910B4632462046AC
:1033E000FFF7A4FF0028D9D14FF0500383F31188D1
:1033F000BFF36F8FBFF34F8FFEE7044A1068024997
:103400000860136002B070BD1C1100202011002064
:1034100038B50546FFF748FC0446074B1B68834256
:1034200005D800232B60044B1C60204638BDFFF7F5
:10343000B3FF01232B60F6E7EC11002070B582B0DA
:1034400006460D4614490968C968CC68201DFEF778
:103450007EFEE169012904D0636A2046984702B0E4
:1034600070BDA16933462A4631442046FFF7D0FE9D
:103470000028F1D0002100910B4632462046FFF78C
:1034800055FF0028E8D14FF0500383F31188BFF3B4
:103490006F8FBFF34F8FFEE71C11002070B582B015
:1034A00006460C46FFF7F8FB01A8FFF7B1FF019BAA
:1034B0002BBB05460CB9B0421AD22CB1124B1B687B
:1034C0001C68B4FA84F464092246711B0F4B186817
:1034D000FFF77AF9FFF77AFC98B94FF0E0234FF045
:1034E0008052C3F8042DBFF34F8FBFF36F8F08E0F6
:1034F000FFF76CFC29463046FFF7A0FF01E0FFF71D
:1035000065FC02B070BD00BF2011002040120020F9
:1035100010B588B002E0049B002B0FDA002204A94A
:10352000384B1868FFF78CF8002869D0049B002BF3
:10353000F1DA07990698059B9847ECE7069C6369C2
:1035400013B1201DFEF703FE03A8FFF761FF049BE4
:10355000092BE3D801A252F823F000BF85350008FB
:1035600085350008853500081D350008CB35000875
:10357000F135000885350008853500081D3500083F
:10358000CB350008059BA169024619442046FFF788
:103590003FFE0028C2D0636A20469847E369012BAA
:1035A000BCD1A269002100910B4605980244204637
:1035B000FFF7BCFE0028B1D14FF0500383F3118810
:1035C000BFF36F8FBFF34F8FFEE70599A16131B154
:1035D0000346024601442046FFF71AFE9EE74FF0DD
:1035E000500383F31188BFF36F8FBFF34F8FFEE754
:1035F00094F82C30002B91D1204600F0E3F98DE7B0
:1036000008B010BD4012002000B583B001A8FFF73C
:10361000EFFD0199FFF742FFFFF77AFFF6E70000A1
:10362000EFF3058393B9EFF3108393B90C4B18684C
:10363000022804D080B90A4B01221A607047EFF3C8
:103640001183002BF6D06FF0050070476FF0050076
:1036500070476FF0050070474FF0FF30704700BFB4
:10366000A414002008B5EFF30583B3B9EFF310837A
:10367000B3B90E4B1B68022B08D0012B13D10B4B97
:1036800002221A60FFF7BAFA002008BDEFF3118298
:10369000002AF2D06FF00500F7E76FF00500F4E7BD
:1036A0006FF00500F1E74FF0FF30EEE7A4140020C3
:1036B000F0B587B000240494EFF30584002C43D1C7
:1036C000EFF31083002B3FD1334B1B68022B16D036
:1036D000002839D000238DF8173062B3156895B1F2
:1036E000936903B918235C1E372C51D8546814F021
:1036F000010F4FD156694EB14FEA960C08E0EFF337
:1037000011830BBBE4E70DF11705E9E74FF0800CDF
:1037100094682CB1D7685B2F02D9176907B1B6B985
:1037200014B14FF0FF340CE0D46894B914699CB123
:103730004FF0FF3405E0002418234FF0800C0DF10A
:103740001705012C0AD0ACB1049807B0F0BD0124D4
:10375000F7E74FF0FF34F4E70024F2E714699268CA
:103760000292019400930B4662462946FFF7D8F96E
:103770000490E9E704AA019200930B461FFA8CF229
:103780002946FFF707FA0128DED000230493DBE780
:103790000020DAE70020D8E7A414002008B5EFF3F2
:1037A0000583A3B9EFF31083A3B90C4B1B68022B5D
:1037B00002D040B9002008BDEFF31183002BF8D0F0
:1037C0006FF00500F7E7FFF77DFB0020F3E76FF0F0
:1037D0000500F0E76FF00500EDE700BFA41400203E
:1037E000034B0360034B0B6080231360704700BFE3
:1037F0004814002048120020034B0360034B0B6069
:103800004FF4807313607047A8180020A81400209C
:10381000124A12F0070F1ED0D11D21F00701C1F589
:10382000406313440A460E4802600021416013447D
:10383000083B23F007030B48036059601960991A8D
:1038400051601360084B1960084B1960084B4FF02A
:1038500000421A6070474FF44063E4E70819002003
:103860001425002004190020102500200C2500201C
:1038700008250020154B1A461B688342FBD351686C
:1038800002EB010C844509D0416800EB010C634553
:1038900009D00360904218D010607047406801441E
:1038A00051601046F0E710B4094C2468A3420AD0D6
:1038B0005B681944416013681B680360904200D044
:1038C000106010BC70470460F8E7704714250020B2
:1038D0000419002070B50546FFF7DEF9344B1B686C
:1038E000A3B1344B1B681D424AD135B1083515F0E0
:1038F000070F02D025F007050835002D42D02E4BCA
:103900001B68AB424DD32D4A146804E0FFF780FFDB
:10391000E7E722461C466368AB4202D22368002BCD
:10392000F7D1234B1B68A3423DD0166808362368A5
:10393000136063685B1B102B10D9601910F0070F20
:1039400008D04FF0500383F31188BFF36F8FBFF39C
:103950004F8FFEE743606560FFF78CFF6268164992
:103960000B689B1A0B60164909688B4201D21449F7
:103970000B60104B1B68134363600023236002E05D
:10398000002600E00026FFF721FA16F0070F0CD002
:103990004FF0500383F31188BFF36F8FBFF34F8F46
:1039A000FEE70026EFE70026EDE7304670BD00BFDA
:1039B00004190020082500200C25002014250020D3
:1039C0001025002080B338B50446A0F1080550F852
:1039D000043C164A1268134208D14FF0500383F397
:1039E0001188BFF36F8FBFF34F8FFEE750F8081CAD
:1039F00041B14FF0500383F31188BFF36F8FBFF3D2
:103A00004F8FFEE723EA020340F8043CFFF744F936
:103A100054F8041C064A13680B4413602846FFF749
:103A200029FFFFF7D3F938BD704700BF08250020F4
:103A30000C25002082B0002301930D4B1B68B3F1CD
:103A4000FF3F08D04FF0500383F31188BFF36F8F0F
:103A5000BFF34F8FFEE74FF0500383F31188BFF39E
:103A60006F8FBFF34F8F019B002BFCD002B07047CC
:103A70000C00002006480068006880F3088862B6E1
:103A800061B6BFF34F8FBFF36F8F00DF00BF000041
:103A900008ED00E04FF0807340F8043C21F0010194
:103AA00040F8081C034B40F80C3C40F8202C4038F0
:103AB000704700BF353A0008000000000000000019
:103AC000074B19680868B0E8F00F80F30988BFF366
:103AD0006F8F4FF0000080F311884EF00D0E70478D
:103AE0001C0C00204FF0500383F31188BFF36F8F3D
:103AF000BFF34F8F0B4A136801331360012B00D0C3
:103B000070474FF0E023D3F8043D13F0FF0FF7D0D8
:103B10004FF0500383F31188BFF36F8FBFF34F8FC4
:103B2000FEE700BF0C000020094B1B6843B94FF0B3
:103B3000500383F31188BFF36F8FBFF34F8FFEE7FE
:103B4000013B034A13600BB983F31188704700BF30
:103B50000C00002000000000000000000000000039
:103B6000EFF30980BFF36F8F0D4B1A6820E9F00F58
:103B700010602DE908404FF0500080F31188FFF7E6
:103B8000C7F94FF0000080F31188BDE808401968BC
:103B90000868B0E8F00F80F30988BFF36F8F7047B3
:103BA0001C0C002008B54FF0500383F31188BFF3BD
:103BB0006F8FBFF34F8FFFF77DF828B14FF0E023F1
:103BC0004FF08052C3F8042D002383F3118808BD01
:103BD0004FF0E022002313619361054B1B680549F8
:103BE000A1FB03139B09013B53610723136170473A
:103BF00008000020D34D621010B582B02A4B1A780D
:103C0000D2B20192FF221A701B78DBB28DF803301A
:103C10009DF8033003F05003244A1370244B07220D
:103C20001A6009E0224A1368013B13609DF80330D3
:103C30005B00DBB28DF803309DF8033013F0800F8A
:103C4000F0D11B4B1B68032B08D04FF0500383F3BC
:103C50001188BFF36F8FBFF34F8FFEE71B02144A2B
:103C6000136003F4E0631360019BDBB20E4A137030
:103C70004FF0E023D3F8202D42F47002C3F8202D3A
:103C8000D3F8202D42F07042C3F8202DFFF7A0FF9B
:103C90000024084B1C60FFF7EDFEFFF739F9FFF732
:103CA000C9FE204602B010BD00E400E01C25002043
:103CB000202500200C000020EFF305830F2B0FD9E7
:103CC000114A9B5CDBB2114A12789A4208D94FF034
:103CD000500383F31188BFF36F8FBFF34F8FFEE75D
:103CE0004FF0E023D3F80C3D03F4E063084A126878
:103CF000934208D94FF0500383F31188BFF36F8FBD
:103D0000BFF34F8FFEE77047F0E300E01C25002073
:103D1000202500200C480D490D4A002302E0D4580C
:103D2000C4500433C4188C42F9D30A4A0A4C002305
:103D300001E013600432A242FBD3FEF7D5F9FCF791
:103D40002BFAFCF755FB7047000000201000002004
:103D5000F43D00081000002024250020FEE70000AC
:103D6000F8B500BFF8BC08BC9E467047F8B500BF68
:083D7000F8BC08BC9E46704738
:103D780064656661756C745461736B00783D000806
:103D8800000000008C0900205C0000002C000020CE
:103D9800600900001800000000000000000000009A
:103DA80002030405060708090A0B0C0D0E0F101074
:103DB80000000000000000000000000001020304F1
:103DC80006070809000000000102030449444C45A5
:103DD80000000000546D725100000000546D722004
:043DE80053766300AB
:043DEC007901000851
:043DF0005101000875
:103DF40001000000100000000024F400AAAAAAAAEE
:0400000508003D159D
:00000001FF
